{
  "_format": "hh-sol-artifact-1",
  "contractName": "Treasury",
  "sourceName": "contracts/Treasury.sol",
  "abi": [
    {
      "inputs": [],
      "stateMutability": "nonpayable",
      "type": "constructor"
    },
    {
      "inputs": [
        {
          "internalType": "uint256",
          "name": "agentId",
          "type": "uint256"
        }
      ],
      "name": "AgentNotKnown",
      "type": "error"
    },
    {
      "inputs": [
        {
          "internalType": "address",
          "name": "asset",
          "type": "address"
        },
        {
          "internalType": "uint256",
          "name": "requested",
          "type": "uint256"
        },
        {
          "internalType": "uint256",
          "name": "available",
          "type": "uint256"
        }
      ],
      "name": "InsufficientRewards",
      "type": "error"
    },
    {
      "inputs": [],
      "name": "InvalidAddress",
      "type": "error"
    },
    {
      "inputs": [],
      "name": "InvalidBps",
      "type": "error"
    },
    {
      "anonymous": false,
      "inputs": [
        {
          "indexed": false,
          "internalType": "address",
          "name": "previousAdmin",
          "type": "address"
        },
        {
          "indexed": false,
          "internalType": "address",
          "name": "newAdmin",
          "type": "address"
        }
      ],
      "name": "AdminChanged",
      "type": "event"
    },
    {
      "anonymous": false,
      "inputs": [
        {
          "indexed": true,
          "internalType": "address",
          "name": "beacon",
          "type": "address"
        }
      ],
      "name": "BeaconUpgraded",
      "type": "event"
    },
    {
      "anonymous": false,
      "inputs": [
        {
          "indexed": false,
          "internalType": "uint16",
          "name": "treasuryBps",
          "type": "uint16"
        },
        {
          "indexed": false,
          "internalType": "uint16",
          "name": "insuranceBps",
          "type": "uint16"
        },
        {
          "indexed": false,
          "internalType": "uint16",
          "name": "rewardsBps",
          "type": "uint16"
        }
      ],
      "name": "DistributionUpdated",
      "type": "event"
    },
    {
      "anonymous": false,
      "inputs": [
        {
          "indexed": true,
          "internalType": "uint256",
          "name": "agentId",
          "type": "uint256"
        },
        {
          "indexed": true,
          "internalType": "address",
          "name": "asset",
          "type": "address"
        },
        {
          "indexed": false,
          "internalType": "uint256",
          "name": "amount",
          "type": "uint256"
        },
        {
          "indexed": false,
          "internalType": "uint256",
          "name": "treasuryShare",
          "type": "uint256"
        },
        {
          "indexed": false,
          "internalType": "uint256",
          "name": "insuranceShare",
          "type": "uint256"
        },
        {
          "indexed": false,
          "internalType": "uint256",
          "name": "rewardsShare",
          "type": "uint256"
        }
      ],
      "name": "EarlyExitHandled",
      "type": "event"
    },
    {
      "anonymous": false,
      "inputs": [
        {
          "indexed": false,
          "internalType": "uint8",
          "name": "version",
          "type": "uint8"
        }
      ],
      "name": "Initialized",
      "type": "event"
    },
    {
      "anonymous": false,
      "inputs": [
        {
          "indexed": true,
          "internalType": "bytes32",
          "name": "pool",
          "type": "bytes32"
        },
        {
          "indexed": true,
          "internalType": "address",
          "name": "asset",
          "type": "address"
        },
        {
          "indexed": true,
          "internalType": "address",
          "name": "to",
          "type": "address"
        },
        {
          "indexed": false,
          "internalType": "uint256",
          "name": "amount",
          "type": "uint256"
        }
      ],
      "name": "PoolWithdrawn",
      "type": "event"
    },
    {
      "anonymous": false,
      "inputs": [
        {
          "indexed": true,
          "internalType": "uint256",
          "name": "agentId",
          "type": "uint256"
        },
        {
          "indexed": true,
          "internalType": "address",
          "name": "asset",
          "type": "address"
        },
        {
          "indexed": true,
          "internalType": "address",
          "name": "recipient",
          "type": "address"
        },
        {
          "indexed": false,
          "internalType": "uint256",
          "name": "amount",
          "type": "uint256"
        },
        {
          "indexed": false,
          "internalType": "string",
          "name": "reason",
          "type": "string"
        }
      ],
      "name": "RewardPaid",
      "type": "event"
    },
    {
      "anonymous": false,
      "inputs": [
        {
          "indexed": true,
          "internalType": "address",
          "name": "source",
          "type": "address"
        },
        {
          "indexed": true,
          "internalType": "address",
          "name": "asset",
          "type": "address"
        },
        {
          "indexed": false,
          "internalType": "uint256",
          "name": "amount",
          "type": "uint256"
        }
      ],
      "name": "RewardsDeposited",
      "type": "event"
    },
    {
      "anonymous": false,
      "inputs": [
        {
          "indexed": true,
          "internalType": "bytes32",
          "name": "role",
          "type": "bytes32"
        },
        {
          "indexed": true,
          "internalType": "bytes32",
          "name": "previousAdminRole",
          "type": "bytes32"
        },
        {
          "indexed": true,
          "internalType": "bytes32",
          "name": "newAdminRole",
          "type": "bytes32"
        }
      ],
      "name": "RoleAdminChanged",
      "type": "event"
    },
    {
      "anonymous": false,
      "inputs": [
        {
          "indexed": true,
          "internalType": "bytes32",
          "name": "role",
          "type": "bytes32"
        },
        {
          "indexed": true,
          "internalType": "address",
          "name": "account",
          "type": "address"
        },
        {
          "indexed": true,
          "internalType": "address",
          "name": "sender",
          "type": "address"
        }
      ],
      "name": "RoleGranted",
      "type": "event"
    },
    {
      "anonymous": false,
      "inputs": [
        {
          "indexed": true,
          "internalType": "bytes32",
          "name": "role",
          "type": "bytes32"
        },
        {
          "indexed": true,
          "internalType": "address",
          "name": "account",
          "type": "address"
        },
        {
          "indexed": true,
          "internalType": "address",
          "name": "sender",
          "type": "address"
        }
      ],
      "name": "RoleRevoked",
      "type": "event"
    },
    {
      "anonymous": false,
      "inputs": [
        {
          "indexed": true,
          "internalType": "uint256",
          "name": "agentId",
          "type": "uint256"
        },
        {
          "indexed": true,
          "internalType": "address",
          "name": "asset",
          "type": "address"
        },
        {
          "indexed": false,
          "internalType": "uint256",
          "name": "amount",
          "type": "uint256"
        },
        {
          "indexed": false,
          "internalType": "uint256",
          "name": "treasuryShare",
          "type": "uint256"
        },
        {
          "indexed": false,
          "internalType": "uint256",
          "name": "insuranceShare",
          "type": "uint256"
        },
        {
          "indexed": false,
          "internalType": "uint256",
          "name": "rewardsShare",
          "type": "uint256"
        }
      ],
      "name": "SlashHandled",
      "type": "event"
    },
    {
      "anonymous": false,
      "inputs": [
        {
          "indexed": true,
          "internalType": "address",
          "name": "implementation",
          "type": "address"
        }
      ],
      "name": "Upgraded",
      "type": "event"
    },
    {
      "inputs": [],
      "name": "DEFAULT_ADMIN_ROLE",
      "outputs": [
        {
          "internalType": "bytes32",
          "name": "",
          "type": "bytes32"
        }
      ],
      "stateMutability": "view",
      "type": "function"
    },
    {
      "inputs": [],
      "name": "INFLOW_ROLE",
      "outputs": [
        {
          "internalType": "bytes32",
          "name": "",
          "type": "bytes32"
        }
      ],
      "stateMutability": "view",
      "type": "function"
    },
    {
      "inputs": [],
      "name": "REWARDS_ROLE",
      "outputs": [
        {
          "internalType": "bytes32",
          "name": "",
          "type": "bytes32"
        }
      ],
      "stateMutability": "view",
      "type": "function"
    },
    {
      "inputs": [],
      "name": "WITHDRAW_ROLE",
      "outputs": [
        {
          "internalType": "bytes32",
          "name": "",
          "type": "bytes32"
        }
      ],
      "stateMutability": "view",
      "type": "function"
    },
    {
      "inputs": [],
      "name": "agents",
      "outputs": [
        {
          "internalType": "contract IAgentsRegistry",
          "name": "",
          "type": "address"
        }
      ],
      "stateMutability": "view",
      "type": "function"
    },
    {
      "inputs": [
        {
          "internalType": "uint256",
          "name": "agentId",
          "type": "uint256"
        },
        {
          "internalType": "address",
          "name": "asset",
          "type": "address"
        },
        {
          "internalType": "uint256",
          "name": "amount",
          "type": "uint256"
        },
        {
          "internalType": "address",
          "name": "recipient",
          "type": "address"
        },
        {
          "internalType": "string",
          "name": "reason",
          "type": "string"
        }
      ],
      "name": "distributeReward",
      "outputs": [],
      "stateMutability": "nonpayable",
      "type": "function"
    },
    {
      "inputs": [],
      "name": "distribution",
      "outputs": [
        {
          "internalType": "uint16",
          "name": "treasuryBps",
          "type": "uint16"
        },
        {
          "internalType": "uint16",
          "name": "insuranceBps",
          "type": "uint16"
        },
        {
          "internalType": "uint16",
          "name": "rewardsBps",
          "type": "uint16"
        }
      ],
      "stateMutability": "view",
      "type": "function"
    },
    {
      "inputs": [
        {
          "internalType": "bytes32",
          "name": "role",
          "type": "bytes32"
        }
      ],
      "name": "getRoleAdmin",
      "outputs": [
        {
          "internalType": "bytes32",
          "name": "",
          "type": "bytes32"
        }
      ],
      "stateMutability": "view",
      "type": "function"
    },
    {
      "inputs": [
        {
          "internalType": "bytes32",
          "name": "role",
          "type": "bytes32"
        },
        {
          "internalType": "address",
          "name": "account",
          "type": "address"
        }
      ],
      "name": "grantRole",
      "outputs": [],
      "stateMutability": "nonpayable",
      "type": "function"
    },
    {
      "inputs": [
        {
          "internalType": "uint256",
          "name": "agentId",
          "type": "uint256"
        },
        {
          "internalType": "address",
          "name": "asset",
          "type": "address"
        },
        {
          "internalType": "uint256",
          "name": "amount",
          "type": "uint256"
        }
      ],
      "name": "handleEarlyExitPenalty",
      "outputs": [],
      "stateMutability": "payable",
      "type": "function"
    },
    {
      "inputs": [
        {
          "internalType": "uint256",
          "name": "agentId",
          "type": "uint256"
        },
        {
          "internalType": "address",
          "name": "asset",
          "type": "address"
        },
        {
          "internalType": "uint256",
          "name": "amount",
          "type": "uint256"
        }
      ],
      "name": "handleSlash",
      "outputs": [],
      "stateMutability": "payable",
      "type": "function"
    },
    {
      "inputs": [
        {
          "internalType": "bytes32",
          "name": "role",
          "type": "bytes32"
        },
        {
          "internalType": "address",
          "name": "account",
          "type": "address"
        }
      ],
      "name": "hasRole",
      "outputs": [
        {
          "internalType": "bool",
          "name": "",
          "type": "bool"
        }
      ],
      "stateMutability": "view",
      "type": "function"
    },
    {
      "inputs": [
        {
          "internalType": "address",
          "name": "admin",
          "type": "address"
        },
        {
          "internalType": "address",
          "name": "agentsRegistry",
          "type": "address"
        }
      ],
      "name": "initialize",
      "outputs": [],
      "stateMutability": "nonpayable",
      "type": "function"
    },
    {
      "inputs": [
        {
          "internalType": "address",
          "name": "asset",
          "type": "address"
        }
      ],
      "name": "poolBalances",
      "outputs": [
        {
          "components": [
            {
              "internalType": "uint256",
              "name": "treasury",
              "type": "uint256"
            },
            {
              "internalType": "uint256",
              "name": "insurance",
              "type": "uint256"
            },
            {
              "internalType": "uint256",
              "name": "rewards",
              "type": "uint256"
            }
          ],
          "internalType": "struct Treasury.PoolBalances",
          "name": "",
          "type": "tuple"
        }
      ],
      "stateMutability": "view",
      "type": "function"
    },
    {
      "inputs": [],
      "name": "proxiableUUID",
      "outputs": [
        {
          "internalType": "bytes32",
          "name": "",
          "type": "bytes32"
        }
      ],
      "stateMutability": "view",
      "type": "function"
    },
    {
      "inputs": [
        {
          "internalType": "address",
          "name": "asset",
          "type": "address"
        },
        {
          "internalType": "uint256",
          "name": "amount",
          "type": "uint256"
        }
      ],
      "name": "recordRewardDeposit",
      "outputs": [],
      "stateMutability": "payable",
      "type": "function"
    },
    {
      "inputs": [
        {
          "internalType": "bytes32",
          "name": "role",
          "type": "bytes32"
        },
        {
          "internalType": "address",
          "name": "account",
          "type": "address"
        }
      ],
      "name": "renounceRole",
      "outputs": [],
      "stateMutability": "nonpayable",
      "type": "function"
    },
    {
      "inputs": [
        {
          "internalType": "bytes32",
          "name": "role",
          "type": "bytes32"
        },
        {
          "internalType": "address",
          "name": "account",
          "type": "address"
        }
      ],
      "name": "revokeRole",
      "outputs": [],
      "stateMutability": "nonpayable",
      "type": "function"
    },
    {
      "inputs": [
        {
          "internalType": "address",
          "name": "asset",
          "type": "address"
        }
      ],
      "name": "rewardsBalance",
      "outputs": [
        {
          "internalType": "uint256",
          "name": "",
          "type": "uint256"
        }
      ],
      "stateMutability": "view",
      "type": "function"
    },
    {
      "inputs": [
        {
          "internalType": "address",
          "name": "newAgents",
          "type": "address"
        }
      ],
      "name": "setAgents",
      "outputs": [],
      "stateMutability": "nonpayable",
      "type": "function"
    },
    {
      "inputs": [
        {
          "internalType": "uint16",
          "name": "treasuryBps",
          "type": "uint16"
        },
        {
          "internalType": "uint16",
          "name": "insuranceBps",
          "type": "uint16"
        },
        {
          "internalType": "uint16",
          "name": "rewardsBps",
          "type": "uint16"
        }
      ],
      "name": "setDistribution",
      "outputs": [],
      "stateMutability": "nonpayable",
      "type": "function"
    },
    {
      "inputs": [
        {
          "internalType": "bytes4",
          "name": "interfaceId",
          "type": "bytes4"
        }
      ],
      "name": "supportsInterface",
      "outputs": [
        {
          "internalType": "bool",
          "name": "",
          "type": "bool"
        }
      ],
      "stateMutability": "view",
      "type": "function"
    },
    {
      "inputs": [
        {
          "internalType": "address",
          "name": "newImplementation",
          "type": "address"
        }
      ],
      "name": "upgradeTo",
      "outputs": [],
      "stateMutability": "nonpayable",
      "type": "function"
    },
    {
      "inputs": [
        {
          "internalType": "address",
          "name": "newImplementation",
          "type": "address"
        },
        {
          "internalType": "bytes",
          "name": "data",
          "type": "bytes"
        }
      ],
      "name": "upgradeToAndCall",
      "outputs": [],
      "stateMutability": "payable",
      "type": "function"
    },
    {
      "inputs": [
        {
          "internalType": "address",
          "name": "asset",
          "type": "address"
        },
        {
          "internalType": "uint256",
          "name": "amount",
          "type": "uint256"
        },
        {
          "internalType": "address",
          "name": "to",
          "type": "address"
        }
      ],
      "name": "withdrawInsurance",
      "outputs": [],
      "stateMutability": "nonpayable",
      "type": "function"
    },
    {
      "inputs": [
        {
          "internalType": "address",
          "name": "asset",
          "type": "address"
        },
        {
          "internalType": "uint256",
          "name": "amount",
          "type": "uint256"
        },
        {
          "internalType": "address",
          "name": "to",
          "type": "address"
        }
      ],
      "name": "withdrawTreasury",
      "outputs": [],
      "stateMutability": "nonpayable",
      "type": "function"
    }
  ],
  "bytecode": "0x60a08060405234620000e157306080526000549060ff8260081c166200008f575060ff8082161062000053575b6040516137bf9081620000e782396080518181816113dc015281816115af0152611ed90152f35b60ff90811916176000557f7f26b83ff96e1f2b6a682f133852f6798a09c465da95921460cefb3847402498602060405160ff8152a1386200002c565b62461bcd60e51b815260206004820152602760248201527f496e697469616c697a61626c653a20636f6e747261637420697320696e697469604482015266616c697a696e6760c81b6064820152608490fd5b600080fdfe60806040908082526004918236101561001757600080fd5b600091823560e01c90816301ffc9a71461248457508063248a9ca31461243b5780632f2ff15d1461234757806336568abe146122635780633659cfe614611e86578063485cc9551461192f5780634f1ef2861461150857806351a8528e146114b057806352d1902d146113935780635671814514610d1f5780635851666114610ccc5780635ee58efc14610c6e578063644f861b14610bba578063722e5c8b14610af757806378cfaf3f14610a90578063862a672e146108de578063896bdac8146108795780639155ccc8146107cb57806391d148541461075a578063a217fddf14610722578063a2c97f6914610559578063ca4fb87c14610501578063d547741f146104a0578063e02023a114610448578063e772eaa7146102ae5763e8f83a431461014357600080fd5b346102aa5760607ffffffffffffffffffffffffffffffffffffffffffffffffffffffffffffffffc3601126102aa57823561ffff918282168083036102a657602435938085168086036102a2576044359782891692838a0361029e57612710906101ab612722565b6101be8b6101b98b8b6133e4565b6133e4565b16036102775750918391827ff4c71f4604fcecc5e59cfd9c92f2e22f57dfcb9dd4110c537fe6a9eb3a3de34b9899946102719651906101fc8261258c565b8482526020820152015261012d908154907fffffffffffffffffffffffffffffffffffffffffffffffffffff00000000000065ffff000000008660201b1692161763ffff00008860101b16171790555193849384916040919493606084019561ffff9283809216865216602085015216910152565b0390a180f35b84517fc6cc5d7f000000000000000000000000000000000000000000000000000000008152fd5b8880fd5b8680fd5b8480fd5b5080fd5b50826102b93661266e565b9391926102c4612999565b84156103eb575073ffffffffffffffffffffffffffffffffffffffff16927f250a574e48cbb2f058d66f23a3d46a07cccaec2b54c535cb5d5b6130f085d5d09190846103dc576103158134146133fa565b6103d68251926103248461258c565b61035c61036661012d549561ffff90818816908181528583602083019a818160101c168c5260201c1691015261271093849188613155565b0496511685613155565b0461037a816103758787613541565b613541565b91888a5261012f6020526002818b20610394888254613197565b8155600181016103a5858254613197565b9055016103b3848254613197565b905551948594859094939260609260808301968352602083015260408201520152565b0390a380f35b6103e6341561345f565b610315565b60649060208451917f08c379a0000000000000000000000000000000000000000000000000000000008352820152600b60248201527f5a45524f5f414d4f554e540000000000000000000000000000000000000000006044820152fd5b50346102aa57817ffffffffffffffffffffffffffffffffffffffffffffffffffffffffffffffffc3601126102aa57602090517f5d8e12c39142ff96d79d04d15d1ba1269e4fe57bb9d26f43523628b34ba108ec8152f35b508290346104fd57807ffffffffffffffffffffffffffffffffffffffffffffffffffffffffffffffffc3601126104fd576104fa91356104f560016104e3612541565b93838752606560205286200154612c87565b612e2f565b80f35b8280fd5b50346102aa57817ffffffffffffffffffffffffffffffffffffffffffffffffffffffffffffffffc3601126102aa57602090517f5407862f04286ebe607684514c14b7fffc750b6bf52ba44ea49569174845a5bd8152f35b508290346104fd5761056a366126c3565b90939161057c600260975414156134c4565b6002609755610589612b10565b73ffffffffffffffffffffffffffffffffffffffff8091169182875261012f9384602052600186892001549282169283156106c55787116106685750916001939161064f9593878315600014610659576105f491508980808093865af16105ee6130d3565b5061354e565b817f494e535552414e434500000000000000000000000000000000000000000000007f1e231c01155fb54ec9c6bc3f0b7ccd13218314fb614e02443b5b064993786083602087518b8152a48652602052842001918254613541565b9055600160975580f35b61066391846135b3565b6105f4565b60649060208751917f08c379a0000000000000000000000000000000000000000000000000000000008352820152601060248201527f494e53554646494349454e545f42414c000000000000000000000000000000006044820152fd5b60648260208951917f08c379a0000000000000000000000000000000000000000000000000000000008352820152600a60248201527f494e56414c49445f544f000000000000000000000000000000000000000000006044820152fd5b50346102aa57817ffffffffffffffffffffffffffffffffffffffffffffffffffffffffffffffffc3601126102aa5751908152602090f35b5082346104fd57817ffffffffffffffffffffffffffffffffffffffffffffffffffffffffffffffffc3601126104fd578160209360ff92610799612541565b903582526065865273ffffffffffffffffffffffffffffffffffffffff83832091168252855220541690519015158152f35b50346102aa5760207ffffffffffffffffffffffffffffffffffffffffffffffffffffffffffffffffc3601126102aa578060609273ffffffffffffffffffffffffffffffffffffffff61081c612569565b828480516108298161258c565b828152826020820152015216815261012f6020522090805161084a8161258c565b825492838252826002600183015492602085019384520154920191825282519384525160208401525190820152f35b50346102aa5760207ffffffffffffffffffffffffffffffffffffffffffffffffffffffffffffffffc3601126102aa5760028160209373ffffffffffffffffffffffffffffffffffffffff6108cc612569565b16815261012f85522001549051908152f35b5091346102aa576108ee366126c3565b9491610902600260979593955414156134c4565b600260975561090f612b10565b73ffffffffffffffffffffffffffffffffffffffff8091169081865261012f928360205284872054918816918215610a335786116109d6575084959661064f9583156000146109c75761096d91508880808093865af16105ee6130d3565b817f54524541535552590000000000000000000000000000000000000000000000007f1e231c01155fb54ec9c6bc3f0b7ccd13218314fb614e02443b5b064993786083602087518a8152a485526020528320918254613541565b6109d191846135b3565b61096d565b60649060208651917f08c379a0000000000000000000000000000000000000000000000000000000008352820152601060248201527f494e53554646494349454e545f42414c000000000000000000000000000000006044820152fd5b60648260208851917f08c379a0000000000000000000000000000000000000000000000000000000008352820152600a60248201527f494e56414c49445f544f000000000000000000000000000000000000000000006044820152fd5b5082610a9b3661266e565b939192610aa6612999565b84156103eb575073ffffffffffffffffffffffffffffffffffffffff16927f0b429493f733653c7becdf8b7730f2fd113842ca05bda9c07b6d333706c4209b9190846103dc576103158134146133fa565b50807ffffffffffffffffffffffffffffffffffffffffffffffffffffffffffffffffc3601126102aa57610b29612569565b73ffffffffffffffffffffffffffffffffffffffff602435911691821580610baa575b15610b9b575b82845261012f602052600281852001610b6c838254613197565b9055519081527fd66544dd5ed3eb02982a905e9b45d8eecc72f6af1db4d34d43d4f774307eda5160203392a380f35b610ba5341561345f565b610b52565b610bb58334146133fa565b610b4c565b5082346104fd5760207ffffffffffffffffffffffffffffffffffffffffffffffffffffffffffffffffc3601126104fd5773ffffffffffffffffffffffffffffffffffffffff610c08612569565b610c10612722565b16918215610c4857505061012e907fffffffffffffffffffffffff000000000000000000000000000000000000000082541617905580f35b517fe6c4247b000000000000000000000000000000000000000000000000000000008152fd5b50346102aa57817ffffffffffffffffffffffffffffffffffffffffffffffffffffffffffffffffc3601126102aa5761012d54905161ffff8083168252601083901c81166020808401919091529290921c9091166040820152606090f35b50346102aa57817ffffffffffffffffffffffffffffffffffffffffffffffffffffffffffffffffc3601126102aa5760209073ffffffffffffffffffffffffffffffffffffffff61012e54169051908152f35b50346102aa5760a07ffffffffffffffffffffffffffffffffffffffffffffffffffffffffffffffffc3601126102aa578235610d59612541565b936044359060643573ffffffffffffffffffffffffffffffffffffffff9182821695868303610fe0576084359167ffffffffffffffff9788841161138f573660238501121561138f578382013598891161138f5760249436868b8701011161138b57908a969594939291610dd2600260975414156134c4565b60026097557f5407862f04286ebe607684514c14b7fffc750b6bf52ba44ea49569174845a5bd80895260ff8560209a60658c528181203382528c52205416156110f4575061012e9187835416898c898851809481937f9d18755d0000000000000000000000000000000000000000000000000000000083528a8301525afa9081156110e8578e916110bb575b501561108d576002858e9f9d9e9d8a169d8e815261012f8c52200180548b8110611052578f959492938f91948f938f968f610e9891613541565b9055610ff5575050509086888a93541693865194859384927f6f6bf1180000000000000000000000000000000000000000000000000000000084528301525afa908115610feb57918a9593918c95938291610f99575b509360609793868b98947fffffffffffffffffffffffffffffffffffffffffffffffffffffffffffffffe098947fd4ae134e3b7ae25cdd5195e6206c60d90505a0e8f795cfdc23e970262506afc99d601f9980985b80610f8a575091808080938c610f5e96165af16105ee6130d3565b8080519c8d9b8c528b015289015201878701378b868c87010152169801168101030190a4600160975580f35b610f9493506135b3565b610f5e565b929497939550509794508681813d8311610fe4575b610fb881836125f3565b81010312610fe05751918183168303610fe0579396909489948b949193919290916060610eee565b8780fd5b503d610fae565b83513d84823e3d90fd5b7fffffffffffffffffffffffffffffffffffffffffffffffffffffffffffffffe0989295508194508c9993509660609a967fd4ae134e3b7ae25cdd5195e6206c60d90505a0e8f795cfdc23e970262506afc99d601f998098610f43565b856064918f8b8f918b51947fb42724150000000000000000000000000000000000000000000000000000000086528501528301526044820152fd5b86848c8751917f0fed9564000000000000000000000000000000000000000000000000000000008352820152fd5b6110db91508a3d8c116110e1575b6110d381836125f3565b810190613529565b38610e5e565b503d6110c9565b8e8751903d90823e3d90fd5b83898e898894611103336131e4565b9091865192611111846125d7565b6042845285840194606036873784511561136057603086538451906001918210156113355790607860218701536041915b81831161126f5750505061121457506112109386936111e2936111d360489461119e9a519a857f416363657373436f6e74726f6c3a206163636f756e74200000000000000000008d978801528251928391603789019101612dc2565b8401917f206973206d697373696e6720726f6c6520000000000000000000000000000000603784015251809386840190612dc2565b010360288101875201856125f3565b519283927f08c379a00000000000000000000000000000000000000000000000000000000084528301612de5565b0390fd5b925050508160649451937f08c379a00000000000000000000000000000000000000000000000000000000085528401528201527f537472696e67733a20686578206c656e67746820696e73756666696369656e746044820152fd5b909192600f8116601081101561130a577f3031323334353637383961626364656600000000000000000000000000000000901a6112ac85896131a4565b53891c9280156112df577fffffffffffffffffffffffffffffffffffffffffffffffffffffffffffffffff019190611142565b848260118c7f4e487b7100000000000000000000000000000000000000000000000000000000835252fd5b858360328d7f4e487b7100000000000000000000000000000000000000000000000000000000835252fd5b8060328a7f4e487b710000000000000000000000000000000000000000000000000000000087945252fd5b90506032877f4e487b7100000000000000000000000000000000000000000000000000000000835252fd5b8a80fd5b8980fd5b509190346114ad57807ffffffffffffffffffffffffffffffffffffffffffffffffffffffffffffffffc3601126114ad575073ffffffffffffffffffffffffffffffffffffffff7f000000000000000000000000000000000000000000000000000000000000000016300361142b57602082517f360894a13ba1a3210667c828492db98dca3e2076cc3735a920a3ca505d382bbc8152f35b602060849251917f08c379a0000000000000000000000000000000000000000000000000000000008352820152603860248201527f555550535570677261646561626c653a206d757374206e6f742062652063616c60448201527f6c6564207468726f7567682064656c656761746563616c6c00000000000000006064820152fd5b80fd5b50346102aa57817ffffffffffffffffffffffffffffffffffffffffffffffffffffffffffffffffc3601126102aa57602090517f57c9e9c867b58c7f873f9ce933fc28574c90e37009e64addc3e3b1f61cd635d28152f35b508083917ffffffffffffffffffffffffffffffffffffffffffffffffffffffffffffffffc3601126104fd5761153c612569565b9160249182359067ffffffffffffffff821161192b573660238301121561192b578183013561156a81612634565b611576835191826125f3565b8181528760209485830193368982840101116104fd57808988930186378301015273ffffffffffffffffffffffffffffffffffffffff807f000000000000000000000000000000000000000000000000000000000000000016906115dc82301415612ed1565b61160b7f360894a13ba1a3210667c828492db98dca3e2076cc3735a920a3ca505d382bbc928284541614612f5c565b611613612722565b7f4910fdfa16fed3260ed0e7147f7cc6da11a60208b5b9406d12a635614ffd91435460ff161561164e5750505050505050506104fa90612fe7565b88959799949698169086517f52d1902d00000000000000000000000000000000000000000000000000000000815288818b81865afa8691816118fc575b506117115760848a602e8d8c8c51937f08c379a00000000000000000000000000000000000000000000000000000000085528401528201527f45524331393637557067726164653a206e657720696d706c656d656e7461746960448201527f6f6e206973206e6f7420555550530000000000000000000000000000000000006064820152fd5b99929498919395990361187c5761172789612fe7565b8551927fbc7cd75a20ee27fd9adebab32041f755214dbc6bffa90cc0225b39da2e5c2d3b8980a2835115801590611874575b61176a575b50505050505050905080f35b883b156117f55750505093809581926117e79651915af47f206661696c6564000000000000000000000000000000000000000000000000006117aa6130d3565b927f416464726573733a206c6f772d6c6576656c2064656c65676174652063616c6c8151956117d88761258c565b60278752860152840152613103565b50808280808080808061175e565b8291876026927f08c379a000000000000000000000000000000000000000000000000000000000608496528401528201527f416464726573733a2064656c65676174652063616c6c20746f206e6f6e2d636f60448201527f6e747261637400000000000000000000000000000000000000000000000000006064820152fd5b506001611759565b6029608492888851937f08c379a00000000000000000000000000000000000000000000000000000000085528401528201527f45524331393637557067726164653a20756e737570706f727465642070726f7860448201527f6961626c655555494400000000000000000000000000000000000000000000006064820152fd5b9091508981813d8311611924575b61191481836125f3565b810103126102a25751908c61168b565b503d61190a565b8580fd5b5082346104fd57817ffffffffffffffffffffffffffffffffffffffffffffffffffffffffffffffffc3601126104fd57611967612569565b61196f612541565b91845460ff92838260081c161593848095611e7a575b8015611e64575b15611de1576001957fffffffffffffffffffffffffffffffffffffffffffffffffffffffffffffff00938688868316178b55611db3575b5073ffffffffffffffffffffffffffffffffffffffff8093169485158015611da9575b611d8257509181888a878a829b9a9997611a26849a98855460081c16611a0b81613359565b611a1481613359565b611a1d81613359565b83609755613359565b83805260659660209d8e96898852808220868352885288818320541615611d3d575b897f5407862f04286ebe607684514c14b7fffc750b6bf52ba44ea49569174845a5bd98898452528481832001908282549255827fbd79b86ffe0ab8e8776151514217cd7cacd52c909f66475c3af44e129f0b00ff928a848380a47f5d8e12c39142ff96d79d04d15d1ba1269e4fe57bb9d26f43523628b34ba108ec9d8e8082528783832001908282549255848380a47f57c9e9c867b58c7f873f9ce933fc28574c90e37009e64addc3e3b1f61cd635d29586918285528420019183835493558380a461012e911681547fffffffffffffffffffffffff0000000000000000000000000000000000000000161790558b8d808051611b448161258c565b610fa093848252610bb8809483828481960152015261012d80547fffffffffffffffffffffffffffffffffffffffffffffffffffff00000000000016650bb80bb80fa0179055825194855284015282015260607ff4c71f4604fcecc5e59cfd9c92f2e22f57dfcb9dd4110c537fe6a9eb3a3de34b91a1808352858c528c83208284528c52848d8420541615611cf7575b5050819052828952898b20858c528952818a8c20541615611cb1575b50848a52818852888a20848b528852888a20541615611c6a575b50505050611c16578380f35b7f7f26b83ff96e1f2b6a682f133852f6798a09c465da95921460cefb3847402498927fffffffffffffffffffffffffffffffffffffffffffffffffffffffffffff00ff855416855551908152a18180808380f35b83895286528688208289528652848789209182541617905533917f2f8788117e7eff1d82e926ec794901d17c78024a50270940304540a733656f0d8880a485808080611c0a565b808b52828952898b20858c528952898b2088858254161790558433917f2f8788117e7eff1d82e926ec794901d17c78024a50270940304540a733656f0d8d80a48a611bf0565b808352858c528c83208284528c528c83208b888254161790557f2f8788117e7eff1d82e926ec794901d17c78024a50270940304540a733656f0d339380a48a858d611bd4565b8180528988528082208683528852808220858c8254161790553386837f2f8788117e7eff1d82e926ec794901d17c78024a50270940304540a733656f0d8180a4611a48565b88517fe6c4247b000000000000000000000000000000000000000000000000000000008152fd5b50838216156119e6565b7fffffffffffffffffffffffffffffffffffffffffffffffffffffffffffff000016610101178955896119c3565b60848460208951917f08c379a0000000000000000000000000000000000000000000000000000000008352820152602e60248201527f496e697469616c697a61626c653a20636f6e747261637420697320616c72656160448201527f647920696e697469616c697a65640000000000000000000000000000000000006064820152fd5b50303b15801561198c575060018184161461198c565b50600181841610611985565b5082346104fd576020807ffffffffffffffffffffffffffffffffffffffffffffffffffffffffffffffffc36011261225f57611ec0612569565b9273ffffffffffffffffffffffffffffffffffffffff807f000000000000000000000000000000000000000000000000000000000000000016611f0581301415612ed1565b611f347f360894a13ba1a3210667c828492db98dca3e2076cc3735a920a3ca505d382bbc918383541614612f5c565b611f3c612722565b8251908482019282841067ffffffffffffffff851117612233578385528883527f4910fdfa16fed3260ed0e7147f7cc6da11a60208b5b9406d12a635614ffd91435460ff1615611f9657505050505050506104fa90612fe7565b879894959697169085517f52d1902d00000000000000000000000000000000000000000000000000000000815287818a81865afa869181612204575b5061205957608489898951917f08c379a0000000000000000000000000000000000000000000000000000000008352820152602e60248201527f45524331393637557067726164653a206e657720696d706c656d656e7461746960448201527f6f6e206973206e6f7420555550530000000000000000000000000000000000006064820152fd5b979192939497036121825761206d88612fe7565b8451917fbc7cd75a20ee27fd9adebab32041f755214dbc6bffa90cc0225b39da2e5c2d3b8880a282511580159061217b575b6120af575b505050505050905080f35b873b156120fb57505093809581926120ee9651915af47f206661696c6564000000000000000000000000000000000000000000000000006117aa6130d3565b50808280808080806120a4565b90856084927f08c379a0000000000000000000000000000000000000000000000000000000008352820152602660248201527f416464726573733a2064656c65676174652063616c6c20746f206e6f6e2d636f60448201527f6e747261637400000000000000000000000000000000000000000000000000006064820152fd5b508661209f565b608490868651917f08c379a0000000000000000000000000000000000000000000000000000000008352820152602960248201527f45524331393637557067726164653a20756e737570706f727465642070726f7860448201527f6961626c655555494400000000000000000000000000000000000000000000006064820152fd5b9091508881813d831161222c575b61221c81836125f3565b810103126102a25751908b611fd2565b503d612212565b6024896041897f4e487b7100000000000000000000000000000000000000000000000000000000835252fd5b8380fd5b5091346102aa57827ffffffffffffffffffffffffffffffffffffffffffffffffffffffffffffffffc3601126102aa5761229b612541565b903373ffffffffffffffffffffffffffffffffffffffff8316036122c457906104fa9135612e2f565b60849060208551917f08c379a0000000000000000000000000000000000000000000000000000000008352820152602f60248201527f416363657373436f6e74726f6c3a2063616e206f6e6c792072656e6f756e636560448201527f20726f6c657320666f722073656c6600000000000000000000000000000000006064820152fd5b5082346104fd57817ffffffffffffffffffffffffffffffffffffffffffffffffffffffffffffffffc3601126104fd573590612381612541565b90828452606560205261239960018286200154612c87565b828452606560205273ffffffffffffffffffffffffffffffffffffffff81852092169182855260205260ff8185205416156123d2578380f35b8284526065602052808420828552602052832060017fffffffffffffffffffffffffffffffffffffffffffffffffffffffffffffff0082541617905533917f2f8788117e7eff1d82e926ec794901d17c78024a50270940304540a733656f0d8480a48180808380f35b5082346104fd5760207ffffffffffffffffffffffffffffffffffffffffffffffffffffffffffffffffc3601126104fd5781602093600192358152606585522001549051908152f35b839085346104fd5760207ffffffffffffffffffffffffffffffffffffffffffffffffffffffffffffffffc3601126104fd57357fffffffff0000000000000000000000000000000000000000000000000000000081168091036104fd57602092507f7965db0b000000000000000000000000000000000000000000000000000000008114908115612517575b5015158152f35b7f01ffc9a70000000000000000000000000000000000000000000000000000000091501483612510565b6024359073ffffffffffffffffffffffffffffffffffffffff8216820361256457565b600080fd5b6004359073ffffffffffffffffffffffffffffffffffffffff8216820361256457565b6060810190811067ffffffffffffffff8211176125a857604052565b7f4e487b7100000000000000000000000000000000000000000000000000000000600052604160045260246000fd5b6080810190811067ffffffffffffffff8211176125a857604052565b90601f7fffffffffffffffffffffffffffffffffffffffffffffffffffffffffffffffe0910116810190811067ffffffffffffffff8211176125a857604052565b67ffffffffffffffff81116125a857601f017fffffffffffffffffffffffffffffffffffffffffffffffffffffffffffffffe01660200190565b7ffffffffffffffffffffffffffffffffffffffffffffffffffffffffffffffffc6060910112612564576004359060243573ffffffffffffffffffffffffffffffffffffffff81168103612564579060443590565b7ffffffffffffffffffffffffffffffffffffffffffffffffffffffffffffffffc60609101126125645773ffffffffffffffffffffffffffffffffffffffff600435818116810361256457916024359160443590811681036125645790565b3360009081527fffdfc1249c027f9191656349feb0761381bb32c9f557e01f419fd08754bf5a1b602090815260408083205490929060ff161561276457505050565b61276d336131e4565b8351908261277a836125d7565b6042835284830193606036863783511561296c576030855383519060019182101561296c5790607860218601536041915b8183116128a1575050506128455761119e93859361281593612806604894611210995198857f416363657373436f6e74726f6c3a206163636f756e74200000000000000000008b978801528251928391603789019101612dc2565b010360288101855201836125f3565b519182917f08c379a000000000000000000000000000000000000000000000000000000000835260048301612de5565b6064848651907f08c379a000000000000000000000000000000000000000000000000000000000825280600483015260248201527f537472696e67733a20686578206c656e67746820696e73756666696369656e746044820152fd5b909192600f8116601081101561293f577f3031323334353637383961626364656600000000000000000000000000000000901a6128de85886131a4565b5360041c928015612912577fffffffffffffffffffffffffffffffffffffffffffffffffffffffffffffffff0191906127ab565b6024827f4e487b710000000000000000000000000000000000000000000000000000000081526011600452fd5b6024837f4e487b710000000000000000000000000000000000000000000000000000000081526032600452fd5b807f4e487b7100000000000000000000000000000000000000000000000000000000602492526032600452fd5b3360009081527f577f8b12d959663ce379112162fc52a588c3c6cf2b2a6a20163602307ac7ab4860209081526040808320549092907f57c9e9c867b58c7f873f9ce933fc28574c90e37009e64addc3e3b1f61cd635d29060ff16156129fe5750505050565b612a07336131e4565b845191612a13836125d7565b6042835284830193606036863783511561296c576030855383519060019182101561296c5790607860218601536041915b818311612a9f575050506128455761119e93859361281593612806604894611210995198857f416363657373436f6e74726f6c3a206163636f756e74200000000000000000008b978801528251928391603789019101612dc2565b909192600f8116601081101561293f577f3031323334353637383961626364656600000000000000000000000000000000901a612adc85886131a4565b5360041c928015612912577fffffffffffffffffffffffffffffffffffffffffffffffffffffffffffffffff019190612a44565b3360009081527f73185b6f6e7a53ae0ffbc46eb2ce52f75dee13e7ee931eac2a929b8fd401825560209081526040808320549092907f5d8e12c39142ff96d79d04d15d1ba1269e4fe57bb9d26f43523628b34ba108ec9060ff1615612b755750505050565b612b7e336131e4565b845191612b8a836125d7565b6042835284830193606036863783511561296c576030855383519060019182101561296c5790607860218601536041915b818311612c16575050506128455761119e93859361281593612806604894611210995198857f416363657373436f6e74726f6c3a206163636f756e74200000000000000000008b978801528251928391603789019101612dc2565b909192600f8116601081101561293f577f3031323334353637383961626364656600000000000000000000000000000000901a612c5385886131a4565b5360041c928015612912577fffffffffffffffffffffffffffffffffffffffffffffffffffffffffffffffff019190612bbb565b600081815260209060658252604092838220338352835260ff848320541615612cb05750505050565b612cb9336131e4565b845191612cc5836125d7565b6042835284830193606036863783511561296c576030855383519060019182101561296c5790607860218601536041915b818311612d51575050506128455761119e93859361281593612806604894611210995198857f416363657373436f6e74726f6c3a206163636f756e74200000000000000000008b978801528251928391603789019101612dc2565b909192600f8116601081101561293f577f3031323334353637383961626364656600000000000000000000000000000000901a612d8e85886131a4565b5360041c928015612912577fffffffffffffffffffffffffffffffffffffffffffffffffffffffffffffffff019190612cf6565b60005b838110612dd55750506000910152565b8181015183820152602001612dc5565b7fffffffffffffffffffffffffffffffffffffffffffffffffffffffffffffffe0601f60409360208452612e288151809281602088015260208888019101612dc2565b0116010190565b90600091808352606560205273ffffffffffffffffffffffffffffffffffffffff6040842092169182845260205260ff604084205416612e6e57505050565b808352606560205260408320828452602052604083207fffffffffffffffffffffffffffffffffffffffffffffffffffffffffffffff0081541690557ff6391f5c32d9c69d2a47ea670b442974b53935d1edc7fd64eb21e047a839171b339380a4565b15612ed857565b60846040517f08c379a000000000000000000000000000000000000000000000000000000000815260206004820152602c60248201527f46756e6374696f6e206d7573742062652063616c6c6564207468726f7567682060448201527f64656c656761746563616c6c00000000000000000000000000000000000000006064820152fd5b15612f6357565b60846040517f08c379a000000000000000000000000000000000000000000000000000000000815260206004820152602c60248201527f46756e6374696f6e206d7573742062652063616c6c6564207468726f7567682060448201527f6163746976652070726f787900000000000000000000000000000000000000006064820152fd5b803b1561304f5773ffffffffffffffffffffffffffffffffffffffff7f360894a13ba1a3210667c828492db98dca3e2076cc3735a920a3ca505d382bbc91167fffffffffffffffffffffffff0000000000000000000000000000000000000000825416179055565b60846040517f08c379a000000000000000000000000000000000000000000000000000000000815260206004820152602d60248201527f455243313936373a206e657720696d706c656d656e746174696f6e206973206e60448201527f6f74206120636f6e7472616374000000000000000000000000000000000000006064820152fd5b3d156130fe573d906130e482612634565b916130f260405193846125f3565b82523d6000602084013e565b606090565b9091901561310f575090565b81511561311f5750805190602001fd5b611210906040519182917f08c379a000000000000000000000000000000000000000000000000000000000835260048301612de5565b8181029291811591840414171561316857565b7f4e487b7100000000000000000000000000000000000000000000000000000000600052601160045260246000fd5b9190820180921161316857565b9081518110156131b5570160200190565b7f4e487b7100000000000000000000000000000000000000000000000000000000600052603260045260246000fd5b604051906131f18261258c565b602a82526020820160403682378251156131b5576030905381516001908110156131b557607860218401536029905b80821161328e5750506132305790565b60646040517f08c379a000000000000000000000000000000000000000000000000000000000815260206004820152602060248201527f537472696e67733a20686578206c656e67746820696e73756666696369656e746044820152fd5b9091600f8116601081101561332b577f3031323334353637383961626364656600000000000000000000000000000000901a6132ca84866131a4565b5360041c9180156132fd577fffffffffffffffffffffffffffffffffffffffffffffffffffffffffffffffff0190613220565b602460007f4e487b710000000000000000000000000000000000000000000000000000000081526011600452fd5b602460007f4e487b710000000000000000000000000000000000000000000000000000000081526032600452fd5b1561336057565b60846040517f08c379a000000000000000000000000000000000000000000000000000000000815260206004820152602b60248201527f496e697469616c697a61626c653a20636f6e7472616374206973206e6f74206960448201527f6e697469616c697a696e670000000000000000000000000000000000000000006064820152fd5b91909161ffff8080941691160191821161316857565b1561340157565b60646040517f08c379a000000000000000000000000000000000000000000000000000000000815260206004820152600e60248201527f4d49534d415443485f56414c55450000000000000000000000000000000000006044820152fd5b1561346657565b60646040517f08c379a000000000000000000000000000000000000000000000000000000000815260206004820152600e60248201527f544f4b454e5f4e4f5f56414c55450000000000000000000000000000000000006044820152fd5b156134cb57565b60646040517f08c379a000000000000000000000000000000000000000000000000000000000815260206004820152601f60248201527f5265656e7472616e637947756172643a207265656e7472616e742063616c6c006044820152fd5b90816020910312612564575180151581036125645790565b9190820391821161316857565b1561355557565b60646040517f08c379a000000000000000000000000000000000000000000000000000000000815260206004820152601360248201527f4554485f5452414e534645525f4641494c4544000000000000000000000000006044820152fd5b60405192602093848101917fa9059cbb00000000000000000000000000000000000000000000000000000000835273ffffffffffffffffffffffffffffffffffffffff8095166024830152604482015260448152608081019367ffffffffffffffff93828610858711176125a857169260c08201908111858210176125a8576040528484527f5361666545524332303a206c6f772d6c6576656c2063616c6c206661696c656460a0820152823b1561372b57613682939260009283809351925af161367c6130d3565b90613103565b8051908161368f57505050565b828061369f938301019101613529565b156136a75750565b608490604051907f08c379a00000000000000000000000000000000000000000000000000000000082526004820152602a60248201527f5361666545524332303a204552433230206f7065726174696f6e20646964206e60448201527f6f742073756363656564000000000000000000000000000000000000000000006064820152fd5b606485604051907f08c379a00000000000000000000000000000000000000000000000000000000082526004820152601d60248201527f416464726573733a2063616c6c20746f206e6f6e2d636f6e74726163740000006044820152fdfea2646970667358221220397617f165455a88150279b592ac153f9f32945e69a7897733462cf1d0cf306664736f6c63430008140033",
  "linkReferences": {},
  "deployedLinkReferences": {}
}