{"contracts/Tasks.sol":{"Tasks":{"abi":[{"inputs":[],"stateMutability":"nonpayable","type":"constructor"},{"inputs":[],"name":"AlreadySubmitted","type":"error"},{"inputs":[],"name":"AuthorizationFailed","type":"error"},{"inputs":[],"name":"DeadlineExpired","type":"error"},{"inputs":[],"name":"InsufficientStake","type":"error"},{"inputs":[],"name":"InvalidAddress","type":"error"},{"inputs":[],"name":"InvalidAmount","type":"error"},{"inputs":[],"name":"InvalidStatus","type":"error"},{"inputs":[],"name":"NotAgentsContract","type":"error"},{"anonymous":false,"inputs":[{"indexed":false,"internalType":"address","name":"previousAdmin","type":"address"},{"indexed":false,"internalType":"address","name":"newAdmin","type":"address"}],"name":"AdminChanged","type":"event"},{"anonymous":false,"inputs":[{"indexed":true,"internalType":"address","name":"beacon","type":"address"}],"name":"BeaconUpgraded","type":"event"},{"anonymous":false,"inputs":[{"indexed":false,"internalType":"uint8","name":"version","type":"uint8"}],"name":"Initialized","type":"event"},{"anonymous":false,"inputs":[{"indexed":false,"internalType":"address","name":"account","type":"address"}],"name":"Paused","type":"event"},{"anonymous":false,"inputs":[{"indexed":true,"internalType":"bytes32","name":"role","type":"bytes32"},{"indexed":true,"internalType":"bytes32","name":"previousAdminRole","type":"bytes32"},{"indexed":true,"internalType":"bytes32","name":"newAdminRole","type":"bytes32"}],"name":"RoleAdminChanged","type":"event"},{"anonymous":false,"inputs":[{"indexed":true,"internalType":"bytes32","name":"role","type":"bytes32"},{"indexed":true,"internalType":"address","name":"account","type":"address"},{"indexed":true,"internalType":"address","name":"sender","type":"address"}],"name":"RoleGranted","type":"event"},{"anonymous":false,"inputs":[{"indexed":true,"internalType":"bytes32","name":"role","type":"bytes32"},{"indexed":true,"internalType":"address","name":"account","type":"address"},{"indexed":true,"internalType":"address","name":"sender","type":"address"}],"name":"RoleRevoked","type":"event"},{"anonymous":false,"inputs":[{"indexed":true,"internalType":"uint256","name":"taskId","type":"uint256"},{"indexed":true,"internalType":"address","name":"creator","type":"address"}],"name":"TaskCancelled","type":"event"},{"anonymous":false,"inputs":[{"indexed":true,"internalType":"uint256","name":"taskId","type":"uint256"},{"indexed":true,"internalType":"uint256","name":"agentId","type":"uint256"},{"indexed":true,"internalType":"address","name":"claimant","type":"address"},{"indexed":false,"internalType":"uint256","name":"bond","type":"uint256"}],"name":"TaskClaimed","type":"event"},{"anonymous":false,"inputs":[{"indexed":true,"internalType":"uint256","name":"taskId","type":"uint256"},{"indexed":true,"internalType":"uint256","name":"agentId","type":"uint256"},{"indexed":true,"internalType":"address","name":"recipient","type":"address"},{"indexed":false,"internalType":"uint256","name":"reward","type":"uint256"}],"name":"TaskCompleted","type":"event"},{"anonymous":false,"inputs":[{"indexed":true,"internalType":"uint256","name":"taskId","type":"uint256"},{"indexed":true,"internalType":"address","name":"creator","type":"address"},{"indexed":true,"internalType":"address","name":"asset","type":"address"},{"indexed":false,"internalType":"uint256","name":"reward","type":"uint256"},{"indexed":false,"internalType":"uint256","name":"bond","type":"uint256"},{"indexed":false,"internalType":"uint64","name":"claimDeadline","type":"uint64"},{"indexed":false,"internalType":"uint64","name":"completionDeadline","type":"uint64"},{"indexed":false,"internalType":"string","name":"metadataURI","type":"string"}],"name":"TaskCreated","type":"event"},{"anonymous":false,"inputs":[{"indexed":true,"internalType":"uint256","name":"taskId","type":"uint256"},{"indexed":true,"internalType":"uint256","name":"agentId","type":"uint256"},{"indexed":false,"internalType":"bytes32","name":"inferenceId","type":"bytes32"}],"name":"TaskDisputed","type":"event"},{"anonymous":false,"inputs":[{"indexed":true,"internalType":"uint256","name":"taskId","type":"uint256"},{"indexed":true,"internalType":"uint256","name":"agentId","type":"uint256"},{"indexed":false,"internalType":"bool","name":"slashed","type":"bool"},{"indexed":false,"internalType":"bool","name":"rewardRefunded","type":"bool"},{"indexed":false,"internalType":"string","name":"reason","type":"string"}],"name":"TaskResolved","type":"event"},{"anonymous":false,"inputs":[{"indexed":true,"internalType":"uint256","name":"taskId","type":"uint256"},{"indexed":false,"internalType":"bytes32","name":"inferenceId","type":"bytes32"},{"indexed":true,"internalType":"address","name":"submitter","type":"address"}],"name":"TaskSubmitted","type":"event"},{"anonymous":false,"inputs":[{"indexed":false,"internalType":"address","name":"account","type":"address"}],"name":"Unpaused","type":"event"},{"anonymous":false,"inputs":[{"indexed":true,"internalType":"address","name":"implementation","type":"address"}],"name":"Upgraded","type":"event"},{"inputs":[],"name":"DEFAULT_ADMIN_ROLE","outputs":[{"internalType":"bytes32","name":"","type":"bytes32"}],"stateMutability":"view","type":"function"},{"inputs":[],"name":"DISPUTE_ROLE","outputs":[{"internalType":"bytes32","name":"","type":"bytes32"}],"stateMutability":"view","type":"function"},{"inputs":[],"name":"PAUSER_ROLE","outputs":[{"internalType":"bytes32","name":"","type":"bytes32"}],"stateMutability":"view","type":"function"},{"inputs":[],"name":"agents","outputs":[{"internalType":"contract IAgentsRegistry","name":"","type":"address"}],"stateMutability":"view","type":"function"},{"inputs":[{"internalType":"uint256","name":"taskId","type":"uint256"}],"name":"cancelTask","outputs":[],"stateMutability":"nonpayable","type":"function"},{"inputs":[{"internalType":"uint256","name":"taskId","type":"uint256"},{"internalType":"uint256","name":"agentId","type":"uint256"}],"name":"claimTask","outputs":[],"stateMutability":"nonpayable","type":"function"},{"inputs":[{"internalType":"bytes32","name":"role","type":"bytes32"}],"name":"getRoleAdmin","outputs":[{"internalType":"bytes32","name":"","type":"bytes32"}],"stateMutability":"view","type":"function"},{"inputs":[{"internalType":"uint256","name":"taskId","type":"uint256"}],"name":"getTask","outputs":[{"components":[{"internalType":"address","name":"creator","type":"address"},{"internalType":"address","name":"asset","type":"address"},{"internalType":"uint256","name":"reward","type":"uint256"},{"internalType":"uint256","name":"bond","type":"uint256"},{"internalType":"uint256","name":"agentId","type":"uint256"},{"internalType":"address","name":"claimant","type":"address"},{"internalType":"uint64","name":"createdAt","type":"uint64"},{"internalType":"uint64","name":"claimDeadline","type":"uint64"},{"internalType":"uint64","name":"completionDeadline","type":"uint64"},{"internalType":"enum Tasks.TaskStatus","name":"status","type":"uint8"},{"internalType":"string","name":"metadataURI","type":"string"},{"internalType":"string","name":"inputURI","type":"string"},{"internalType":"bytes32","name":"inferenceId","type":"bytes32"},{"internalType":"bool","name":"paidOut","type":"bool"}],"internalType":"struct Tasks.Task","name":"","type":"tuple"}],"stateMutability":"view","type":"function"},{"inputs":[{"internalType":"bytes32","name":"role","type":"bytes32"},{"internalType":"address","name":"account","type":"address"}],"name":"grantRole","outputs":[],"stateMutability":"nonpayable","type":"function"},{"inputs":[{"internalType":"bytes32","name":"role","type":"bytes32"},{"internalType":"address","name":"account","type":"address"}],"name":"hasRole","outputs":[{"internalType":"bool","name":"","type":"bool"}],"stateMutability":"view","type":"function"},{"inputs":[{"internalType":"address","name":"admin","type":"address"},{"internalType":"address","name":"agentsRegistry","type":"address"},{"internalType":"address","name":"treasuryAddress","type":"address"}],"name":"initialize","outputs":[],"stateMutability":"nonpayable","type":"function"},{"inputs":[{"internalType":"uint256","name":"agentId","type":"uint256"},{"internalType":"uint256","name":"taskId","type":"uint256"},{"internalType":"bytes32","name":"inferenceId","type":"bytes32"},{"internalType":"bool","name":"success","type":"bool"}],"name":"onInferenceVerified","outputs":[],"stateMutability":"nonpayable","type":"function"},{"inputs":[],"name":"pause","outputs":[],"stateMutability":"nonpayable","type":"function"},{"inputs":[],"name":"paused","outputs":[{"internalType":"bool","name":"","type":"bool"}],"stateMutability":"view","type":"function"},{"inputs":[{"internalType":"address","name":"asset","type":"address"},{"internalType":"uint256","name":"reward","type":"uint256"},{"internalType":"uint256","name":"bond","type":"uint256"},{"internalType":"uint64","name":"claimWindow","type":"uint64"},{"internalType":"uint64","name":"completionWindow","type":"uint64"},{"internalType":"string","name":"metadataURI","type":"string"},{"internalType":"string","name":"inputURI","type":"string"}],"name":"postTask","outputs":[{"internalType":"uint256","name":"taskId","type":"uint256"}],"stateMutability":"payable","type":"function"},{"inputs":[],"name":"proxiableUUID","outputs":[{"internalType":"bytes32","name":"","type":"bytes32"}],"stateMutability":"view","type":"function"},{"inputs":[{"internalType":"bytes32","name":"role","type":"bytes32"},{"internalType":"address","name":"account","type":"address"}],"name":"renounceRole","outputs":[],"stateMutability":"nonpayable","type":"function"},{"inputs":[{"internalType":"uint256","name":"taskId","type":"uint256"},{"internalType":"bool","name":"slashBond","type":"bool"},{"internalType":"bool","name":"refundCreator","type":"bool"},{"internalType":"string","name":"reason","type":"string"}],"name":"resolveDispute","outputs":[],"stateMutability":"nonpayable","type":"function"},{"inputs":[{"internalType":"bytes32","name":"role","type":"bytes32"},{"internalType":"address","name":"account","type":"address"}],"name":"revokeRole","outputs":[],"stateMutability":"nonpayable","type":"function"},{"inputs":[{"internalType":"address","name":"newTreasury","type":"address"}],"name":"setTreasury","outputs":[],"stateMutability":"nonpayable","type":"function"},{"inputs":[{"internalType":"uint256","name":"taskId","type":"uint256"},{"internalType":"bytes32","name":"inferenceId","type":"bytes32"}],"name":"submitWork","outputs":[],"stateMutability":"nonpayable","type":"function"},{"inputs":[{"internalType":"bytes4","name":"interfaceId","type":"bytes4"}],"name":"supportsInterface","outputs":[{"internalType":"bool","name":"","type":"bool"}],"stateMutability":"view","type":"function"},{"inputs":[],"name":"taskCount","outputs":[{"internalType":"uint256","name":"","type":"uint256"}],"stateMutability":"view","type":"function"},{"inputs":[],"name":"treasury","outputs":[{"internalType":"contract ITreasury","name":"","type":"address"}],"stateMutability":"view","type":"function"},{"inputs":[],"name":"unpause","outputs":[],"stateMutability":"nonpayable","type":"function"},{"inputs":[{"internalType":"address","name":"newImplementation","type":"address"}],"name":"upgradeTo","outputs":[],"stateMutability":"nonpayable","type":"function"},{"inputs":[{"internalType":"address","name":"newImplementation","type":"address"},{"internalType":"bytes","name":"data","type":"bytes"}],"name":"upgradeToAndCall","outputs":[],"stateMutability":"payable","type":"function"}],"evm":{"bytecode":{"linkReferences":{},"object":"60a08060405234620000e157306080526000549060ff8260081c166200008f575060ff8082161062000053575b604051614d929081620000e7823960805181818161163e015281816117bb01526125070152f35b60ff90811916176000557f7f26b83ff96e1f2b6a682f133852f6798a09c465da95921460cefb3847402498602060405160ff8152a1386200002c565b62461bcd60e51b815260206004820152602760248201527f496e697469616c697a61626c653a20636f6e747261637420697320696e697469604482015266616c697a696e6760c81b6064820152608490fd5b600080fdfe608080604052600436101561001357600080fd5b600090813560e01c90816301ffc9a714613b075750806306963b5e146133045780630a9eeded14612e0a578063193def7c14612db15780631d65e77e14612a7a578063248a9ca314612a2f5780632f2ff15d1461292d57806336568abe146128485780633659cfe6146124b55780633f4ba83a146123c25780634a09778d14611b455780634f1ef2861461171257806352d1902d146115f857806358516661146115a55780635c975abb1461156457806361d027b3146115115780637eec20a8146113235780638456cb591461128c57806391d1485414611214578063a217fddf146111da578063ae80ceb914610e01578063b6cb58a514610dc4578063c0c53b8b1461093b578063d547741f146108dc578063db6bebf914610259578063e63ab1e9146102005763f0f442601461014a57600080fd5b346101fd5760207ffffffffffffffffffffffffffffffffffffffffffffffffffffffffffffffffc3601126101fd5773ffffffffffffffffffffffffffffffffffffffff610196613c7c565b61019e613d83565b1680156101d357610162907fffffffffffffffffffffffff000000000000000000000000000000000000000082541617905580f35b60046040517fe6c4247b000000000000000000000000000000000000000000000000000000008152fd5b80fd5b50346101fd57807ffffffffffffffffffffffffffffffffffffffffffffffffffffffffffffffffc3601126101fd5760206040517f65d7a28e3265b37a6474929f336521b332c1681b933f6cb9f3376673440d862a8152f35b50346101fd5760407ffffffffffffffffffffffffffffffffffffffffffffffffffffffffffffffffc3601126101fd5760248035600435610298614820565b808452602092610160845260408520906006820190815460ff8160801c1660068110156108b0576108865767ffffffffffffffff809116801515908161087c575b506108525773ffffffffffffffffffffffffffffffffffffffff93846101615416946040517f9d18755d000000000000000000000000000000000000000000000000000000008152886004820152898186818a5afa9081156106dd578b9161081d575b50156106e8576040517f6f6bf118000000000000000000000000000000000000000000000000000000008152886004820152898186818a5afa9081156106dd578b916107e8575b506040517ff7f6e0220000000000000000000000000000000000000000000000000000000081528b8b826004818c5afa9283156107db578c928592946107a2575b50163314159182610712575b50506106e85760018201541694604051907f35711eee0000000000000000000000000000000000000000000000000000000082528860048301528685830152606082604481845afa9182156106dd578b908c936106a0575b5015610676576003830196875492836105a6575b50505050817001000000000000000000000000000000007fffffffffffffffffffffffffffffff00ffffffffffffffff000000000000000060058754948b60048201550193337fffffffffffffffffffffffff000000000000000000000000000000000000000086541617809555161780865560401c1690816104ef575b50505050507f09f2154268f715a510cd9dbb97c17702e0d074b747d0eb595c97e104a30600ab9054936040519485523394a480f35b60a01c821690039181831161057b575091610531610571927f09f2154268f715a510cd9dbb97c17702e0d074b747d0eb595c97e104a30600ab959442166149a2565b7fffffffffffffffffffffffffffffffff0000000000000000ffffffffffffffff6fffffffffffffffff000000000000000083549260401b169116179055565b90388080806104ba565b887f4e487b710000000000000000000000000000000000000000000000000000000081526011600452fd5b831161064c578b92823b15610648576040517fdbc11352000000000000000000000000000000000000000000000000000000008152600481018c905273ffffffffffffffffffffffffffffffffffffffff92909216602483015260448201529082908290606490829084905af1801561063d57610625575b808061043c565b61062e90613c9f565b61063957883861061e565b8880fd5b6040513d84823e3d90fd5b8380fd5b60046040517f2c5211c6000000000000000000000000000000000000000000000000000000008152fd5b60046040517ff1bc94d2000000000000000000000000000000000000000000000000000000008152fd5b9250506060823d82116106d5575b816106bb60609383613d08565b810103126106d157604082519201519138610428565b8a80fd5b3d91506106ae565b6040513d8d823e3d90fd5b60046040517f9c7893c0000000000000000000000000000000000000000000000000000000008152fd5b6040517fa1c000b0000000000000000000000000000000000000000000000000000000008152600481018c905233602482015260448101919091529150816064818a5afa9081156106dd578b9161076d575b501589386103d0565b90508981813d831161079b575b6107848183613d08565b810103126106d15761079590614a2c565b38610764565b503d61077a565b92839194508092503d83116107d4575b6107bc8183613d08565b810103126107cf57828b915192386103c4565b600080fd5b503d6107b2565b50604051903d90823e3d90fd5b90508981813d8311610816575b6107ff8183613d08565b810103126106d15761081090614bcc565b38610383565b503d6107f5565b90508981813d831161084b575b6108348183613d08565b810103126106d15761084590614a2c565b3861033c565b503d61082a565b60046040517f1ab7da6b000000000000000000000000000000000000000000000000000000008152fd5b90504211386102d9565b60046040517ff525e320000000000000000000000000000000000000000000000000000000008152fd5b82897f4e487b710000000000000000000000000000000000000000000000000000000081526021600452fd5b50346101fd5760407ffffffffffffffffffffffffffffffffffffffffffffffffffffffffffffffffc3601126101fd5761093860043561091a613c59565b9080845260656020526109336001604086200154614176565b6142b2565b80f35b50346101fd5760607ffffffffffffffffffffffffffffffffffffffffffffffffffffffffffffffffc3601126101fd57610973613c7c565b61097b613c59565b60443573ffffffffffffffffffffffffffffffffffffffff8082168092036107cf5784549160ff93848460081c161593848095610db8575b8015610da2575b15610d1e57836001977fffffffffffffffffffffffffffffffffffffffffffffffffffffffffffffff0092878a858316178c55610cf0575b501680158015610ce6575b8015610cde575b6101d3578791610a52888b5460081c16610a1d81614795565b610a2681614795565b610a2f81614795565b84609755610a3c81614795565b610a4581614795565b8260c9541660c955614795565b60008281527fffdfc1249c027f9191656349feb0761381bb32c9f557e01f419fd08754bf5a1b60209081526040909120549098606591811615610c92575b7fc785f0e55c16138ca0f8448186fa6229be092a3a83db3c5d63c9286723c5a2c480600052828b5260008660408220018181549155817fbd79b86ffe0ab8e8776151514217cd7cacd52c909f66475c3af44e129f0b00ff9184838380a47f65d7a28e3265b37a6474929f336521b332c1681b933f6cb9f3376673440d862a809881845260408420019183835493558380a4806000526040600020856000528b52816040600020541615610c45575b5084600052818a526040600020846000528a526040600020541615610bf7575b505050507fffffffffffffffffffffffff00000000000000000000000000000000000000009261016191168382541617905561016291825416179055610ba2578280f35b7f7f26b83ff96e1f2b6a682f133852f6798a09c465da95921460cefb3847402498917fffffffffffffffffffffffffffffffffffffffffffffffffffffffffffff00ff8454168455604051908152a138808280f35b83600052885260406000208260005288528860406000209182541617905533917f2f8788117e7eff1d82e926ec794901d17c78024a50270940304540a733656f0d600080a438808080610b5e565b80600052828b526040600020856000528b5260406000208c858254161790558433917f2f8788117e7eff1d82e926ec794901d17c78024a50270940304540a733656f0d600080a438610b3e565b60008052818a526040600020846000528a5260406000208584825416179055338460007f2f8788117e7eff1d82e926ec794901d17c78024a50270940304540a733656f0d8180a4610a90565b508315610a04565b50848316156109fd565b7fffffffffffffffffffffffffffffffffffffffffffffffffffffffffffff000016610101178a55386109f2565b60846040517f08c379a000000000000000000000000000000000000000000000000000000000815260206004820152602e60248201527f496e697469616c697a61626c653a20636f6e747261637420697320616c72656160448201527f647920696e697469616c697a65640000000000000000000000000000000000006064820152fd5b50303b1580156109ba57506001868216146109ba565b506001868216106109b3565b50346101fd57807ffffffffffffffffffffffffffffffffffffffffffffffffffffffffffffffffc3601126101fd57602061015f54604051908152f35b50346101fd5760807ffffffffffffffffffffffffffffffffffffffffffffffffffffffffffffffffc3601126101fd5760643560443560243560043583151584036107cf5773ffffffffffffffffffffffffffffffffffffffff91610161928084541633036111b05781875260209061016082526040882095846004880154148015906111a2575b610886576006870190815460ff8160801c16600681101561117557600203610886578a99156111075750506003870180548061105a575b50507003000000000000000000000000000000007fffffffffffffffffffffffffffffff00ffffffffffffffffffffffffffffffff825416179055600a860160ff815416158061104d575b610f1b575b505050505050505080f35b82826024975416604051978880927f6f6bf1180000000000000000000000000000000000000000000000000000000082528960048301525afa958615611042578896610fe2575b50907f0510fcf43a9efacdf797e59ee23ba1bf1aff30abf0e787ab45bb11d968100a889291610f9f60028360018b015416990198888a5491614cae565b60017fffffffffffffffffffffffffffffffffffffffffffffffffffffffffffffff008254161790558654956040519687521694a4558038808080808080610f10565b92809291965083813d831161103b575b610ffc8183613d08565b810103126110375761102e7f0510fcf43a9efacdf797e59ee23ba1bf1aff30abf0e787ab45bb11d968100a8893614bcc565b95909192610f62565b8780fd5b503d610ff2565b6040513d8a823e3d90fd5b5060028701541515610f0b565b83885416908460018b01541690823b15611103576040517f7df29be9000000000000000000000000000000000000000000000000000000008152600481018a905273ffffffffffffffffffffffffffffffffffffffff9290921660248301526044820152908a908290606490829084905af19081156110f8578a916110e4575b5090553880610ec0565b6110ed90613c9f565b6106395788386110da565b6040513d8c823e3d90fd5b8b80fd5b7fffffffffffffffffffffffffffffff00ffffffffffffffffffffffffffffffff16700400000000000000000000000000000000179091556040519081529396509194507f4d60e575bc6e726584dc5c7e1f3c10cae07a8e3c3338f4cd081fa699e58a67219350919050a380f35b60248c7f4e487b710000000000000000000000000000000000000000000000000000000081526021600452fd5b508060098801541415610e89565b60046040517ff365e4c6000000000000000000000000000000000000000000000000000000008152fd5b50346101fd57807ffffffffffffffffffffffffffffffffffffffffffffffffffffffffffffffffc3601126101fd57602090604051908152f35b50346101fd5760407ffffffffffffffffffffffffffffffffffffffffffffffffffffffffffffffffc3601126101fd5773ffffffffffffffffffffffffffffffffffffffff6040611263613c59565b9260043581526065602052209116600052602052602060ff604060002054166040519015158152f35b50346101fd57807ffffffffffffffffffffffffffffffffffffffffffffffffffffffffffffffffc3601126101fd576112c3614000565b6112cb614820565b60017fffffffffffffffffffffffffffffffffffffffffffffffffffffffffffffff0060c954161760c9557f62e78cea01bee320cd4e420270b5ea74000d11b0c9f74754ebdbfc544b05a2586020604051338152a180f35b50346101fd5760207ffffffffffffffffffffffffffffffffffffffffffffffffffffffffffffffffc3601126101fd576004356002609754146114b3576002609755808252610160602052604082206006810190815460ff8160801c166006811015611486576108865773ffffffffffffffffffffffffffffffffffffffff9283835416908133141580611463575b6106e8577005000000000000000000000000000000007fffffffffffffffffffffffffffffff00ffffffffffffffffffffffffffffffff889416179055611406846001850154166002850192835491614cae565b55600a810160017fffffffffffffffffffffffffffffffffffffffffffffffffffffffffffffff008254161790555416907f76be7f7b12bf790225259ca3b7ffb98f222f79af3c4c074e88e0c97af6f140258380a3600160975580f35b508680526065602052604087203360005260205260ff60406000205416156113b2565b6024867f4e487b710000000000000000000000000000000000000000000000000000000081526021600452fd5b60646040517f08c379a000000000000000000000000000000000000000000000000000000000815260206004820152601f60248201527f5265656e7472616e637947756172643a207265656e7472616e742063616c6c006044820152fd5b50346101fd57807ffffffffffffffffffffffffffffffffffffffffffffffffffffffffffffffffc3601126101fd57602073ffffffffffffffffffffffffffffffffffffffff6101625416604051908152f35b50346101fd57807ffffffffffffffffffffffffffffffffffffffffffffffffffffffffffffffffc3601126101fd57602060ff60c954166040519015158152f35b50346101fd57807ffffffffffffffffffffffffffffffffffffffffffffffffffffffffffffffffc3601126101fd57602073ffffffffffffffffffffffffffffffffffffffff6101615416604051908152f35b50346101fd57807ffffffffffffffffffffffffffffffffffffffffffffffffffffffffffffffffc3601126101fd5773ffffffffffffffffffffffffffffffffffffffff7f000000000000000000000000000000000000000000000000000000000000000016300361168e5760206040517f360894a13ba1a3210667c828492db98dca3e2076cc3735a920a3ca505d382bbc8152f35b60846040517f08c379a000000000000000000000000000000000000000000000000000000000815260206004820152603860248201527f555550535570677261646561626c653a206d757374206e6f742062652063616c60448201527f6c6564207468726f7567682064656c656761746563616c6c00000000000000006064820152fd5b5060407ffffffffffffffffffffffffffffffffffffffffffffffffffffffffffffffffc3601126101fd57611745613c7c565b90602491823567ffffffffffffffff8111611b415736602382011215611b415780600401359061177482613d49565b6117816040519182613d08565b8281526020928382019236888383010111611b3d578187928987930186378301015273ffffffffffffffffffffffffffffffffffffffff807f000000000000000000000000000000000000000000000000000000000000000016906117e882301415614354565b6118177f360894a13ba1a3210667c828492db98dca3e2076cc3735a920a3ca505d382bbc9282845416146143df565b61181f613d83565b7f4910fdfa16fed3260ed0e7147f7cc6da11a60208b5b9406d12a635614ffd91435460ff161561185957505050505061093891925061446a565b8596949616906040517f52d1902d0000000000000000000000000000000000000000000000000000000081528781600481865afa60009181611b0e575b5061191e57608488602e8b604051927f08c379a000000000000000000000000000000000000000000000000000000000845260048401528201527f45524331393637557067726164653a206e657720696d706c656d656e7461746960448201527f6f6e206973206e6f7420555550530000000000000000000000000000000000006064820152fd5b979192939496959703611a8b576119348761446a565b604051917fbc7cd75a20ee27fd9adebab32041f755214dbc6bffa90cc0225b39da2e5c2d3b600080a2825115801590611a83575b611977575b5050505050905080f35b863b15611a035750506119f79394600092839251915af4611996614556565b907f416464726573733a206c6f772d6c6576656c2064656c65676174652063616c6c604051936119c585613cd0565b602785528401527f206661696c6564000000000000000000000000000000000000000000000000006040840152614586565b5080388080808061196d565b906026608492867f08c379a000000000000000000000000000000000000000000000000000000000845260048401528201527f416464726573733a2064656c65676174652063616c6c20746f206e6f6e2d636f60448201527f6e747261637400000000000000000000000000000000000000000000000000006064820152fd5b506001611968565b846029608492604051927f08c379a000000000000000000000000000000000000000000000000000000000845260048401528201527f45524331393637557067726164653a20756e737570706f727465642070726f7860448201527f6961626c655555494400000000000000000000000000000000000000000000006064820152fd5b90918982813d8311611b36575b611b258183613d08565b810103126101fd5750519038611896565b503d611b1b565b8680fd5b8280fd5b5060e07ffffffffffffffffffffffffffffffffffffffffffffffffffffffffffffffffc3601126101fd57611b78613c7c565b67ffffffffffffffff60643516606435036107cf5767ffffffffffffffff60843516608435036107cf5760a43567ffffffffffffffff8111611b4157611bc2903690600401613bc5565b919060c43567ffffffffffffffff81116123be57611be4903690600401613bc5565b9390611bee614820565b6024351561064c5773ffffffffffffffffffffffffffffffffffffffff84166122ab57602435340361224d575b61015f54947fffffffffffffffffffffffffffffffffffffffffffffffffffffffffffffffff8614612220576001860161015f5560018601875261016060205260408720917fffffffffffffffffffffffff00000000000000000000000000000000000000003381855416178455600184019073ffffffffffffffffffffffffffffffffffffffff8816908254161790556024356002840155604435600384015567ffffffffffffffff42166005840180547fffffffff0000000000000000ffffffffffffffffffffffffffffffffffffffff7bffffffffffffffff00000000000000000000000000000000000000004260a01b16911617905567ffffffffffffffff60643516156000146122065767ffffffffffffffff895b167fffffffffffffffffffffffffffffffffffffffffffffffff000000000000000060068601541617600685015567ffffffffffffffff60843516156000146121f15750611dc3885b60068501907fffffffffffffffffffffffffffffffff0000000000000000ffffffffffffffff6fffffffffffffffff000000000000000083549260401b169116179055565b6006830180547fffffffffffffffffffffffffffffff00ffffffffffffffffffffffffffffffff16905567ffffffffffffffff84116120b157611e09600784015461488a565b601f81116121ad575b508388601f82116001146120e95789916120de575b508460011b907fffffffffffffffffffffffffffffffffffffffffffffffffffffffffffffffff8660031b1c19161760078401555b67ffffffffffffffff82116120b157611e78600884015461488a565b601f811161206d575b509660209781601f8411600114611f6f5792806006937fc9bf202ea95f26c320a65248b74079ae91640228e1bc80b047f2952ef2059213969373ffffffffffffffffffffffffffffffffffffffff9692611f64575b50507fffffffffffffffffffffffffffffffffffffffffffffffffffffffffffffffff8260011b9260031b1c19161760088201555b01549467ffffffffffffffff6040519660243588526044358a890152818116604089015260401c16606087015260a06080870152169380611f563395600189019560a08401916149ed565b0390a4600160405191018152f35b013590503880611ed6565b91600885018352898320925b7fffffffffffffffffffffffffffffffffffffffffffffffffffffffffffffffe0851681106120565750836006937fc9bf202ea95f26c320a65248b74079ae91640228e1bc80b047f2952ef20592139693600193837fffffffffffffffffffffffffffffffffffffffffffffffffffffffffffffffe073ffffffffffffffffffffffffffffffffffffffff99161061201e575b505050811b016008820155611f0b565b7fffffffffffffffffffffffffffffffffffffffffffffffffffffffffffffffff60f88560031b161c1991013516905538808061200e565b90928a600181928686013581550194019101611f7b565b60088401895260208920601f840160051c8101602085106120aa575b601f830160051c8201811061209f575050611e81565b8a8155600101612089565b5080612089565b6024887f4e487b710000000000000000000000000000000000000000000000000000000081526041600452fd5b905085013538611e27565b600785018a5260208a209150895b7fffffffffffffffffffffffffffffffffffffffffffffffffffffffffffffffe0871681106121955750857fffffffffffffffffffffffffffffffffffffffffffffffffffffffffffffffe081161061215d575b5050600184811b016007840155611e5c565b7fffffffffffffffffffffffffffffffffffffffffffffffffffffffffffffffff60f88760031b161c1990870135169055388061214b565b9091602060018192858b0135815501930191016120f7565b60078401895260208920601f860160051c8101602087106121ea575b601f830160051c820181106121df575050611e12565b8a81556001016121c9565b50806121c9565b612201611dc391608435906149a2565b611d7e565b67ffffffffffffffff61221b606435836149a2565b611d35565b6024877f4e487b710000000000000000000000000000000000000000000000000000000081526011600452fd5b60646040517f08c379a000000000000000000000000000000000000000000000000000000000815260206004820152600d60248201527f494e56414c49445f56414c5545000000000000000000000000000000000000006044820152fd5b34612360576040517f23b872dd00000000000000000000000000000000000000000000000000000000602082015233602482015230604482015260243560648201526064815260a081019080821067ffffffffffffffff8311176123315761232c9160405273ffffffffffffffffffffffffffffffffffffffff8616614a39565b611c1b565b7f4e487b7100000000000000000000000000000000000000000000000000000000600052604160045260246000fd5b60646040517f08c379a000000000000000000000000000000000000000000000000000000000815260206004820152600b60248201527f544f4b454e5f56414c55450000000000000000000000000000000000000000006044820152fd5b8480fd5b50346101fd57807ffffffffffffffffffffffffffffffffffffffffffffffffffffffffffffffffc3601126101fd576123f9614000565b60c95460ff811615612457577fffffffffffffffffffffffffffffffffffffffffffffffffffffffffffffff001660c9557f5db9ee0a495bf2e6ff9c91a7834c1ba4fdd244a5e8aa4e537bd38aeae4b073aa6020604051338152a180f35b60646040517f08c379a000000000000000000000000000000000000000000000000000000000815260206004820152601460248201527f5061757361626c653a206e6f74207061757365640000000000000000000000006044820152fd5b50346101fd576020807ffffffffffffffffffffffffffffffffffffffffffffffffffffffffffffffffc360112612844576124ee613c7c565b9073ffffffffffffffffffffffffffffffffffffffff807f00000000000000000000000000000000000000000000000000000000000000001661253381301415614354565b6125627f360894a13ba1a3210667c828492db98dca3e2076cc3735a920a3ca505d382bbc9183835416146143df565b61256a613d83565b604051908382019282841067ffffffffffffffff851117612331578360405286835260ff7f4910fdfa16fed3260ed0e7147f7cc6da11a60208b5b9406d12a635614ffd914354166000146125c65750505050506109389061446a565b8596949516906040517f52d1902d0000000000000000000000000000000000000000000000000000000081528681600481865afa60009181612815575b5061268c57608487604051907f08c379a00000000000000000000000000000000000000000000000000000000082526004820152602e60248201527f45524331393637557067726164653a206e657720696d706c656d656e7461746960448201527f6f6e206973206e6f7420555550530000000000000000000000000000000000006064820152fd5b959495036127915761269d8661446a565b604051907fbc7cd75a20ee27fd9adebab32041f755214dbc6bffa90cc0225b39da2e5c2d3b600080a2815115801590612789575b6126df575b50505050905080f35b853b1561270857506126fd9394600092839251915af4611996614556565b5080388080806126d6565b80847f08c379a000000000000000000000000000000000000000000000000000000000608493526004820152602660248201527f416464726573733a2064656c65676174652063616c6c20746f206e6f6e2d636f60448201527f6e747261637400000000000000000000000000000000000000000000000000006064820152fd5b5060006126d1565b608484604051907f08c379a00000000000000000000000000000000000000000000000000000000082526004820152602960248201527f45524331393637557067726164653a20756e737570706f727465642070726f7860448201527f6961626c655555494400000000000000000000000000000000000000000000006064820152fd5b90918882813d831161283d575b61282c8183613d08565b810103126101fd5750519038612603565b503d612822565b5080fd5b50346101fd5760407ffffffffffffffffffffffffffffffffffffffffffffffffffffffffffffffffc3601126101fd57612880613c59565b3373ffffffffffffffffffffffffffffffffffffffff8216036128a957610938906004356142b2565b60846040517f08c379a000000000000000000000000000000000000000000000000000000000815260206004820152602f60248201527f416363657373436f6e74726f6c3a2063616e206f6e6c792072656e6f756e636560448201527f20726f6c657320666f722073656c6600000000000000000000000000000000006064820152fd5b50346101fd5760407ffffffffffffffffffffffffffffffffffffffffffffffffffffffffffffffffc3601126101fd57600435612968613c59565b81835260656020526129806001604085200154614176565b81600052606560205273ffffffffffffffffffffffffffffffffffffffff60406000209116908160005260205260ff60406000205416156129bf578280f35b816000526065602052604060002081600052602052604060002060017fffffffffffffffffffffffffffffffffffffffffffffffffffffffffffffff0082541617905533917f2f8788117e7eff1d82e926ec794901d17c78024a50270940304540a733656f0d600080a438808280f35b50346101fd5760207ffffffffffffffffffffffffffffffffffffffffffffffffffffffffffffffffc3601126101fd5760016040602092600435815260658452200154604051908152f35b50346101fd5760207ffffffffffffffffffffffffffffffffffffffffffffffffffffffffffffffffc3601126101fd57806101a0604051612aba81613cb3565b8281528260208201528260408201528260608201528260808201528260a08201528260c08201528260e082015282610100820152826101208201526060610140820152606061016082015282610180820152015260043581526101606020526040812060405190612b2a82613cb3565b73ffffffffffffffffffffffffffffffffffffffff815416825273ffffffffffffffffffffffffffffffffffffffff600182015416602083015260028101546040830152600381015460608301526004810154608083015267ffffffffffffffff600582015473ffffffffffffffffffffffffffffffffffffffff811660a085015260a01c1660c0830152600681015467ffffffffffffffff811660e084015267ffffffffffffffff8160401c16610100840152600660ff8260801c161015612d845760ff9182600a9260801c16610120850152612c0a600782016148dd565b610140850152612c1c600882016148dd565b610160850152600981015461018085015201541615156101a0820152604051906020825273ffffffffffffffffffffffffffffffffffffffff815116602083015273ffffffffffffffffffffffffffffffffffffffff60208201511660408301526040810151606083015260608101516080830152608081015160a083015273ffffffffffffffffffffffffffffffffffffffff60a08201511660c083015267ffffffffffffffff60c08201511660e083015267ffffffffffffffff60e08201511661010083015267ffffffffffffffff610100820151166101208301526101208101516006811015612d84578293506101408301526101408101516101a0612d6d612d376101c093846101608801526101e0870190613c16565b6101608501517fffffffffffffffffffffffffffffffffffffffffffffffffffffffffffffffe087830301610180880152613c16565b926101808101518286015201511515908301520390f35b6024847f4e487b710000000000000000000000000000000000000000000000000000000081526021600452fd5b50346101fd57807ffffffffffffffffffffffffffffffffffffffffffffffffffffffffffffffffc3601126101fd5760206040517fc785f0e55c16138ca0f8448186fa6229be092a3a83db3c5d63c9286723c5a2c48152f35b50346101fd5760407ffffffffffffffffffffffffffffffffffffffffffffffffffffffffffffffffc3601126101fd57602435600435612e48614820565b80835261016060205260408320600681015460ff8160801c166006811015611486576001036108865767ffffffffffffffff8160401c1680151590816132fa575b506108525760098201546132d05773ffffffffffffffffffffffffffffffffffffffff61016154166004830154906040517f6f6bf118000000000000000000000000000000000000000000000000000000008152826004820152602081602481855afa908115611042578891613296575b50604051907fd4ec2320000000000000000000000000000000000000000000000000000000008252602082600481865afa91821561328b578992613243575b5073ffffffffffffffffffffffffffffffffffffffff1633141590816131ad575b506106e85786602491604051928380927f584ee35c0000000000000000000000000000000000000000000000000000000082528a60048301525afa9182156131a25785918893613037575b5082511491821592613028575b50506106e8577002000000000000000000000000000000007fffffffffffffffffffffffffffffff00ffffffffffffffffffffffffffffffff60069286600986015516179101556040519182527f87eae43bc7a49d6cf2772f529e81dad4873f46531d8af65bf43888e18bc1252060203393a380f35b60800151141590508338612fb2565b915091503d8088833e61304a8183613d08565b81019060408183031261103757805167ffffffffffffffff81116106395781019061010091828185031261319e5760405192830183811067ffffffffffffffff8211176123315760405280518352602081015160208401526040810151604084015260608101516060840152608081015160808401526130cc60a08201614bcc565b60a084015260c081015167ffffffffffffffff81116106d157816130f78660e0936131029501614bed565b60c086015201614c32565b60e083015260208101519067ffffffffffffffff821161319e570160808184031261063957604051906080820182811067ffffffffffffffff8211176123315760405261314e81614bcc565b825261315c60208201614a2c565b6020830152604081015167ffffffffffffffff81116106d1576060826131898b9761319494849601614bed565b604086015201614c32565b9101529138612fa5565b8980fd5b6040513d89823e3d90fd5b6040517fa1c000b00000000000000000000000000000000000000000000000000000000081526004810185905233602482015260448101919091529050602081606481855afa908115611042578891613209575b501538612f5a565b90506020813d60201161323b575b8161322460209383613d08565b810103126110375761323590614a2c565b38613201565b3d9150613217565b9091506020813d602011613283575b8161325f60209383613d08565b810103126107cf57519073ffffffffffffffffffffffffffffffffffffffff612f39565b3d9150613252565b6040513d8b823e3d90fd5b90506020813d6020116132c8575b816132b160209383613d08565b81010312611037576132c290614bcc565b38612efa565b3d91506132a4565b60046040517f9fbfc589000000000000000000000000000000000000000000000000000000008152fd5b9050421138612e89565b50346101fd5760807ffffffffffffffffffffffffffffffffffffffffffffffffffffffffffffffffc3601126101fd576024803580151591600435918381036123be576044359384151594858103611b3d5760643567ffffffffffffffff811161103757613376903690600401613bc5565b90917fc785f0e55c16138ca0f8448186fa6229be092a3a83db3c5d63c9286723c5a2c494858a526020956065875260408b20338c52875260ff60408c205416156138665750878a52610160865260408a2091600683019760ff895460801c1690600682101561383b5750600403610886576003830180548c93816136a7575b505050600283019081549081613492575b5050505090600461348c9392877003000000000000000000000000000000007fffffffffffffffffffffffffffffff00ffffffffffffffffffffffffffffffff7fadb6395dfa6f076b9f57e5923a4b419a09b2be924b47f35440cb0bad56ea64809a541617905501549760405195869586528501526060604085015260608401916149ed565b0390a380f35b1561352a5750917fadb6395dfa6f076b9f57e5923a4b419a09b2be924b47f35440cb0bad56ea64809760049261348c9695946134ef73ffffffffffffffffffffffffffffffffffffffff8060018701541690865416835491614cae565b55600a820160017fffffffffffffffffffffffffffffffffffffffffffffffffffffffffffffff0082541617905597819394958c9350613406565b600184019073ffffffffffffffffffffffffffffffffffffffff908183541690811560001461362c5750509081610162541691835491541690823b156123be576040517f722e5c8b00000000000000000000000000000000000000000000000000000000815273ffffffffffffffffffffffffffffffffffffffff90921660048301526024820181905290918491839190829081604481015b03925af1801561362157613604575b50917fadb6395dfa6f076b9f57e5923a4b419a09b2be924b47f35440cb0bad56ea64809760049261348c9695946134ef565b91613613819695949293613c9f565b6123be5791929390386135d2565b6040513d85823e3d90fd5b906136408392610162928484541690614c47565b54169154168254823b156123be576040517f722e5c8b00000000000000000000000000000000000000000000000000000000815273ffffffffffffffffffffffffffffffffffffffff909216600483015260248201529083908290818381604481016135c3565b15613778575073ffffffffffffffffffffffffffffffffffffffff8061016154169060048601549060018701541691835490803b15611b3d576040517f4986e075000000000000000000000000000000000000000000000000000000008152600481019390935273ffffffffffffffffffffffffffffffffffffffff93909316602483015260448201529084908290606490829084905af190811561376d578491613759575b50905b553880806133f5565b61376290613c9f565b611b4157823861374d565b6040513d86823e3d90fd5b90919273ffffffffffffffffffffffffffffffffffffffff91826101615416600487015493600188015416813b15610648576040517f7df29be9000000000000000000000000000000000000000000000000000000008152600481019590955273ffffffffffffffffffffffffffffffffffffffff16602485015260448401919091528290606490829084905af180156138305761381b575b50908a8092613750565b613828909b91929b613c9f565b999038613811565b6040513d8e823e3d90fd5b8c7f4e487b710000000000000000000000000000000000000000000000000000000081526021600452fd5b8688918c61387333614620565b916040519061388182613cec565b60428252848201926060368537825115613adb5760308453825190600191821015613aaf5790607860218501536041915b8183116139e65750505061398a5760486139869361394193613950936040519586937f416363657373436f6e74726f6c3a206163636f756e74200000000000000000008a86015261390c815180928c603789019101613bf3565b8401917f206973206d697373696e6720726f6c6520000000000000000000000000000000603784015251809386840190613bf3565b01036028810184520182613d08565b6040519384937f08c379a00000000000000000000000000000000000000000000000000000000085526004850152830190613c16565b0390fd5b60648585604051917f08c379a00000000000000000000000000000000000000000000000000000000083528160048401528201527f537472696e67733a20686578206c656e67746820696e73756666696369656e746044820152fd5b909192600f81166010811015613a83577f3031323334353637383961626364656600000000000000000000000000000000901a613a2385876145e0565b5360041c928015613a57577fffffffffffffffffffffffffffffffffffffffffffffffffffffffffffffffff0191906138b2565b88827f4e487b710000000000000000000000000000000000000000000000000000000081526011600452fd5b89837f4e487b710000000000000000000000000000000000000000000000000000000081526032600452fd5b807f4e487b71000000000000000000000000000000000000000000000000000000008992526032600452fd5b807f4e487b71000000000000000000000000000000000000000000000000000000008892526032600452fd5b9050346128445760207ffffffffffffffffffffffffffffffffffffffffffffffffffffffffffffffffc360112612844576004357fffffffff000000000000000000000000000000000000000000000000000000008116809103611b4157602092507f7965db0b000000000000000000000000000000000000000000000000000000008114908115613b9b575b5015158152f35b7f01ffc9a70000000000000000000000000000000000000000000000000000000091501438613b94565b9181601f840112156107cf5782359167ffffffffffffffff83116107cf57602083818601950101116107cf57565b60005b838110613c065750506000910152565b8181015183820152602001613bf6565b907fffffffffffffffffffffffffffffffffffffffffffffffffffffffffffffffe0601f602093613c5281518092818752878088019101613bf3565b0116010190565b6024359073ffffffffffffffffffffffffffffffffffffffff821682036107cf57565b6004359073ffffffffffffffffffffffffffffffffffffffff821682036107cf57565b67ffffffffffffffff811161233157604052565b6101c0810190811067ffffffffffffffff82111761233157604052565b6060810190811067ffffffffffffffff82111761233157604052565b6080810190811067ffffffffffffffff82111761233157604052565b90601f7fffffffffffffffffffffffffffffffffffffffffffffffffffffffffffffffe0910116810190811067ffffffffffffffff82111761233157604052565b67ffffffffffffffff811161233157601f017fffffffffffffffffffffffffffffffffffffffffffffffffffffffffffffffe01660200190565b3360009081527fffdfc1249c027f9191656349feb0761381bb32c9f557e01f419fd08754bf5a1b602090815260408083205490929060ff1615613dc557505050565b613dce33614620565b9080845190613ddc82613cec565b60428252848201926060368537825115613fd35760308453825190600191821015613fd35790607860218501536041915b818311613f0857505050613eac576048613986938693613e7693613e6798519889937f416363657373436f6e74726f6c3a206163636f756e74200000000000000000008a86015261390c815180928c603789019101613bf3565b01036028810187520185613d08565b519283927f08c379a000000000000000000000000000000000000000000000000000000000845260048401526024830190613c16565b6064848651907f08c379a000000000000000000000000000000000000000000000000000000000825280600483015260248201527f537472696e67733a20686578206c656e67746820696e73756666696369656e746044820152fd5b909192600f81166010811015613fa6577f3031323334353637383961626364656600000000000000000000000000000000901a613f4585876145e0565b5360041c928015613f79577fffffffffffffffffffffffffffffffffffffffffffffffffffffffffffffffff019190613e0d565b6024827f4e487b710000000000000000000000000000000000000000000000000000000081526011600452fd5b6024837f4e487b710000000000000000000000000000000000000000000000000000000081526032600452fd5b807f4e487b7100000000000000000000000000000000000000000000000000000000602492526032600452fd5b3360009081527fbfe93621c6aa2dbf737e9056c9b79e4d30ee4f6b28b18be2cb71aac8a7bf258e602090815260408083205490927f65d7a28e3265b37a6474929f336521b332c1681b933f6cb9f3376673440d862a9160ff16156140645750505050565b61406d33614620565b9184519061407a82613cec565b60428252848201926060368537825115613fd35760308453825190600191821015613fd35790607860218501536041915b81831161410557505050613eac576048613986938693613e7693613e6798519889937f416363657373436f6e74726f6c3a206163636f756e74200000000000000000008a86015261390c815180928c603789019101613bf3565b909192600f81166010811015613fa6577f3031323334353637383961626364656600000000000000000000000000000000901a61414285876145e0565b5360041c928015613f79577fffffffffffffffffffffffffffffffffffffffffffffffffffffffffffffffff0191906140ab565b60009080825260209060658252604092838120338252835260ff8482205416156141a05750505050565b6141a933614620565b918451906141b682613cec565b60428252848201926060368537825115613fd35760308453825190600191821015613fd35790607860218501536041915b81831161424157505050613eac576048613986938693613e7693613e6798519889937f416363657373436f6e74726f6c3a206163636f756e74200000000000000000008a86015261390c815180928c603789019101613bf3565b909192600f81166010811015613fa6577f3031323334353637383961626364656600000000000000000000000000000000901a61427e85876145e0565b5360041c928015613f79577fffffffffffffffffffffffffffffffffffffffffffffffffffffffffffffffff0191906141e7565b90600091808352606560205273ffffffffffffffffffffffffffffffffffffffff6040842092169182845260205260ff6040842054166142f157505050565b808352606560205260408320828452602052604083207fffffffffffffffffffffffffffffffffffffffffffffffffffffffffffffff0081541690557ff6391f5c32d9c69d2a47ea670b442974b53935d1edc7fd64eb21e047a839171b339380a4565b1561435b57565b60846040517f08c379a000000000000000000000000000000000000000000000000000000000815260206004820152602c60248201527f46756e6374696f6e206d7573742062652063616c6c6564207468726f7567682060448201527f64656c656761746563616c6c00000000000000000000000000000000000000006064820152fd5b156143e657565b60846040517f08c379a000000000000000000000000000000000000000000000000000000000815260206004820152602c60248201527f46756e6374696f6e206d7573742062652063616c6c6564207468726f7567682060448201527f6163746976652070726f787900000000000000000000000000000000000000006064820152fd5b803b156144d25773ffffffffffffffffffffffffffffffffffffffff7f360894a13ba1a3210667c828492db98dca3e2076cc3735a920a3ca505d382bbc91167fffffffffffffffffffffffff0000000000000000000000000000000000000000825416179055565b60846040517f08c379a000000000000000000000000000000000000000000000000000000000815260206004820152602d60248201527f455243313936373a206e657720696d706c656d656e746174696f6e206973206e60448201527f6f74206120636f6e7472616374000000000000000000000000000000000000006064820152fd5b3d15614581573d9061456782613d49565b916145756040519384613d08565b82523d6000602084013e565b606090565b90919015614592575090565b8151156145a25750805190602001fd5b613986906040519182917f08c379a0000000000000000000000000000000000000000000000000000000008352602060048401526024830190613c16565b9081518110156145f1570160200190565b7f4e487b7100000000000000000000000000000000000000000000000000000000600052603260045260246000fd5b6040519061462d82613cd0565b602a82526020820160403682378251156145f1576030905381516001908110156145f157607860218401536029905b8082116146ca57505061466c5790565b60646040517f08c379a000000000000000000000000000000000000000000000000000000000815260206004820152602060248201527f537472696e67733a20686578206c656e67746820696e73756666696369656e746044820152fd5b9091600f81166010811015614767577f3031323334353637383961626364656600000000000000000000000000000000901a61470684866145e0565b5360041c918015614739577fffffffffffffffffffffffffffffffffffffffffffffffffffffffffffffffff019061465c565b602460007f4e487b710000000000000000000000000000000000000000000000000000000081526011600452fd5b602460007f4e487b710000000000000000000000000000000000000000000000000000000081526032600452fd5b1561479c57565b60846040517f08c379a000000000000000000000000000000000000000000000000000000000815260206004820152602b60248201527f496e697469616c697a61626c653a20636f6e7472616374206973206e6f74206960448201527f6e697469616c697a696e670000000000000000000000000000000000000000006064820152fd5b60ff60c9541661482c57565b60646040517f08c379a000000000000000000000000000000000000000000000000000000000815260206004820152601060248201527f5061757361626c653a20706175736564000000000000000000000000000000006044820152fd5b90600182811c921680156148d3575b60208310146148a457565b7f4e487b7100000000000000000000000000000000000000000000000000000000600052602260045260246000fd5b91607f1691614899565b90604051918260008254926148f18461488a565b908184526001948581169081600014614960575060011461491d575b505061491b92500383613d08565b565b9093915060005260209081600020936000915b81831061494857505061491b9350820101388061490d565b85548884018501529485019487945091830191614930565b905061491b9550602093507fffffffffffffffffffffffffffffffffffffffffffffffffffffffffffffff0091501682840152151560051b820101388061490d565b91909167ffffffffffffffff808094169116019182116149be57565b7f4e487b7100000000000000000000000000000000000000000000000000000000600052601160045260246000fd5b601f82602094937fffffffffffffffffffffffffffffffffffffffffffffffffffffffffffffffe0938186528686013760008582860101520116010190565b519081151582036107cf57565b73ffffffffffffffffffffffffffffffffffffffff1690604051906040820182811067ffffffffffffffff821117612331576040526020928383527f5361666545524332303a206c6f772d6c6576656c2063616c6c206661696c656484840152803b15614b6e5760008281928287614ac09796519301915af1614aba614556565b90614586565b805180614acc57505050565b818391810103126107cf5781614ae29101614a2c565b15614aea5750565b608490604051907f08c379a00000000000000000000000000000000000000000000000000000000082526004820152602a60248201527f5361666545524332303a204552433230206f7065726174696f6e20646964206e60448201527f6f742073756363656564000000000000000000000000000000000000000000006064820152fd5b606484604051907f08c379a00000000000000000000000000000000000000000000000000000000082526004820152601d60248201527f416464726573733a2063616c6c20746f206e6f6e2d636f6e74726163740000006044820152fd5b519073ffffffffffffffffffffffffffffffffffffffff821682036107cf57565b81601f820112156107cf578051614c0381613d49565b92614c116040519485613d08565b818452602082840101116107cf57614c2f9160208085019101613bf3565b90565b519067ffffffffffffffff821682036107cf57565b6040517fa9059cbb00000000000000000000000000000000000000000000000000000000602082015273ffffffffffffffffffffffffffffffffffffffff92909216602483015260448083019390935291815261491b91614ca9606483613d08565b614a39565b908215614d575773ffffffffffffffffffffffffffffffffffffffff91821680614d4c57506000809381938293165af1614ce6614556565b5015614cee57565b60646040517f08c379a000000000000000000000000000000000000000000000000000000000815260206004820152601360248201527f4554485f5452414e534645525f4641494c4544000000000000000000000000006044820152fd5b61491b939250614c47565b50505056fea26469706673582212208c240704331b02a3f030fadec4eb6915e805d62645ae30bbf64fdba38839619764736f6c63430008140033","opcodes":"PUSH1 0xA0 DUP1 PUSH1 0x40 MSTORE CALLVALUE PUSH3 0xE1 JUMPI ADDRESS PUSH1 0x80 MSTORE PUSH1 0x0 SLOAD SWAP1 PUSH1 0xFF DUP3 PUSH1 0x8 SHR AND PUSH3 0x8F JUMPI POP PUSH1 0xFF DUP1 DUP3 AND LT PUSH3 0x53 JUMPI JUMPDEST PUSH1 0x40 MLOAD PUSH2 0x4D92 SWAP1 DUP2 PUSH3 0xE7 DUP3 CODECOPY PUSH1 0x80 MLOAD DUP2 DUP2 DUP2 PUSH2 0x163E ADD MSTORE DUP2 DUP2 PUSH2 0x17BB ADD MSTORE PUSH2 0x2507 ADD MSTORE RETURN JUMPDEST PUSH1 0xFF SWAP1 DUP2 NOT AND OR PUSH1 0x0 SSTORE PUSH32 0x7F26B83FF96E1F2B6A682F133852F6798A09C465DA95921460CEFB3847402498 PUSH1 0x20 PUSH1 0x40 MLOAD PUSH1 0xFF DUP2 MSTORE LOG1 CODESIZE PUSH3 0x2C JUMP JUMPDEST PUSH3 0x461BCD PUSH1 0xE5 SHL DUP2 MSTORE PUSH1 0x20 PUSH1 0x4 DUP3 ADD MSTORE PUSH1 0x27 PUSH1 0x24 DUP3 ADD MSTORE PUSH32 0x496E697469616C697A61626C653A20636F6E747261637420697320696E697469 PUSH1 0x44 DUP3 ADD MSTORE PUSH7 0x616C697A696E67 PUSH1 0xC8 SHL PUSH1 0x64 DUP3 ADD MSTORE PUSH1 0x84 SWAP1 REVERT JUMPDEST PUSH1 0x0 DUP1 REVERT INVALID PUSH1 0x80 DUP1 PUSH1 0x40 MSTORE PUSH1 0x4 CALLDATASIZE LT ISZERO PUSH2 0x13 JUMPI PUSH1 0x0 DUP1 REVERT JUMPDEST PUSH1 0x0 SWAP1 DUP2 CALLDATALOAD PUSH1 0xE0 SHR SWAP1 DUP2 PUSH4 0x1FFC9A7 EQ PUSH2 0x3B07 JUMPI POP DUP1 PUSH4 0x6963B5E EQ PUSH2 0x3304 JUMPI DUP1 PUSH4 0xA9EEDED EQ PUSH2 0x2E0A JUMPI DUP1 PUSH4 0x193DEF7C EQ PUSH2 0x2DB1 JUMPI DUP1 PUSH4 0x1D65E77E EQ PUSH2 0x2A7A JUMPI DUP1 PUSH4 0x248A9CA3 EQ PUSH2 0x2A2F JUMPI DUP1 PUSH4 0x2F2FF15D EQ PUSH2 0x292D JUMPI DUP1 PUSH4 0x36568ABE EQ PUSH2 0x2848 JUMPI DUP1 PUSH4 0x3659CFE6 EQ PUSH2 0x24B5 JUMPI DUP1 PUSH4 0x3F4BA83A EQ PUSH2 0x23C2 JUMPI DUP1 PUSH4 0x4A09778D EQ PUSH2 0x1B45 JUMPI DUP1 PUSH4 0x4F1EF286 EQ PUSH2 0x1712 JUMPI DUP1 PUSH4 0x52D1902D EQ PUSH2 0x15F8 JUMPI DUP1 PUSH4 0x58516661 EQ PUSH2 0x15A5 JUMPI DUP1 PUSH4 0x5C975ABB EQ PUSH2 0x1564 JUMPI DUP1 PUSH4 0x61D027B3 EQ PUSH2 0x1511 JUMPI DUP1 PUSH4 0x7EEC20A8 EQ PUSH2 0x1323 JUMPI DUP1 PUSH4 0x8456CB59 EQ PUSH2 0x128C JUMPI DUP1 PUSH4 0x91D14854 EQ PUSH2 0x1214 JUMPI DUP1 PUSH4 0xA217FDDF EQ PUSH2 0x11DA JUMPI DUP1 PUSH4 0xAE80CEB9 EQ PUSH2 0xE01 JUMPI DUP1 PUSH4 0xB6CB58A5 EQ PUSH2 0xDC4 JUMPI DUP1 PUSH4 0xC0C53B8B EQ PUSH2 0x93B JUMPI DUP1 PUSH4 0xD547741F EQ PUSH2 0x8DC JUMPI DUP1 PUSH4 0xDB6BEBF9 EQ PUSH2 0x259 JUMPI DUP1 PUSH4 0xE63AB1E9 EQ PUSH2 0x200 JUMPI PUSH4 0xF0F44260 EQ PUSH2 0x14A JUMPI PUSH1 0x0 DUP1 REVERT JUMPDEST CALLVALUE PUSH2 0x1FD JUMPI PUSH1 0x20 PUSH32 0xFFFFFFFFFFFFFFFFFFFFFFFFFFFFFFFFFFFFFFFFFFFFFFFFFFFFFFFFFFFFFFFC CALLDATASIZE ADD SLT PUSH2 0x1FD JUMPI PUSH20 0xFFFFFFFFFFFFFFFFFFFFFFFFFFFFFFFFFFFFFFFF PUSH2 0x196 PUSH2 0x3C7C JUMP JUMPDEST PUSH2 0x19E PUSH2 0x3D83 JUMP JUMPDEST AND DUP1 ISZERO PUSH2 0x1D3 JUMPI PUSH2 0x162 SWAP1 PUSH32 0xFFFFFFFFFFFFFFFFFFFFFFFF0000000000000000000000000000000000000000 DUP3 SLOAD AND OR SWAP1 SSTORE DUP1 RETURN JUMPDEST PUSH1 0x4 PUSH1 0x40 MLOAD PUSH32 0xE6C4247B00000000000000000000000000000000000000000000000000000000 DUP2 MSTORE REVERT JUMPDEST DUP1 REVERT JUMPDEST POP CALLVALUE PUSH2 0x1FD JUMPI DUP1 PUSH32 0xFFFFFFFFFFFFFFFFFFFFFFFFFFFFFFFFFFFFFFFFFFFFFFFFFFFFFFFFFFFFFFFC CALLDATASIZE ADD SLT PUSH2 0x1FD JUMPI PUSH1 0x20 PUSH1 0x40 MLOAD PUSH32 0x65D7A28E3265B37A6474929F336521B332C1681B933F6CB9F3376673440D862A DUP2 MSTORE RETURN JUMPDEST POP CALLVALUE PUSH2 0x1FD JUMPI PUSH1 0x40 PUSH32 0xFFFFFFFFFFFFFFFFFFFFFFFFFFFFFFFFFFFFFFFFFFFFFFFFFFFFFFFFFFFFFFFC CALLDATASIZE ADD SLT PUSH2 0x1FD JUMPI PUSH1 0x24 DUP1 CALLDATALOAD PUSH1 0x4 CALLDATALOAD PUSH2 0x298 PUSH2 0x4820 JUMP JUMPDEST DUP1 DUP5 MSTORE PUSH1 0x20 SWAP3 PUSH2 0x160 DUP5 MSTORE PUSH1 0x40 DUP6 KECCAK256 SWAP1 PUSH1 0x6 DUP3 ADD SWAP1 DUP2 SLOAD PUSH1 0xFF DUP2 PUSH1 0x80 SHR AND PUSH1 0x6 DUP2 LT ISZERO PUSH2 0x8B0 JUMPI PUSH2 0x886 JUMPI PUSH8 0xFFFFFFFFFFFFFFFF DUP1 SWAP2 AND DUP1 ISZERO ISZERO SWAP1 DUP2 PUSH2 0x87C JUMPI JUMPDEST POP PUSH2 0x852 JUMPI PUSH20 0xFFFFFFFFFFFFFFFFFFFFFFFFFFFFFFFFFFFFFFFF SWAP4 DUP5 PUSH2 0x161 SLOAD AND SWAP5 PUSH1 0x40 MLOAD PUSH32 0x9D18755D00000000000000000000000000000000000000000000000000000000 DUP2 MSTORE DUP9 PUSH1 0x4 DUP3 ADD MSTORE DUP10 DUP2 DUP7 DUP2 DUP11 GAS STATICCALL SWAP1 DUP2 ISZERO PUSH2 0x6DD JUMPI DUP12 SWAP2 PUSH2 0x81D JUMPI JUMPDEST POP ISZERO PUSH2 0x6E8 JUMPI PUSH1 0x40 MLOAD PUSH32 0x6F6BF11800000000000000000000000000000000000000000000000000000000 DUP2 MSTORE DUP9 PUSH1 0x4 DUP3 ADD MSTORE DUP10 DUP2 DUP7 DUP2 DUP11 GAS STATICCALL SWAP1 DUP2 ISZERO PUSH2 0x6DD JUMPI DUP12 SWAP2 PUSH2 0x7E8 JUMPI JUMPDEST POP PUSH1 0x40 MLOAD PUSH32 0xF7F6E02200000000000000000000000000000000000000000000000000000000 DUP2 MSTORE DUP12 DUP12 DUP3 PUSH1 0x4 DUP2 DUP13 GAS STATICCALL SWAP3 DUP4 ISZERO PUSH2 0x7DB JUMPI DUP13 SWAP3 DUP6 SWAP3 SWAP5 PUSH2 0x7A2 JUMPI JUMPDEST POP AND CALLER EQ ISZERO SWAP2 DUP3 PUSH2 0x712 JUMPI JUMPDEST POP POP PUSH2 0x6E8 JUMPI PUSH1 0x1 DUP3 ADD SLOAD AND SWAP5 PUSH1 0x40 MLOAD SWAP1 PUSH32 0x35711EEE00000000000000000000000000000000000000000000000000000000 DUP3 MSTORE DUP9 PUSH1 0x4 DUP4 ADD MSTORE DUP7 DUP6 DUP4 ADD MSTORE PUSH1 0x60 DUP3 PUSH1 0x44 DUP2 DUP5 GAS STATICCALL SWAP2 DUP3 ISZERO PUSH2 0x6DD JUMPI DUP12 SWAP1 DUP13 SWAP4 PUSH2 0x6A0 JUMPI JUMPDEST POP ISZERO PUSH2 0x676 JUMPI PUSH1 0x3 DUP4 ADD SWAP7 DUP8 SLOAD SWAP3 DUP4 PUSH2 0x5A6 JUMPI JUMPDEST POP POP POP POP DUP2 PUSH17 0x100000000000000000000000000000000 PUSH32 0xFFFFFFFFFFFFFFFFFFFFFFFFFFFFFF00FFFFFFFFFFFFFFFF0000000000000000 PUSH1 0x5 DUP8 SLOAD SWAP5 DUP12 PUSH1 0x4 DUP3 ADD SSTORE ADD SWAP4 CALLER PUSH32 0xFFFFFFFFFFFFFFFFFFFFFFFF0000000000000000000000000000000000000000 DUP7 SLOAD AND OR DUP1 SWAP6 SSTORE AND OR DUP1 DUP7 SSTORE PUSH1 0x40 SHR AND SWAP1 DUP2 PUSH2 0x4EF JUMPI JUMPDEST POP POP POP POP POP PUSH32 0x9F2154268F715A510CD9DBB97C17702E0D074B747D0EB595C97E104A30600AB SWAP1 SLOAD SWAP4 PUSH1 0x40 MLOAD SWAP5 DUP6 MSTORE CALLER SWAP5 LOG4 DUP1 RETURN JUMPDEST PUSH1 0xA0 SHR DUP3 AND SWAP1 SUB SWAP2 DUP2 DUP4 GT PUSH2 0x57B JUMPI POP SWAP2 PUSH2 0x531 PUSH2 0x571 SWAP3 PUSH32 0x9F2154268F715A510CD9DBB97C17702E0D074B747D0EB595C97E104A30600AB SWAP6 SWAP5 TIMESTAMP AND PUSH2 0x49A2 JUMP JUMPDEST PUSH32 0xFFFFFFFFFFFFFFFFFFFFFFFFFFFFFFFF0000000000000000FFFFFFFFFFFFFFFF PUSH16 0xFFFFFFFFFFFFFFFF0000000000000000 DUP4 SLOAD SWAP3 PUSH1 0x40 SHL AND SWAP2 AND OR SWAP1 SSTORE JUMP JUMPDEST SWAP1 CODESIZE DUP1 DUP1 DUP1 PUSH2 0x4BA JUMP JUMPDEST DUP9 PUSH32 0x4E487B7100000000000000000000000000000000000000000000000000000000 DUP2 MSTORE PUSH1 0x11 PUSH1 0x4 MSTORE REVERT JUMPDEST DUP4 GT PUSH2 0x64C JUMPI DUP12 SWAP3 DUP3 EXTCODESIZE ISZERO PUSH2 0x648 JUMPI PUSH1 0x40 MLOAD PUSH32 0xDBC1135200000000000000000000000000000000000000000000000000000000 DUP2 MSTORE PUSH1 0x4 DUP2 ADD DUP13 SWAP1 MSTORE PUSH20 0xFFFFFFFFFFFFFFFFFFFFFFFFFFFFFFFFFFFFFFFF SWAP3 SWAP1 SWAP3 AND PUSH1 0x24 DUP4 ADD MSTORE PUSH1 0x44 DUP3 ADD MSTORE SWAP1 DUP3 SWAP1 DUP3 SWAP1 PUSH1 0x64 SWAP1 DUP3 SWAP1 DUP5 SWAP1 GAS CALL DUP1 ISZERO PUSH2 0x63D JUMPI PUSH2 0x625 JUMPI JUMPDEST DUP1 DUP1 PUSH2 0x43C JUMP JUMPDEST PUSH2 0x62E SWAP1 PUSH2 0x3C9F JUMP JUMPDEST PUSH2 0x639 JUMPI DUP9 CODESIZE PUSH2 0x61E JUMP JUMPDEST DUP9 DUP1 REVERT JUMPDEST PUSH1 0x40 MLOAD RETURNDATASIZE DUP5 DUP3 RETURNDATACOPY RETURNDATASIZE SWAP1 REVERT JUMPDEST DUP4 DUP1 REVERT JUMPDEST PUSH1 0x4 PUSH1 0x40 MLOAD PUSH32 0x2C5211C600000000000000000000000000000000000000000000000000000000 DUP2 MSTORE REVERT JUMPDEST PUSH1 0x4 PUSH1 0x40 MLOAD PUSH32 0xF1BC94D200000000000000000000000000000000000000000000000000000000 DUP2 MSTORE REVERT JUMPDEST SWAP3 POP POP PUSH1 0x60 DUP3 RETURNDATASIZE DUP3 GT PUSH2 0x6D5 JUMPI JUMPDEST DUP2 PUSH2 0x6BB PUSH1 0x60 SWAP4 DUP4 PUSH2 0x3D08 JUMP JUMPDEST DUP2 ADD SUB SLT PUSH2 0x6D1 JUMPI PUSH1 0x40 DUP3 MLOAD SWAP3 ADD MLOAD SWAP2 CODESIZE PUSH2 0x428 JUMP JUMPDEST DUP11 DUP1 REVERT JUMPDEST RETURNDATASIZE SWAP2 POP PUSH2 0x6AE JUMP JUMPDEST PUSH1 0x40 MLOAD RETURNDATASIZE DUP14 DUP3 RETURNDATACOPY RETURNDATASIZE SWAP1 REVERT JUMPDEST PUSH1 0x4 PUSH1 0x40 MLOAD PUSH32 0x9C7893C000000000000000000000000000000000000000000000000000000000 DUP2 MSTORE REVERT JUMPDEST PUSH1 0x40 MLOAD PUSH32 0xA1C000B000000000000000000000000000000000000000000000000000000000 DUP2 MSTORE PUSH1 0x4 DUP2 ADD DUP13 SWAP1 MSTORE CALLER PUSH1 0x24 DUP3 ADD MSTORE PUSH1 0x44 DUP2 ADD SWAP2 SWAP1 SWAP2 MSTORE SWAP2 POP DUP2 PUSH1 0x64 DUP2 DUP11 GAS STATICCALL SWAP1 DUP2 ISZERO PUSH2 0x6DD JUMPI DUP12 SWAP2 PUSH2 0x76D JUMPI JUMPDEST POP ISZERO DUP10 CODESIZE PUSH2 0x3D0 JUMP JUMPDEST SWAP1 POP DUP10 DUP2 DUP2 RETURNDATASIZE DUP4 GT PUSH2 0x79B JUMPI JUMPDEST PUSH2 0x784 DUP2 DUP4 PUSH2 0x3D08 JUMP JUMPDEST DUP2 ADD SUB SLT PUSH2 0x6D1 JUMPI PUSH2 0x795 SWAP1 PUSH2 0x4A2C JUMP JUMPDEST CODESIZE PUSH2 0x764 JUMP JUMPDEST POP RETURNDATASIZE PUSH2 0x77A JUMP JUMPDEST SWAP3 DUP4 SWAP2 SWAP5 POP DUP1 SWAP3 POP RETURNDATASIZE DUP4 GT PUSH2 0x7D4 JUMPI JUMPDEST PUSH2 0x7BC DUP2 DUP4 PUSH2 0x3D08 JUMP JUMPDEST DUP2 ADD SUB SLT PUSH2 0x7CF JUMPI DUP3 DUP12 SWAP2 MLOAD SWAP3 CODESIZE PUSH2 0x3C4 JUMP JUMPDEST PUSH1 0x0 DUP1 REVERT JUMPDEST POP RETURNDATASIZE PUSH2 0x7B2 JUMP JUMPDEST POP PUSH1 0x40 MLOAD SWAP1 RETURNDATASIZE SWAP1 DUP3 RETURNDATACOPY RETURNDATASIZE SWAP1 REVERT JUMPDEST SWAP1 POP DUP10 DUP2 DUP2 RETURNDATASIZE DUP4 GT PUSH2 0x816 JUMPI JUMPDEST PUSH2 0x7FF DUP2 DUP4 PUSH2 0x3D08 JUMP JUMPDEST DUP2 ADD SUB SLT PUSH2 0x6D1 JUMPI PUSH2 0x810 SWAP1 PUSH2 0x4BCC JUMP JUMPDEST CODESIZE PUSH2 0x383 JUMP JUMPDEST POP RETURNDATASIZE PUSH2 0x7F5 JUMP JUMPDEST SWAP1 POP DUP10 DUP2 DUP2 RETURNDATASIZE DUP4 GT PUSH2 0x84B JUMPI JUMPDEST PUSH2 0x834 DUP2 DUP4 PUSH2 0x3D08 JUMP JUMPDEST DUP2 ADD SUB SLT PUSH2 0x6D1 JUMPI PUSH2 0x845 SWAP1 PUSH2 0x4A2C JUMP JUMPDEST CODESIZE PUSH2 0x33C JUMP JUMPDEST POP RETURNDATASIZE PUSH2 0x82A JUMP JUMPDEST PUSH1 0x4 PUSH1 0x40 MLOAD PUSH32 0x1AB7DA6B00000000000000000000000000000000000000000000000000000000 DUP2 MSTORE REVERT JUMPDEST SWAP1 POP TIMESTAMP GT CODESIZE PUSH2 0x2D9 JUMP JUMPDEST PUSH1 0x4 PUSH1 0x40 MLOAD PUSH32 0xF525E32000000000000000000000000000000000000000000000000000000000 DUP2 MSTORE REVERT JUMPDEST DUP3 DUP10 PUSH32 0x4E487B7100000000000000000000000000000000000000000000000000000000 DUP2 MSTORE PUSH1 0x21 PUSH1 0x4 MSTORE REVERT JUMPDEST POP CALLVALUE PUSH2 0x1FD JUMPI PUSH1 0x40 PUSH32 0xFFFFFFFFFFFFFFFFFFFFFFFFFFFFFFFFFFFFFFFFFFFFFFFFFFFFFFFFFFFFFFFC CALLDATASIZE ADD SLT PUSH2 0x1FD JUMPI PUSH2 0x938 PUSH1 0x4 CALLDATALOAD PUSH2 0x91A PUSH2 0x3C59 JUMP JUMPDEST SWAP1 DUP1 DUP5 MSTORE PUSH1 0x65 PUSH1 0x20 MSTORE PUSH2 0x933 PUSH1 0x1 PUSH1 0x40 DUP7 KECCAK256 ADD SLOAD PUSH2 0x4176 JUMP JUMPDEST PUSH2 0x42B2 JUMP JUMPDEST DUP1 RETURN JUMPDEST POP CALLVALUE PUSH2 0x1FD JUMPI PUSH1 0x60 PUSH32 0xFFFFFFFFFFFFFFFFFFFFFFFFFFFFFFFFFFFFFFFFFFFFFFFFFFFFFFFFFFFFFFFC CALLDATASIZE ADD SLT PUSH2 0x1FD JUMPI PUSH2 0x973 PUSH2 0x3C7C JUMP JUMPDEST PUSH2 0x97B PUSH2 0x3C59 JUMP JUMPDEST PUSH1 0x44 CALLDATALOAD PUSH20 0xFFFFFFFFFFFFFFFFFFFFFFFFFFFFFFFFFFFFFFFF DUP1 DUP3 AND DUP1 SWAP3 SUB PUSH2 0x7CF JUMPI DUP5 SLOAD SWAP2 PUSH1 0xFF SWAP4 DUP5 DUP5 PUSH1 0x8 SHR AND ISZERO SWAP4 DUP5 DUP1 SWAP6 PUSH2 0xDB8 JUMPI JUMPDEST DUP1 ISZERO PUSH2 0xDA2 JUMPI JUMPDEST ISZERO PUSH2 0xD1E JUMPI DUP4 PUSH1 0x1 SWAP8 PUSH32 0xFFFFFFFFFFFFFFFFFFFFFFFFFFFFFFFFFFFFFFFFFFFFFFFFFFFFFFFFFFFFFF00 SWAP3 DUP8 DUP11 DUP6 DUP4 AND OR DUP13 SSTORE PUSH2 0xCF0 JUMPI JUMPDEST POP AND DUP1 ISZERO DUP1 ISZERO PUSH2 0xCE6 JUMPI JUMPDEST DUP1 ISZERO PUSH2 0xCDE JUMPI JUMPDEST PUSH2 0x1D3 JUMPI DUP8 SWAP2 PUSH2 0xA52 DUP9 DUP12 SLOAD PUSH1 0x8 SHR AND PUSH2 0xA1D DUP2 PUSH2 0x4795 JUMP JUMPDEST PUSH2 0xA26 DUP2 PUSH2 0x4795 JUMP JUMPDEST PUSH2 0xA2F DUP2 PUSH2 0x4795 JUMP JUMPDEST DUP5 PUSH1 0x97 SSTORE PUSH2 0xA3C DUP2 PUSH2 0x4795 JUMP JUMPDEST PUSH2 0xA45 DUP2 PUSH2 0x4795 JUMP JUMPDEST DUP3 PUSH1 0xC9 SLOAD AND PUSH1 0xC9 SSTORE PUSH2 0x4795 JUMP JUMPDEST PUSH1 0x0 DUP3 DUP2 MSTORE PUSH32 0xFFDFC1249C027F9191656349FEB0761381BB32C9F557E01F419FD08754BF5A1B PUSH1 0x20 SWAP1 DUP2 MSTORE PUSH1 0x40 SWAP1 SWAP2 KECCAK256 SLOAD SWAP1 SWAP9 PUSH1 0x65 SWAP2 DUP2 AND ISZERO PUSH2 0xC92 JUMPI JUMPDEST PUSH32 0xC785F0E55C16138CA0F8448186FA6229BE092A3A83DB3C5D63C9286723C5A2C4 DUP1 PUSH1 0x0 MSTORE DUP3 DUP12 MSTORE PUSH1 0x0 DUP7 PUSH1 0x40 DUP3 KECCAK256 ADD DUP2 DUP2 SLOAD SWAP2 SSTORE DUP2 PUSH32 0xBD79B86FFE0AB8E8776151514217CD7CACD52C909F66475C3AF44E129F0B00FF SWAP2 DUP5 DUP4 DUP4 DUP1 LOG4 PUSH32 0x65D7A28E3265B37A6474929F336521B332C1681B933F6CB9F3376673440D862A DUP1 SWAP9 DUP2 DUP5 MSTORE PUSH1 0x40 DUP5 KECCAK256 ADD SWAP2 DUP4 DUP4 SLOAD SWAP4 SSTORE DUP4 DUP1 LOG4 DUP1 PUSH1 0x0 MSTORE PUSH1 0x40 PUSH1 0x0 KECCAK256 DUP6 PUSH1 0x0 MSTORE DUP12 MSTORE DUP2 PUSH1 0x40 PUSH1 0x0 KECCAK256 SLOAD AND ISZERO PUSH2 0xC45 JUMPI JUMPDEST POP DUP5 PUSH1 0x0 MSTORE DUP2 DUP11 MSTORE PUSH1 0x40 PUSH1 0x0 KECCAK256 DUP5 PUSH1 0x0 MSTORE DUP11 MSTORE PUSH1 0x40 PUSH1 0x0 KECCAK256 SLOAD AND ISZERO PUSH2 0xBF7 JUMPI JUMPDEST POP POP POP POP PUSH32 0xFFFFFFFFFFFFFFFFFFFFFFFF0000000000000000000000000000000000000000 SWAP3 PUSH2 0x161 SWAP2 AND DUP4 DUP3 SLOAD AND OR SWAP1 SSTORE PUSH2 0x162 SWAP2 DUP3 SLOAD AND OR SWAP1 SSTORE PUSH2 0xBA2 JUMPI DUP3 DUP1 RETURN JUMPDEST PUSH32 0x7F26B83FF96E1F2B6A682F133852F6798A09C465DA95921460CEFB3847402498 SWAP2 PUSH32 0xFFFFFFFFFFFFFFFFFFFFFFFFFFFFFFFFFFFFFFFFFFFFFFFFFFFFFFFFFFFF00FF DUP5 SLOAD AND DUP5 SSTORE PUSH1 0x40 MLOAD SWAP1 DUP2 MSTORE LOG1 CODESIZE DUP1 DUP3 DUP1 RETURN JUMPDEST DUP4 PUSH1 0x0 MSTORE DUP9 MSTORE PUSH1 0x40 PUSH1 0x0 KECCAK256 DUP3 PUSH1 0x0 MSTORE DUP9 MSTORE DUP9 PUSH1 0x40 PUSH1 0x0 KECCAK256 SWAP2 DUP3 SLOAD AND OR SWAP1 SSTORE CALLER SWAP2 PUSH32 0x2F8788117E7EFF1D82E926EC794901D17C78024A50270940304540A733656F0D PUSH1 0x0 DUP1 LOG4 CODESIZE DUP1 DUP1 DUP1 PUSH2 0xB5E JUMP JUMPDEST DUP1 PUSH1 0x0 MSTORE DUP3 DUP12 MSTORE PUSH1 0x40 PUSH1 0x0 KECCAK256 DUP6 PUSH1 0x0 MSTORE DUP12 MSTORE PUSH1 0x40 PUSH1 0x0 KECCAK256 DUP13 DUP6 DUP3 SLOAD AND OR SWAP1 SSTORE DUP5 CALLER SWAP2 PUSH32 0x2F8788117E7EFF1D82E926EC794901D17C78024A50270940304540A733656F0D PUSH1 0x0 DUP1 LOG4 CODESIZE PUSH2 0xB3E JUMP JUMPDEST PUSH1 0x0 DUP1 MSTORE DUP2 DUP11 MSTORE PUSH1 0x40 PUSH1 0x0 KECCAK256 DUP5 PUSH1 0x0 MSTORE DUP11 MSTORE PUSH1 0x40 PUSH1 0x0 KECCAK256 DUP6 DUP5 DUP3 SLOAD AND OR SWAP1 SSTORE CALLER DUP5 PUSH1 0x0 PUSH32 0x2F8788117E7EFF1D82E926EC794901D17C78024A50270940304540A733656F0D DUP2 DUP1 LOG4 PUSH2 0xA90 JUMP JUMPDEST POP DUP4 ISZERO PUSH2 0xA04 JUMP JUMPDEST POP DUP5 DUP4 AND ISZERO PUSH2 0x9FD JUMP JUMPDEST PUSH32 0xFFFFFFFFFFFFFFFFFFFFFFFFFFFFFFFFFFFFFFFFFFFFFFFFFFFFFFFFFFFF0000 AND PUSH2 0x101 OR DUP11 SSTORE CODESIZE PUSH2 0x9F2 JUMP JUMPDEST PUSH1 0x84 PUSH1 0x40 MLOAD PUSH32 0x8C379A000000000000000000000000000000000000000000000000000000000 DUP2 MSTORE PUSH1 0x20 PUSH1 0x4 DUP3 ADD MSTORE PUSH1 0x2E PUSH1 0x24 DUP3 ADD MSTORE PUSH32 0x496E697469616C697A61626C653A20636F6E747261637420697320616C726561 PUSH1 0x44 DUP3 ADD MSTORE PUSH32 0x647920696E697469616C697A6564000000000000000000000000000000000000 PUSH1 0x64 DUP3 ADD MSTORE REVERT JUMPDEST POP ADDRESS EXTCODESIZE ISZERO DUP1 ISZERO PUSH2 0x9BA JUMPI POP PUSH1 0x1 DUP7 DUP3 AND EQ PUSH2 0x9BA JUMP JUMPDEST POP PUSH1 0x1 DUP7 DUP3 AND LT PUSH2 0x9B3 JUMP JUMPDEST POP CALLVALUE PUSH2 0x1FD JUMPI DUP1 PUSH32 0xFFFFFFFFFFFFFFFFFFFFFFFFFFFFFFFFFFFFFFFFFFFFFFFFFFFFFFFFFFFFFFFC CALLDATASIZE ADD SLT PUSH2 0x1FD JUMPI PUSH1 0x20 PUSH2 0x15F SLOAD PUSH1 0x40 MLOAD SWAP1 DUP2 MSTORE RETURN JUMPDEST POP CALLVALUE PUSH2 0x1FD JUMPI PUSH1 0x80 PUSH32 0xFFFFFFFFFFFFFFFFFFFFFFFFFFFFFFFFFFFFFFFFFFFFFFFFFFFFFFFFFFFFFFFC CALLDATASIZE ADD SLT PUSH2 0x1FD JUMPI PUSH1 0x64 CALLDATALOAD PUSH1 0x44 CALLDATALOAD PUSH1 0x24 CALLDATALOAD PUSH1 0x4 CALLDATALOAD DUP4 ISZERO ISZERO DUP5 SUB PUSH2 0x7CF JUMPI PUSH20 0xFFFFFFFFFFFFFFFFFFFFFFFFFFFFFFFFFFFFFFFF SWAP2 PUSH2 0x161 SWAP3 DUP1 DUP5 SLOAD AND CALLER SUB PUSH2 0x11B0 JUMPI DUP2 DUP8 MSTORE PUSH1 0x20 SWAP1 PUSH2 0x160 DUP3 MSTORE PUSH1 0x40 DUP9 KECCAK256 SWAP6 DUP5 PUSH1 0x4 DUP9 ADD SLOAD EQ DUP1 ISZERO SWAP1 PUSH2 0x11A2 JUMPI JUMPDEST PUSH2 0x886 JUMPI PUSH1 0x6 DUP8 ADD SWAP1 DUP2 SLOAD PUSH1 0xFF DUP2 PUSH1 0x80 SHR AND PUSH1 0x6 DUP2 LT ISZERO PUSH2 0x1175 JUMPI PUSH1 0x2 SUB PUSH2 0x886 JUMPI DUP11 SWAP10 ISZERO PUSH2 0x1107 JUMPI POP POP PUSH1 0x3 DUP8 ADD DUP1 SLOAD DUP1 PUSH2 0x105A JUMPI JUMPDEST POP POP PUSH17 0x300000000000000000000000000000000 PUSH32 0xFFFFFFFFFFFFFFFFFFFFFFFFFFFFFF00FFFFFFFFFFFFFFFFFFFFFFFFFFFFFFFF DUP3 SLOAD AND OR SWAP1 SSTORE PUSH1 0xA DUP7 ADD PUSH1 0xFF DUP2 SLOAD AND ISZERO DUP1 PUSH2 0x104D JUMPI JUMPDEST PUSH2 0xF1B JUMPI JUMPDEST POP POP POP POP POP POP POP POP DUP1 RETURN JUMPDEST DUP3 DUP3 PUSH1 0x24 SWAP8 SLOAD AND PUSH1 0x40 MLOAD SWAP8 DUP9 DUP1 SWAP3 PUSH32 0x6F6BF11800000000000000000000000000000000000000000000000000000000 DUP3 MSTORE DUP10 PUSH1 0x4 DUP4 ADD MSTORE GAS STATICCALL SWAP6 DUP7 ISZERO PUSH2 0x1042 JUMPI DUP9 SWAP7 PUSH2 0xFE2 JUMPI JUMPDEST POP SWAP1 PUSH32 0x510FCF43A9EFACDF797E59EE23BA1BF1AFF30ABF0E787AB45BB11D968100A88 SWAP3 SWAP2 PUSH2 0xF9F PUSH1 0x2 DUP4 PUSH1 0x1 DUP12 ADD SLOAD AND SWAP10 ADD SWAP9 DUP9 DUP11 SLOAD SWAP2 PUSH2 0x4CAE JUMP JUMPDEST PUSH1 0x1 PUSH32 0xFFFFFFFFFFFFFFFFFFFFFFFFFFFFFFFFFFFFFFFFFFFFFFFFFFFFFFFFFFFFFF00 DUP3 SLOAD AND OR SWAP1 SSTORE DUP7 SLOAD SWAP6 PUSH1 0x40 MLOAD SWAP7 DUP8 MSTORE AND SWAP5 LOG4 SSTORE DUP1 CODESIZE DUP1 DUP1 DUP1 DUP1 DUP1 DUP1 PUSH2 0xF10 JUMP JUMPDEST SWAP3 DUP1 SWAP3 SWAP2 SWAP7 POP DUP4 DUP2 RETURNDATASIZE DUP4 GT PUSH2 0x103B JUMPI JUMPDEST PUSH2 0xFFC DUP2 DUP4 PUSH2 0x3D08 JUMP JUMPDEST DUP2 ADD SUB SLT PUSH2 0x1037 JUMPI PUSH2 0x102E PUSH32 0x510FCF43A9EFACDF797E59EE23BA1BF1AFF30ABF0E787AB45BB11D968100A88 SWAP4 PUSH2 0x4BCC JUMP JUMPDEST SWAP6 SWAP1 SWAP2 SWAP3 PUSH2 0xF62 JUMP JUMPDEST DUP8 DUP1 REVERT JUMPDEST POP RETURNDATASIZE PUSH2 0xFF2 JUMP JUMPDEST PUSH1 0x40 MLOAD RETURNDATASIZE DUP11 DUP3 RETURNDATACOPY RETURNDATASIZE SWAP1 REVERT JUMPDEST POP PUSH1 0x2 DUP8 ADD SLOAD ISZERO ISZERO PUSH2 0xF0B JUMP JUMPDEST DUP4 DUP9 SLOAD AND SWAP1 DUP5 PUSH1 0x1 DUP12 ADD SLOAD AND SWAP1 DUP3 EXTCODESIZE ISZERO PUSH2 0x1103 JUMPI PUSH1 0x40 MLOAD PUSH32 0x7DF29BE900000000000000000000000000000000000000000000000000000000 DUP2 MSTORE PUSH1 0x4 DUP2 ADD DUP11 SWAP1 MSTORE PUSH20 0xFFFFFFFFFFFFFFFFFFFFFFFFFFFFFFFFFFFFFFFF SWAP3 SWAP1 SWAP3 AND PUSH1 0x24 DUP4 ADD MSTORE PUSH1 0x44 DUP3 ADD MSTORE SWAP1 DUP11 SWAP1 DUP3 SWAP1 PUSH1 0x64 SWAP1 DUP3 SWAP1 DUP5 SWAP1 GAS CALL SWAP1 DUP2 ISZERO PUSH2 0x10F8 JUMPI DUP11 SWAP2 PUSH2 0x10E4 JUMPI JUMPDEST POP SWAP1 SSTORE CODESIZE DUP1 PUSH2 0xEC0 JUMP JUMPDEST PUSH2 0x10ED SWAP1 PUSH2 0x3C9F JUMP JUMPDEST PUSH2 0x639 JUMPI DUP9 CODESIZE PUSH2 0x10DA JUMP JUMPDEST PUSH1 0x40 MLOAD RETURNDATASIZE DUP13 DUP3 RETURNDATACOPY RETURNDATASIZE SWAP1 REVERT JUMPDEST DUP12 DUP1 REVERT JUMPDEST PUSH32 0xFFFFFFFFFFFFFFFFFFFFFFFFFFFFFF00FFFFFFFFFFFFFFFFFFFFFFFFFFFFFFFF AND PUSH17 0x400000000000000000000000000000000 OR SWAP1 SWAP2 SSTORE PUSH1 0x40 MLOAD SWAP1 DUP2 MSTORE SWAP4 SWAP7 POP SWAP2 SWAP5 POP PUSH32 0x4D60E575BC6E726584DC5C7E1F3C10CAE07A8E3C3338F4CD081FA699E58A6721 SWAP4 POP SWAP2 SWAP1 POP LOG3 DUP1 RETURN JUMPDEST PUSH1 0x24 DUP13 PUSH32 0x4E487B7100000000000000000000000000000000000000000000000000000000 DUP2 MSTORE PUSH1 0x21 PUSH1 0x4 MSTORE REVERT JUMPDEST POP DUP1 PUSH1 0x9 DUP9 ADD SLOAD EQ ISZERO PUSH2 0xE89 JUMP JUMPDEST PUSH1 0x4 PUSH1 0x40 MLOAD PUSH32 0xF365E4C600000000000000000000000000000000000000000000000000000000 DUP2 MSTORE REVERT JUMPDEST POP CALLVALUE PUSH2 0x1FD JUMPI DUP1 PUSH32 0xFFFFFFFFFFFFFFFFFFFFFFFFFFFFFFFFFFFFFFFFFFFFFFFFFFFFFFFFFFFFFFFC CALLDATASIZE ADD SLT PUSH2 0x1FD JUMPI PUSH1 0x20 SWAP1 PUSH1 0x40 MLOAD SWAP1 DUP2 MSTORE RETURN JUMPDEST POP CALLVALUE PUSH2 0x1FD JUMPI PUSH1 0x40 PUSH32 0xFFFFFFFFFFFFFFFFFFFFFFFFFFFFFFFFFFFFFFFFFFFFFFFFFFFFFFFFFFFFFFFC CALLDATASIZE ADD SLT PUSH2 0x1FD JUMPI PUSH20 0xFFFFFFFFFFFFFFFFFFFFFFFFFFFFFFFFFFFFFFFF PUSH1 0x40 PUSH2 0x1263 PUSH2 0x3C59 JUMP JUMPDEST SWAP3 PUSH1 0x4 CALLDATALOAD DUP2 MSTORE PUSH1 0x65 PUSH1 0x20 MSTORE KECCAK256 SWAP2 AND PUSH1 0x0 MSTORE PUSH1 0x20 MSTORE PUSH1 0x20 PUSH1 0xFF PUSH1 0x40 PUSH1 0x0 KECCAK256 SLOAD AND PUSH1 0x40 MLOAD SWAP1 ISZERO ISZERO DUP2 MSTORE RETURN JUMPDEST POP CALLVALUE PUSH2 0x1FD JUMPI DUP1 PUSH32 0xFFFFFFFFFFFFFFFFFFFFFFFFFFFFFFFFFFFFFFFFFFFFFFFFFFFFFFFFFFFFFFFC CALLDATASIZE ADD SLT PUSH2 0x1FD JUMPI PUSH2 0x12C3 PUSH2 0x4000 JUMP JUMPDEST PUSH2 0x12CB PUSH2 0x4820 JUMP JUMPDEST PUSH1 0x1 PUSH32 0xFFFFFFFFFFFFFFFFFFFFFFFFFFFFFFFFFFFFFFFFFFFFFFFFFFFFFFFFFFFFFF00 PUSH1 0xC9 SLOAD AND OR PUSH1 0xC9 SSTORE PUSH32 0x62E78CEA01BEE320CD4E420270B5EA74000D11B0C9F74754EBDBFC544B05A258 PUSH1 0x20 PUSH1 0x40 MLOAD CALLER DUP2 MSTORE LOG1 DUP1 RETURN JUMPDEST POP CALLVALUE PUSH2 0x1FD JUMPI PUSH1 0x20 PUSH32 0xFFFFFFFFFFFFFFFFFFFFFFFFFFFFFFFFFFFFFFFFFFFFFFFFFFFFFFFFFFFFFFFC CALLDATASIZE ADD SLT PUSH2 0x1FD JUMPI PUSH1 0x4 CALLDATALOAD PUSH1 0x2 PUSH1 0x97 SLOAD EQ PUSH2 0x14B3 JUMPI PUSH1 0x2 PUSH1 0x97 SSTORE DUP1 DUP3 MSTORE PUSH2 0x160 PUSH1 0x20 MSTORE PUSH1 0x40 DUP3 KECCAK256 PUSH1 0x6 DUP2 ADD SWAP1 DUP2 SLOAD PUSH1 0xFF DUP2 PUSH1 0x80 SHR AND PUSH1 0x6 DUP2 LT ISZERO PUSH2 0x1486 JUMPI PUSH2 0x886 JUMPI PUSH20 0xFFFFFFFFFFFFFFFFFFFFFFFFFFFFFFFFFFFFFFFF SWAP3 DUP4 DUP4 SLOAD AND SWAP1 DUP2 CALLER EQ ISZERO DUP1 PUSH2 0x1463 JUMPI JUMPDEST PUSH2 0x6E8 JUMPI PUSH17 0x500000000000000000000000000000000 PUSH32 0xFFFFFFFFFFFFFFFFFFFFFFFFFFFFFF00FFFFFFFFFFFFFFFFFFFFFFFFFFFFFFFF DUP9 SWAP5 AND OR SWAP1 SSTORE PUSH2 0x1406 DUP5 PUSH1 0x1 DUP6 ADD SLOAD AND PUSH1 0x2 DUP6 ADD SWAP3 DUP4 SLOAD SWAP2 PUSH2 0x4CAE JUMP JUMPDEST SSTORE PUSH1 0xA DUP2 ADD PUSH1 0x1 PUSH32 0xFFFFFFFFFFFFFFFFFFFFFFFFFFFFFFFFFFFFFFFFFFFFFFFFFFFFFFFFFFFFFF00 DUP3 SLOAD AND OR SWAP1 SSTORE SLOAD AND SWAP1 PUSH32 0x76BE7F7B12BF790225259CA3B7FFB98F222F79AF3C4C074E88E0C97AF6F14025 DUP4 DUP1 LOG3 PUSH1 0x1 PUSH1 0x97 SSTORE DUP1 RETURN JUMPDEST POP DUP7 DUP1 MSTORE PUSH1 0x65 PUSH1 0x20 MSTORE PUSH1 0x40 DUP8 KECCAK256 CALLER PUSH1 0x0 MSTORE PUSH1 0x20 MSTORE PUSH1 0xFF PUSH1 0x40 PUSH1 0x0 KECCAK256 SLOAD AND ISZERO PUSH2 0x13B2 JUMP JUMPDEST PUSH1 0x24 DUP7 PUSH32 0x4E487B7100000000000000000000000000000000000000000000000000000000 DUP2 MSTORE PUSH1 0x21 PUSH1 0x4 MSTORE REVERT JUMPDEST PUSH1 0x64 PUSH1 0x40 MLOAD PUSH32 0x8C379A000000000000000000000000000000000000000000000000000000000 DUP2 MSTORE PUSH1 0x20 PUSH1 0x4 DUP3 ADD MSTORE PUSH1 0x1F PUSH1 0x24 DUP3 ADD MSTORE PUSH32 0x5265656E7472616E637947756172643A207265656E7472616E742063616C6C00 PUSH1 0x44 DUP3 ADD MSTORE REVERT JUMPDEST POP CALLVALUE PUSH2 0x1FD JUMPI DUP1 PUSH32 0xFFFFFFFFFFFFFFFFFFFFFFFFFFFFFFFFFFFFFFFFFFFFFFFFFFFFFFFFFFFFFFFC CALLDATASIZE ADD SLT PUSH2 0x1FD JUMPI PUSH1 0x20 PUSH20 0xFFFFFFFFFFFFFFFFFFFFFFFFFFFFFFFFFFFFFFFF PUSH2 0x162 SLOAD AND PUSH1 0x40 MLOAD SWAP1 DUP2 MSTORE RETURN JUMPDEST POP CALLVALUE PUSH2 0x1FD JUMPI DUP1 PUSH32 0xFFFFFFFFFFFFFFFFFFFFFFFFFFFFFFFFFFFFFFFFFFFFFFFFFFFFFFFFFFFFFFFC CALLDATASIZE ADD SLT PUSH2 0x1FD JUMPI PUSH1 0x20 PUSH1 0xFF PUSH1 0xC9 SLOAD AND PUSH1 0x40 MLOAD SWAP1 ISZERO ISZERO DUP2 MSTORE RETURN JUMPDEST POP CALLVALUE PUSH2 0x1FD JUMPI DUP1 PUSH32 0xFFFFFFFFFFFFFFFFFFFFFFFFFFFFFFFFFFFFFFFFFFFFFFFFFFFFFFFFFFFFFFFC CALLDATASIZE ADD SLT PUSH2 0x1FD JUMPI PUSH1 0x20 PUSH20 0xFFFFFFFFFFFFFFFFFFFFFFFFFFFFFFFFFFFFFFFF PUSH2 0x161 SLOAD AND PUSH1 0x40 MLOAD SWAP1 DUP2 MSTORE RETURN JUMPDEST POP CALLVALUE PUSH2 0x1FD JUMPI DUP1 PUSH32 0xFFFFFFFFFFFFFFFFFFFFFFFFFFFFFFFFFFFFFFFFFFFFFFFFFFFFFFFFFFFFFFFC CALLDATASIZE ADD SLT PUSH2 0x1FD JUMPI PUSH20 0xFFFFFFFFFFFFFFFFFFFFFFFFFFFFFFFFFFFFFFFF PUSH32 0x0 AND ADDRESS SUB PUSH2 0x168E JUMPI PUSH1 0x20 PUSH1 0x40 MLOAD PUSH32 0x360894A13BA1A3210667C828492DB98DCA3E2076CC3735A920A3CA505D382BBC DUP2 MSTORE RETURN JUMPDEST PUSH1 0x84 PUSH1 0x40 MLOAD PUSH32 0x8C379A000000000000000000000000000000000000000000000000000000000 DUP2 MSTORE PUSH1 0x20 PUSH1 0x4 DUP3 ADD MSTORE PUSH1 0x38 PUSH1 0x24 DUP3 ADD MSTORE PUSH32 0x555550535570677261646561626C653A206D757374206E6F742062652063616C PUSH1 0x44 DUP3 ADD MSTORE PUSH32 0x6C6564207468726F7567682064656C656761746563616C6C0000000000000000 PUSH1 0x64 DUP3 ADD MSTORE REVERT JUMPDEST POP PUSH1 0x40 PUSH32 0xFFFFFFFFFFFFFFFFFFFFFFFFFFFFFFFFFFFFFFFFFFFFFFFFFFFFFFFFFFFFFFFC CALLDATASIZE ADD SLT PUSH2 0x1FD JUMPI PUSH2 0x1745 PUSH2 0x3C7C JUMP JUMPDEST SWAP1 PUSH1 0x24 SWAP2 DUP3 CALLDATALOAD PUSH8 0xFFFFFFFFFFFFFFFF DUP2 GT PUSH2 0x1B41 JUMPI CALLDATASIZE PUSH1 0x23 DUP3 ADD SLT ISZERO PUSH2 0x1B41 JUMPI DUP1 PUSH1 0x4 ADD CALLDATALOAD SWAP1 PUSH2 0x1774 DUP3 PUSH2 0x3D49 JUMP JUMPDEST PUSH2 0x1781 PUSH1 0x40 MLOAD SWAP2 DUP3 PUSH2 0x3D08 JUMP JUMPDEST DUP3 DUP2 MSTORE PUSH1 0x20 SWAP3 DUP4 DUP3 ADD SWAP3 CALLDATASIZE DUP9 DUP4 DUP4 ADD ADD GT PUSH2 0x1B3D JUMPI DUP2 DUP8 SWAP3 DUP10 DUP8 SWAP4 ADD DUP7 CALLDATACOPY DUP4 ADD ADD MSTORE PUSH20 0xFFFFFFFFFFFFFFFFFFFFFFFFFFFFFFFFFFFFFFFF DUP1 PUSH32 0x0 AND SWAP1 PUSH2 0x17E8 DUP3 ADDRESS EQ ISZERO PUSH2 0x4354 JUMP JUMPDEST PUSH2 0x1817 PUSH32 0x360894A13BA1A3210667C828492DB98DCA3E2076CC3735A920A3CA505D382BBC SWAP3 DUP3 DUP5 SLOAD AND EQ PUSH2 0x43DF JUMP JUMPDEST PUSH2 0x181F PUSH2 0x3D83 JUMP JUMPDEST PUSH32 0x4910FDFA16FED3260ED0E7147F7CC6DA11A60208B5B9406D12A635614FFD9143 SLOAD PUSH1 0xFF AND ISZERO PUSH2 0x1859 JUMPI POP POP POP POP POP PUSH2 0x938 SWAP2 SWAP3 POP PUSH2 0x446A JUMP JUMPDEST DUP6 SWAP7 SWAP5 SWAP7 AND SWAP1 PUSH1 0x40 MLOAD PUSH32 0x52D1902D00000000000000000000000000000000000000000000000000000000 DUP2 MSTORE DUP8 DUP2 PUSH1 0x4 DUP2 DUP7 GAS STATICCALL PUSH1 0x0 SWAP2 DUP2 PUSH2 0x1B0E JUMPI JUMPDEST POP PUSH2 0x191E JUMPI PUSH1 0x84 DUP9 PUSH1 0x2E DUP12 PUSH1 0x40 MLOAD SWAP3 PUSH32 0x8C379A000000000000000000000000000000000000000000000000000000000 DUP5 MSTORE PUSH1 0x4 DUP5 ADD MSTORE DUP3 ADD MSTORE PUSH32 0x45524331393637557067726164653A206E657720696D706C656D656E74617469 PUSH1 0x44 DUP3 ADD MSTORE PUSH32 0x6F6E206973206E6F742055555053000000000000000000000000000000000000 PUSH1 0x64 DUP3 ADD MSTORE REVERT JUMPDEST SWAP8 SWAP2 SWAP3 SWAP4 SWAP5 SWAP7 SWAP6 SWAP8 SUB PUSH2 0x1A8B JUMPI PUSH2 0x1934 DUP8 PUSH2 0x446A JUMP JUMPDEST PUSH1 0x40 MLOAD SWAP2 PUSH32 0xBC7CD75A20EE27FD9ADEBAB32041F755214DBC6BFFA90CC0225B39DA2E5C2D3B PUSH1 0x0 DUP1 LOG2 DUP3 MLOAD ISZERO DUP1 ISZERO SWAP1 PUSH2 0x1A83 JUMPI JUMPDEST PUSH2 0x1977 JUMPI JUMPDEST POP POP POP POP POP SWAP1 POP DUP1 RETURN JUMPDEST DUP7 EXTCODESIZE ISZERO PUSH2 0x1A03 JUMPI POP POP PUSH2 0x19F7 SWAP4 SWAP5 PUSH1 0x0 SWAP3 DUP4 SWAP3 MLOAD SWAP2 GAS DELEGATECALL PUSH2 0x1996 PUSH2 0x4556 JUMP JUMPDEST SWAP1 PUSH32 0x416464726573733A206C6F772D6C6576656C2064656C65676174652063616C6C PUSH1 0x40 MLOAD SWAP4 PUSH2 0x19C5 DUP6 PUSH2 0x3CD0 JUMP JUMPDEST PUSH1 0x27 DUP6 MSTORE DUP5 ADD MSTORE PUSH32 0x206661696C656400000000000000000000000000000000000000000000000000 PUSH1 0x40 DUP5 ADD MSTORE PUSH2 0x4586 JUMP JUMPDEST POP DUP1 CODESIZE DUP1 DUP1 DUP1 DUP1 PUSH2 0x196D JUMP JUMPDEST SWAP1 PUSH1 0x26 PUSH1 0x84 SWAP3 DUP7 PUSH32 0x8C379A000000000000000000000000000000000000000000000000000000000 DUP5 MSTORE PUSH1 0x4 DUP5 ADD MSTORE DUP3 ADD MSTORE PUSH32 0x416464726573733A2064656C65676174652063616C6C20746F206E6F6E2D636F PUSH1 0x44 DUP3 ADD MSTORE PUSH32 0x6E74726163740000000000000000000000000000000000000000000000000000 PUSH1 0x64 DUP3 ADD MSTORE REVERT JUMPDEST POP PUSH1 0x1 PUSH2 0x1968 JUMP JUMPDEST DUP5 PUSH1 0x29 PUSH1 0x84 SWAP3 PUSH1 0x40 MLOAD SWAP3 PUSH32 0x8C379A000000000000000000000000000000000000000000000000000000000 DUP5 MSTORE PUSH1 0x4 DUP5 ADD MSTORE DUP3 ADD MSTORE PUSH32 0x45524331393637557067726164653A20756E737570706F727465642070726F78 PUSH1 0x44 DUP3 ADD MSTORE PUSH32 0x6961626C65555549440000000000000000000000000000000000000000000000 PUSH1 0x64 DUP3 ADD MSTORE REVERT JUMPDEST SWAP1 SWAP2 DUP10 DUP3 DUP2 RETURNDATASIZE DUP4 GT PUSH2 0x1B36 JUMPI JUMPDEST PUSH2 0x1B25 DUP2 DUP4 PUSH2 0x3D08 JUMP JUMPDEST DUP2 ADD SUB SLT PUSH2 0x1FD JUMPI POP MLOAD SWAP1 CODESIZE PUSH2 0x1896 JUMP JUMPDEST POP RETURNDATASIZE PUSH2 0x1B1B JUMP JUMPDEST DUP7 DUP1 REVERT JUMPDEST DUP3 DUP1 REVERT JUMPDEST POP PUSH1 0xE0 PUSH32 0xFFFFFFFFFFFFFFFFFFFFFFFFFFFFFFFFFFFFFFFFFFFFFFFFFFFFFFFFFFFFFFFC CALLDATASIZE ADD SLT PUSH2 0x1FD JUMPI PUSH2 0x1B78 PUSH2 0x3C7C JUMP JUMPDEST PUSH8 0xFFFFFFFFFFFFFFFF PUSH1 0x64 CALLDATALOAD AND PUSH1 0x64 CALLDATALOAD SUB PUSH2 0x7CF JUMPI PUSH8 0xFFFFFFFFFFFFFFFF PUSH1 0x84 CALLDATALOAD AND PUSH1 0x84 CALLDATALOAD SUB PUSH2 0x7CF JUMPI PUSH1 0xA4 CALLDATALOAD PUSH8 0xFFFFFFFFFFFFFFFF DUP2 GT PUSH2 0x1B41 JUMPI PUSH2 0x1BC2 SWAP1 CALLDATASIZE SWAP1 PUSH1 0x4 ADD PUSH2 0x3BC5 JUMP JUMPDEST SWAP2 SWAP1 PUSH1 0xC4 CALLDATALOAD PUSH8 0xFFFFFFFFFFFFFFFF DUP2 GT PUSH2 0x23BE JUMPI PUSH2 0x1BE4 SWAP1 CALLDATASIZE SWAP1 PUSH1 0x4 ADD PUSH2 0x3BC5 JUMP JUMPDEST SWAP4 SWAP1 PUSH2 0x1BEE PUSH2 0x4820 JUMP JUMPDEST PUSH1 0x24 CALLDATALOAD ISZERO PUSH2 0x64C JUMPI PUSH20 0xFFFFFFFFFFFFFFFFFFFFFFFFFFFFFFFFFFFFFFFF DUP5 AND PUSH2 0x22AB JUMPI PUSH1 0x24 CALLDATALOAD CALLVALUE SUB PUSH2 0x224D JUMPI JUMPDEST PUSH2 0x15F SLOAD SWAP5 PUSH32 0xFFFFFFFFFFFFFFFFFFFFFFFFFFFFFFFFFFFFFFFFFFFFFFFFFFFFFFFFFFFFFFFF DUP7 EQ PUSH2 0x2220 JUMPI PUSH1 0x1 DUP7 ADD PUSH2 0x15F SSTORE PUSH1 0x1 DUP7 ADD DUP8 MSTORE PUSH2 0x160 PUSH1 0x20 MSTORE PUSH1 0x40 DUP8 KECCAK256 SWAP2 PUSH32 0xFFFFFFFFFFFFFFFFFFFFFFFF0000000000000000000000000000000000000000 CALLER DUP2 DUP6 SLOAD AND OR DUP5 SSTORE PUSH1 0x1 DUP5 ADD SWAP1 PUSH20 0xFFFFFFFFFFFFFFFFFFFFFFFFFFFFFFFFFFFFFFFF DUP9 AND SWAP1 DUP3 SLOAD AND OR SWAP1 SSTORE PUSH1 0x24 CALLDATALOAD PUSH1 0x2 DUP5 ADD SSTORE PUSH1 0x44 CALLDATALOAD PUSH1 0x3 DUP5 ADD SSTORE PUSH8 0xFFFFFFFFFFFFFFFF TIMESTAMP AND PUSH1 0x5 DUP5 ADD DUP1 SLOAD PUSH32 0xFFFFFFFF0000000000000000FFFFFFFFFFFFFFFFFFFFFFFFFFFFFFFFFFFFFFFF PUSH28 0xFFFFFFFFFFFFFFFF0000000000000000000000000000000000000000 TIMESTAMP PUSH1 0xA0 SHL AND SWAP2 AND OR SWAP1 SSTORE PUSH8 0xFFFFFFFFFFFFFFFF PUSH1 0x64 CALLDATALOAD AND ISZERO PUSH1 0x0 EQ PUSH2 0x2206 JUMPI PUSH8 0xFFFFFFFFFFFFFFFF DUP10 JUMPDEST AND PUSH32 0xFFFFFFFFFFFFFFFFFFFFFFFFFFFFFFFFFFFFFFFFFFFFFFFF0000000000000000 PUSH1 0x6 DUP7 ADD SLOAD AND OR PUSH1 0x6 DUP6 ADD SSTORE PUSH8 0xFFFFFFFFFFFFFFFF PUSH1 0x84 CALLDATALOAD AND ISZERO PUSH1 0x0 EQ PUSH2 0x21F1 JUMPI POP PUSH2 0x1DC3 DUP9 JUMPDEST PUSH1 0x6 DUP6 ADD SWAP1 PUSH32 0xFFFFFFFFFFFFFFFFFFFFFFFFFFFFFFFF0000000000000000FFFFFFFFFFFFFFFF PUSH16 0xFFFFFFFFFFFFFFFF0000000000000000 DUP4 SLOAD SWAP3 PUSH1 0x40 SHL AND SWAP2 AND OR SWAP1 SSTORE JUMP JUMPDEST PUSH1 0x6 DUP4 ADD DUP1 SLOAD PUSH32 0xFFFFFFFFFFFFFFFFFFFFFFFFFFFFFF00FFFFFFFFFFFFFFFFFFFFFFFFFFFFFFFF AND SWAP1 SSTORE PUSH8 0xFFFFFFFFFFFFFFFF DUP5 GT PUSH2 0x20B1 JUMPI PUSH2 0x1E09 PUSH1 0x7 DUP5 ADD SLOAD PUSH2 0x488A JUMP JUMPDEST PUSH1 0x1F DUP2 GT PUSH2 0x21AD JUMPI JUMPDEST POP DUP4 DUP9 PUSH1 0x1F DUP3 GT PUSH1 0x1 EQ PUSH2 0x20E9 JUMPI DUP10 SWAP2 PUSH2 0x20DE JUMPI JUMPDEST POP DUP5 PUSH1 0x1 SHL SWAP1 PUSH32 0xFFFFFFFFFFFFFFFFFFFFFFFFFFFFFFFFFFFFFFFFFFFFFFFFFFFFFFFFFFFFFFFF DUP7 PUSH1 0x3 SHL SHR NOT AND OR PUSH1 0x7 DUP5 ADD SSTORE JUMPDEST PUSH8 0xFFFFFFFFFFFFFFFF DUP3 GT PUSH2 0x20B1 JUMPI PUSH2 0x1E78 PUSH1 0x8 DUP5 ADD SLOAD PUSH2 0x488A JUMP JUMPDEST PUSH1 0x1F DUP2 GT PUSH2 0x206D JUMPI JUMPDEST POP SWAP7 PUSH1 0x20 SWAP8 DUP2 PUSH1 0x1F DUP5 GT PUSH1 0x1 EQ PUSH2 0x1F6F JUMPI SWAP3 DUP1 PUSH1 0x6 SWAP4 PUSH32 0xC9BF202EA95F26C320A65248B74079AE91640228E1BC80B047F2952EF2059213 SWAP7 SWAP4 PUSH20 0xFFFFFFFFFFFFFFFFFFFFFFFFFFFFFFFFFFFFFFFF SWAP7 SWAP3 PUSH2 0x1F64 JUMPI JUMPDEST POP POP PUSH32 0xFFFFFFFFFFFFFFFFFFFFFFFFFFFFFFFFFFFFFFFFFFFFFFFFFFFFFFFFFFFFFFFF DUP3 PUSH1 0x1 SHL SWAP3 PUSH1 0x3 SHL SHR NOT AND OR PUSH1 0x8 DUP3 ADD SSTORE JUMPDEST ADD SLOAD SWAP5 PUSH8 0xFFFFFFFFFFFFFFFF PUSH1 0x40 MLOAD SWAP7 PUSH1 0x24 CALLDATALOAD DUP9 MSTORE PUSH1 0x44 CALLDATALOAD DUP11 DUP10 ADD MSTORE DUP2 DUP2 AND PUSH1 0x40 DUP10 ADD MSTORE PUSH1 0x40 SHR AND PUSH1 0x60 DUP8 ADD MSTORE PUSH1 0xA0 PUSH1 0x80 DUP8 ADD MSTORE AND SWAP4 DUP1 PUSH2 0x1F56 CALLER SWAP6 PUSH1 0x1 DUP10 ADD SWAP6 PUSH1 0xA0 DUP5 ADD SWAP2 PUSH2 0x49ED JUMP JUMPDEST SUB SWAP1 LOG4 PUSH1 0x1 PUSH1 0x40 MLOAD SWAP2 ADD DUP2 MSTORE RETURN JUMPDEST ADD CALLDATALOAD SWAP1 POP CODESIZE DUP1 PUSH2 0x1ED6 JUMP JUMPDEST SWAP2 PUSH1 0x8 DUP6 ADD DUP4 MSTORE DUP10 DUP4 KECCAK256 SWAP3 JUMPDEST PUSH32 0xFFFFFFFFFFFFFFFFFFFFFFFFFFFFFFFFFFFFFFFFFFFFFFFFFFFFFFFFFFFFFFE0 DUP6 AND DUP2 LT PUSH2 0x2056 JUMPI POP DUP4 PUSH1 0x6 SWAP4 PUSH32 0xC9BF202EA95F26C320A65248B74079AE91640228E1BC80B047F2952EF2059213 SWAP7 SWAP4 PUSH1 0x1 SWAP4 DUP4 PUSH32 0xFFFFFFFFFFFFFFFFFFFFFFFFFFFFFFFFFFFFFFFFFFFFFFFFFFFFFFFFFFFFFFE0 PUSH20 0xFFFFFFFFFFFFFFFFFFFFFFFFFFFFFFFFFFFFFFFF SWAP10 AND LT PUSH2 0x201E JUMPI JUMPDEST POP POP POP DUP2 SHL ADD PUSH1 0x8 DUP3 ADD SSTORE PUSH2 0x1F0B JUMP JUMPDEST PUSH32 0xFFFFFFFFFFFFFFFFFFFFFFFFFFFFFFFFFFFFFFFFFFFFFFFFFFFFFFFFFFFFFFFF PUSH1 0xF8 DUP6 PUSH1 0x3 SHL AND SHR NOT SWAP2 ADD CALLDATALOAD AND SWAP1 SSTORE CODESIZE DUP1 DUP1 PUSH2 0x200E JUMP JUMPDEST SWAP1 SWAP3 DUP11 PUSH1 0x1 DUP2 SWAP3 DUP7 DUP7 ADD CALLDATALOAD DUP2 SSTORE ADD SWAP5 ADD SWAP2 ADD PUSH2 0x1F7B JUMP JUMPDEST PUSH1 0x8 DUP5 ADD DUP10 MSTORE PUSH1 0x20 DUP10 KECCAK256 PUSH1 0x1F DUP5 ADD PUSH1 0x5 SHR DUP2 ADD PUSH1 0x20 DUP6 LT PUSH2 0x20AA JUMPI JUMPDEST PUSH1 0x1F DUP4 ADD PUSH1 0x5 SHR DUP3 ADD DUP2 LT PUSH2 0x209F JUMPI POP POP PUSH2 0x1E81 JUMP JUMPDEST DUP11 DUP2 SSTORE PUSH1 0x1 ADD PUSH2 0x2089 JUMP JUMPDEST POP DUP1 PUSH2 0x2089 JUMP JUMPDEST PUSH1 0x24 DUP9 PUSH32 0x4E487B7100000000000000000000000000000000000000000000000000000000 DUP2 MSTORE PUSH1 0x41 PUSH1 0x4 MSTORE REVERT JUMPDEST SWAP1 POP DUP6 ADD CALLDATALOAD CODESIZE PUSH2 0x1E27 JUMP JUMPDEST PUSH1 0x7 DUP6 ADD DUP11 MSTORE PUSH1 0x20 DUP11 KECCAK256 SWAP2 POP DUP10 JUMPDEST PUSH32 0xFFFFFFFFFFFFFFFFFFFFFFFFFFFFFFFFFFFFFFFFFFFFFFFFFFFFFFFFFFFFFFE0 DUP8 AND DUP2 LT PUSH2 0x2195 JUMPI POP DUP6 PUSH32 0xFFFFFFFFFFFFFFFFFFFFFFFFFFFFFFFFFFFFFFFFFFFFFFFFFFFFFFFFFFFFFFE0 DUP2 AND LT PUSH2 0x215D JUMPI JUMPDEST POP POP PUSH1 0x1 DUP5 DUP2 SHL ADD PUSH1 0x7 DUP5 ADD SSTORE PUSH2 0x1E5C JUMP JUMPDEST PUSH32 0xFFFFFFFFFFFFFFFFFFFFFFFFFFFFFFFFFFFFFFFFFFFFFFFFFFFFFFFFFFFFFFFF PUSH1 0xF8 DUP8 PUSH1 0x3 SHL AND SHR NOT SWAP1 DUP8 ADD CALLDATALOAD AND SWAP1 SSTORE CODESIZE DUP1 PUSH2 0x214B JUMP JUMPDEST SWAP1 SWAP2 PUSH1 0x20 PUSH1 0x1 DUP2 SWAP3 DUP6 DUP12 ADD CALLDATALOAD DUP2 SSTORE ADD SWAP4 ADD SWAP2 ADD PUSH2 0x20F7 JUMP JUMPDEST PUSH1 0x7 DUP5 ADD DUP10 MSTORE PUSH1 0x20 DUP10 KECCAK256 PUSH1 0x1F DUP7 ADD PUSH1 0x5 SHR DUP2 ADD PUSH1 0x20 DUP8 LT PUSH2 0x21EA JUMPI JUMPDEST PUSH1 0x1F DUP4 ADD PUSH1 0x5 SHR DUP3 ADD DUP2 LT PUSH2 0x21DF JUMPI POP POP PUSH2 0x1E12 JUMP JUMPDEST DUP11 DUP2 SSTORE PUSH1 0x1 ADD PUSH2 0x21C9 JUMP JUMPDEST POP DUP1 PUSH2 0x21C9 JUMP JUMPDEST PUSH2 0x2201 PUSH2 0x1DC3 SWAP2 PUSH1 0x84 CALLDATALOAD SWAP1 PUSH2 0x49A2 JUMP JUMPDEST PUSH2 0x1D7E JUMP JUMPDEST PUSH8 0xFFFFFFFFFFFFFFFF PUSH2 0x221B PUSH1 0x64 CALLDATALOAD DUP4 PUSH2 0x49A2 JUMP JUMPDEST PUSH2 0x1D35 JUMP JUMPDEST PUSH1 0x24 DUP8 PUSH32 0x4E487B7100000000000000000000000000000000000000000000000000000000 DUP2 MSTORE PUSH1 0x11 PUSH1 0x4 MSTORE REVERT JUMPDEST PUSH1 0x64 PUSH1 0x40 MLOAD PUSH32 0x8C379A000000000000000000000000000000000000000000000000000000000 DUP2 MSTORE PUSH1 0x20 PUSH1 0x4 DUP3 ADD MSTORE PUSH1 0xD PUSH1 0x24 DUP3 ADD MSTORE PUSH32 0x494E56414C49445F56414C554500000000000000000000000000000000000000 PUSH1 0x44 DUP3 ADD MSTORE REVERT JUMPDEST CALLVALUE PUSH2 0x2360 JUMPI PUSH1 0x40 MLOAD PUSH32 0x23B872DD00000000000000000000000000000000000000000000000000000000 PUSH1 0x20 DUP3 ADD MSTORE CALLER PUSH1 0x24 DUP3 ADD MSTORE ADDRESS PUSH1 0x44 DUP3 ADD MSTORE PUSH1 0x24 CALLDATALOAD PUSH1 0x64 DUP3 ADD MSTORE PUSH1 0x64 DUP2 MSTORE PUSH1 0xA0 DUP2 ADD SWAP1 DUP1 DUP3 LT PUSH8 0xFFFFFFFFFFFFFFFF DUP4 GT OR PUSH2 0x2331 JUMPI PUSH2 0x232C SWAP2 PUSH1 0x40 MSTORE PUSH20 0xFFFFFFFFFFFFFFFFFFFFFFFFFFFFFFFFFFFFFFFF DUP7 AND PUSH2 0x4A39 JUMP JUMPDEST PUSH2 0x1C1B JUMP JUMPDEST PUSH32 0x4E487B7100000000000000000000000000000000000000000000000000000000 PUSH1 0x0 MSTORE PUSH1 0x41 PUSH1 0x4 MSTORE PUSH1 0x24 PUSH1 0x0 REVERT JUMPDEST PUSH1 0x64 PUSH1 0x40 MLOAD PUSH32 0x8C379A000000000000000000000000000000000000000000000000000000000 DUP2 MSTORE PUSH1 0x20 PUSH1 0x4 DUP3 ADD MSTORE PUSH1 0xB PUSH1 0x24 DUP3 ADD MSTORE PUSH32 0x544F4B454E5F56414C5545000000000000000000000000000000000000000000 PUSH1 0x44 DUP3 ADD MSTORE REVERT JUMPDEST DUP5 DUP1 REVERT JUMPDEST POP CALLVALUE PUSH2 0x1FD JUMPI DUP1 PUSH32 0xFFFFFFFFFFFFFFFFFFFFFFFFFFFFFFFFFFFFFFFFFFFFFFFFFFFFFFFFFFFFFFFC CALLDATASIZE ADD SLT PUSH2 0x1FD JUMPI PUSH2 0x23F9 PUSH2 0x4000 JUMP JUMPDEST PUSH1 0xC9 SLOAD PUSH1 0xFF DUP2 AND ISZERO PUSH2 0x2457 JUMPI PUSH32 0xFFFFFFFFFFFFFFFFFFFFFFFFFFFFFFFFFFFFFFFFFFFFFFFFFFFFFFFFFFFFFF00 AND PUSH1 0xC9 SSTORE PUSH32 0x5DB9EE0A495BF2E6FF9C91A7834C1BA4FDD244A5E8AA4E537BD38AEAE4B073AA PUSH1 0x20 PUSH1 0x40 MLOAD CALLER DUP2 MSTORE LOG1 DUP1 RETURN JUMPDEST PUSH1 0x64 PUSH1 0x40 MLOAD PUSH32 0x8C379A000000000000000000000000000000000000000000000000000000000 DUP2 MSTORE PUSH1 0x20 PUSH1 0x4 DUP3 ADD MSTORE PUSH1 0x14 PUSH1 0x24 DUP3 ADD MSTORE PUSH32 0x5061757361626C653A206E6F7420706175736564000000000000000000000000 PUSH1 0x44 DUP3 ADD MSTORE REVERT JUMPDEST POP CALLVALUE PUSH2 0x1FD JUMPI PUSH1 0x20 DUP1 PUSH32 0xFFFFFFFFFFFFFFFFFFFFFFFFFFFFFFFFFFFFFFFFFFFFFFFFFFFFFFFFFFFFFFFC CALLDATASIZE ADD SLT PUSH2 0x2844 JUMPI PUSH2 0x24EE PUSH2 0x3C7C JUMP JUMPDEST SWAP1 PUSH20 0xFFFFFFFFFFFFFFFFFFFFFFFFFFFFFFFFFFFFFFFF DUP1 PUSH32 0x0 AND PUSH2 0x2533 DUP2 ADDRESS EQ ISZERO PUSH2 0x4354 JUMP JUMPDEST PUSH2 0x2562 PUSH32 0x360894A13BA1A3210667C828492DB98DCA3E2076CC3735A920A3CA505D382BBC SWAP2 DUP4 DUP4 SLOAD AND EQ PUSH2 0x43DF JUMP JUMPDEST PUSH2 0x256A PUSH2 0x3D83 JUMP JUMPDEST PUSH1 0x40 MLOAD SWAP1 DUP4 DUP3 ADD SWAP3 DUP3 DUP5 LT PUSH8 0xFFFFFFFFFFFFFFFF DUP6 GT OR PUSH2 0x2331 JUMPI DUP4 PUSH1 0x40 MSTORE DUP7 DUP4 MSTORE PUSH1 0xFF PUSH32 0x4910FDFA16FED3260ED0E7147F7CC6DA11A60208B5B9406D12A635614FFD9143 SLOAD AND PUSH1 0x0 EQ PUSH2 0x25C6 JUMPI POP POP POP POP POP PUSH2 0x938 SWAP1 PUSH2 0x446A JUMP JUMPDEST DUP6 SWAP7 SWAP5 SWAP6 AND SWAP1 PUSH1 0x40 MLOAD PUSH32 0x52D1902D00000000000000000000000000000000000000000000000000000000 DUP2 MSTORE DUP7 DUP2 PUSH1 0x4 DUP2 DUP7 GAS STATICCALL PUSH1 0x0 SWAP2 DUP2 PUSH2 0x2815 JUMPI JUMPDEST POP PUSH2 0x268C JUMPI PUSH1 0x84 DUP8 PUSH1 0x40 MLOAD SWAP1 PUSH32 0x8C379A000000000000000000000000000000000000000000000000000000000 DUP3 MSTORE PUSH1 0x4 DUP3 ADD MSTORE PUSH1 0x2E PUSH1 0x24 DUP3 ADD MSTORE PUSH32 0x45524331393637557067726164653A206E657720696D706C656D656E74617469 PUSH1 0x44 DUP3 ADD MSTORE PUSH32 0x6F6E206973206E6F742055555053000000000000000000000000000000000000 PUSH1 0x64 DUP3 ADD MSTORE REVERT JUMPDEST SWAP6 SWAP5 SWAP6 SUB PUSH2 0x2791 JUMPI PUSH2 0x269D DUP7 PUSH2 0x446A JUMP JUMPDEST PUSH1 0x40 MLOAD SWAP1 PUSH32 0xBC7CD75A20EE27FD9ADEBAB32041F755214DBC6BFFA90CC0225B39DA2E5C2D3B PUSH1 0x0 DUP1 LOG2 DUP2 MLOAD ISZERO DUP1 ISZERO SWAP1 PUSH2 0x2789 JUMPI JUMPDEST PUSH2 0x26DF JUMPI JUMPDEST POP POP POP POP SWAP1 POP DUP1 RETURN JUMPDEST DUP6 EXTCODESIZE ISZERO PUSH2 0x2708 JUMPI POP PUSH2 0x26FD SWAP4 SWAP5 PUSH1 0x0 SWAP3 DUP4 SWAP3 MLOAD SWAP2 GAS DELEGATECALL PUSH2 0x1996 PUSH2 0x4556 JUMP JUMPDEST POP DUP1 CODESIZE DUP1 DUP1 DUP1 PUSH2 0x26D6 JUMP JUMPDEST DUP1 DUP5 PUSH32 0x8C379A000000000000000000000000000000000000000000000000000000000 PUSH1 0x84 SWAP4 MSTORE PUSH1 0x4 DUP3 ADD MSTORE PUSH1 0x26 PUSH1 0x24 DUP3 ADD MSTORE PUSH32 0x416464726573733A2064656C65676174652063616C6C20746F206E6F6E2D636F PUSH1 0x44 DUP3 ADD MSTORE PUSH32 0x6E74726163740000000000000000000000000000000000000000000000000000 PUSH1 0x64 DUP3 ADD MSTORE REVERT JUMPDEST POP PUSH1 0x0 PUSH2 0x26D1 JUMP JUMPDEST PUSH1 0x84 DUP5 PUSH1 0x40 MLOAD SWAP1 PUSH32 0x8C379A000000000000000000000000000000000000000000000000000000000 DUP3 MSTORE PUSH1 0x4 DUP3 ADD MSTORE PUSH1 0x29 PUSH1 0x24 DUP3 ADD MSTORE PUSH32 0x45524331393637557067726164653A20756E737570706F727465642070726F78 PUSH1 0x44 DUP3 ADD MSTORE PUSH32 0x6961626C65555549440000000000000000000000000000000000000000000000 PUSH1 0x64 DUP3 ADD MSTORE REVERT JUMPDEST SWAP1 SWAP2 DUP9 DUP3 DUP2 RETURNDATASIZE DUP4 GT PUSH2 0x283D JUMPI JUMPDEST PUSH2 0x282C DUP2 DUP4 PUSH2 0x3D08 JUMP JUMPDEST DUP2 ADD SUB SLT PUSH2 0x1FD JUMPI POP MLOAD SWAP1 CODESIZE PUSH2 0x2603 JUMP JUMPDEST POP RETURNDATASIZE PUSH2 0x2822 JUMP JUMPDEST POP DUP1 REVERT JUMPDEST POP CALLVALUE PUSH2 0x1FD JUMPI PUSH1 0x40 PUSH32 0xFFFFFFFFFFFFFFFFFFFFFFFFFFFFFFFFFFFFFFFFFFFFFFFFFFFFFFFFFFFFFFFC CALLDATASIZE ADD SLT PUSH2 0x1FD JUMPI PUSH2 0x2880 PUSH2 0x3C59 JUMP JUMPDEST CALLER PUSH20 0xFFFFFFFFFFFFFFFFFFFFFFFFFFFFFFFFFFFFFFFF DUP3 AND SUB PUSH2 0x28A9 JUMPI PUSH2 0x938 SWAP1 PUSH1 0x4 CALLDATALOAD PUSH2 0x42B2 JUMP JUMPDEST PUSH1 0x84 PUSH1 0x40 MLOAD PUSH32 0x8C379A000000000000000000000000000000000000000000000000000000000 DUP2 MSTORE PUSH1 0x20 PUSH1 0x4 DUP3 ADD MSTORE PUSH1 0x2F PUSH1 0x24 DUP3 ADD MSTORE PUSH32 0x416363657373436F6E74726F6C3A2063616E206F6E6C792072656E6F756E6365 PUSH1 0x44 DUP3 ADD MSTORE PUSH32 0x20726F6C657320666F722073656C660000000000000000000000000000000000 PUSH1 0x64 DUP3 ADD MSTORE REVERT JUMPDEST POP CALLVALUE PUSH2 0x1FD JUMPI PUSH1 0x40 PUSH32 0xFFFFFFFFFFFFFFFFFFFFFFFFFFFFFFFFFFFFFFFFFFFFFFFFFFFFFFFFFFFFFFFC CALLDATASIZE ADD SLT PUSH2 0x1FD JUMPI PUSH1 0x4 CALLDATALOAD PUSH2 0x2968 PUSH2 0x3C59 JUMP JUMPDEST DUP2 DUP4 MSTORE PUSH1 0x65 PUSH1 0x20 MSTORE PUSH2 0x2980 PUSH1 0x1 PUSH1 0x40 DUP6 KECCAK256 ADD SLOAD PUSH2 0x4176 JUMP JUMPDEST DUP2 PUSH1 0x0 MSTORE PUSH1 0x65 PUSH1 0x20 MSTORE PUSH20 0xFFFFFFFFFFFFFFFFFFFFFFFFFFFFFFFFFFFFFFFF PUSH1 0x40 PUSH1 0x0 KECCAK256 SWAP2 AND SWAP1 DUP2 PUSH1 0x0 MSTORE PUSH1 0x20 MSTORE PUSH1 0xFF PUSH1 0x40 PUSH1 0x0 KECCAK256 SLOAD AND ISZERO PUSH2 0x29BF JUMPI DUP3 DUP1 RETURN JUMPDEST DUP2 PUSH1 0x0 MSTORE PUSH1 0x65 PUSH1 0x20 MSTORE PUSH1 0x40 PUSH1 0x0 KECCAK256 DUP2 PUSH1 0x0 MSTORE PUSH1 0x20 MSTORE PUSH1 0x40 PUSH1 0x0 KECCAK256 PUSH1 0x1 PUSH32 0xFFFFFFFFFFFFFFFFFFFFFFFFFFFFFFFFFFFFFFFFFFFFFFFFFFFFFFFFFFFFFF00 DUP3 SLOAD AND OR SWAP1 SSTORE CALLER SWAP2 PUSH32 0x2F8788117E7EFF1D82E926EC794901D17C78024A50270940304540A733656F0D PUSH1 0x0 DUP1 LOG4 CODESIZE DUP1 DUP3 DUP1 RETURN JUMPDEST POP CALLVALUE PUSH2 0x1FD JUMPI PUSH1 0x20 PUSH32 0xFFFFFFFFFFFFFFFFFFFFFFFFFFFFFFFFFFFFFFFFFFFFFFFFFFFFFFFFFFFFFFFC CALLDATASIZE ADD SLT PUSH2 0x1FD JUMPI PUSH1 0x1 PUSH1 0x40 PUSH1 0x20 SWAP3 PUSH1 0x4 CALLDATALOAD DUP2 MSTORE PUSH1 0x65 DUP5 MSTORE KECCAK256 ADD SLOAD PUSH1 0x40 MLOAD SWAP1 DUP2 MSTORE RETURN JUMPDEST POP CALLVALUE PUSH2 0x1FD JUMPI PUSH1 0x20 PUSH32 0xFFFFFFFFFFFFFFFFFFFFFFFFFFFFFFFFFFFFFFFFFFFFFFFFFFFFFFFFFFFFFFFC CALLDATASIZE ADD SLT PUSH2 0x1FD JUMPI DUP1 PUSH2 0x1A0 PUSH1 0x40 MLOAD PUSH2 0x2ABA DUP2 PUSH2 0x3CB3 JUMP JUMPDEST DUP3 DUP2 MSTORE DUP3 PUSH1 0x20 DUP3 ADD MSTORE DUP3 PUSH1 0x40 DUP3 ADD MSTORE DUP3 PUSH1 0x60 DUP3 ADD MSTORE DUP3 PUSH1 0x80 DUP3 ADD MSTORE DUP3 PUSH1 0xA0 DUP3 ADD MSTORE DUP3 PUSH1 0xC0 DUP3 ADD MSTORE DUP3 PUSH1 0xE0 DUP3 ADD MSTORE DUP3 PUSH2 0x100 DUP3 ADD MSTORE DUP3 PUSH2 0x120 DUP3 ADD MSTORE PUSH1 0x60 PUSH2 0x140 DUP3 ADD MSTORE PUSH1 0x60 PUSH2 0x160 DUP3 ADD MSTORE DUP3 PUSH2 0x180 DUP3 ADD MSTORE ADD MSTORE PUSH1 0x4 CALLDATALOAD DUP2 MSTORE PUSH2 0x160 PUSH1 0x20 MSTORE PUSH1 0x40 DUP2 KECCAK256 PUSH1 0x40 MLOAD SWAP1 PUSH2 0x2B2A DUP3 PUSH2 0x3CB3 JUMP JUMPDEST PUSH20 0xFFFFFFFFFFFFFFFFFFFFFFFFFFFFFFFFFFFFFFFF DUP2 SLOAD AND DUP3 MSTORE PUSH20 0xFFFFFFFFFFFFFFFFFFFFFFFFFFFFFFFFFFFFFFFF PUSH1 0x1 DUP3 ADD SLOAD AND PUSH1 0x20 DUP4 ADD MSTORE PUSH1 0x2 DUP2 ADD SLOAD PUSH1 0x40 DUP4 ADD MSTORE PUSH1 0x3 DUP2 ADD SLOAD PUSH1 0x60 DUP4 ADD MSTORE PUSH1 0x4 DUP2 ADD SLOAD PUSH1 0x80 DUP4 ADD MSTORE PUSH8 0xFFFFFFFFFFFFFFFF PUSH1 0x5 DUP3 ADD SLOAD PUSH20 0xFFFFFFFFFFFFFFFFFFFFFFFFFFFFFFFFFFFFFFFF DUP2 AND PUSH1 0xA0 DUP6 ADD MSTORE PUSH1 0xA0 SHR AND PUSH1 0xC0 DUP4 ADD MSTORE PUSH1 0x6 DUP2 ADD SLOAD PUSH8 0xFFFFFFFFFFFFFFFF DUP2 AND PUSH1 0xE0 DUP5 ADD MSTORE PUSH8 0xFFFFFFFFFFFFFFFF DUP2 PUSH1 0x40 SHR AND PUSH2 0x100 DUP5 ADD MSTORE PUSH1 0x6 PUSH1 0xFF DUP3 PUSH1 0x80 SHR AND LT ISZERO PUSH2 0x2D84 JUMPI PUSH1 0xFF SWAP2 DUP3 PUSH1 0xA SWAP3 PUSH1 0x80 SHR AND PUSH2 0x120 DUP6 ADD MSTORE PUSH2 0x2C0A PUSH1 0x7 DUP3 ADD PUSH2 0x48DD JUMP JUMPDEST PUSH2 0x140 DUP6 ADD MSTORE PUSH2 0x2C1C PUSH1 0x8 DUP3 ADD PUSH2 0x48DD JUMP JUMPDEST PUSH2 0x160 DUP6 ADD MSTORE PUSH1 0x9 DUP2 ADD SLOAD PUSH2 0x180 DUP6 ADD MSTORE ADD SLOAD AND ISZERO ISZERO PUSH2 0x1A0 DUP3 ADD MSTORE PUSH1 0x40 MLOAD SWAP1 PUSH1 0x20 DUP3 MSTORE PUSH20 0xFFFFFFFFFFFFFFFFFFFFFFFFFFFFFFFFFFFFFFFF DUP2 MLOAD AND PUSH1 0x20 DUP4 ADD MSTORE PUSH20 0xFFFFFFFFFFFFFFFFFFFFFFFFFFFFFFFFFFFFFFFF PUSH1 0x20 DUP3 ADD MLOAD AND PUSH1 0x40 DUP4 ADD MSTORE PUSH1 0x40 DUP2 ADD MLOAD PUSH1 0x60 DUP4 ADD MSTORE PUSH1 0x60 DUP2 ADD MLOAD PUSH1 0x80 DUP4 ADD MSTORE PUSH1 0x80 DUP2 ADD MLOAD PUSH1 0xA0 DUP4 ADD MSTORE PUSH20 0xFFFFFFFFFFFFFFFFFFFFFFFFFFFFFFFFFFFFFFFF PUSH1 0xA0 DUP3 ADD MLOAD AND PUSH1 0xC0 DUP4 ADD MSTORE PUSH8 0xFFFFFFFFFFFFFFFF PUSH1 0xC0 DUP3 ADD MLOAD AND PUSH1 0xE0 DUP4 ADD MSTORE PUSH8 0xFFFFFFFFFFFFFFFF PUSH1 0xE0 DUP3 ADD MLOAD AND PUSH2 0x100 DUP4 ADD MSTORE PUSH8 0xFFFFFFFFFFFFFFFF PUSH2 0x100 DUP3 ADD MLOAD AND PUSH2 0x120 DUP4 ADD MSTORE PUSH2 0x120 DUP2 ADD MLOAD PUSH1 0x6 DUP2 LT ISZERO PUSH2 0x2D84 JUMPI DUP3 SWAP4 POP PUSH2 0x140 DUP4 ADD MSTORE PUSH2 0x140 DUP2 ADD MLOAD PUSH2 0x1A0 PUSH2 0x2D6D PUSH2 0x2D37 PUSH2 0x1C0 SWAP4 DUP5 PUSH2 0x160 DUP9 ADD MSTORE PUSH2 0x1E0 DUP8 ADD SWAP1 PUSH2 0x3C16 JUMP JUMPDEST PUSH2 0x160 DUP6 ADD MLOAD PUSH32 0xFFFFFFFFFFFFFFFFFFFFFFFFFFFFFFFFFFFFFFFFFFFFFFFFFFFFFFFFFFFFFFE0 DUP8 DUP4 SUB ADD PUSH2 0x180 DUP9 ADD MSTORE PUSH2 0x3C16 JUMP JUMPDEST SWAP3 PUSH2 0x180 DUP2 ADD MLOAD DUP3 DUP7 ADD MSTORE ADD MLOAD ISZERO ISZERO SWAP1 DUP4 ADD MSTORE SUB SWAP1 RETURN JUMPDEST PUSH1 0x24 DUP5 PUSH32 0x4E487B7100000000000000000000000000000000000000000000000000000000 DUP2 MSTORE PUSH1 0x21 PUSH1 0x4 MSTORE REVERT JUMPDEST POP CALLVALUE PUSH2 0x1FD JUMPI DUP1 PUSH32 0xFFFFFFFFFFFFFFFFFFFFFFFFFFFFFFFFFFFFFFFFFFFFFFFFFFFFFFFFFFFFFFFC CALLDATASIZE ADD SLT PUSH2 0x1FD JUMPI PUSH1 0x20 PUSH1 0x40 MLOAD PUSH32 0xC785F0E55C16138CA0F8448186FA6229BE092A3A83DB3C5D63C9286723C5A2C4 DUP2 MSTORE RETURN JUMPDEST POP CALLVALUE PUSH2 0x1FD JUMPI PUSH1 0x40 PUSH32 0xFFFFFFFFFFFFFFFFFFFFFFFFFFFFFFFFFFFFFFFFFFFFFFFFFFFFFFFFFFFFFFFC CALLDATASIZE ADD SLT PUSH2 0x1FD JUMPI PUSH1 0x24 CALLDATALOAD PUSH1 0x4 CALLDATALOAD PUSH2 0x2E48 PUSH2 0x4820 JUMP JUMPDEST DUP1 DUP4 MSTORE PUSH2 0x160 PUSH1 0x20 MSTORE PUSH1 0x40 DUP4 KECCAK256 PUSH1 0x6 DUP2 ADD SLOAD PUSH1 0xFF DUP2 PUSH1 0x80 SHR AND PUSH1 0x6 DUP2 LT ISZERO PUSH2 0x1486 JUMPI PUSH1 0x1 SUB PUSH2 0x886 JUMPI PUSH8 0xFFFFFFFFFFFFFFFF DUP2 PUSH1 0x40 SHR AND DUP1 ISZERO ISZERO SWAP1 DUP2 PUSH2 0x32FA JUMPI JUMPDEST POP PUSH2 0x852 JUMPI PUSH1 0x9 DUP3 ADD SLOAD PUSH2 0x32D0 JUMPI PUSH20 0xFFFFFFFFFFFFFFFFFFFFFFFFFFFFFFFFFFFFFFFF PUSH2 0x161 SLOAD AND PUSH1 0x4 DUP4 ADD SLOAD SWAP1 PUSH1 0x40 MLOAD PUSH32 0x6F6BF11800000000000000000000000000000000000000000000000000000000 DUP2 MSTORE DUP3 PUSH1 0x4 DUP3 ADD MSTORE PUSH1 0x20 DUP2 PUSH1 0x24 DUP2 DUP6 GAS STATICCALL SWAP1 DUP2 ISZERO PUSH2 0x1042 JUMPI DUP9 SWAP2 PUSH2 0x3296 JUMPI JUMPDEST POP PUSH1 0x40 MLOAD SWAP1 PUSH32 0xD4EC232000000000000000000000000000000000000000000000000000000000 DUP3 MSTORE PUSH1 0x20 DUP3 PUSH1 0x4 DUP2 DUP7 GAS STATICCALL SWAP2 DUP3 ISZERO PUSH2 0x328B JUMPI DUP10 SWAP3 PUSH2 0x3243 JUMPI JUMPDEST POP PUSH20 0xFFFFFFFFFFFFFFFFFFFFFFFFFFFFFFFFFFFFFFFF AND CALLER EQ ISZERO SWAP1 DUP2 PUSH2 0x31AD JUMPI JUMPDEST POP PUSH2 0x6E8 JUMPI DUP7 PUSH1 0x24 SWAP2 PUSH1 0x40 MLOAD SWAP3 DUP4 DUP1 SWAP3 PUSH32 0x584EE35C00000000000000000000000000000000000000000000000000000000 DUP3 MSTORE DUP11 PUSH1 0x4 DUP4 ADD MSTORE GAS STATICCALL SWAP2 DUP3 ISZERO PUSH2 0x31A2 JUMPI DUP6 SWAP2 DUP9 SWAP4 PUSH2 0x3037 JUMPI JUMPDEST POP DUP3 MLOAD EQ SWAP2 DUP3 ISZERO SWAP3 PUSH2 0x3028 JUMPI JUMPDEST POP POP PUSH2 0x6E8 JUMPI PUSH17 0x200000000000000000000000000000000 PUSH32 0xFFFFFFFFFFFFFFFFFFFFFFFFFFFFFF00FFFFFFFFFFFFFFFFFFFFFFFFFFFFFFFF PUSH1 0x6 SWAP3 DUP7 PUSH1 0x9 DUP7 ADD SSTORE AND OR SWAP2 ADD SSTORE PUSH1 0x40 MLOAD SWAP2 DUP3 MSTORE PUSH32 0x87EAE43BC7A49D6CF2772F529E81DAD4873F46531D8AF65BF43888E18BC12520 PUSH1 0x20 CALLER SWAP4 LOG3 DUP1 RETURN JUMPDEST PUSH1 0x80 ADD MLOAD EQ ISZERO SWAP1 POP DUP4 CODESIZE PUSH2 0x2FB2 JUMP JUMPDEST SWAP2 POP SWAP2 POP RETURNDATASIZE DUP1 DUP9 DUP4 RETURNDATACOPY PUSH2 0x304A DUP2 DUP4 PUSH2 0x3D08 JUMP JUMPDEST DUP2 ADD SWAP1 PUSH1 0x40 DUP2 DUP4 SUB SLT PUSH2 0x1037 JUMPI DUP1 MLOAD PUSH8 0xFFFFFFFFFFFFFFFF DUP2 GT PUSH2 0x639 JUMPI DUP2 ADD SWAP1 PUSH2 0x100 SWAP2 DUP3 DUP2 DUP6 SUB SLT PUSH2 0x319E JUMPI PUSH1 0x40 MLOAD SWAP3 DUP4 ADD DUP4 DUP2 LT PUSH8 0xFFFFFFFFFFFFFFFF DUP3 GT OR PUSH2 0x2331 JUMPI PUSH1 0x40 MSTORE DUP1 MLOAD DUP4 MSTORE PUSH1 0x20 DUP2 ADD MLOAD PUSH1 0x20 DUP5 ADD MSTORE PUSH1 0x40 DUP2 ADD MLOAD PUSH1 0x40 DUP5 ADD MSTORE PUSH1 0x60 DUP2 ADD MLOAD PUSH1 0x60 DUP5 ADD MSTORE PUSH1 0x80 DUP2 ADD MLOAD PUSH1 0x80 DUP5 ADD MSTORE PUSH2 0x30CC PUSH1 0xA0 DUP3 ADD PUSH2 0x4BCC JUMP JUMPDEST PUSH1 0xA0 DUP5 ADD MSTORE PUSH1 0xC0 DUP2 ADD MLOAD PUSH8 0xFFFFFFFFFFFFFFFF DUP2 GT PUSH2 0x6D1 JUMPI DUP2 PUSH2 0x30F7 DUP7 PUSH1 0xE0 SWAP4 PUSH2 0x3102 SWAP6 ADD PUSH2 0x4BED JUMP JUMPDEST PUSH1 0xC0 DUP7 ADD MSTORE ADD PUSH2 0x4C32 JUMP JUMPDEST PUSH1 0xE0 DUP4 ADD MSTORE PUSH1 0x20 DUP2 ADD MLOAD SWAP1 PUSH8 0xFFFFFFFFFFFFFFFF DUP3 GT PUSH2 0x319E JUMPI ADD PUSH1 0x80 DUP2 DUP5 SUB SLT PUSH2 0x639 JUMPI PUSH1 0x40 MLOAD SWAP1 PUSH1 0x80 DUP3 ADD DUP3 DUP2 LT PUSH8 0xFFFFFFFFFFFFFFFF DUP3 GT OR PUSH2 0x2331 JUMPI PUSH1 0x40 MSTORE PUSH2 0x314E DUP2 PUSH2 0x4BCC JUMP JUMPDEST DUP3 MSTORE PUSH2 0x315C PUSH1 0x20 DUP3 ADD PUSH2 0x4A2C JUMP JUMPDEST PUSH1 0x20 DUP4 ADD MSTORE PUSH1 0x40 DUP2 ADD MLOAD PUSH8 0xFFFFFFFFFFFFFFFF DUP2 GT PUSH2 0x6D1 JUMPI PUSH1 0x60 DUP3 PUSH2 0x3189 DUP12 SWAP8 PUSH2 0x3194 SWAP5 DUP5 SWAP7 ADD PUSH2 0x4BED JUMP JUMPDEST PUSH1 0x40 DUP7 ADD MSTORE ADD PUSH2 0x4C32 JUMP JUMPDEST SWAP2 ADD MSTORE SWAP2 CODESIZE PUSH2 0x2FA5 JUMP JUMPDEST DUP10 DUP1 REVERT JUMPDEST PUSH1 0x40 MLOAD RETURNDATASIZE DUP10 DUP3 RETURNDATACOPY RETURNDATASIZE SWAP1 REVERT JUMPDEST PUSH1 0x40 MLOAD PUSH32 0xA1C000B000000000000000000000000000000000000000000000000000000000 DUP2 MSTORE PUSH1 0x4 DUP2 ADD DUP6 SWAP1 MSTORE CALLER PUSH1 0x24 DUP3 ADD MSTORE PUSH1 0x44 DUP2 ADD SWAP2 SWAP1 SWAP2 MSTORE SWAP1 POP PUSH1 0x20 DUP2 PUSH1 0x64 DUP2 DUP6 GAS STATICCALL SWAP1 DUP2 ISZERO PUSH2 0x1042 JUMPI DUP9 SWAP2 PUSH2 0x3209 JUMPI JUMPDEST POP ISZERO CODESIZE PUSH2 0x2F5A JUMP JUMPDEST SWAP1 POP PUSH1 0x20 DUP2 RETURNDATASIZE PUSH1 0x20 GT PUSH2 0x323B JUMPI JUMPDEST DUP2 PUSH2 0x3224 PUSH1 0x20 SWAP4 DUP4 PUSH2 0x3D08 JUMP JUMPDEST DUP2 ADD SUB SLT PUSH2 0x1037 JUMPI PUSH2 0x3235 SWAP1 PUSH2 0x4A2C JUMP JUMPDEST CODESIZE PUSH2 0x3201 JUMP JUMPDEST RETURNDATASIZE SWAP2 POP PUSH2 0x3217 JUMP JUMPDEST SWAP1 SWAP2 POP PUSH1 0x20 DUP2 RETURNDATASIZE PUSH1 0x20 GT PUSH2 0x3283 JUMPI JUMPDEST DUP2 PUSH2 0x325F PUSH1 0x20 SWAP4 DUP4 PUSH2 0x3D08 JUMP JUMPDEST DUP2 ADD SUB SLT PUSH2 0x7CF JUMPI MLOAD SWAP1 PUSH20 0xFFFFFFFFFFFFFFFFFFFFFFFFFFFFFFFFFFFFFFFF PUSH2 0x2F39 JUMP JUMPDEST RETURNDATASIZE SWAP2 POP PUSH2 0x3252 JUMP JUMPDEST PUSH1 0x40 MLOAD RETURNDATASIZE DUP12 DUP3 RETURNDATACOPY RETURNDATASIZE SWAP1 REVERT JUMPDEST SWAP1 POP PUSH1 0x20 DUP2 RETURNDATASIZE PUSH1 0x20 GT PUSH2 0x32C8 JUMPI JUMPDEST DUP2 PUSH2 0x32B1 PUSH1 0x20 SWAP4 DUP4 PUSH2 0x3D08 JUMP JUMPDEST DUP2 ADD SUB SLT PUSH2 0x1037 JUMPI PUSH2 0x32C2 SWAP1 PUSH2 0x4BCC JUMP JUMPDEST CODESIZE PUSH2 0x2EFA JUMP JUMPDEST RETURNDATASIZE SWAP2 POP PUSH2 0x32A4 JUMP JUMPDEST PUSH1 0x4 PUSH1 0x40 MLOAD PUSH32 0x9FBFC58900000000000000000000000000000000000000000000000000000000 DUP2 MSTORE REVERT JUMPDEST SWAP1 POP TIMESTAMP GT CODESIZE PUSH2 0x2E89 JUMP JUMPDEST POP CALLVALUE PUSH2 0x1FD JUMPI PUSH1 0x80 PUSH32 0xFFFFFFFFFFFFFFFFFFFFFFFFFFFFFFFFFFFFFFFFFFFFFFFFFFFFFFFFFFFFFFFC CALLDATASIZE ADD SLT PUSH2 0x1FD JUMPI PUSH1 0x24 DUP1 CALLDATALOAD DUP1 ISZERO ISZERO SWAP2 PUSH1 0x4 CALLDATALOAD SWAP2 DUP4 DUP2 SUB PUSH2 0x23BE JUMPI PUSH1 0x44 CALLDATALOAD SWAP4 DUP5 ISZERO ISZERO SWAP5 DUP6 DUP2 SUB PUSH2 0x1B3D JUMPI PUSH1 0x64 CALLDATALOAD PUSH8 0xFFFFFFFFFFFFFFFF DUP2 GT PUSH2 0x1037 JUMPI PUSH2 0x3376 SWAP1 CALLDATASIZE SWAP1 PUSH1 0x4 ADD PUSH2 0x3BC5 JUMP JUMPDEST SWAP1 SWAP2 PUSH32 0xC785F0E55C16138CA0F8448186FA6229BE092A3A83DB3C5D63C9286723C5A2C4 SWAP5 DUP6 DUP11 MSTORE PUSH1 0x20 SWAP6 PUSH1 0x65 DUP8 MSTORE PUSH1 0x40 DUP12 KECCAK256 CALLER DUP13 MSTORE DUP8 MSTORE PUSH1 0xFF PUSH1 0x40 DUP13 KECCAK256 SLOAD AND ISZERO PUSH2 0x3866 JUMPI POP DUP8 DUP11 MSTORE PUSH2 0x160 DUP7 MSTORE PUSH1 0x40 DUP11 KECCAK256 SWAP2 PUSH1 0x6 DUP4 ADD SWAP8 PUSH1 0xFF DUP10 SLOAD PUSH1 0x80 SHR AND SWAP1 PUSH1 0x6 DUP3 LT ISZERO PUSH2 0x383B JUMPI POP PUSH1 0x4 SUB PUSH2 0x886 JUMPI PUSH1 0x3 DUP4 ADD DUP1 SLOAD DUP13 SWAP4 DUP2 PUSH2 0x36A7 JUMPI JUMPDEST POP POP POP PUSH1 0x2 DUP4 ADD SWAP1 DUP2 SLOAD SWAP1 DUP2 PUSH2 0x3492 JUMPI JUMPDEST POP POP POP POP SWAP1 PUSH1 0x4 PUSH2 0x348C SWAP4 SWAP3 DUP8 PUSH17 0x300000000000000000000000000000000 PUSH32 0xFFFFFFFFFFFFFFFFFFFFFFFFFFFFFF00FFFFFFFFFFFFFFFFFFFFFFFFFFFFFFFF PUSH32 0xADB6395DFA6F076B9F57E5923A4B419A09B2BE924B47F35440CB0BAD56EA6480 SWAP11 SLOAD AND OR SWAP1 SSTORE ADD SLOAD SWAP8 PUSH1 0x40 MLOAD SWAP6 DUP7 SWAP6 DUP7 MSTORE DUP6 ADD MSTORE PUSH1 0x60 PUSH1 0x40 DUP6 ADD MSTORE PUSH1 0x60 DUP5 ADD SWAP2 PUSH2 0x49ED JUMP JUMPDEST SUB SWAP1 LOG3 DUP1 RETURN JUMPDEST ISZERO PUSH2 0x352A JUMPI POP SWAP2 PUSH32 0xADB6395DFA6F076B9F57E5923A4B419A09B2BE924B47F35440CB0BAD56EA6480 SWAP8 PUSH1 0x4 SWAP3 PUSH2 0x348C SWAP7 SWAP6 SWAP5 PUSH2 0x34EF PUSH20 0xFFFFFFFFFFFFFFFFFFFFFFFFFFFFFFFFFFFFFFFF DUP1 PUSH1 0x1 DUP8 ADD SLOAD AND SWAP1 DUP7 SLOAD AND DUP4 SLOAD SWAP2 PUSH2 0x4CAE JUMP JUMPDEST SSTORE PUSH1 0xA DUP3 ADD PUSH1 0x1 PUSH32 0xFFFFFFFFFFFFFFFFFFFFFFFFFFFFFFFFFFFFFFFFFFFFFFFFFFFFFFFFFFFFFF00 DUP3 SLOAD AND OR SWAP1 SSTORE SWAP8 DUP2 SWAP4 SWAP5 SWAP6 DUP13 SWAP4 POP PUSH2 0x3406 JUMP JUMPDEST PUSH1 0x1 DUP5 ADD SWAP1 PUSH20 0xFFFFFFFFFFFFFFFFFFFFFFFFFFFFFFFFFFFFFFFF SWAP1 DUP2 DUP4 SLOAD AND SWAP1 DUP2 ISZERO PUSH1 0x0 EQ PUSH2 0x362C JUMPI POP POP SWAP1 DUP2 PUSH2 0x162 SLOAD AND SWAP2 DUP4 SLOAD SWAP2 SLOAD AND SWAP1 DUP3 EXTCODESIZE ISZERO PUSH2 0x23BE JUMPI PUSH1 0x40 MLOAD PUSH32 0x722E5C8B00000000000000000000000000000000000000000000000000000000 DUP2 MSTORE PUSH20 0xFFFFFFFFFFFFFFFFFFFFFFFFFFFFFFFFFFFFFFFF SWAP1 SWAP3 AND PUSH1 0x4 DUP4 ADD MSTORE PUSH1 0x24 DUP3 ADD DUP2 SWAP1 MSTORE SWAP1 SWAP2 DUP5 SWAP2 DUP4 SWAP2 SWAP1 DUP3 SWAP1 DUP2 PUSH1 0x44 DUP2 ADD JUMPDEST SUB SWAP3 GAS CALL DUP1 ISZERO PUSH2 0x3621 JUMPI PUSH2 0x3604 JUMPI JUMPDEST POP SWAP2 PUSH32 0xADB6395DFA6F076B9F57E5923A4B419A09B2BE924B47F35440CB0BAD56EA6480 SWAP8 PUSH1 0x4 SWAP3 PUSH2 0x348C SWAP7 SWAP6 SWAP5 PUSH2 0x34EF JUMP JUMPDEST SWAP2 PUSH2 0x3613 DUP2 SWAP7 SWAP6 SWAP5 SWAP3 SWAP4 PUSH2 0x3C9F JUMP JUMPDEST PUSH2 0x23BE JUMPI SWAP2 SWAP3 SWAP4 SWAP1 CODESIZE PUSH2 0x35D2 JUMP JUMPDEST PUSH1 0x40 MLOAD RETURNDATASIZE DUP6 DUP3 RETURNDATACOPY RETURNDATASIZE SWAP1 REVERT JUMPDEST SWAP1 PUSH2 0x3640 DUP4 SWAP3 PUSH2 0x162 SWAP3 DUP5 DUP5 SLOAD AND SWAP1 PUSH2 0x4C47 JUMP JUMPDEST SLOAD AND SWAP2 SLOAD AND DUP3 SLOAD DUP3 EXTCODESIZE ISZERO PUSH2 0x23BE JUMPI PUSH1 0x40 MLOAD PUSH32 0x722E5C8B00000000000000000000000000000000000000000000000000000000 DUP2 MSTORE PUSH20 0xFFFFFFFFFFFFFFFFFFFFFFFFFFFFFFFFFFFFFFFF SWAP1 SWAP3 AND PUSH1 0x4 DUP4 ADD MSTORE PUSH1 0x24 DUP3 ADD MSTORE SWAP1 DUP4 SWAP1 DUP3 SWAP1 DUP2 DUP4 DUP2 PUSH1 0x44 DUP2 ADD PUSH2 0x35C3 JUMP JUMPDEST ISZERO PUSH2 0x3778 JUMPI POP PUSH20 0xFFFFFFFFFFFFFFFFFFFFFFFFFFFFFFFFFFFFFFFF DUP1 PUSH2 0x161 SLOAD AND SWAP1 PUSH1 0x4 DUP7 ADD SLOAD SWAP1 PUSH1 0x1 DUP8 ADD SLOAD AND SWAP2 DUP4 SLOAD SWAP1 DUP1 EXTCODESIZE ISZERO PUSH2 0x1B3D JUMPI PUSH1 0x40 MLOAD PUSH32 0x4986E07500000000000000000000000000000000000000000000000000000000 DUP2 MSTORE PUSH1 0x4 DUP2 ADD SWAP4 SWAP1 SWAP4 MSTORE PUSH20 0xFFFFFFFFFFFFFFFFFFFFFFFFFFFFFFFFFFFFFFFF SWAP4 SWAP1 SWAP4 AND PUSH1 0x24 DUP4 ADD MSTORE PUSH1 0x44 DUP3 ADD MSTORE SWAP1 DUP5 SWAP1 DUP3 SWAP1 PUSH1 0x64 SWAP1 DUP3 SWAP1 DUP5 SWAP1 GAS CALL SWAP1 DUP2 ISZERO PUSH2 0x376D JUMPI DUP5 SWAP2 PUSH2 0x3759 JUMPI JUMPDEST POP SWAP1 JUMPDEST SSTORE CODESIZE DUP1 DUP1 PUSH2 0x33F5 JUMP JUMPDEST PUSH2 0x3762 SWAP1 PUSH2 0x3C9F JUMP JUMPDEST PUSH2 0x1B41 JUMPI DUP3 CODESIZE PUSH2 0x374D JUMP JUMPDEST PUSH1 0x40 MLOAD RETURNDATASIZE DUP7 DUP3 RETURNDATACOPY RETURNDATASIZE SWAP1 REVERT JUMPDEST SWAP1 SWAP2 SWAP3 PUSH20 0xFFFFFFFFFFFFFFFFFFFFFFFFFFFFFFFFFFFFFFFF SWAP2 DUP3 PUSH2 0x161 SLOAD AND PUSH1 0x4 DUP8 ADD SLOAD SWAP4 PUSH1 0x1 DUP9 ADD SLOAD AND DUP2 EXTCODESIZE ISZERO PUSH2 0x648 JUMPI PUSH1 0x40 MLOAD PUSH32 0x7DF29BE900000000000000000000000000000000000000000000000000000000 DUP2 MSTORE PUSH1 0x4 DUP2 ADD SWAP6 SWAP1 SWAP6 MSTORE PUSH20 0xFFFFFFFFFFFFFFFFFFFFFFFFFFFFFFFFFFFFFFFF AND PUSH1 0x24 DUP6 ADD MSTORE PUSH1 0x44 DUP5 ADD SWAP2 SWAP1 SWAP2 MSTORE DUP3 SWAP1 PUSH1 0x64 SWAP1 DUP3 SWAP1 DUP5 SWAP1 GAS CALL DUP1 ISZERO PUSH2 0x3830 JUMPI PUSH2 0x381B JUMPI JUMPDEST POP SWAP1 DUP11 DUP1 SWAP3 PUSH2 0x3750 JUMP JUMPDEST PUSH2 0x3828 SWAP1 SWAP12 SWAP2 SWAP3 SWAP12 PUSH2 0x3C9F JUMP JUMPDEST SWAP10 SWAP1 CODESIZE PUSH2 0x3811 JUMP JUMPDEST PUSH1 0x40 MLOAD RETURNDATASIZE DUP15 DUP3 RETURNDATACOPY RETURNDATASIZE SWAP1 REVERT JUMPDEST DUP13 PUSH32 0x4E487B7100000000000000000000000000000000000000000000000000000000 DUP2 MSTORE PUSH1 0x21 PUSH1 0x4 MSTORE REVERT JUMPDEST DUP7 DUP9 SWAP2 DUP13 PUSH2 0x3873 CALLER PUSH2 0x4620 JUMP JUMPDEST SWAP2 PUSH1 0x40 MLOAD SWAP1 PUSH2 0x3881 DUP3 PUSH2 0x3CEC JUMP JUMPDEST PUSH1 0x42 DUP3 MSTORE DUP5 DUP3 ADD SWAP3 PUSH1 0x60 CALLDATASIZE DUP6 CALLDATACOPY DUP3 MLOAD ISZERO PUSH2 0x3ADB JUMPI PUSH1 0x30 DUP5 MSTORE8 DUP3 MLOAD SWAP1 PUSH1 0x1 SWAP2 DUP3 LT ISZERO PUSH2 0x3AAF JUMPI SWAP1 PUSH1 0x78 PUSH1 0x21 DUP6 ADD MSTORE8 PUSH1 0x41 SWAP2 JUMPDEST DUP2 DUP4 GT PUSH2 0x39E6 JUMPI POP POP POP PUSH2 0x398A JUMPI PUSH1 0x48 PUSH2 0x3986 SWAP4 PUSH2 0x3941 SWAP4 PUSH2 0x3950 SWAP4 PUSH1 0x40 MLOAD SWAP6 DUP7 SWAP4 PUSH32 0x416363657373436F6E74726F6C3A206163636F756E7420000000000000000000 DUP11 DUP7 ADD MSTORE PUSH2 0x390C DUP2 MLOAD DUP1 SWAP3 DUP13 PUSH1 0x37 DUP10 ADD SWAP2 ADD PUSH2 0x3BF3 JUMP JUMPDEST DUP5 ADD SWAP2 PUSH32 0x206973206D697373696E6720726F6C6520000000000000000000000000000000 PUSH1 0x37 DUP5 ADD MSTORE MLOAD DUP1 SWAP4 DUP7 DUP5 ADD SWAP1 PUSH2 0x3BF3 JUMP JUMPDEST ADD SUB PUSH1 0x28 DUP2 ADD DUP5 MSTORE ADD DUP3 PUSH2 0x3D08 JUMP JUMPDEST PUSH1 0x40 MLOAD SWAP4 DUP5 SWAP4 PUSH32 0x8C379A000000000000000000000000000000000000000000000000000000000 DUP6 MSTORE PUSH1 0x4 DUP6 ADD MSTORE DUP4 ADD SWAP1 PUSH2 0x3C16 JUMP JUMPDEST SUB SWAP1 REVERT JUMPDEST PUSH1 0x64 DUP6 DUP6 PUSH1 0x40 MLOAD SWAP2 PUSH32 0x8C379A000000000000000000000000000000000000000000000000000000000 DUP4 MSTORE DUP2 PUSH1 0x4 DUP5 ADD MSTORE DUP3 ADD MSTORE PUSH32 0x537472696E67733A20686578206C656E67746820696E73756666696369656E74 PUSH1 0x44 DUP3 ADD MSTORE REVERT JUMPDEST SWAP1 SWAP2 SWAP3 PUSH1 0xF DUP2 AND PUSH1 0x10 DUP2 LT ISZERO PUSH2 0x3A83 JUMPI PUSH32 0x3031323334353637383961626364656600000000000000000000000000000000 SWAP1 BYTE PUSH2 0x3A23 DUP6 DUP8 PUSH2 0x45E0 JUMP JUMPDEST MSTORE8 PUSH1 0x4 SHR SWAP3 DUP1 ISZERO PUSH2 0x3A57 JUMPI PUSH32 0xFFFFFFFFFFFFFFFFFFFFFFFFFFFFFFFFFFFFFFFFFFFFFFFFFFFFFFFFFFFFFFFF ADD SWAP2 SWAP1 PUSH2 0x38B2 JUMP JUMPDEST DUP9 DUP3 PUSH32 0x4E487B7100000000000000000000000000000000000000000000000000000000 DUP2 MSTORE PUSH1 0x11 PUSH1 0x4 MSTORE REVERT JUMPDEST DUP10 DUP4 PUSH32 0x4E487B7100000000000000000000000000000000000000000000000000000000 DUP2 MSTORE PUSH1 0x32 PUSH1 0x4 MSTORE REVERT JUMPDEST DUP1 PUSH32 0x4E487B7100000000000000000000000000000000000000000000000000000000 DUP10 SWAP3 MSTORE PUSH1 0x32 PUSH1 0x4 MSTORE REVERT JUMPDEST DUP1 PUSH32 0x4E487B7100000000000000000000000000000000000000000000000000000000 DUP9 SWAP3 MSTORE PUSH1 0x32 PUSH1 0x4 MSTORE REVERT JUMPDEST SWAP1 POP CALLVALUE PUSH2 0x2844 JUMPI PUSH1 0x20 PUSH32 0xFFFFFFFFFFFFFFFFFFFFFFFFFFFFFFFFFFFFFFFFFFFFFFFFFFFFFFFFFFFFFFFC CALLDATASIZE ADD SLT PUSH2 0x2844 JUMPI PUSH1 0x4 CALLDATALOAD PUSH32 0xFFFFFFFF00000000000000000000000000000000000000000000000000000000 DUP2 AND DUP1 SWAP2 SUB PUSH2 0x1B41 JUMPI PUSH1 0x20 SWAP3 POP PUSH32 0x7965DB0B00000000000000000000000000000000000000000000000000000000 DUP2 EQ SWAP1 DUP2 ISZERO PUSH2 0x3B9B JUMPI JUMPDEST POP ISZERO ISZERO DUP2 MSTORE RETURN JUMPDEST PUSH32 0x1FFC9A700000000000000000000000000000000000000000000000000000000 SWAP2 POP EQ CODESIZE PUSH2 0x3B94 JUMP JUMPDEST SWAP2 DUP2 PUSH1 0x1F DUP5 ADD SLT ISZERO PUSH2 0x7CF JUMPI DUP3 CALLDATALOAD SWAP2 PUSH8 0xFFFFFFFFFFFFFFFF DUP4 GT PUSH2 0x7CF JUMPI PUSH1 0x20 DUP4 DUP2 DUP7 ADD SWAP6 ADD ADD GT PUSH2 0x7CF JUMPI JUMP JUMPDEST PUSH1 0x0 JUMPDEST DUP4 DUP2 LT PUSH2 0x3C06 JUMPI POP POP PUSH1 0x0 SWAP2 ADD MSTORE JUMP JUMPDEST DUP2 DUP2 ADD MLOAD DUP4 DUP3 ADD MSTORE PUSH1 0x20 ADD PUSH2 0x3BF6 JUMP JUMPDEST SWAP1 PUSH32 0xFFFFFFFFFFFFFFFFFFFFFFFFFFFFFFFFFFFFFFFFFFFFFFFFFFFFFFFFFFFFFFE0 PUSH1 0x1F PUSH1 0x20 SWAP4 PUSH2 0x3C52 DUP2 MLOAD DUP1 SWAP3 DUP2 DUP8 MSTORE DUP8 DUP1 DUP9 ADD SWAP2 ADD PUSH2 0x3BF3 JUMP JUMPDEST ADD AND ADD ADD SWAP1 JUMP JUMPDEST PUSH1 0x24 CALLDATALOAD SWAP1 PUSH20 0xFFFFFFFFFFFFFFFFFFFFFFFFFFFFFFFFFFFFFFFF DUP3 AND DUP3 SUB PUSH2 0x7CF JUMPI JUMP JUMPDEST PUSH1 0x4 CALLDATALOAD SWAP1 PUSH20 0xFFFFFFFFFFFFFFFFFFFFFFFFFFFFFFFFFFFFFFFF DUP3 AND DUP3 SUB PUSH2 0x7CF JUMPI JUMP JUMPDEST PUSH8 0xFFFFFFFFFFFFFFFF DUP2 GT PUSH2 0x2331 JUMPI PUSH1 0x40 MSTORE JUMP JUMPDEST PUSH2 0x1C0 DUP2 ADD SWAP1 DUP2 LT PUSH8 0xFFFFFFFFFFFFFFFF DUP3 GT OR PUSH2 0x2331 JUMPI PUSH1 0x40 MSTORE JUMP JUMPDEST PUSH1 0x60 DUP2 ADD SWAP1 DUP2 LT PUSH8 0xFFFFFFFFFFFFFFFF DUP3 GT OR PUSH2 0x2331 JUMPI PUSH1 0x40 MSTORE JUMP JUMPDEST PUSH1 0x80 DUP2 ADD SWAP1 DUP2 LT PUSH8 0xFFFFFFFFFFFFFFFF DUP3 GT OR PUSH2 0x2331 JUMPI PUSH1 0x40 MSTORE JUMP JUMPDEST SWAP1 PUSH1 0x1F PUSH32 0xFFFFFFFFFFFFFFFFFFFFFFFFFFFFFFFFFFFFFFFFFFFFFFFFFFFFFFFFFFFFFFE0 SWAP2 ADD AND DUP2 ADD SWAP1 DUP2 LT PUSH8 0xFFFFFFFFFFFFFFFF DUP3 GT OR PUSH2 0x2331 JUMPI PUSH1 0x40 MSTORE JUMP JUMPDEST PUSH8 0xFFFFFFFFFFFFFFFF DUP2 GT PUSH2 0x2331 JUMPI PUSH1 0x1F ADD PUSH32 0xFFFFFFFFFFFFFFFFFFFFFFFFFFFFFFFFFFFFFFFFFFFFFFFFFFFFFFFFFFFFFFE0 AND PUSH1 0x20 ADD SWAP1 JUMP JUMPDEST CALLER PUSH1 0x0 SWAP1 DUP2 MSTORE PUSH32 0xFFDFC1249C027F9191656349FEB0761381BB32C9F557E01F419FD08754BF5A1B PUSH1 0x20 SWAP1 DUP2 MSTORE PUSH1 0x40 DUP1 DUP4 KECCAK256 SLOAD SWAP1 SWAP3 SWAP1 PUSH1 0xFF AND ISZERO PUSH2 0x3DC5 JUMPI POP POP POP JUMP JUMPDEST PUSH2 0x3DCE CALLER PUSH2 0x4620 JUMP JUMPDEST SWAP1 DUP1 DUP5 MLOAD SWAP1 PUSH2 0x3DDC DUP3 PUSH2 0x3CEC JUMP JUMPDEST PUSH1 0x42 DUP3 MSTORE DUP5 DUP3 ADD SWAP3 PUSH1 0x60 CALLDATASIZE DUP6 CALLDATACOPY DUP3 MLOAD ISZERO PUSH2 0x3FD3 JUMPI PUSH1 0x30 DUP5 MSTORE8 DUP3 MLOAD SWAP1 PUSH1 0x1 SWAP2 DUP3 LT ISZERO PUSH2 0x3FD3 JUMPI SWAP1 PUSH1 0x78 PUSH1 0x21 DUP6 ADD MSTORE8 PUSH1 0x41 SWAP2 JUMPDEST DUP2 DUP4 GT PUSH2 0x3F08 JUMPI POP POP POP PUSH2 0x3EAC JUMPI PUSH1 0x48 PUSH2 0x3986 SWAP4 DUP7 SWAP4 PUSH2 0x3E76 SWAP4 PUSH2 0x3E67 SWAP9 MLOAD SWAP9 DUP10 SWAP4 PUSH32 0x416363657373436F6E74726F6C3A206163636F756E7420000000000000000000 DUP11 DUP7 ADD MSTORE PUSH2 0x390C DUP2 MLOAD DUP1 SWAP3 DUP13 PUSH1 0x37 DUP10 ADD SWAP2 ADD PUSH2 0x3BF3 JUMP JUMPDEST ADD SUB PUSH1 0x28 DUP2 ADD DUP8 MSTORE ADD DUP6 PUSH2 0x3D08 JUMP JUMPDEST MLOAD SWAP3 DUP4 SWAP3 PUSH32 0x8C379A000000000000000000000000000000000000000000000000000000000 DUP5 MSTORE PUSH1 0x4 DUP5 ADD MSTORE PUSH1 0x24 DUP4 ADD SWAP1 PUSH2 0x3C16 JUMP JUMPDEST PUSH1 0x64 DUP5 DUP7 MLOAD SWAP1 PUSH32 0x8C379A000000000000000000000000000000000000000000000000000000000 DUP3 MSTORE DUP1 PUSH1 0x4 DUP4 ADD MSTORE PUSH1 0x24 DUP3 ADD MSTORE PUSH32 0x537472696E67733A20686578206C656E67746820696E73756666696369656E74 PUSH1 0x44 DUP3 ADD MSTORE REVERT JUMPDEST SWAP1 SWAP2 SWAP3 PUSH1 0xF DUP2 AND PUSH1 0x10 DUP2 LT ISZERO PUSH2 0x3FA6 JUMPI PUSH32 0x3031323334353637383961626364656600000000000000000000000000000000 SWAP1 BYTE PUSH2 0x3F45 DUP6 DUP8 PUSH2 0x45E0 JUMP JUMPDEST MSTORE8 PUSH1 0x4 SHR SWAP3 DUP1 ISZERO PUSH2 0x3F79 JUMPI PUSH32 0xFFFFFFFFFFFFFFFFFFFFFFFFFFFFFFFFFFFFFFFFFFFFFFFFFFFFFFFFFFFFFFFF ADD SWAP2 SWAP1 PUSH2 0x3E0D JUMP JUMPDEST PUSH1 0x24 DUP3 PUSH32 0x4E487B7100000000000000000000000000000000000000000000000000000000 DUP2 MSTORE PUSH1 0x11 PUSH1 0x4 MSTORE REVERT JUMPDEST PUSH1 0x24 DUP4 PUSH32 0x4E487B7100000000000000000000000000000000000000000000000000000000 DUP2 MSTORE PUSH1 0x32 PUSH1 0x4 MSTORE REVERT JUMPDEST DUP1 PUSH32 0x4E487B7100000000000000000000000000000000000000000000000000000000 PUSH1 0x24 SWAP3 MSTORE PUSH1 0x32 PUSH1 0x4 MSTORE REVERT JUMPDEST CALLER PUSH1 0x0 SWAP1 DUP2 MSTORE PUSH32 0xBFE93621C6AA2DBF737E9056C9B79E4D30EE4F6B28B18BE2CB71AAC8A7BF258E PUSH1 0x20 SWAP1 DUP2 MSTORE PUSH1 0x40 DUP1 DUP4 KECCAK256 SLOAD SWAP1 SWAP3 PUSH32 0x65D7A28E3265B37A6474929F336521B332C1681B933F6CB9F3376673440D862A SWAP2 PUSH1 0xFF AND ISZERO PUSH2 0x4064 JUMPI POP POP POP POP JUMP JUMPDEST PUSH2 0x406D CALLER PUSH2 0x4620 JUMP JUMPDEST SWAP2 DUP5 MLOAD SWAP1 PUSH2 0x407A DUP3 PUSH2 0x3CEC JUMP JUMPDEST PUSH1 0x42 DUP3 MSTORE DUP5 DUP3 ADD SWAP3 PUSH1 0x60 CALLDATASIZE DUP6 CALLDATACOPY DUP3 MLOAD ISZERO PUSH2 0x3FD3 JUMPI PUSH1 0x30 DUP5 MSTORE8 DUP3 MLOAD SWAP1 PUSH1 0x1 SWAP2 DUP3 LT ISZERO PUSH2 0x3FD3 JUMPI SWAP1 PUSH1 0x78 PUSH1 0x21 DUP6 ADD MSTORE8 PUSH1 0x41 SWAP2 JUMPDEST DUP2 DUP4 GT PUSH2 0x4105 JUMPI POP POP POP PUSH2 0x3EAC JUMPI PUSH1 0x48 PUSH2 0x3986 SWAP4 DUP7 SWAP4 PUSH2 0x3E76 SWAP4 PUSH2 0x3E67 SWAP9 MLOAD SWAP9 DUP10 SWAP4 PUSH32 0x416363657373436F6E74726F6C3A206163636F756E7420000000000000000000 DUP11 DUP7 ADD MSTORE PUSH2 0x390C DUP2 MLOAD DUP1 SWAP3 DUP13 PUSH1 0x37 DUP10 ADD SWAP2 ADD PUSH2 0x3BF3 JUMP JUMPDEST SWAP1 SWAP2 SWAP3 PUSH1 0xF DUP2 AND PUSH1 0x10 DUP2 LT ISZERO PUSH2 0x3FA6 JUMPI PUSH32 0x3031323334353637383961626364656600000000000000000000000000000000 SWAP1 BYTE PUSH2 0x4142 DUP6 DUP8 PUSH2 0x45E0 JUMP JUMPDEST MSTORE8 PUSH1 0x4 SHR SWAP3 DUP1 ISZERO PUSH2 0x3F79 JUMPI PUSH32 0xFFFFFFFFFFFFFFFFFFFFFFFFFFFFFFFFFFFFFFFFFFFFFFFFFFFFFFFFFFFFFFFF ADD SWAP2 SWAP1 PUSH2 0x40AB JUMP JUMPDEST PUSH1 0x0 SWAP1 DUP1 DUP3 MSTORE PUSH1 0x20 SWAP1 PUSH1 0x65 DUP3 MSTORE PUSH1 0x40 SWAP3 DUP4 DUP2 KECCAK256 CALLER DUP3 MSTORE DUP4 MSTORE PUSH1 0xFF DUP5 DUP3 KECCAK256 SLOAD AND ISZERO PUSH2 0x41A0 JUMPI POP POP POP POP JUMP JUMPDEST PUSH2 0x41A9 CALLER PUSH2 0x4620 JUMP JUMPDEST SWAP2 DUP5 MLOAD SWAP1 PUSH2 0x41B6 DUP3 PUSH2 0x3CEC JUMP JUMPDEST PUSH1 0x42 DUP3 MSTORE DUP5 DUP3 ADD SWAP3 PUSH1 0x60 CALLDATASIZE DUP6 CALLDATACOPY DUP3 MLOAD ISZERO PUSH2 0x3FD3 JUMPI PUSH1 0x30 DUP5 MSTORE8 DUP3 MLOAD SWAP1 PUSH1 0x1 SWAP2 DUP3 LT ISZERO PUSH2 0x3FD3 JUMPI SWAP1 PUSH1 0x78 PUSH1 0x21 DUP6 ADD MSTORE8 PUSH1 0x41 SWAP2 JUMPDEST DUP2 DUP4 GT PUSH2 0x4241 JUMPI POP POP POP PUSH2 0x3EAC JUMPI PUSH1 0x48 PUSH2 0x3986 SWAP4 DUP7 SWAP4 PUSH2 0x3E76 SWAP4 PUSH2 0x3E67 SWAP9 MLOAD SWAP9 DUP10 SWAP4 PUSH32 0x416363657373436F6E74726F6C3A206163636F756E7420000000000000000000 DUP11 DUP7 ADD MSTORE PUSH2 0x390C DUP2 MLOAD DUP1 SWAP3 DUP13 PUSH1 0x37 DUP10 ADD SWAP2 ADD PUSH2 0x3BF3 JUMP JUMPDEST SWAP1 SWAP2 SWAP3 PUSH1 0xF DUP2 AND PUSH1 0x10 DUP2 LT ISZERO PUSH2 0x3FA6 JUMPI PUSH32 0x3031323334353637383961626364656600000000000000000000000000000000 SWAP1 BYTE PUSH2 0x427E DUP6 DUP8 PUSH2 0x45E0 JUMP JUMPDEST MSTORE8 PUSH1 0x4 SHR SWAP3 DUP1 ISZERO PUSH2 0x3F79 JUMPI PUSH32 0xFFFFFFFFFFFFFFFFFFFFFFFFFFFFFFFFFFFFFFFFFFFFFFFFFFFFFFFFFFFFFFFF ADD SWAP2 SWAP1 PUSH2 0x41E7 JUMP JUMPDEST SWAP1 PUSH1 0x0 SWAP2 DUP1 DUP4 MSTORE PUSH1 0x65 PUSH1 0x20 MSTORE PUSH20 0xFFFFFFFFFFFFFFFFFFFFFFFFFFFFFFFFFFFFFFFF PUSH1 0x40 DUP5 KECCAK256 SWAP3 AND SWAP2 DUP3 DUP5 MSTORE PUSH1 0x20 MSTORE PUSH1 0xFF PUSH1 0x40 DUP5 KECCAK256 SLOAD AND PUSH2 0x42F1 JUMPI POP POP POP JUMP JUMPDEST DUP1 DUP4 MSTORE PUSH1 0x65 PUSH1 0x20 MSTORE PUSH1 0x40 DUP4 KECCAK256 DUP3 DUP5 MSTORE PUSH1 0x20 MSTORE PUSH1 0x40 DUP4 KECCAK256 PUSH32 0xFFFFFFFFFFFFFFFFFFFFFFFFFFFFFFFFFFFFFFFFFFFFFFFFFFFFFFFFFFFFFF00 DUP2 SLOAD AND SWAP1 SSTORE PUSH32 0xF6391F5C32D9C69D2A47EA670B442974B53935D1EDC7FD64EB21E047A839171B CALLER SWAP4 DUP1 LOG4 JUMP JUMPDEST ISZERO PUSH2 0x435B JUMPI JUMP JUMPDEST PUSH1 0x84 PUSH1 0x40 MLOAD PUSH32 0x8C379A000000000000000000000000000000000000000000000000000000000 DUP2 MSTORE PUSH1 0x20 PUSH1 0x4 DUP3 ADD MSTORE PUSH1 0x2C PUSH1 0x24 DUP3 ADD MSTORE PUSH32 0x46756E6374696F6E206D7573742062652063616C6C6564207468726F75676820 PUSH1 0x44 DUP3 ADD MSTORE PUSH32 0x64656C656761746563616C6C0000000000000000000000000000000000000000 PUSH1 0x64 DUP3 ADD MSTORE REVERT JUMPDEST ISZERO PUSH2 0x43E6 JUMPI JUMP JUMPDEST PUSH1 0x84 PUSH1 0x40 MLOAD PUSH32 0x8C379A000000000000000000000000000000000000000000000000000000000 DUP2 MSTORE PUSH1 0x20 PUSH1 0x4 DUP3 ADD MSTORE PUSH1 0x2C PUSH1 0x24 DUP3 ADD MSTORE PUSH32 0x46756E6374696F6E206D7573742062652063616C6C6564207468726F75676820 PUSH1 0x44 DUP3 ADD MSTORE PUSH32 0x6163746976652070726F78790000000000000000000000000000000000000000 PUSH1 0x64 DUP3 ADD MSTORE REVERT JUMPDEST DUP1 EXTCODESIZE ISZERO PUSH2 0x44D2 JUMPI PUSH20 0xFFFFFFFFFFFFFFFFFFFFFFFFFFFFFFFFFFFFFFFF PUSH32 0x360894A13BA1A3210667C828492DB98DCA3E2076CC3735A920A3CA505D382BBC SWAP2 AND PUSH32 0xFFFFFFFFFFFFFFFFFFFFFFFF0000000000000000000000000000000000000000 DUP3 SLOAD AND OR SWAP1 SSTORE JUMP JUMPDEST PUSH1 0x84 PUSH1 0x40 MLOAD PUSH32 0x8C379A000000000000000000000000000000000000000000000000000000000 DUP2 MSTORE PUSH1 0x20 PUSH1 0x4 DUP3 ADD MSTORE PUSH1 0x2D PUSH1 0x24 DUP3 ADD MSTORE PUSH32 0x455243313936373A206E657720696D706C656D656E746174696F6E206973206E PUSH1 0x44 DUP3 ADD MSTORE PUSH32 0x6F74206120636F6E747261637400000000000000000000000000000000000000 PUSH1 0x64 DUP3 ADD MSTORE REVERT JUMPDEST RETURNDATASIZE ISZERO PUSH2 0x4581 JUMPI RETURNDATASIZE SWAP1 PUSH2 0x4567 DUP3 PUSH2 0x3D49 JUMP JUMPDEST SWAP2 PUSH2 0x4575 PUSH1 0x40 MLOAD SWAP4 DUP5 PUSH2 0x3D08 JUMP JUMPDEST DUP3 MSTORE RETURNDATASIZE PUSH1 0x0 PUSH1 0x20 DUP5 ADD RETURNDATACOPY JUMP JUMPDEST PUSH1 0x60 SWAP1 JUMP JUMPDEST SWAP1 SWAP2 SWAP1 ISZERO PUSH2 0x4592 JUMPI POP SWAP1 JUMP JUMPDEST DUP2 MLOAD ISZERO PUSH2 0x45A2 JUMPI POP DUP1 MLOAD SWAP1 PUSH1 0x20 ADD REVERT JUMPDEST PUSH2 0x3986 SWAP1 PUSH1 0x40 MLOAD SWAP2 DUP3 SWAP2 PUSH32 0x8C379A000000000000000000000000000000000000000000000000000000000 DUP4 MSTORE PUSH1 0x20 PUSH1 0x4 DUP5 ADD MSTORE PUSH1 0x24 DUP4 ADD SWAP1 PUSH2 0x3C16 JUMP JUMPDEST SWAP1 DUP2 MLOAD DUP2 LT ISZERO PUSH2 0x45F1 JUMPI ADD PUSH1 0x20 ADD SWAP1 JUMP JUMPDEST PUSH32 0x4E487B7100000000000000000000000000000000000000000000000000000000 PUSH1 0x0 MSTORE PUSH1 0x32 PUSH1 0x4 MSTORE PUSH1 0x24 PUSH1 0x0 REVERT JUMPDEST PUSH1 0x40 MLOAD SWAP1 PUSH2 0x462D DUP3 PUSH2 0x3CD0 JUMP JUMPDEST PUSH1 0x2A DUP3 MSTORE PUSH1 0x20 DUP3 ADD PUSH1 0x40 CALLDATASIZE DUP3 CALLDATACOPY DUP3 MLOAD ISZERO PUSH2 0x45F1 JUMPI PUSH1 0x30 SWAP1 MSTORE8 DUP2 MLOAD PUSH1 0x1 SWAP1 DUP2 LT ISZERO PUSH2 0x45F1 JUMPI PUSH1 0x78 PUSH1 0x21 DUP5 ADD MSTORE8 PUSH1 0x29 SWAP1 JUMPDEST DUP1 DUP3 GT PUSH2 0x46CA JUMPI POP POP PUSH2 0x466C JUMPI SWAP1 JUMP JUMPDEST PUSH1 0x64 PUSH1 0x40 MLOAD PUSH32 0x8C379A000000000000000000000000000000000000000000000000000000000 DUP2 MSTORE PUSH1 0x20 PUSH1 0x4 DUP3 ADD MSTORE PUSH1 0x20 PUSH1 0x24 DUP3 ADD MSTORE PUSH32 0x537472696E67733A20686578206C656E67746820696E73756666696369656E74 PUSH1 0x44 DUP3 ADD MSTORE REVERT JUMPDEST SWAP1 SWAP2 PUSH1 0xF DUP2 AND PUSH1 0x10 DUP2 LT ISZERO PUSH2 0x4767 JUMPI PUSH32 0x3031323334353637383961626364656600000000000000000000000000000000 SWAP1 BYTE PUSH2 0x4706 DUP5 DUP7 PUSH2 0x45E0 JUMP JUMPDEST MSTORE8 PUSH1 0x4 SHR SWAP2 DUP1 ISZERO PUSH2 0x4739 JUMPI PUSH32 0xFFFFFFFFFFFFFFFFFFFFFFFFFFFFFFFFFFFFFFFFFFFFFFFFFFFFFFFFFFFFFFFF ADD SWAP1 PUSH2 0x465C JUMP JUMPDEST PUSH1 0x24 PUSH1 0x0 PUSH32 0x4E487B7100000000000000000000000000000000000000000000000000000000 DUP2 MSTORE PUSH1 0x11 PUSH1 0x4 MSTORE REVERT JUMPDEST PUSH1 0x24 PUSH1 0x0 PUSH32 0x4E487B7100000000000000000000000000000000000000000000000000000000 DUP2 MSTORE PUSH1 0x32 PUSH1 0x4 MSTORE REVERT JUMPDEST ISZERO PUSH2 0x479C JUMPI JUMP JUMPDEST PUSH1 0x84 PUSH1 0x40 MLOAD PUSH32 0x8C379A000000000000000000000000000000000000000000000000000000000 DUP2 MSTORE PUSH1 0x20 PUSH1 0x4 DUP3 ADD MSTORE PUSH1 0x2B PUSH1 0x24 DUP3 ADD MSTORE PUSH32 0x496E697469616C697A61626C653A20636F6E7472616374206973206E6F742069 PUSH1 0x44 DUP3 ADD MSTORE PUSH32 0x6E697469616C697A696E67000000000000000000000000000000000000000000 PUSH1 0x64 DUP3 ADD MSTORE REVERT JUMPDEST PUSH1 0xFF PUSH1 0xC9 SLOAD AND PUSH2 0x482C JUMPI JUMP JUMPDEST PUSH1 0x64 PUSH1 0x40 MLOAD PUSH32 0x8C379A000000000000000000000000000000000000000000000000000000000 DUP2 MSTORE PUSH1 0x20 PUSH1 0x4 DUP3 ADD MSTORE PUSH1 0x10 PUSH1 0x24 DUP3 ADD MSTORE PUSH32 0x5061757361626C653A2070617573656400000000000000000000000000000000 PUSH1 0x44 DUP3 ADD MSTORE REVERT JUMPDEST SWAP1 PUSH1 0x1 DUP3 DUP2 SHR SWAP3 AND DUP1 ISZERO PUSH2 0x48D3 JUMPI JUMPDEST PUSH1 0x20 DUP4 LT EQ PUSH2 0x48A4 JUMPI JUMP JUMPDEST PUSH32 0x4E487B7100000000000000000000000000000000000000000000000000000000 PUSH1 0x0 MSTORE PUSH1 0x22 PUSH1 0x4 MSTORE PUSH1 0x24 PUSH1 0x0 REVERT JUMPDEST SWAP2 PUSH1 0x7F AND SWAP2 PUSH2 0x4899 JUMP JUMPDEST SWAP1 PUSH1 0x40 MLOAD SWAP2 DUP3 PUSH1 0x0 DUP3 SLOAD SWAP3 PUSH2 0x48F1 DUP5 PUSH2 0x488A JUMP JUMPDEST SWAP1 DUP2 DUP5 MSTORE PUSH1 0x1 SWAP5 DUP6 DUP2 AND SWAP1 DUP2 PUSH1 0x0 EQ PUSH2 0x4960 JUMPI POP PUSH1 0x1 EQ PUSH2 0x491D JUMPI JUMPDEST POP POP PUSH2 0x491B SWAP3 POP SUB DUP4 PUSH2 0x3D08 JUMP JUMPDEST JUMP JUMPDEST SWAP1 SWAP4 SWAP2 POP PUSH1 0x0 MSTORE PUSH1 0x20 SWAP1 DUP2 PUSH1 0x0 KECCAK256 SWAP4 PUSH1 0x0 SWAP2 JUMPDEST DUP2 DUP4 LT PUSH2 0x4948 JUMPI POP POP PUSH2 0x491B SWAP4 POP DUP3 ADD ADD CODESIZE DUP1 PUSH2 0x490D JUMP JUMPDEST DUP6 SLOAD DUP9 DUP5 ADD DUP6 ADD MSTORE SWAP5 DUP6 ADD SWAP5 DUP8 SWAP5 POP SWAP2 DUP4 ADD SWAP2 PUSH2 0x4930 JUMP JUMPDEST SWAP1 POP PUSH2 0x491B SWAP6 POP PUSH1 0x20 SWAP4 POP PUSH32 0xFFFFFFFFFFFFFFFFFFFFFFFFFFFFFFFFFFFFFFFFFFFFFFFFFFFFFFFFFFFFFF00 SWAP2 POP AND DUP3 DUP5 ADD MSTORE ISZERO ISZERO PUSH1 0x5 SHL DUP3 ADD ADD CODESIZE DUP1 PUSH2 0x490D JUMP JUMPDEST SWAP2 SWAP1 SWAP2 PUSH8 0xFFFFFFFFFFFFFFFF DUP1 DUP1 SWAP5 AND SWAP2 AND ADD SWAP2 DUP3 GT PUSH2 0x49BE JUMPI JUMP JUMPDEST PUSH32 0x4E487B7100000000000000000000000000000000000000000000000000000000 PUSH1 0x0 MSTORE PUSH1 0x11 PUSH1 0x4 MSTORE PUSH1 0x24 PUSH1 0x0 REVERT JUMPDEST PUSH1 0x1F DUP3 PUSH1 0x20 SWAP5 SWAP4 PUSH32 0xFFFFFFFFFFFFFFFFFFFFFFFFFFFFFFFFFFFFFFFFFFFFFFFFFFFFFFFFFFFFFFE0 SWAP4 DUP2 DUP7 MSTORE DUP7 DUP7 ADD CALLDATACOPY PUSH1 0x0 DUP6 DUP3 DUP7 ADD ADD MSTORE ADD AND ADD ADD SWAP1 JUMP JUMPDEST MLOAD SWAP1 DUP2 ISZERO ISZERO DUP3 SUB PUSH2 0x7CF JUMPI JUMP JUMPDEST PUSH20 0xFFFFFFFFFFFFFFFFFFFFFFFFFFFFFFFFFFFFFFFF AND SWAP1 PUSH1 0x40 MLOAD SWAP1 PUSH1 0x40 DUP3 ADD DUP3 DUP2 LT PUSH8 0xFFFFFFFFFFFFFFFF DUP3 GT OR PUSH2 0x2331 JUMPI PUSH1 0x40 MSTORE PUSH1 0x20 SWAP3 DUP4 DUP4 MSTORE PUSH32 0x5361666545524332303A206C6F772D6C6576656C2063616C6C206661696C6564 DUP5 DUP5 ADD MSTORE DUP1 EXTCODESIZE ISZERO PUSH2 0x4B6E JUMPI PUSH1 0x0 DUP3 DUP2 SWAP3 DUP3 DUP8 PUSH2 0x4AC0 SWAP8 SWAP7 MLOAD SWAP4 ADD SWAP2 GAS CALL PUSH2 0x4ABA PUSH2 0x4556 JUMP JUMPDEST SWAP1 PUSH2 0x4586 JUMP JUMPDEST DUP1 MLOAD DUP1 PUSH2 0x4ACC JUMPI POP POP POP JUMP JUMPDEST DUP2 DUP4 SWAP2 DUP2 ADD SUB SLT PUSH2 0x7CF JUMPI DUP2 PUSH2 0x4AE2 SWAP2 ADD PUSH2 0x4A2C JUMP JUMPDEST ISZERO PUSH2 0x4AEA JUMPI POP JUMP JUMPDEST PUSH1 0x84 SWAP1 PUSH1 0x40 MLOAD SWAP1 PUSH32 0x8C379A000000000000000000000000000000000000000000000000000000000 DUP3 MSTORE PUSH1 0x4 DUP3 ADD MSTORE PUSH1 0x2A PUSH1 0x24 DUP3 ADD MSTORE PUSH32 0x5361666545524332303A204552433230206F7065726174696F6E20646964206E PUSH1 0x44 DUP3 ADD MSTORE PUSH32 0x6F74207375636365656400000000000000000000000000000000000000000000 PUSH1 0x64 DUP3 ADD MSTORE REVERT JUMPDEST PUSH1 0x64 DUP5 PUSH1 0x40 MLOAD SWAP1 PUSH32 0x8C379A000000000000000000000000000000000000000000000000000000000 DUP3 MSTORE PUSH1 0x4 DUP3 ADD MSTORE PUSH1 0x1D PUSH1 0x24 DUP3 ADD MSTORE PUSH32 0x416464726573733A2063616C6C20746F206E6F6E2D636F6E7472616374000000 PUSH1 0x44 DUP3 ADD MSTORE REVERT JUMPDEST MLOAD SWAP1 PUSH20 0xFFFFFFFFFFFFFFFFFFFFFFFFFFFFFFFFFFFFFFFF DUP3 AND DUP3 SUB PUSH2 0x7CF JUMPI JUMP JUMPDEST DUP2 PUSH1 0x1F DUP3 ADD SLT ISZERO PUSH2 0x7CF JUMPI DUP1 MLOAD PUSH2 0x4C03 DUP2 PUSH2 0x3D49 JUMP JUMPDEST SWAP3 PUSH2 0x4C11 PUSH1 0x40 MLOAD SWAP5 DUP6 PUSH2 0x3D08 JUMP JUMPDEST DUP2 DUP5 MSTORE PUSH1 0x20 DUP3 DUP5 ADD ADD GT PUSH2 0x7CF JUMPI PUSH2 0x4C2F SWAP2 PUSH1 0x20 DUP1 DUP6 ADD SWAP2 ADD PUSH2 0x3BF3 JUMP JUMPDEST SWAP1 JUMP JUMPDEST MLOAD SWAP1 PUSH8 0xFFFFFFFFFFFFFFFF DUP3 AND DUP3 SUB PUSH2 0x7CF JUMPI JUMP JUMPDEST PUSH1 0x40 MLOAD PUSH32 0xA9059CBB00000000000000000000000000000000000000000000000000000000 PUSH1 0x20 DUP3 ADD MSTORE PUSH20 0xFFFFFFFFFFFFFFFFFFFFFFFFFFFFFFFFFFFFFFFF SWAP3 SWAP1 SWAP3 AND PUSH1 0x24 DUP4 ADD MSTORE PUSH1 0x44 DUP1 DUP4 ADD SWAP4 SWAP1 SWAP4 MSTORE SWAP2 DUP2 MSTORE PUSH2 0x491B SWAP2 PUSH2 0x4CA9 PUSH1 0x64 DUP4 PUSH2 0x3D08 JUMP JUMPDEST PUSH2 0x4A39 JUMP JUMPDEST SWAP1 DUP3 ISZERO PUSH2 0x4D57 JUMPI PUSH20 0xFFFFFFFFFFFFFFFFFFFFFFFFFFFFFFFFFFFFFFFF SWAP2 DUP3 AND DUP1 PUSH2 0x4D4C JUMPI POP PUSH1 0x0 DUP1 SWAP4 DUP2 SWAP4 DUP3 SWAP4 AND GAS CALL PUSH2 0x4CE6 PUSH2 0x4556 JUMP JUMPDEST POP ISZERO PUSH2 0x4CEE JUMPI JUMP JUMPDEST PUSH1 0x64 PUSH1 0x40 MLOAD PUSH32 0x8C379A000000000000000000000000000000000000000000000000000000000 DUP2 MSTORE PUSH1 0x20 PUSH1 0x4 DUP3 ADD MSTORE PUSH1 0x13 PUSH1 0x24 DUP3 ADD MSTORE PUSH32 0x4554485F5452414E534645525F4641494C454400000000000000000000000000 PUSH1 0x44 DUP3 ADD MSTORE REVERT JUMPDEST PUSH2 0x491B SWAP4 SWAP3 POP PUSH2 0x4C47 JUMP JUMPDEST POP POP POP JUMP INVALID LOG2 PUSH5 0x6970667358 0x22 SLT KECCAK256 DUP13 0x24 SMOD DIV CALLER SHL MUL LOG3 CREATE ADDRESS STATICCALL 0xDE 0xC4 0xEB PUSH10 0x15E805D62645AE30BBF6 0x4F 0xDB LOG3 DUP9 CODECOPY PUSH2 0x9764 PUSH20 0x6F6C634300081400330000000000000000000000 "},"methodIdentifiers":{"DEFAULT_ADMIN_ROLE()":"a217fddf","DISPUTE_ROLE()":"193def7c","PAUSER_ROLE()":"e63ab1e9","agents()":"58516661","cancelTask(uint256)":"7eec20a8","claimTask(uint256,uint256)":"db6bebf9","getRoleAdmin(bytes32)":"248a9ca3","getTask(uint256)":"1d65e77e","grantRole(bytes32,address)":"2f2ff15d","hasRole(bytes32,address)":"91d14854","initialize(address,address,address)":"c0c53b8b","onInferenceVerified(uint256,uint256,bytes32,bool)":"ae80ceb9","pause()":"8456cb59","paused()":"5c975abb","postTask(address,uint256,uint256,uint64,uint64,string,string)":"4a09778d","proxiableUUID()":"52d1902d","renounceRole(bytes32,address)":"36568abe","resolveDispute(uint256,bool,bool,string)":"06963b5e","revokeRole(bytes32,address)":"d547741f","setTreasury(address)":"f0f44260","submitWork(uint256,bytes32)":"0a9eeded","supportsInterface(bytes4)":"01ffc9a7","taskCount()":"b6cb58a5","treasury()":"61d027b3","unpause()":"3f4ba83a","upgradeTo(address)":"3659cfe6","upgradeToAndCall(address,bytes)":"4f1ef286"}}}}}