{"contracts/Treasury.sol":{"Treasury":{"abi":[{"inputs":[],"stateMutability":"nonpayable","type":"constructor"},{"inputs":[{"internalType":"uint256","name":"agentId","type":"uint256"}],"name":"AgentNotKnown","type":"error"},{"inputs":[{"internalType":"address","name":"asset","type":"address"},{"internalType":"uint256","name":"requested","type":"uint256"},{"internalType":"uint256","name":"available","type":"uint256"}],"name":"InsufficientRewards","type":"error"},{"inputs":[],"name":"InvalidAddress","type":"error"},{"inputs":[],"name":"InvalidBps","type":"error"},{"anonymous":false,"inputs":[{"indexed":false,"internalType":"address","name":"previousAdmin","type":"address"},{"indexed":false,"internalType":"address","name":"newAdmin","type":"address"}],"name":"AdminChanged","type":"event"},{"anonymous":false,"inputs":[{"indexed":true,"internalType":"address","name":"beacon","type":"address"}],"name":"BeaconUpgraded","type":"event"},{"anonymous":false,"inputs":[{"indexed":false,"internalType":"uint16","name":"treasuryBps","type":"uint16"},{"indexed":false,"internalType":"uint16","name":"insuranceBps","type":"uint16"},{"indexed":false,"internalType":"uint16","name":"rewardsBps","type":"uint16"}],"name":"DistributionUpdated","type":"event"},{"anonymous":false,"inputs":[{"indexed":true,"internalType":"uint256","name":"agentId","type":"uint256"},{"indexed":true,"internalType":"address","name":"asset","type":"address"},{"indexed":false,"internalType":"uint256","name":"amount","type":"uint256"},{"indexed":false,"internalType":"uint256","name":"treasuryShare","type":"uint256"},{"indexed":false,"internalType":"uint256","name":"insuranceShare","type":"uint256"},{"indexed":false,"internalType":"uint256","name":"rewardsShare","type":"uint256"}],"name":"EarlyExitHandled","type":"event"},{"anonymous":false,"inputs":[{"indexed":false,"internalType":"uint8","name":"version","type":"uint8"}],"name":"Initialized","type":"event"},{"anonymous":false,"inputs":[{"indexed":true,"internalType":"bytes32","name":"pool","type":"bytes32"},{"indexed":true,"internalType":"address","name":"asset","type":"address"},{"indexed":true,"internalType":"address","name":"to","type":"address"},{"indexed":false,"internalType":"uint256","name":"amount","type":"uint256"}],"name":"PoolWithdrawn","type":"event"},{"anonymous":false,"inputs":[{"indexed":true,"internalType":"uint256","name":"agentId","type":"uint256"},{"indexed":true,"internalType":"address","name":"asset","type":"address"},{"indexed":true,"internalType":"address","name":"recipient","type":"address"},{"indexed":false,"internalType":"uint256","name":"amount","type":"uint256"},{"indexed":false,"internalType":"string","name":"reason","type":"string"}],"name":"RewardPaid","type":"event"},{"anonymous":false,"inputs":[{"indexed":true,"internalType":"address","name":"source","type":"address"},{"indexed":true,"internalType":"address","name":"asset","type":"address"},{"indexed":false,"internalType":"uint256","name":"amount","type":"uint256"}],"name":"RewardsDeposited","type":"event"},{"anonymous":false,"inputs":[{"indexed":true,"internalType":"bytes32","name":"role","type":"bytes32"},{"indexed":true,"internalType":"bytes32","name":"previousAdminRole","type":"bytes32"},{"indexed":true,"internalType":"bytes32","name":"newAdminRole","type":"bytes32"}],"name":"RoleAdminChanged","type":"event"},{"anonymous":false,"inputs":[{"indexed":true,"internalType":"bytes32","name":"role","type":"bytes32"},{"indexed":true,"internalType":"address","name":"account","type":"address"},{"indexed":true,"internalType":"address","name":"sender","type":"address"}],"name":"RoleGranted","type":"event"},{"anonymous":false,"inputs":[{"indexed":true,"internalType":"bytes32","name":"role","type":"bytes32"},{"indexed":true,"internalType":"address","name":"account","type":"address"},{"indexed":true,"internalType":"address","name":"sender","type":"address"}],"name":"RoleRevoked","type":"event"},{"anonymous":false,"inputs":[{"indexed":true,"internalType":"uint256","name":"agentId","type":"uint256"},{"indexed":true,"internalType":"address","name":"asset","type":"address"},{"indexed":false,"internalType":"uint256","name":"amount","type":"uint256"},{"indexed":false,"internalType":"uint256","name":"treasuryShare","type":"uint256"},{"indexed":false,"internalType":"uint256","name":"insuranceShare","type":"uint256"},{"indexed":false,"internalType":"uint256","name":"rewardsShare","type":"uint256"}],"name":"SlashHandled","type":"event"},{"anonymous":false,"inputs":[{"indexed":true,"internalType":"address","name":"implementation","type":"address"}],"name":"Upgraded","type":"event"},{"inputs":[],"name":"DEFAULT_ADMIN_ROLE","outputs":[{"internalType":"bytes32","name":"","type":"bytes32"}],"stateMutability":"view","type":"function"},{"inputs":[],"name":"INFLOW_ROLE","outputs":[{"internalType":"bytes32","name":"","type":"bytes32"}],"stateMutability":"view","type":"function"},{"inputs":[],"name":"REWARDS_ROLE","outputs":[{"internalType":"bytes32","name":"","type":"bytes32"}],"stateMutability":"view","type":"function"},{"inputs":[],"name":"WITHDRAW_ROLE","outputs":[{"internalType":"bytes32","name":"","type":"bytes32"}],"stateMutability":"view","type":"function"},{"inputs":[],"name":"agents","outputs":[{"internalType":"contract IAgentsRegistry","name":"","type":"address"}],"stateMutability":"view","type":"function"},{"inputs":[{"internalType":"uint256","name":"agentId","type":"uint256"},{"internalType":"address","name":"asset","type":"address"},{"internalType":"uint256","name":"amount","type":"uint256"},{"internalType":"address","name":"recipient","type":"address"},{"internalType":"string","name":"reason","type":"string"}],"name":"distributeReward","outputs":[],"stateMutability":"nonpayable","type":"function"},{"inputs":[],"name":"distribution","outputs":[{"internalType":"uint16","name":"treasuryBps","type":"uint16"},{"internalType":"uint16","name":"insuranceBps","type":"uint16"},{"internalType":"uint16","name":"rewardsBps","type":"uint16"}],"stateMutability":"view","type":"function"},{"inputs":[{"internalType":"bytes32","name":"role","type":"bytes32"}],"name":"getRoleAdmin","outputs":[{"internalType":"bytes32","name":"","type":"bytes32"}],"stateMutability":"view","type":"function"},{"inputs":[{"internalType":"bytes32","name":"role","type":"bytes32"},{"internalType":"address","name":"account","type":"address"}],"name":"grantRole","outputs":[],"stateMutability":"nonpayable","type":"function"},{"inputs":[{"internalType":"uint256","name":"agentId","type":"uint256"},{"internalType":"address","name":"asset","type":"address"},{"internalType":"uint256","name":"amount","type":"uint256"}],"name":"handleEarlyExitPenalty","outputs":[],"stateMutability":"payable","type":"function"},{"inputs":[{"internalType":"uint256","name":"agentId","type":"uint256"},{"internalType":"address","name":"asset","type":"address"},{"internalType":"uint256","name":"amount","type":"uint256"}],"name":"handleSlash","outputs":[],"stateMutability":"payable","type":"function"},{"inputs":[{"internalType":"bytes32","name":"role","type":"bytes32"},{"internalType":"address","name":"account","type":"address"}],"name":"hasRole","outputs":[{"internalType":"bool","name":"","type":"bool"}],"stateMutability":"view","type":"function"},{"inputs":[{"internalType":"address","name":"admin","type":"address"},{"internalType":"address","name":"agentsRegistry","type":"address"}],"name":"initialize","outputs":[],"stateMutability":"nonpayable","type":"function"},{"inputs":[{"internalType":"address","name":"asset","type":"address"}],"name":"poolBalances","outputs":[{"components":[{"internalType":"uint256","name":"treasury","type":"uint256"},{"internalType":"uint256","name":"insurance","type":"uint256"},{"internalType":"uint256","name":"rewards","type":"uint256"}],"internalType":"struct Treasury.PoolBalances","name":"","type":"tuple"}],"stateMutability":"view","type":"function"},{"inputs":[],"name":"proxiableUUID","outputs":[{"internalType":"bytes32","name":"","type":"bytes32"}],"stateMutability":"view","type":"function"},{"inputs":[{"internalType":"address","name":"asset","type":"address"},{"internalType":"uint256","name":"amount","type":"uint256"}],"name":"recordRewardDeposit","outputs":[],"stateMutability":"payable","type":"function"},{"inputs":[{"internalType":"bytes32","name":"role","type":"bytes32"},{"internalType":"address","name":"account","type":"address"}],"name":"renounceRole","outputs":[],"stateMutability":"nonpayable","type":"function"},{"inputs":[{"internalType":"bytes32","name":"role","type":"bytes32"},{"internalType":"address","name":"account","type":"address"}],"name":"revokeRole","outputs":[],"stateMutability":"nonpayable","type":"function"},{"inputs":[{"internalType":"address","name":"asset","type":"address"}],"name":"rewardsBalance","outputs":[{"internalType":"uint256","name":"","type":"uint256"}],"stateMutability":"view","type":"function"},{"inputs":[{"internalType":"address","name":"newAgents","type":"address"}],"name":"setAgents","outputs":[],"stateMutability":"nonpayable","type":"function"},{"inputs":[{"internalType":"uint16","name":"treasuryBps","type":"uint16"},{"internalType":"uint16","name":"insuranceBps","type":"uint16"},{"internalType":"uint16","name":"rewardsBps","type":"uint16"}],"name":"setDistribution","outputs":[],"stateMutability":"nonpayable","type":"function"},{"inputs":[{"internalType":"bytes4","name":"interfaceId","type":"bytes4"}],"name":"supportsInterface","outputs":[{"internalType":"bool","name":"","type":"bool"}],"stateMutability":"view","type":"function"},{"inputs":[{"internalType":"address","name":"newImplementation","type":"address"}],"name":"upgradeTo","outputs":[],"stateMutability":"nonpayable","type":"function"},{"inputs":[{"internalType":"address","name":"newImplementation","type":"address"},{"internalType":"bytes","name":"data","type":"bytes"}],"name":"upgradeToAndCall","outputs":[],"stateMutability":"payable","type":"function"},{"inputs":[{"internalType":"address","name":"asset","type":"address"},{"internalType":"uint256","name":"amount","type":"uint256"},{"internalType":"address","name":"to","type":"address"}],"name":"withdrawInsurance","outputs":[],"stateMutability":"nonpayable","type":"function"},{"inputs":[{"internalType":"address","name":"asset","type":"address"},{"internalType":"uint256","name":"amount","type":"uint256"},{"internalType":"address","name":"to","type":"address"}],"name":"withdrawTreasury","outputs":[],"stateMutability":"nonpayable","type":"function"}],"evm":{"bytecode":{"linkReferences":{},"object":"60a08060405234620000e157306080526000549060ff8260081c166200008f575060ff8082161062000053575b6040516137bf9081620000e782396080518181816113dc015281816115af0152611ed90152f35b60ff90811916176000557f7f26b83ff96e1f2b6a682f133852f6798a09c465da95921460cefb3847402498602060405160ff8152a1386200002c565b62461bcd60e51b815260206004820152602760248201527f496e697469616c697a61626c653a20636f6e747261637420697320696e697469604482015266616c697a696e6760c81b6064820152608490fd5b600080fdfe60806040908082526004918236101561001757600080fd5b600091823560e01c90816301ffc9a71461248457508063248a9ca31461243b5780632f2ff15d1461234757806336568abe146122635780633659cfe614611e86578063485cc9551461192f5780634f1ef2861461150857806351a8528e146114b057806352d1902d146113935780635671814514610d1f5780635851666114610ccc5780635ee58efc14610c6e578063644f861b14610bba578063722e5c8b14610af757806378cfaf3f14610a90578063862a672e146108de578063896bdac8146108795780639155ccc8146107cb57806391d148541461075a578063a217fddf14610722578063a2c97f6914610559578063ca4fb87c14610501578063d547741f146104a0578063e02023a114610448578063e772eaa7146102ae5763e8f83a431461014357600080fd5b346102aa5760607ffffffffffffffffffffffffffffffffffffffffffffffffffffffffffffffffc3601126102aa57823561ffff918282168083036102a657602435938085168086036102a2576044359782891692838a0361029e57612710906101ab612722565b6101be8b6101b98b8b6133e4565b6133e4565b16036102775750918391827ff4c71f4604fcecc5e59cfd9c92f2e22f57dfcb9dd4110c537fe6a9eb3a3de34b9899946102719651906101fc8261258c565b8482526020820152015261012d908154907fffffffffffffffffffffffffffffffffffffffffffffffffffff00000000000065ffff000000008660201b1692161763ffff00008860101b16171790555193849384916040919493606084019561ffff9283809216865216602085015216910152565b0390a180f35b84517fc6cc5d7f000000000000000000000000000000000000000000000000000000008152fd5b8880fd5b8680fd5b8480fd5b5080fd5b50826102b93661266e565b9391926102c4612999565b84156103eb575073ffffffffffffffffffffffffffffffffffffffff16927f250a574e48cbb2f058d66f23a3d46a07cccaec2b54c535cb5d5b6130f085d5d09190846103dc576103158134146133fa565b6103d68251926103248461258c565b61035c61036661012d549561ffff90818816908181528583602083019a818160101c168c5260201c1691015261271093849188613155565b0496511685613155565b0461037a816103758787613541565b613541565b91888a5261012f6020526002818b20610394888254613197565b8155600181016103a5858254613197565b9055016103b3848254613197565b905551948594859094939260609260808301968352602083015260408201520152565b0390a380f35b6103e6341561345f565b610315565b60649060208451917f08c379a0000000000000000000000000000000000000000000000000000000008352820152600b60248201527f5a45524f5f414d4f554e540000000000000000000000000000000000000000006044820152fd5b50346102aa57817ffffffffffffffffffffffffffffffffffffffffffffffffffffffffffffffffc3601126102aa57602090517f5d8e12c39142ff96d79d04d15d1ba1269e4fe57bb9d26f43523628b34ba108ec8152f35b508290346104fd57807ffffffffffffffffffffffffffffffffffffffffffffffffffffffffffffffffc3601126104fd576104fa91356104f560016104e3612541565b93838752606560205286200154612c87565b612e2f565b80f35b8280fd5b50346102aa57817ffffffffffffffffffffffffffffffffffffffffffffffffffffffffffffffffc3601126102aa57602090517f5407862f04286ebe607684514c14b7fffc750b6bf52ba44ea49569174845a5bd8152f35b508290346104fd5761056a366126c3565b90939161057c600260975414156134c4565b6002609755610589612b10565b73ffffffffffffffffffffffffffffffffffffffff8091169182875261012f9384602052600186892001549282169283156106c55787116106685750916001939161064f9593878315600014610659576105f491508980808093865af16105ee6130d3565b5061354e565b817f494e535552414e434500000000000000000000000000000000000000000000007f1e231c01155fb54ec9c6bc3f0b7ccd13218314fb614e02443b5b064993786083602087518b8152a48652602052842001918254613541565b9055600160975580f35b61066391846135b3565b6105f4565b60649060208751917f08c379a0000000000000000000000000000000000000000000000000000000008352820152601060248201527f494e53554646494349454e545f42414c000000000000000000000000000000006044820152fd5b60648260208951917f08c379a0000000000000000000000000000000000000000000000000000000008352820152600a60248201527f494e56414c49445f544f000000000000000000000000000000000000000000006044820152fd5b50346102aa57817ffffffffffffffffffffffffffffffffffffffffffffffffffffffffffffffffc3601126102aa5751908152602090f35b5082346104fd57817ffffffffffffffffffffffffffffffffffffffffffffffffffffffffffffffffc3601126104fd578160209360ff92610799612541565b903582526065865273ffffffffffffffffffffffffffffffffffffffff83832091168252855220541690519015158152f35b50346102aa5760207ffffffffffffffffffffffffffffffffffffffffffffffffffffffffffffffffc3601126102aa578060609273ffffffffffffffffffffffffffffffffffffffff61081c612569565b828480516108298161258c565b828152826020820152015216815261012f6020522090805161084a8161258c565b825492838252826002600183015492602085019384520154920191825282519384525160208401525190820152f35b50346102aa5760207ffffffffffffffffffffffffffffffffffffffffffffffffffffffffffffffffc3601126102aa5760028160209373ffffffffffffffffffffffffffffffffffffffff6108cc612569565b16815261012f85522001549051908152f35b5091346102aa576108ee366126c3565b9491610902600260979593955414156134c4565b600260975561090f612b10565b73ffffffffffffffffffffffffffffffffffffffff8091169081865261012f928360205284872054918816918215610a335786116109d6575084959661064f9583156000146109c75761096d91508880808093865af16105ee6130d3565b817f54524541535552590000000000000000000000000000000000000000000000007f1e231c01155fb54ec9c6bc3f0b7ccd13218314fb614e02443b5b064993786083602087518a8152a485526020528320918254613541565b6109d191846135b3565b61096d565b60649060208651917f08c379a0000000000000000000000000000000000000000000000000000000008352820152601060248201527f494e53554646494349454e545f42414c000000000000000000000000000000006044820152fd5b60648260208851917f08c379a0000000000000000000000000000000000000000000000000000000008352820152600a60248201527f494e56414c49445f544f000000000000000000000000000000000000000000006044820152fd5b5082610a9b3661266e565b939192610aa6612999565b84156103eb575073ffffffffffffffffffffffffffffffffffffffff16927f0b429493f733653c7becdf8b7730f2fd113842ca05bda9c07b6d333706c4209b9190846103dc576103158134146133fa565b50807ffffffffffffffffffffffffffffffffffffffffffffffffffffffffffffffffc3601126102aa57610b29612569565b73ffffffffffffffffffffffffffffffffffffffff602435911691821580610baa575b15610b9b575b82845261012f602052600281852001610b6c838254613197565b9055519081527fd66544dd5ed3eb02982a905e9b45d8eecc72f6af1db4d34d43d4f774307eda5160203392a380f35b610ba5341561345f565b610b52565b610bb58334146133fa565b610b4c565b5082346104fd5760207ffffffffffffffffffffffffffffffffffffffffffffffffffffffffffffffffc3601126104fd5773ffffffffffffffffffffffffffffffffffffffff610c08612569565b610c10612722565b16918215610c4857505061012e907fffffffffffffffffffffffff000000000000000000000000000000000000000082541617905580f35b517fe6c4247b000000000000000000000000000000000000000000000000000000008152fd5b50346102aa57817ffffffffffffffffffffffffffffffffffffffffffffffffffffffffffffffffc3601126102aa5761012d54905161ffff8083168252601083901c81166020808401919091529290921c9091166040820152606090f35b50346102aa57817ffffffffffffffffffffffffffffffffffffffffffffffffffffffffffffffffc3601126102aa5760209073ffffffffffffffffffffffffffffffffffffffff61012e54169051908152f35b50346102aa5760a07ffffffffffffffffffffffffffffffffffffffffffffffffffffffffffffffffc3601126102aa578235610d59612541565b936044359060643573ffffffffffffffffffffffffffffffffffffffff9182821695868303610fe0576084359167ffffffffffffffff9788841161138f573660238501121561138f578382013598891161138f5760249436868b8701011161138b57908a969594939291610dd2600260975414156134c4565b60026097557f5407862f04286ebe607684514c14b7fffc750b6bf52ba44ea49569174845a5bd80895260ff8560209a60658c528181203382528c52205416156110f4575061012e9187835416898c898851809481937f9d18755d0000000000000000000000000000000000000000000000000000000083528a8301525afa9081156110e8578e916110bb575b501561108d576002858e9f9d9e9d8a169d8e815261012f8c52200180548b8110611052578f959492938f91948f938f968f610e9891613541565b9055610ff5575050509086888a93541693865194859384927f6f6bf1180000000000000000000000000000000000000000000000000000000084528301525afa908115610feb57918a9593918c95938291610f99575b509360609793868b98947fffffffffffffffffffffffffffffffffffffffffffffffffffffffffffffffe098947fd4ae134e3b7ae25cdd5195e6206c60d90505a0e8f795cfdc23e970262506afc99d601f9980985b80610f8a575091808080938c610f5e96165af16105ee6130d3565b8080519c8d9b8c528b015289015201878701378b868c87010152169801168101030190a4600160975580f35b610f9493506135b3565b610f5e565b929497939550509794508681813d8311610fe4575b610fb881836125f3565b81010312610fe05751918183168303610fe0579396909489948b949193919290916060610eee565b8780fd5b503d610fae565b83513d84823e3d90fd5b7fffffffffffffffffffffffffffffffffffffffffffffffffffffffffffffffe0989295508194508c9993509660609a967fd4ae134e3b7ae25cdd5195e6206c60d90505a0e8f795cfdc23e970262506afc99d601f998098610f43565b856064918f8b8f918b51947fb42724150000000000000000000000000000000000000000000000000000000086528501528301526044820152fd5b86848c8751917f0fed9564000000000000000000000000000000000000000000000000000000008352820152fd5b6110db91508a3d8c116110e1575b6110d381836125f3565b810190613529565b38610e5e565b503d6110c9565b8e8751903d90823e3d90fd5b83898e898894611103336131e4565b9091865192611111846125d7565b6042845285840194606036873784511561136057603086538451906001918210156113355790607860218701536041915b81831161126f5750505061121457506112109386936111e2936111d360489461119e9a519a857f416363657373436f6e74726f6c3a206163636f756e74200000000000000000008d978801528251928391603789019101612dc2565b8401917f206973206d697373696e6720726f6c6520000000000000000000000000000000603784015251809386840190612dc2565b010360288101875201856125f3565b519283927f08c379a00000000000000000000000000000000000000000000000000000000084528301612de5565b0390fd5b925050508160649451937f08c379a00000000000000000000000000000000000000000000000000000000085528401528201527f537472696e67733a20686578206c656e67746820696e73756666696369656e746044820152fd5b909192600f8116601081101561130a577f3031323334353637383961626364656600000000000000000000000000000000901a6112ac85896131a4565b53891c9280156112df577fffffffffffffffffffffffffffffffffffffffffffffffffffffffffffffffff019190611142565b848260118c7f4e487b7100000000000000000000000000000000000000000000000000000000835252fd5b858360328d7f4e487b7100000000000000000000000000000000000000000000000000000000835252fd5b8060328a7f4e487b710000000000000000000000000000000000000000000000000000000087945252fd5b90506032877f4e487b7100000000000000000000000000000000000000000000000000000000835252fd5b8a80fd5b8980fd5b509190346114ad57807ffffffffffffffffffffffffffffffffffffffffffffffffffffffffffffffffc3601126114ad575073ffffffffffffffffffffffffffffffffffffffff7f000000000000000000000000000000000000000000000000000000000000000016300361142b57602082517f360894a13ba1a3210667c828492db98dca3e2076cc3735a920a3ca505d382bbc8152f35b602060849251917f08c379a0000000000000000000000000000000000000000000000000000000008352820152603860248201527f555550535570677261646561626c653a206d757374206e6f742062652063616c60448201527f6c6564207468726f7567682064656c656761746563616c6c00000000000000006064820152fd5b80fd5b50346102aa57817ffffffffffffffffffffffffffffffffffffffffffffffffffffffffffffffffc3601126102aa57602090517f57c9e9c867b58c7f873f9ce933fc28574c90e37009e64addc3e3b1f61cd635d28152f35b508083917ffffffffffffffffffffffffffffffffffffffffffffffffffffffffffffffffc3601126104fd5761153c612569565b9160249182359067ffffffffffffffff821161192b573660238301121561192b578183013561156a81612634565b611576835191826125f3565b8181528760209485830193368982840101116104fd57808988930186378301015273ffffffffffffffffffffffffffffffffffffffff807f000000000000000000000000000000000000000000000000000000000000000016906115dc82301415612ed1565b61160b7f360894a13ba1a3210667c828492db98dca3e2076cc3735a920a3ca505d382bbc928284541614612f5c565b611613612722565b7f4910fdfa16fed3260ed0e7147f7cc6da11a60208b5b9406d12a635614ffd91435460ff161561164e5750505050505050506104fa90612fe7565b88959799949698169086517f52d1902d00000000000000000000000000000000000000000000000000000000815288818b81865afa8691816118fc575b506117115760848a602e8d8c8c51937f08c379a00000000000000000000000000000000000000000000000000000000085528401528201527f45524331393637557067726164653a206e657720696d706c656d656e7461746960448201527f6f6e206973206e6f7420555550530000000000000000000000000000000000006064820152fd5b99929498919395990361187c5761172789612fe7565b8551927fbc7cd75a20ee27fd9adebab32041f755214dbc6bffa90cc0225b39da2e5c2d3b8980a2835115801590611874575b61176a575b50505050505050905080f35b883b156117f55750505093809581926117e79651915af47f206661696c6564000000000000000000000000000000000000000000000000006117aa6130d3565b927f416464726573733a206c6f772d6c6576656c2064656c65676174652063616c6c8151956117d88761258c565b60278752860152840152613103565b50808280808080808061175e565b8291876026927f08c379a000000000000000000000000000000000000000000000000000000000608496528401528201527f416464726573733a2064656c65676174652063616c6c20746f206e6f6e2d636f60448201527f6e747261637400000000000000000000000000000000000000000000000000006064820152fd5b506001611759565b6029608492888851937f08c379a00000000000000000000000000000000000000000000000000000000085528401528201527f45524331393637557067726164653a20756e737570706f727465642070726f7860448201527f6961626c655555494400000000000000000000000000000000000000000000006064820152fd5b9091508981813d8311611924575b61191481836125f3565b810103126102a25751908c61168b565b503d61190a565b8580fd5b5082346104fd57817ffffffffffffffffffffffffffffffffffffffffffffffffffffffffffffffffc3601126104fd57611967612569565b61196f612541565b91845460ff92838260081c161593848095611e7a575b8015611e64575b15611de1576001957fffffffffffffffffffffffffffffffffffffffffffffffffffffffffffffff00938688868316178b55611db3575b5073ffffffffffffffffffffffffffffffffffffffff8093169485158015611da9575b611d8257509181888a878a829b9a9997611a26849a98855460081c16611a0b81613359565b611a1481613359565b611a1d81613359565b83609755613359565b83805260659660209d8e96898852808220868352885288818320541615611d3d575b897f5407862f04286ebe607684514c14b7fffc750b6bf52ba44ea49569174845a5bd98898452528481832001908282549255827fbd79b86ffe0ab8e8776151514217cd7cacd52c909f66475c3af44e129f0b00ff928a848380a47f5d8e12c39142ff96d79d04d15d1ba1269e4fe57bb9d26f43523628b34ba108ec9d8e8082528783832001908282549255848380a47f57c9e9c867b58c7f873f9ce933fc28574c90e37009e64addc3e3b1f61cd635d29586918285528420019183835493558380a461012e911681547fffffffffffffffffffffffff0000000000000000000000000000000000000000161790558b8d808051611b448161258c565b610fa093848252610bb8809483828481960152015261012d80547fffffffffffffffffffffffffffffffffffffffffffffffffffff00000000000016650bb80bb80fa0179055825194855284015282015260607ff4c71f4604fcecc5e59cfd9c92f2e22f57dfcb9dd4110c537fe6a9eb3a3de34b91a1808352858c528c83208284528c52848d8420541615611cf7575b5050819052828952898b20858c528952818a8c20541615611cb1575b50848a52818852888a20848b528852888a20541615611c6a575b50505050611c16578380f35b7f7f26b83ff96e1f2b6a682f133852f6798a09c465da95921460cefb3847402498927fffffffffffffffffffffffffffffffffffffffffffffffffffffffffffff00ff855416855551908152a18180808380f35b83895286528688208289528652848789209182541617905533917f2f8788117e7eff1d82e926ec794901d17c78024a50270940304540a733656f0d8880a485808080611c0a565b808b52828952898b20858c528952898b2088858254161790558433917f2f8788117e7eff1d82e926ec794901d17c78024a50270940304540a733656f0d8d80a48a611bf0565b808352858c528c83208284528c528c83208b888254161790557f2f8788117e7eff1d82e926ec794901d17c78024a50270940304540a733656f0d339380a48a858d611bd4565b8180528988528082208683528852808220858c8254161790553386837f2f8788117e7eff1d82e926ec794901d17c78024a50270940304540a733656f0d8180a4611a48565b88517fe6c4247b000000000000000000000000000000000000000000000000000000008152fd5b50838216156119e6565b7fffffffffffffffffffffffffffffffffffffffffffffffffffffffffffff000016610101178955896119c3565b60848460208951917f08c379a0000000000000000000000000000000000000000000000000000000008352820152602e60248201527f496e697469616c697a61626c653a20636f6e747261637420697320616c72656160448201527f647920696e697469616c697a65640000000000000000000000000000000000006064820152fd5b50303b15801561198c575060018184161461198c565b50600181841610611985565b5082346104fd576020807ffffffffffffffffffffffffffffffffffffffffffffffffffffffffffffffffc36011261225f57611ec0612569565b9273ffffffffffffffffffffffffffffffffffffffff807f000000000000000000000000000000000000000000000000000000000000000016611f0581301415612ed1565b611f347f360894a13ba1a3210667c828492db98dca3e2076cc3735a920a3ca505d382bbc918383541614612f5c565b611f3c612722565b8251908482019282841067ffffffffffffffff851117612233578385528883527f4910fdfa16fed3260ed0e7147f7cc6da11a60208b5b9406d12a635614ffd91435460ff1615611f9657505050505050506104fa90612fe7565b879894959697169085517f52d1902d00000000000000000000000000000000000000000000000000000000815287818a81865afa869181612204575b5061205957608489898951917f08c379a0000000000000000000000000000000000000000000000000000000008352820152602e60248201527f45524331393637557067726164653a206e657720696d706c656d656e7461746960448201527f6f6e206973206e6f7420555550530000000000000000000000000000000000006064820152fd5b979192939497036121825761206d88612fe7565b8451917fbc7cd75a20ee27fd9adebab32041f755214dbc6bffa90cc0225b39da2e5c2d3b8880a282511580159061217b575b6120af575b505050505050905080f35b873b156120fb57505093809581926120ee9651915af47f206661696c6564000000000000000000000000000000000000000000000000006117aa6130d3565b50808280808080806120a4565b90856084927f08c379a0000000000000000000000000000000000000000000000000000000008352820152602660248201527f416464726573733a2064656c65676174652063616c6c20746f206e6f6e2d636f60448201527f6e747261637400000000000000000000000000000000000000000000000000006064820152fd5b508661209f565b608490868651917f08c379a0000000000000000000000000000000000000000000000000000000008352820152602960248201527f45524331393637557067726164653a20756e737570706f727465642070726f7860448201527f6961626c655555494400000000000000000000000000000000000000000000006064820152fd5b9091508881813d831161222c575b61221c81836125f3565b810103126102a25751908b611fd2565b503d612212565b6024896041897f4e487b7100000000000000000000000000000000000000000000000000000000835252fd5b8380fd5b5091346102aa57827ffffffffffffffffffffffffffffffffffffffffffffffffffffffffffffffffc3601126102aa5761229b612541565b903373ffffffffffffffffffffffffffffffffffffffff8316036122c457906104fa9135612e2f565b60849060208551917f08c379a0000000000000000000000000000000000000000000000000000000008352820152602f60248201527f416363657373436f6e74726f6c3a2063616e206f6e6c792072656e6f756e636560448201527f20726f6c657320666f722073656c6600000000000000000000000000000000006064820152fd5b5082346104fd57817ffffffffffffffffffffffffffffffffffffffffffffffffffffffffffffffffc3601126104fd573590612381612541565b90828452606560205261239960018286200154612c87565b828452606560205273ffffffffffffffffffffffffffffffffffffffff81852092169182855260205260ff8185205416156123d2578380f35b8284526065602052808420828552602052832060017fffffffffffffffffffffffffffffffffffffffffffffffffffffffffffffff0082541617905533917f2f8788117e7eff1d82e926ec794901d17c78024a50270940304540a733656f0d8480a48180808380f35b5082346104fd5760207ffffffffffffffffffffffffffffffffffffffffffffffffffffffffffffffffc3601126104fd5781602093600192358152606585522001549051908152f35b839085346104fd5760207ffffffffffffffffffffffffffffffffffffffffffffffffffffffffffffffffc3601126104fd57357fffffffff0000000000000000000000000000000000000000000000000000000081168091036104fd57602092507f7965db0b000000000000000000000000000000000000000000000000000000008114908115612517575b5015158152f35b7f01ffc9a70000000000000000000000000000000000000000000000000000000091501483612510565b6024359073ffffffffffffffffffffffffffffffffffffffff8216820361256457565b600080fd5b6004359073ffffffffffffffffffffffffffffffffffffffff8216820361256457565b6060810190811067ffffffffffffffff8211176125a857604052565b7f4e487b7100000000000000000000000000000000000000000000000000000000600052604160045260246000fd5b6080810190811067ffffffffffffffff8211176125a857604052565b90601f7fffffffffffffffffffffffffffffffffffffffffffffffffffffffffffffffe0910116810190811067ffffffffffffffff8211176125a857604052565b67ffffffffffffffff81116125a857601f017fffffffffffffffffffffffffffffffffffffffffffffffffffffffffffffffe01660200190565b7ffffffffffffffffffffffffffffffffffffffffffffffffffffffffffffffffc6060910112612564576004359060243573ffffffffffffffffffffffffffffffffffffffff81168103612564579060443590565b7ffffffffffffffffffffffffffffffffffffffffffffffffffffffffffffffffc60609101126125645773ffffffffffffffffffffffffffffffffffffffff600435818116810361256457916024359160443590811681036125645790565b3360009081527fffdfc1249c027f9191656349feb0761381bb32c9f557e01f419fd08754bf5a1b602090815260408083205490929060ff161561276457505050565b61276d336131e4565b8351908261277a836125d7565b6042835284830193606036863783511561296c576030855383519060019182101561296c5790607860218601536041915b8183116128a1575050506128455761119e93859361281593612806604894611210995198857f416363657373436f6e74726f6c3a206163636f756e74200000000000000000008b978801528251928391603789019101612dc2565b010360288101855201836125f3565b519182917f08c379a000000000000000000000000000000000000000000000000000000000835260048301612de5565b6064848651907f08c379a000000000000000000000000000000000000000000000000000000000825280600483015260248201527f537472696e67733a20686578206c656e67746820696e73756666696369656e746044820152fd5b909192600f8116601081101561293f577f3031323334353637383961626364656600000000000000000000000000000000901a6128de85886131a4565b5360041c928015612912577fffffffffffffffffffffffffffffffffffffffffffffffffffffffffffffffff0191906127ab565b6024827f4e487b710000000000000000000000000000000000000000000000000000000081526011600452fd5b6024837f4e487b710000000000000000000000000000000000000000000000000000000081526032600452fd5b807f4e487b7100000000000000000000000000000000000000000000000000000000602492526032600452fd5b3360009081527f577f8b12d959663ce379112162fc52a588c3c6cf2b2a6a20163602307ac7ab4860209081526040808320549092907f57c9e9c867b58c7f873f9ce933fc28574c90e37009e64addc3e3b1f61cd635d29060ff16156129fe5750505050565b612a07336131e4565b845191612a13836125d7565b6042835284830193606036863783511561296c576030855383519060019182101561296c5790607860218601536041915b818311612a9f575050506128455761119e93859361281593612806604894611210995198857f416363657373436f6e74726f6c3a206163636f756e74200000000000000000008b978801528251928391603789019101612dc2565b909192600f8116601081101561293f577f3031323334353637383961626364656600000000000000000000000000000000901a612adc85886131a4565b5360041c928015612912577fffffffffffffffffffffffffffffffffffffffffffffffffffffffffffffffff019190612a44565b3360009081527f73185b6f6e7a53ae0ffbc46eb2ce52f75dee13e7ee931eac2a929b8fd401825560209081526040808320549092907f5d8e12c39142ff96d79d04d15d1ba1269e4fe57bb9d26f43523628b34ba108ec9060ff1615612b755750505050565b612b7e336131e4565b845191612b8a836125d7565b6042835284830193606036863783511561296c576030855383519060019182101561296c5790607860218601536041915b818311612c16575050506128455761119e93859361281593612806604894611210995198857f416363657373436f6e74726f6c3a206163636f756e74200000000000000000008b978801528251928391603789019101612dc2565b909192600f8116601081101561293f577f3031323334353637383961626364656600000000000000000000000000000000901a612c5385886131a4565b5360041c928015612912577fffffffffffffffffffffffffffffffffffffffffffffffffffffffffffffffff019190612bbb565b600081815260209060658252604092838220338352835260ff848320541615612cb05750505050565b612cb9336131e4565b845191612cc5836125d7565b6042835284830193606036863783511561296c576030855383519060019182101561296c5790607860218601536041915b818311612d51575050506128455761119e93859361281593612806604894611210995198857f416363657373436f6e74726f6c3a206163636f756e74200000000000000000008b978801528251928391603789019101612dc2565b909192600f8116601081101561293f577f3031323334353637383961626364656600000000000000000000000000000000901a612d8e85886131a4565b5360041c928015612912577fffffffffffffffffffffffffffffffffffffffffffffffffffffffffffffffff019190612cf6565b60005b838110612dd55750506000910152565b8181015183820152602001612dc5565b7fffffffffffffffffffffffffffffffffffffffffffffffffffffffffffffffe0601f60409360208452612e288151809281602088015260208888019101612dc2565b0116010190565b90600091808352606560205273ffffffffffffffffffffffffffffffffffffffff6040842092169182845260205260ff604084205416612e6e57505050565b808352606560205260408320828452602052604083207fffffffffffffffffffffffffffffffffffffffffffffffffffffffffffffff0081541690557ff6391f5c32d9c69d2a47ea670b442974b53935d1edc7fd64eb21e047a839171b339380a4565b15612ed857565b60846040517f08c379a000000000000000000000000000000000000000000000000000000000815260206004820152602c60248201527f46756e6374696f6e206d7573742062652063616c6c6564207468726f7567682060448201527f64656c656761746563616c6c00000000000000000000000000000000000000006064820152fd5b15612f6357565b60846040517f08c379a000000000000000000000000000000000000000000000000000000000815260206004820152602c60248201527f46756e6374696f6e206d7573742062652063616c6c6564207468726f7567682060448201527f6163746976652070726f787900000000000000000000000000000000000000006064820152fd5b803b1561304f5773ffffffffffffffffffffffffffffffffffffffff7f360894a13ba1a3210667c828492db98dca3e2076cc3735a920a3ca505d382bbc91167fffffffffffffffffffffffff0000000000000000000000000000000000000000825416179055565b60846040517f08c379a000000000000000000000000000000000000000000000000000000000815260206004820152602d60248201527f455243313936373a206e657720696d706c656d656e746174696f6e206973206e60448201527f6f74206120636f6e7472616374000000000000000000000000000000000000006064820152fd5b3d156130fe573d906130e482612634565b916130f260405193846125f3565b82523d6000602084013e565b606090565b9091901561310f575090565b81511561311f5750805190602001fd5b611210906040519182917f08c379a000000000000000000000000000000000000000000000000000000000835260048301612de5565b8181029291811591840414171561316857565b7f4e487b7100000000000000000000000000000000000000000000000000000000600052601160045260246000fd5b9190820180921161316857565b9081518110156131b5570160200190565b7f4e487b7100000000000000000000000000000000000000000000000000000000600052603260045260246000fd5b604051906131f18261258c565b602a82526020820160403682378251156131b5576030905381516001908110156131b557607860218401536029905b80821161328e5750506132305790565b60646040517f08c379a000000000000000000000000000000000000000000000000000000000815260206004820152602060248201527f537472696e67733a20686578206c656e67746820696e73756666696369656e746044820152fd5b9091600f8116601081101561332b577f3031323334353637383961626364656600000000000000000000000000000000901a6132ca84866131a4565b5360041c9180156132fd577fffffffffffffffffffffffffffffffffffffffffffffffffffffffffffffffff0190613220565b602460007f4e487b710000000000000000000000000000000000000000000000000000000081526011600452fd5b602460007f4e487b710000000000000000000000000000000000000000000000000000000081526032600452fd5b1561336057565b60846040517f08c379a000000000000000000000000000000000000000000000000000000000815260206004820152602b60248201527f496e697469616c697a61626c653a20636f6e7472616374206973206e6f74206960448201527f6e697469616c697a696e670000000000000000000000000000000000000000006064820152fd5b91909161ffff8080941691160191821161316857565b1561340157565b60646040517f08c379a000000000000000000000000000000000000000000000000000000000815260206004820152600e60248201527f4d49534d415443485f56414c55450000000000000000000000000000000000006044820152fd5b1561346657565b60646040517f08c379a000000000000000000000000000000000000000000000000000000000815260206004820152600e60248201527f544f4b454e5f4e4f5f56414c55450000000000000000000000000000000000006044820152fd5b156134cb57565b60646040517f08c379a000000000000000000000000000000000000000000000000000000000815260206004820152601f60248201527f5265656e7472616e637947756172643a207265656e7472616e742063616c6c006044820152fd5b90816020910312612564575180151581036125645790565b9190820391821161316857565b1561355557565b60646040517f08c379a000000000000000000000000000000000000000000000000000000000815260206004820152601360248201527f4554485f5452414e534645525f4641494c4544000000000000000000000000006044820152fd5b60405192602093848101917fa9059cbb00000000000000000000000000000000000000000000000000000000835273ffffffffffffffffffffffffffffffffffffffff8095166024830152604482015260448152608081019367ffffffffffffffff93828610858711176125a857169260c08201908111858210176125a8576040528484527f5361666545524332303a206c6f772d6c6576656c2063616c6c206661696c656460a0820152823b1561372b57613682939260009283809351925af161367c6130d3565b90613103565b8051908161368f57505050565b828061369f938301019101613529565b156136a75750565b608490604051907f08c379a00000000000000000000000000000000000000000000000000000000082526004820152602a60248201527f5361666545524332303a204552433230206f7065726174696f6e20646964206e60448201527f6f742073756363656564000000000000000000000000000000000000000000006064820152fd5b606485604051907f08c379a00000000000000000000000000000000000000000000000000000000082526004820152601d60248201527f416464726573733a2063616c6c20746f206e6f6e2d636f6e74726163740000006044820152fdfea26469706673582212208dd220edf34fb47d8e5e46bcffcaaf557745dc5f8d7e251d38e33e3ec02678b764736f6c63430008140033","opcodes":"PUSH1 0xA0 DUP1 PUSH1 0x40 MSTORE CALLVALUE PUSH3 0xE1 JUMPI ADDRESS PUSH1 0x80 MSTORE PUSH1 0x0 SLOAD SWAP1 PUSH1 0xFF DUP3 PUSH1 0x8 SHR AND PUSH3 0x8F JUMPI POP PUSH1 0xFF DUP1 DUP3 AND LT PUSH3 0x53 JUMPI JUMPDEST PUSH1 0x40 MLOAD PUSH2 0x37BF SWAP1 DUP2 PUSH3 0xE7 DUP3 CODECOPY PUSH1 0x80 MLOAD DUP2 DUP2 DUP2 PUSH2 0x13DC ADD MSTORE DUP2 DUP2 PUSH2 0x15AF ADD MSTORE PUSH2 0x1ED9 ADD MSTORE RETURN JUMPDEST PUSH1 0xFF SWAP1 DUP2 NOT AND OR PUSH1 0x0 SSTORE PUSH32 0x7F26B83FF96E1F2B6A682F133852F6798A09C465DA95921460CEFB3847402498 PUSH1 0x20 PUSH1 0x40 MLOAD PUSH1 0xFF DUP2 MSTORE LOG1 CODESIZE PUSH3 0x2C JUMP JUMPDEST PUSH3 0x461BCD PUSH1 0xE5 SHL DUP2 MSTORE PUSH1 0x20 PUSH1 0x4 DUP3 ADD MSTORE PUSH1 0x27 PUSH1 0x24 DUP3 ADD MSTORE PUSH32 0x496E697469616C697A61626C653A20636F6E747261637420697320696E697469 PUSH1 0x44 DUP3 ADD MSTORE PUSH7 0x616C697A696E67 PUSH1 0xC8 SHL PUSH1 0x64 DUP3 ADD MSTORE PUSH1 0x84 SWAP1 REVERT JUMPDEST PUSH1 0x0 DUP1 REVERT INVALID PUSH1 0x80 PUSH1 0x40 SWAP1 DUP1 DUP3 MSTORE PUSH1 0x4 SWAP2 DUP3 CALLDATASIZE LT ISZERO PUSH2 0x17 JUMPI PUSH1 0x0 DUP1 REVERT JUMPDEST PUSH1 0x0 SWAP2 DUP3 CALLDATALOAD PUSH1 0xE0 SHR SWAP1 DUP2 PUSH4 0x1FFC9A7 EQ PUSH2 0x2484 JUMPI POP DUP1 PUSH4 0x248A9CA3 EQ PUSH2 0x243B JUMPI DUP1 PUSH4 0x2F2FF15D EQ PUSH2 0x2347 JUMPI DUP1 PUSH4 0x36568ABE EQ PUSH2 0x2263 JUMPI DUP1 PUSH4 0x3659CFE6 EQ PUSH2 0x1E86 JUMPI DUP1 PUSH4 0x485CC955 EQ PUSH2 0x192F JUMPI DUP1 PUSH4 0x4F1EF286 EQ PUSH2 0x1508 JUMPI DUP1 PUSH4 0x51A8528E EQ PUSH2 0x14B0 JUMPI DUP1 PUSH4 0x52D1902D EQ PUSH2 0x1393 JUMPI DUP1 PUSH4 0x56718145 EQ PUSH2 0xD1F JUMPI DUP1 PUSH4 0x58516661 EQ PUSH2 0xCCC JUMPI DUP1 PUSH4 0x5EE58EFC EQ PUSH2 0xC6E JUMPI DUP1 PUSH4 0x644F861B EQ PUSH2 0xBBA JUMPI DUP1 PUSH4 0x722E5C8B EQ PUSH2 0xAF7 JUMPI DUP1 PUSH4 0x78CFAF3F EQ PUSH2 0xA90 JUMPI DUP1 PUSH4 0x862A672E EQ PUSH2 0x8DE JUMPI DUP1 PUSH4 0x896BDAC8 EQ PUSH2 0x879 JUMPI DUP1 PUSH4 0x9155CCC8 EQ PUSH2 0x7CB JUMPI DUP1 PUSH4 0x91D14854 EQ PUSH2 0x75A JUMPI DUP1 PUSH4 0xA217FDDF EQ PUSH2 0x722 JUMPI DUP1 PUSH4 0xA2C97F69 EQ PUSH2 0x559 JUMPI DUP1 PUSH4 0xCA4FB87C EQ PUSH2 0x501 JUMPI DUP1 PUSH4 0xD547741F EQ PUSH2 0x4A0 JUMPI DUP1 PUSH4 0xE02023A1 EQ PUSH2 0x448 JUMPI DUP1 PUSH4 0xE772EAA7 EQ PUSH2 0x2AE JUMPI PUSH4 0xE8F83A43 EQ PUSH2 0x143 JUMPI PUSH1 0x0 DUP1 REVERT JUMPDEST CALLVALUE PUSH2 0x2AA JUMPI PUSH1 0x60 PUSH32 0xFFFFFFFFFFFFFFFFFFFFFFFFFFFFFFFFFFFFFFFFFFFFFFFFFFFFFFFFFFFFFFFC CALLDATASIZE ADD SLT PUSH2 0x2AA JUMPI DUP3 CALLDATALOAD PUSH2 0xFFFF SWAP2 DUP3 DUP3 AND DUP1 DUP4 SUB PUSH2 0x2A6 JUMPI PUSH1 0x24 CALLDATALOAD SWAP4 DUP1 DUP6 AND DUP1 DUP7 SUB PUSH2 0x2A2 JUMPI PUSH1 0x44 CALLDATALOAD SWAP8 DUP3 DUP10 AND SWAP3 DUP4 DUP11 SUB PUSH2 0x29E JUMPI PUSH2 0x2710 SWAP1 PUSH2 0x1AB PUSH2 0x2722 JUMP JUMPDEST PUSH2 0x1BE DUP12 PUSH2 0x1B9 DUP12 DUP12 PUSH2 0x33E4 JUMP JUMPDEST PUSH2 0x33E4 JUMP JUMPDEST AND SUB PUSH2 0x277 JUMPI POP SWAP2 DUP4 SWAP2 DUP3 PUSH32 0xF4C71F4604FCECC5E59CFD9C92F2E22F57DFCB9DD4110C537FE6A9EB3A3DE34B SWAP9 SWAP10 SWAP5 PUSH2 0x271 SWAP7 MLOAD SWAP1 PUSH2 0x1FC DUP3 PUSH2 0x258C JUMP JUMPDEST DUP5 DUP3 MSTORE PUSH1 0x20 DUP3 ADD MSTORE ADD MSTORE PUSH2 0x12D SWAP1 DUP2 SLOAD SWAP1 PUSH32 0xFFFFFFFFFFFFFFFFFFFFFFFFFFFFFFFFFFFFFFFFFFFFFFFFFFFF000000000000 PUSH6 0xFFFF00000000 DUP7 PUSH1 0x20 SHL AND SWAP3 AND OR PUSH4 0xFFFF0000 DUP9 PUSH1 0x10 SHL AND OR OR SWAP1 SSTORE MLOAD SWAP4 DUP5 SWAP4 DUP5 SWAP2 PUSH1 0x40 SWAP2 SWAP5 SWAP4 PUSH1 0x60 DUP5 ADD SWAP6 PUSH2 0xFFFF SWAP3 DUP4 DUP1 SWAP3 AND DUP7 MSTORE AND PUSH1 0x20 DUP6 ADD MSTORE AND SWAP2 ADD MSTORE JUMP JUMPDEST SUB SWAP1 LOG1 DUP1 RETURN JUMPDEST DUP5 MLOAD PUSH32 0xC6CC5D7F00000000000000000000000000000000000000000000000000000000 DUP2 MSTORE REVERT JUMPDEST DUP9 DUP1 REVERT JUMPDEST DUP7 DUP1 REVERT JUMPDEST DUP5 DUP1 REVERT JUMPDEST POP DUP1 REVERT JUMPDEST POP DUP3 PUSH2 0x2B9 CALLDATASIZE PUSH2 0x266E JUMP JUMPDEST SWAP4 SWAP2 SWAP3 PUSH2 0x2C4 PUSH2 0x2999 JUMP JUMPDEST DUP5 ISZERO PUSH2 0x3EB JUMPI POP PUSH20 0xFFFFFFFFFFFFFFFFFFFFFFFFFFFFFFFFFFFFFFFF AND SWAP3 PUSH32 0x250A574E48CBB2F058D66F23A3D46A07CCCAEC2B54C535CB5D5B6130F085D5D0 SWAP2 SWAP1 DUP5 PUSH2 0x3DC JUMPI PUSH2 0x315 DUP2 CALLVALUE EQ PUSH2 0x33FA JUMP JUMPDEST PUSH2 0x3D6 DUP3 MLOAD SWAP3 PUSH2 0x324 DUP5 PUSH2 0x258C JUMP JUMPDEST PUSH2 0x35C PUSH2 0x366 PUSH2 0x12D SLOAD SWAP6 PUSH2 0xFFFF SWAP1 DUP2 DUP9 AND SWAP1 DUP2 DUP2 MSTORE DUP6 DUP4 PUSH1 0x20 DUP4 ADD SWAP11 DUP2 DUP2 PUSH1 0x10 SHR AND DUP13 MSTORE PUSH1 0x20 SHR AND SWAP2 ADD MSTORE PUSH2 0x2710 SWAP4 DUP5 SWAP2 DUP9 PUSH2 0x3155 JUMP JUMPDEST DIV SWAP7 MLOAD AND DUP6 PUSH2 0x3155 JUMP JUMPDEST DIV PUSH2 0x37A DUP2 PUSH2 0x375 DUP8 DUP8 PUSH2 0x3541 JUMP JUMPDEST PUSH2 0x3541 JUMP JUMPDEST SWAP2 DUP9 DUP11 MSTORE PUSH2 0x12F PUSH1 0x20 MSTORE PUSH1 0x2 DUP2 DUP12 KECCAK256 PUSH2 0x394 DUP9 DUP3 SLOAD PUSH2 0x3197 JUMP JUMPDEST DUP2 SSTORE PUSH1 0x1 DUP2 ADD PUSH2 0x3A5 DUP6 DUP3 SLOAD PUSH2 0x3197 JUMP JUMPDEST SWAP1 SSTORE ADD PUSH2 0x3B3 DUP5 DUP3 SLOAD PUSH2 0x3197 JUMP JUMPDEST SWAP1 SSTORE MLOAD SWAP5 DUP6 SWAP5 DUP6 SWAP1 SWAP5 SWAP4 SWAP3 PUSH1 0x60 SWAP3 PUSH1 0x80 DUP4 ADD SWAP7 DUP4 MSTORE PUSH1 0x20 DUP4 ADD MSTORE PUSH1 0x40 DUP3 ADD MSTORE ADD MSTORE JUMP JUMPDEST SUB SWAP1 LOG3 DUP1 RETURN JUMPDEST PUSH2 0x3E6 CALLVALUE ISZERO PUSH2 0x345F JUMP JUMPDEST PUSH2 0x315 JUMP JUMPDEST PUSH1 0x64 SWAP1 PUSH1 0x20 DUP5 MLOAD SWAP2 PUSH32 0x8C379A000000000000000000000000000000000000000000000000000000000 DUP4 MSTORE DUP3 ADD MSTORE PUSH1 0xB PUSH1 0x24 DUP3 ADD MSTORE PUSH32 0x5A45524F5F414D4F554E54000000000000000000000000000000000000000000 PUSH1 0x44 DUP3 ADD MSTORE REVERT JUMPDEST POP CALLVALUE PUSH2 0x2AA JUMPI DUP2 PUSH32 0xFFFFFFFFFFFFFFFFFFFFFFFFFFFFFFFFFFFFFFFFFFFFFFFFFFFFFFFFFFFFFFFC CALLDATASIZE ADD SLT PUSH2 0x2AA JUMPI PUSH1 0x20 SWAP1 MLOAD PUSH32 0x5D8E12C39142FF96D79D04D15D1BA1269E4FE57BB9D26F43523628B34BA108EC DUP2 MSTORE RETURN JUMPDEST POP DUP3 SWAP1 CALLVALUE PUSH2 0x4FD JUMPI DUP1 PUSH32 0xFFFFFFFFFFFFFFFFFFFFFFFFFFFFFFFFFFFFFFFFFFFFFFFFFFFFFFFFFFFFFFFC CALLDATASIZE ADD SLT PUSH2 0x4FD JUMPI PUSH2 0x4FA SWAP2 CALLDATALOAD PUSH2 0x4F5 PUSH1 0x1 PUSH2 0x4E3 PUSH2 0x2541 JUMP JUMPDEST SWAP4 DUP4 DUP8 MSTORE PUSH1 0x65 PUSH1 0x20 MSTORE DUP7 KECCAK256 ADD SLOAD PUSH2 0x2C87 JUMP JUMPDEST PUSH2 0x2E2F JUMP JUMPDEST DUP1 RETURN JUMPDEST DUP3 DUP1 REVERT JUMPDEST POP CALLVALUE PUSH2 0x2AA JUMPI DUP2 PUSH32 0xFFFFFFFFFFFFFFFFFFFFFFFFFFFFFFFFFFFFFFFFFFFFFFFFFFFFFFFFFFFFFFFC CALLDATASIZE ADD SLT PUSH2 0x2AA JUMPI PUSH1 0x20 SWAP1 MLOAD PUSH32 0x5407862F04286EBE607684514C14B7FFFC750B6BF52BA44EA49569174845A5BD DUP2 MSTORE RETURN JUMPDEST POP DUP3 SWAP1 CALLVALUE PUSH2 0x4FD JUMPI PUSH2 0x56A CALLDATASIZE PUSH2 0x26C3 JUMP JUMPDEST SWAP1 SWAP4 SWAP2 PUSH2 0x57C PUSH1 0x2 PUSH1 0x97 SLOAD EQ ISZERO PUSH2 0x34C4 JUMP JUMPDEST PUSH1 0x2 PUSH1 0x97 SSTORE PUSH2 0x589 PUSH2 0x2B10 JUMP JUMPDEST PUSH20 0xFFFFFFFFFFFFFFFFFFFFFFFFFFFFFFFFFFFFFFFF DUP1 SWAP2 AND SWAP2 DUP3 DUP8 MSTORE PUSH2 0x12F SWAP4 DUP5 PUSH1 0x20 MSTORE PUSH1 0x1 DUP7 DUP10 KECCAK256 ADD SLOAD SWAP3 DUP3 AND SWAP3 DUP4 ISZERO PUSH2 0x6C5 JUMPI DUP8 GT PUSH2 0x668 JUMPI POP SWAP2 PUSH1 0x1 SWAP4 SWAP2 PUSH2 0x64F SWAP6 SWAP4 DUP8 DUP4 ISZERO PUSH1 0x0 EQ PUSH2 0x659 JUMPI PUSH2 0x5F4 SWAP2 POP DUP10 DUP1 DUP1 DUP1 SWAP4 DUP7 GAS CALL PUSH2 0x5EE PUSH2 0x30D3 JUMP JUMPDEST POP PUSH2 0x354E JUMP JUMPDEST DUP2 PUSH32 0x494E535552414E43450000000000000000000000000000000000000000000000 PUSH32 0x1E231C01155FB54EC9C6BC3F0B7CCD13218314FB614E02443B5B064993786083 PUSH1 0x20 DUP8 MLOAD DUP12 DUP2 MSTORE LOG4 DUP7 MSTORE PUSH1 0x20 MSTORE DUP5 KECCAK256 ADD SWAP2 DUP3 SLOAD PUSH2 0x3541 JUMP JUMPDEST SWAP1 SSTORE PUSH1 0x1 PUSH1 0x97 SSTORE DUP1 RETURN JUMPDEST PUSH2 0x663 SWAP2 DUP5 PUSH2 0x35B3 JUMP JUMPDEST PUSH2 0x5F4 JUMP JUMPDEST PUSH1 0x64 SWAP1 PUSH1 0x20 DUP8 MLOAD SWAP2 PUSH32 0x8C379A000000000000000000000000000000000000000000000000000000000 DUP4 MSTORE DUP3 ADD MSTORE PUSH1 0x10 PUSH1 0x24 DUP3 ADD MSTORE PUSH32 0x494E53554646494349454E545F42414C00000000000000000000000000000000 PUSH1 0x44 DUP3 ADD MSTORE REVERT JUMPDEST PUSH1 0x64 DUP3 PUSH1 0x20 DUP10 MLOAD SWAP2 PUSH32 0x8C379A000000000000000000000000000000000000000000000000000000000 DUP4 MSTORE DUP3 ADD MSTORE PUSH1 0xA PUSH1 0x24 DUP3 ADD MSTORE PUSH32 0x494E56414C49445F544F00000000000000000000000000000000000000000000 PUSH1 0x44 DUP3 ADD MSTORE REVERT JUMPDEST POP CALLVALUE PUSH2 0x2AA JUMPI DUP2 PUSH32 0xFFFFFFFFFFFFFFFFFFFFFFFFFFFFFFFFFFFFFFFFFFFFFFFFFFFFFFFFFFFFFFFC CALLDATASIZE ADD SLT PUSH2 0x2AA JUMPI MLOAD SWAP1 DUP2 MSTORE PUSH1 0x20 SWAP1 RETURN JUMPDEST POP DUP3 CALLVALUE PUSH2 0x4FD JUMPI DUP2 PUSH32 0xFFFFFFFFFFFFFFFFFFFFFFFFFFFFFFFFFFFFFFFFFFFFFFFFFFFFFFFFFFFFFFFC CALLDATASIZE ADD SLT PUSH2 0x4FD JUMPI DUP2 PUSH1 0x20 SWAP4 PUSH1 0xFF SWAP3 PUSH2 0x799 PUSH2 0x2541 JUMP JUMPDEST SWAP1 CALLDATALOAD DUP3 MSTORE PUSH1 0x65 DUP7 MSTORE PUSH20 0xFFFFFFFFFFFFFFFFFFFFFFFFFFFFFFFFFFFFFFFF DUP4 DUP4 KECCAK256 SWAP2 AND DUP3 MSTORE DUP6 MSTORE KECCAK256 SLOAD AND SWAP1 MLOAD SWAP1 ISZERO ISZERO DUP2 MSTORE RETURN JUMPDEST POP CALLVALUE PUSH2 0x2AA JUMPI PUSH1 0x20 PUSH32 0xFFFFFFFFFFFFFFFFFFFFFFFFFFFFFFFFFFFFFFFFFFFFFFFFFFFFFFFFFFFFFFFC CALLDATASIZE ADD SLT PUSH2 0x2AA JUMPI DUP1 PUSH1 0x60 SWAP3 PUSH20 0xFFFFFFFFFFFFFFFFFFFFFFFFFFFFFFFFFFFFFFFF PUSH2 0x81C PUSH2 0x2569 JUMP JUMPDEST DUP3 DUP5 DUP1 MLOAD PUSH2 0x829 DUP2 PUSH2 0x258C JUMP JUMPDEST DUP3 DUP2 MSTORE DUP3 PUSH1 0x20 DUP3 ADD MSTORE ADD MSTORE AND DUP2 MSTORE PUSH2 0x12F PUSH1 0x20 MSTORE KECCAK256 SWAP1 DUP1 MLOAD PUSH2 0x84A DUP2 PUSH2 0x258C JUMP JUMPDEST DUP3 SLOAD SWAP3 DUP4 DUP3 MSTORE DUP3 PUSH1 0x2 PUSH1 0x1 DUP4 ADD SLOAD SWAP3 PUSH1 0x20 DUP6 ADD SWAP4 DUP5 MSTORE ADD SLOAD SWAP3 ADD SWAP2 DUP3 MSTORE DUP3 MLOAD SWAP4 DUP5 MSTORE MLOAD PUSH1 0x20 DUP5 ADD MSTORE MLOAD SWAP1 DUP3 ADD MSTORE RETURN JUMPDEST POP CALLVALUE PUSH2 0x2AA JUMPI PUSH1 0x20 PUSH32 0xFFFFFFFFFFFFFFFFFFFFFFFFFFFFFFFFFFFFFFFFFFFFFFFFFFFFFFFFFFFFFFFC CALLDATASIZE ADD SLT PUSH2 0x2AA JUMPI PUSH1 0x2 DUP2 PUSH1 0x20 SWAP4 PUSH20 0xFFFFFFFFFFFFFFFFFFFFFFFFFFFFFFFFFFFFFFFF PUSH2 0x8CC PUSH2 0x2569 JUMP JUMPDEST AND DUP2 MSTORE PUSH2 0x12F DUP6 MSTORE KECCAK256 ADD SLOAD SWAP1 MLOAD SWAP1 DUP2 MSTORE RETURN JUMPDEST POP SWAP2 CALLVALUE PUSH2 0x2AA JUMPI PUSH2 0x8EE CALLDATASIZE PUSH2 0x26C3 JUMP JUMPDEST SWAP5 SWAP2 PUSH2 0x902 PUSH1 0x2 PUSH1 0x97 SWAP6 SWAP4 SWAP6 SLOAD EQ ISZERO PUSH2 0x34C4 JUMP JUMPDEST PUSH1 0x2 PUSH1 0x97 SSTORE PUSH2 0x90F PUSH2 0x2B10 JUMP JUMPDEST PUSH20 0xFFFFFFFFFFFFFFFFFFFFFFFFFFFFFFFFFFFFFFFF DUP1 SWAP2 AND SWAP1 DUP2 DUP7 MSTORE PUSH2 0x12F SWAP3 DUP4 PUSH1 0x20 MSTORE DUP5 DUP8 KECCAK256 SLOAD SWAP2 DUP9 AND SWAP2 DUP3 ISZERO PUSH2 0xA33 JUMPI DUP7 GT PUSH2 0x9D6 JUMPI POP DUP5 SWAP6 SWAP7 PUSH2 0x64F SWAP6 DUP4 ISZERO PUSH1 0x0 EQ PUSH2 0x9C7 JUMPI PUSH2 0x96D SWAP2 POP DUP9 DUP1 DUP1 DUP1 SWAP4 DUP7 GAS CALL PUSH2 0x5EE PUSH2 0x30D3 JUMP JUMPDEST DUP2 PUSH32 0x5452454153555259000000000000000000000000000000000000000000000000 PUSH32 0x1E231C01155FB54EC9C6BC3F0B7CCD13218314FB614E02443B5B064993786083 PUSH1 0x20 DUP8 MLOAD DUP11 DUP2 MSTORE LOG4 DUP6 MSTORE PUSH1 0x20 MSTORE DUP4 KECCAK256 SWAP2 DUP3 SLOAD PUSH2 0x3541 JUMP JUMPDEST PUSH2 0x9D1 SWAP2 DUP5 PUSH2 0x35B3 JUMP JUMPDEST PUSH2 0x96D JUMP JUMPDEST PUSH1 0x64 SWAP1 PUSH1 0x20 DUP7 MLOAD SWAP2 PUSH32 0x8C379A000000000000000000000000000000000000000000000000000000000 DUP4 MSTORE DUP3 ADD MSTORE PUSH1 0x10 PUSH1 0x24 DUP3 ADD MSTORE PUSH32 0x494E53554646494349454E545F42414C00000000000000000000000000000000 PUSH1 0x44 DUP3 ADD MSTORE REVERT JUMPDEST PUSH1 0x64 DUP3 PUSH1 0x20 DUP9 MLOAD SWAP2 PUSH32 0x8C379A000000000000000000000000000000000000000000000000000000000 DUP4 MSTORE DUP3 ADD MSTORE PUSH1 0xA PUSH1 0x24 DUP3 ADD MSTORE PUSH32 0x494E56414C49445F544F00000000000000000000000000000000000000000000 PUSH1 0x44 DUP3 ADD MSTORE REVERT JUMPDEST POP DUP3 PUSH2 0xA9B CALLDATASIZE PUSH2 0x266E JUMP JUMPDEST SWAP4 SWAP2 SWAP3 PUSH2 0xAA6 PUSH2 0x2999 JUMP JUMPDEST DUP5 ISZERO PUSH2 0x3EB JUMPI POP PUSH20 0xFFFFFFFFFFFFFFFFFFFFFFFFFFFFFFFFFFFFFFFF AND SWAP3 PUSH32 0xB429493F733653C7BECDF8B7730F2FD113842CA05BDA9C07B6D333706C4209B SWAP2 SWAP1 DUP5 PUSH2 0x3DC JUMPI PUSH2 0x315 DUP2 CALLVALUE EQ PUSH2 0x33FA JUMP JUMPDEST POP DUP1 PUSH32 0xFFFFFFFFFFFFFFFFFFFFFFFFFFFFFFFFFFFFFFFFFFFFFFFFFFFFFFFFFFFFFFFC CALLDATASIZE ADD SLT PUSH2 0x2AA JUMPI PUSH2 0xB29 PUSH2 0x2569 JUMP JUMPDEST PUSH20 0xFFFFFFFFFFFFFFFFFFFFFFFFFFFFFFFFFFFFFFFF PUSH1 0x24 CALLDATALOAD SWAP2 AND SWAP2 DUP3 ISZERO DUP1 PUSH2 0xBAA JUMPI JUMPDEST ISZERO PUSH2 0xB9B JUMPI JUMPDEST DUP3 DUP5 MSTORE PUSH2 0x12F PUSH1 0x20 MSTORE PUSH1 0x2 DUP2 DUP6 KECCAK256 ADD PUSH2 0xB6C DUP4 DUP3 SLOAD PUSH2 0x3197 JUMP JUMPDEST SWAP1 SSTORE MLOAD SWAP1 DUP2 MSTORE PUSH32 0xD66544DD5ED3EB02982A905E9B45D8EECC72F6AF1DB4D34D43D4F774307EDA51 PUSH1 0x20 CALLER SWAP3 LOG3 DUP1 RETURN JUMPDEST PUSH2 0xBA5 CALLVALUE ISZERO PUSH2 0x345F JUMP JUMPDEST PUSH2 0xB52 JUMP JUMPDEST PUSH2 0xBB5 DUP4 CALLVALUE EQ PUSH2 0x33FA JUMP JUMPDEST PUSH2 0xB4C JUMP JUMPDEST POP DUP3 CALLVALUE PUSH2 0x4FD JUMPI PUSH1 0x20 PUSH32 0xFFFFFFFFFFFFFFFFFFFFFFFFFFFFFFFFFFFFFFFFFFFFFFFFFFFFFFFFFFFFFFFC CALLDATASIZE ADD SLT PUSH2 0x4FD JUMPI PUSH20 0xFFFFFFFFFFFFFFFFFFFFFFFFFFFFFFFFFFFFFFFF PUSH2 0xC08 PUSH2 0x2569 JUMP JUMPDEST PUSH2 0xC10 PUSH2 0x2722 JUMP JUMPDEST AND SWAP2 DUP3 ISZERO PUSH2 0xC48 JUMPI POP POP PUSH2 0x12E SWAP1 PUSH32 0xFFFFFFFFFFFFFFFFFFFFFFFF0000000000000000000000000000000000000000 DUP3 SLOAD AND OR SWAP1 SSTORE DUP1 RETURN JUMPDEST MLOAD PUSH32 0xE6C4247B00000000000000000000000000000000000000000000000000000000 DUP2 MSTORE REVERT JUMPDEST POP CALLVALUE PUSH2 0x2AA JUMPI DUP2 PUSH32 0xFFFFFFFFFFFFFFFFFFFFFFFFFFFFFFFFFFFFFFFFFFFFFFFFFFFFFFFFFFFFFFFC CALLDATASIZE ADD SLT PUSH2 0x2AA JUMPI PUSH2 0x12D SLOAD SWAP1 MLOAD PUSH2 0xFFFF DUP1 DUP4 AND DUP3 MSTORE PUSH1 0x10 DUP4 SWAP1 SHR DUP2 AND PUSH1 0x20 DUP1 DUP5 ADD SWAP2 SWAP1 SWAP2 MSTORE SWAP3 SWAP1 SWAP3 SHR SWAP1 SWAP2 AND PUSH1 0x40 DUP3 ADD MSTORE PUSH1 0x60 SWAP1 RETURN JUMPDEST POP CALLVALUE PUSH2 0x2AA JUMPI DUP2 PUSH32 0xFFFFFFFFFFFFFFFFFFFFFFFFFFFFFFFFFFFFFFFFFFFFFFFFFFFFFFFFFFFFFFFC CALLDATASIZE ADD SLT PUSH2 0x2AA JUMPI PUSH1 0x20 SWAP1 PUSH20 0xFFFFFFFFFFFFFFFFFFFFFFFFFFFFFFFFFFFFFFFF PUSH2 0x12E SLOAD AND SWAP1 MLOAD SWAP1 DUP2 MSTORE RETURN JUMPDEST POP CALLVALUE PUSH2 0x2AA JUMPI PUSH1 0xA0 PUSH32 0xFFFFFFFFFFFFFFFFFFFFFFFFFFFFFFFFFFFFFFFFFFFFFFFFFFFFFFFFFFFFFFFC CALLDATASIZE ADD SLT PUSH2 0x2AA JUMPI DUP3 CALLDATALOAD PUSH2 0xD59 PUSH2 0x2541 JUMP JUMPDEST SWAP4 PUSH1 0x44 CALLDATALOAD SWAP1 PUSH1 0x64 CALLDATALOAD PUSH20 0xFFFFFFFFFFFFFFFFFFFFFFFFFFFFFFFFFFFFFFFF SWAP2 DUP3 DUP3 AND SWAP6 DUP7 DUP4 SUB PUSH2 0xFE0 JUMPI PUSH1 0x84 CALLDATALOAD SWAP2 PUSH8 0xFFFFFFFFFFFFFFFF SWAP8 DUP9 DUP5 GT PUSH2 0x138F JUMPI CALLDATASIZE PUSH1 0x23 DUP6 ADD SLT ISZERO PUSH2 0x138F JUMPI DUP4 DUP3 ADD CALLDATALOAD SWAP9 DUP10 GT PUSH2 0x138F JUMPI PUSH1 0x24 SWAP5 CALLDATASIZE DUP7 DUP12 DUP8 ADD ADD GT PUSH2 0x138B JUMPI SWAP1 DUP11 SWAP7 SWAP6 SWAP5 SWAP4 SWAP3 SWAP2 PUSH2 0xDD2 PUSH1 0x2 PUSH1 0x97 SLOAD EQ ISZERO PUSH2 0x34C4 JUMP JUMPDEST PUSH1 0x2 PUSH1 0x97 SSTORE PUSH32 0x5407862F04286EBE607684514C14B7FFFC750B6BF52BA44EA49569174845A5BD DUP1 DUP10 MSTORE PUSH1 0xFF DUP6 PUSH1 0x20 SWAP11 PUSH1 0x65 DUP13 MSTORE DUP2 DUP2 KECCAK256 CALLER DUP3 MSTORE DUP13 MSTORE KECCAK256 SLOAD AND ISZERO PUSH2 0x10F4 JUMPI POP PUSH2 0x12E SWAP2 DUP8 DUP4 SLOAD AND DUP10 DUP13 DUP10 DUP9 MLOAD DUP1 SWAP5 DUP2 SWAP4 PUSH32 0x9D18755D00000000000000000000000000000000000000000000000000000000 DUP4 MSTORE DUP11 DUP4 ADD MSTORE GAS STATICCALL SWAP1 DUP2 ISZERO PUSH2 0x10E8 JUMPI DUP15 SWAP2 PUSH2 0x10BB JUMPI JUMPDEST POP ISZERO PUSH2 0x108D JUMPI PUSH1 0x2 DUP6 DUP15 SWAP16 SWAP14 SWAP15 SWAP14 DUP11 AND SWAP14 DUP15 DUP2 MSTORE PUSH2 0x12F DUP13 MSTORE KECCAK256 ADD DUP1 SLOAD DUP12 DUP2 LT PUSH2 0x1052 JUMPI DUP16 SWAP6 SWAP5 SWAP3 SWAP4 DUP16 SWAP2 SWAP5 DUP16 SWAP4 DUP16 SWAP7 DUP16 PUSH2 0xE98 SWAP2 PUSH2 0x3541 JUMP JUMPDEST SWAP1 SSTORE PUSH2 0xFF5 JUMPI POP POP POP SWAP1 DUP7 DUP9 DUP11 SWAP4 SLOAD AND SWAP4 DUP7 MLOAD SWAP5 DUP6 SWAP4 DUP5 SWAP3 PUSH32 0x6F6BF11800000000000000000000000000000000000000000000000000000000 DUP5 MSTORE DUP4 ADD MSTORE GAS STATICCALL SWAP1 DUP2 ISZERO PUSH2 0xFEB JUMPI SWAP2 DUP11 SWAP6 SWAP4 SWAP2 DUP13 SWAP6 SWAP4 DUP3 SWAP2 PUSH2 0xF99 JUMPI JUMPDEST POP SWAP4 PUSH1 0x60 SWAP8 SWAP4 DUP7 DUP12 SWAP9 SWAP5 PUSH32 0xFFFFFFFFFFFFFFFFFFFFFFFFFFFFFFFFFFFFFFFFFFFFFFFFFFFFFFFFFFFFFFE0 SWAP9 SWAP5 PUSH32 0xD4AE134E3B7AE25CDD5195E6206C60D90505A0E8F795CFDC23E970262506AFC9 SWAP14 PUSH1 0x1F SWAP10 DUP1 SWAP9 JUMPDEST DUP1 PUSH2 0xF8A JUMPI POP SWAP2 DUP1 DUP1 DUP1 SWAP4 DUP13 PUSH2 0xF5E SWAP7 AND GAS CALL PUSH2 0x5EE PUSH2 0x30D3 JUMP JUMPDEST DUP1 DUP1 MLOAD SWAP13 DUP14 SWAP12 DUP13 MSTORE DUP12 ADD MSTORE DUP10 ADD MSTORE ADD DUP8 DUP8 ADD CALLDATACOPY DUP12 DUP7 DUP13 DUP8 ADD ADD MSTORE AND SWAP9 ADD AND DUP2 ADD SUB ADD SWAP1 LOG4 PUSH1 0x1 PUSH1 0x97 SSTORE DUP1 RETURN JUMPDEST PUSH2 0xF94 SWAP4 POP PUSH2 0x35B3 JUMP JUMPDEST PUSH2 0xF5E JUMP JUMPDEST SWAP3 SWAP5 SWAP8 SWAP4 SWAP6 POP POP SWAP8 SWAP5 POP DUP7 DUP2 DUP2 RETURNDATASIZE DUP4 GT PUSH2 0xFE4 JUMPI JUMPDEST PUSH2 0xFB8 DUP2 DUP4 PUSH2 0x25F3 JUMP JUMPDEST DUP2 ADD SUB SLT PUSH2 0xFE0 JUMPI MLOAD SWAP2 DUP2 DUP4 AND DUP4 SUB PUSH2 0xFE0 JUMPI SWAP4 SWAP7 SWAP1 SWAP5 DUP10 SWAP5 DUP12 SWAP5 SWAP2 SWAP4 SWAP2 SWAP3 SWAP1 SWAP2 PUSH1 0x60 PUSH2 0xEEE JUMP JUMPDEST DUP8 DUP1 REVERT JUMPDEST POP RETURNDATASIZE PUSH2 0xFAE JUMP JUMPDEST DUP4 MLOAD RETURNDATASIZE DUP5 DUP3 RETURNDATACOPY RETURNDATASIZE SWAP1 REVERT JUMPDEST PUSH32 0xFFFFFFFFFFFFFFFFFFFFFFFFFFFFFFFFFFFFFFFFFFFFFFFFFFFFFFFFFFFFFFE0 SWAP9 SWAP3 SWAP6 POP DUP2 SWAP5 POP DUP13 SWAP10 SWAP4 POP SWAP7 PUSH1 0x60 SWAP11 SWAP7 PUSH32 0xD4AE134E3B7AE25CDD5195E6206C60D90505A0E8F795CFDC23E970262506AFC9 SWAP14 PUSH1 0x1F SWAP10 DUP1 SWAP9 PUSH2 0xF43 JUMP JUMPDEST DUP6 PUSH1 0x64 SWAP2 DUP16 DUP12 DUP16 SWAP2 DUP12 MLOAD SWAP5 PUSH32 0xB427241500000000000000000000000000000000000000000000000000000000 DUP7 MSTORE DUP6 ADD MSTORE DUP4 ADD MSTORE PUSH1 0x44 DUP3 ADD MSTORE REVERT JUMPDEST DUP7 DUP5 DUP13 DUP8 MLOAD SWAP2 PUSH32 0xFED956400000000000000000000000000000000000000000000000000000000 DUP4 MSTORE DUP3 ADD MSTORE REVERT JUMPDEST PUSH2 0x10DB SWAP2 POP DUP11 RETURNDATASIZE DUP13 GT PUSH2 0x10E1 JUMPI JUMPDEST PUSH2 0x10D3 DUP2 DUP4 PUSH2 0x25F3 JUMP JUMPDEST DUP2 ADD SWAP1 PUSH2 0x3529 JUMP JUMPDEST CODESIZE PUSH2 0xE5E JUMP JUMPDEST POP RETURNDATASIZE PUSH2 0x10C9 JUMP JUMPDEST DUP15 DUP8 MLOAD SWAP1 RETURNDATASIZE SWAP1 DUP3 RETURNDATACOPY RETURNDATASIZE SWAP1 REVERT JUMPDEST DUP4 DUP10 DUP15 DUP10 DUP9 SWAP5 PUSH2 0x1103 CALLER PUSH2 0x31E4 JUMP JUMPDEST SWAP1 SWAP2 DUP7 MLOAD SWAP3 PUSH2 0x1111 DUP5 PUSH2 0x25D7 JUMP JUMPDEST PUSH1 0x42 DUP5 MSTORE DUP6 DUP5 ADD SWAP5 PUSH1 0x60 CALLDATASIZE DUP8 CALLDATACOPY DUP5 MLOAD ISZERO PUSH2 0x1360 JUMPI PUSH1 0x30 DUP7 MSTORE8 DUP5 MLOAD SWAP1 PUSH1 0x1 SWAP2 DUP3 LT ISZERO PUSH2 0x1335 JUMPI SWAP1 PUSH1 0x78 PUSH1 0x21 DUP8 ADD MSTORE8 PUSH1 0x41 SWAP2 JUMPDEST DUP2 DUP4 GT PUSH2 0x126F JUMPI POP POP POP PUSH2 0x1214 JUMPI POP PUSH2 0x1210 SWAP4 DUP7 SWAP4 PUSH2 0x11E2 SWAP4 PUSH2 0x11D3 PUSH1 0x48 SWAP5 PUSH2 0x119E SWAP11 MLOAD SWAP11 DUP6 PUSH32 0x416363657373436F6E74726F6C3A206163636F756E7420000000000000000000 DUP14 SWAP8 DUP9 ADD MSTORE DUP3 MLOAD SWAP3 DUP4 SWAP2 PUSH1 0x37 DUP10 ADD SWAP2 ADD PUSH2 0x2DC2 JUMP JUMPDEST DUP5 ADD SWAP2 PUSH32 0x206973206D697373696E6720726F6C6520000000000000000000000000000000 PUSH1 0x37 DUP5 ADD MSTORE MLOAD DUP1 SWAP4 DUP7 DUP5 ADD SWAP1 PUSH2 0x2DC2 JUMP JUMPDEST ADD SUB PUSH1 0x28 DUP2 ADD DUP8 MSTORE ADD DUP6 PUSH2 0x25F3 JUMP JUMPDEST MLOAD SWAP3 DUP4 SWAP3 PUSH32 0x8C379A000000000000000000000000000000000000000000000000000000000 DUP5 MSTORE DUP4 ADD PUSH2 0x2DE5 JUMP JUMPDEST SUB SWAP1 REVERT JUMPDEST SWAP3 POP POP POP DUP2 PUSH1 0x64 SWAP5 MLOAD SWAP4 PUSH32 0x8C379A000000000000000000000000000000000000000000000000000000000 DUP6 MSTORE DUP5 ADD MSTORE DUP3 ADD MSTORE PUSH32 0x537472696E67733A20686578206C656E67746820696E73756666696369656E74 PUSH1 0x44 DUP3 ADD MSTORE REVERT JUMPDEST SWAP1 SWAP2 SWAP3 PUSH1 0xF DUP2 AND PUSH1 0x10 DUP2 LT ISZERO PUSH2 0x130A JUMPI PUSH32 0x3031323334353637383961626364656600000000000000000000000000000000 SWAP1 BYTE PUSH2 0x12AC DUP6 DUP10 PUSH2 0x31A4 JUMP JUMPDEST MSTORE8 DUP10 SHR SWAP3 DUP1 ISZERO PUSH2 0x12DF JUMPI PUSH32 0xFFFFFFFFFFFFFFFFFFFFFFFFFFFFFFFFFFFFFFFFFFFFFFFFFFFFFFFFFFFFFFFF ADD SWAP2 SWAP1 PUSH2 0x1142 JUMP JUMPDEST DUP5 DUP3 PUSH1 0x11 DUP13 PUSH32 0x4E487B7100000000000000000000000000000000000000000000000000000000 DUP4 MSTORE MSTORE REVERT JUMPDEST DUP6 DUP4 PUSH1 0x32 DUP14 PUSH32 0x4E487B7100000000000000000000000000000000000000000000000000000000 DUP4 MSTORE MSTORE REVERT JUMPDEST DUP1 PUSH1 0x32 DUP11 PUSH32 0x4E487B7100000000000000000000000000000000000000000000000000000000 DUP8 SWAP5 MSTORE MSTORE REVERT JUMPDEST SWAP1 POP PUSH1 0x32 DUP8 PUSH32 0x4E487B7100000000000000000000000000000000000000000000000000000000 DUP4 MSTORE MSTORE REVERT JUMPDEST DUP11 DUP1 REVERT JUMPDEST DUP10 DUP1 REVERT JUMPDEST POP SWAP2 SWAP1 CALLVALUE PUSH2 0x14AD JUMPI DUP1 PUSH32 0xFFFFFFFFFFFFFFFFFFFFFFFFFFFFFFFFFFFFFFFFFFFFFFFFFFFFFFFFFFFFFFFC CALLDATASIZE ADD SLT PUSH2 0x14AD JUMPI POP PUSH20 0xFFFFFFFFFFFFFFFFFFFFFFFFFFFFFFFFFFFFFFFF PUSH32 0x0 AND ADDRESS SUB PUSH2 0x142B JUMPI PUSH1 0x20 DUP3 MLOAD PUSH32 0x360894A13BA1A3210667C828492DB98DCA3E2076CC3735A920A3CA505D382BBC DUP2 MSTORE RETURN JUMPDEST PUSH1 0x20 PUSH1 0x84 SWAP3 MLOAD SWAP2 PUSH32 0x8C379A000000000000000000000000000000000000000000000000000000000 DUP4 MSTORE DUP3 ADD MSTORE PUSH1 0x38 PUSH1 0x24 DUP3 ADD MSTORE PUSH32 0x555550535570677261646561626C653A206D757374206E6F742062652063616C PUSH1 0x44 DUP3 ADD MSTORE PUSH32 0x6C6564207468726F7567682064656C656761746563616C6C0000000000000000 PUSH1 0x64 DUP3 ADD MSTORE REVERT JUMPDEST DUP1 REVERT JUMPDEST POP CALLVALUE PUSH2 0x2AA JUMPI DUP2 PUSH32 0xFFFFFFFFFFFFFFFFFFFFFFFFFFFFFFFFFFFFFFFFFFFFFFFFFFFFFFFFFFFFFFFC CALLDATASIZE ADD SLT PUSH2 0x2AA JUMPI PUSH1 0x20 SWAP1 MLOAD PUSH32 0x57C9E9C867B58C7F873F9CE933FC28574C90E37009E64ADDC3E3B1F61CD635D2 DUP2 MSTORE RETURN JUMPDEST POP DUP1 DUP4 SWAP2 PUSH32 0xFFFFFFFFFFFFFFFFFFFFFFFFFFFFFFFFFFFFFFFFFFFFFFFFFFFFFFFFFFFFFFFC CALLDATASIZE ADD SLT PUSH2 0x4FD JUMPI PUSH2 0x153C PUSH2 0x2569 JUMP JUMPDEST SWAP2 PUSH1 0x24 SWAP2 DUP3 CALLDATALOAD SWAP1 PUSH8 0xFFFFFFFFFFFFFFFF DUP3 GT PUSH2 0x192B JUMPI CALLDATASIZE PUSH1 0x23 DUP4 ADD SLT ISZERO PUSH2 0x192B JUMPI DUP2 DUP4 ADD CALLDATALOAD PUSH2 0x156A DUP2 PUSH2 0x2634 JUMP JUMPDEST PUSH2 0x1576 DUP4 MLOAD SWAP2 DUP3 PUSH2 0x25F3 JUMP JUMPDEST DUP2 DUP2 MSTORE DUP8 PUSH1 0x20 SWAP5 DUP6 DUP4 ADD SWAP4 CALLDATASIZE DUP10 DUP3 DUP5 ADD ADD GT PUSH2 0x4FD JUMPI DUP1 DUP10 DUP9 SWAP4 ADD DUP7 CALLDATACOPY DUP4 ADD ADD MSTORE PUSH20 0xFFFFFFFFFFFFFFFFFFFFFFFFFFFFFFFFFFFFFFFF DUP1 PUSH32 0x0 AND SWAP1 PUSH2 0x15DC DUP3 ADDRESS EQ ISZERO PUSH2 0x2ED1 JUMP JUMPDEST PUSH2 0x160B PUSH32 0x360894A13BA1A3210667C828492DB98DCA3E2076CC3735A920A3CA505D382BBC SWAP3 DUP3 DUP5 SLOAD AND EQ PUSH2 0x2F5C JUMP JUMPDEST PUSH2 0x1613 PUSH2 0x2722 JUMP JUMPDEST PUSH32 0x4910FDFA16FED3260ED0E7147F7CC6DA11A60208B5B9406D12A635614FFD9143 SLOAD PUSH1 0xFF AND ISZERO PUSH2 0x164E JUMPI POP POP POP POP POP POP POP POP PUSH2 0x4FA SWAP1 PUSH2 0x2FE7 JUMP JUMPDEST DUP9 SWAP6 SWAP8 SWAP10 SWAP5 SWAP7 SWAP9 AND SWAP1 DUP7 MLOAD PUSH32 0x52D1902D00000000000000000000000000000000000000000000000000000000 DUP2 MSTORE DUP9 DUP2 DUP12 DUP2 DUP7 GAS STATICCALL DUP7 SWAP2 DUP2 PUSH2 0x18FC JUMPI JUMPDEST POP PUSH2 0x1711 JUMPI PUSH1 0x84 DUP11 PUSH1 0x2E DUP14 DUP13 DUP13 MLOAD SWAP4 PUSH32 0x8C379A000000000000000000000000000000000000000000000000000000000 DUP6 MSTORE DUP5 ADD MSTORE DUP3 ADD MSTORE PUSH32 0x45524331393637557067726164653A206E657720696D706C656D656E74617469 PUSH1 0x44 DUP3 ADD MSTORE PUSH32 0x6F6E206973206E6F742055555053000000000000000000000000000000000000 PUSH1 0x64 DUP3 ADD MSTORE REVERT JUMPDEST SWAP10 SWAP3 SWAP5 SWAP9 SWAP2 SWAP4 SWAP6 SWAP10 SUB PUSH2 0x187C JUMPI PUSH2 0x1727 DUP10 PUSH2 0x2FE7 JUMP JUMPDEST DUP6 MLOAD SWAP3 PUSH32 0xBC7CD75A20EE27FD9ADEBAB32041F755214DBC6BFFA90CC0225B39DA2E5C2D3B DUP10 DUP1 LOG2 DUP4 MLOAD ISZERO DUP1 ISZERO SWAP1 PUSH2 0x1874 JUMPI JUMPDEST PUSH2 0x176A JUMPI JUMPDEST POP POP POP POP POP POP POP SWAP1 POP DUP1 RETURN JUMPDEST DUP9 EXTCODESIZE ISZERO PUSH2 0x17F5 JUMPI POP POP POP SWAP4 DUP1 SWAP6 DUP2 SWAP3 PUSH2 0x17E7 SWAP7 MLOAD SWAP2 GAS DELEGATECALL PUSH32 0x206661696C656400000000000000000000000000000000000000000000000000 PUSH2 0x17AA PUSH2 0x30D3 JUMP JUMPDEST SWAP3 PUSH32 0x416464726573733A206C6F772D6C6576656C2064656C65676174652063616C6C DUP2 MLOAD SWAP6 PUSH2 0x17D8 DUP8 PUSH2 0x258C JUMP JUMPDEST PUSH1 0x27 DUP8 MSTORE DUP7 ADD MSTORE DUP5 ADD MSTORE PUSH2 0x3103 JUMP JUMPDEST POP DUP1 DUP3 DUP1 DUP1 DUP1 DUP1 DUP1 DUP1 PUSH2 0x175E JUMP JUMPDEST DUP3 SWAP2 DUP8 PUSH1 0x26 SWAP3 PUSH32 0x8C379A000000000000000000000000000000000000000000000000000000000 PUSH1 0x84 SWAP7 MSTORE DUP5 ADD MSTORE DUP3 ADD MSTORE PUSH32 0x416464726573733A2064656C65676174652063616C6C20746F206E6F6E2D636F PUSH1 0x44 DUP3 ADD MSTORE PUSH32 0x6E74726163740000000000000000000000000000000000000000000000000000 PUSH1 0x64 DUP3 ADD MSTORE REVERT JUMPDEST POP PUSH1 0x1 PUSH2 0x1759 JUMP JUMPDEST PUSH1 0x29 PUSH1 0x84 SWAP3 DUP9 DUP9 MLOAD SWAP4 PUSH32 0x8C379A000000000000000000000000000000000000000000000000000000000 DUP6 MSTORE DUP5 ADD MSTORE DUP3 ADD MSTORE PUSH32 0x45524331393637557067726164653A20756E737570706F727465642070726F78 PUSH1 0x44 DUP3 ADD MSTORE PUSH32 0x6961626C65555549440000000000000000000000000000000000000000000000 PUSH1 0x64 DUP3 ADD MSTORE REVERT JUMPDEST SWAP1 SWAP2 POP DUP10 DUP2 DUP2 RETURNDATASIZE DUP4 GT PUSH2 0x1924 JUMPI JUMPDEST PUSH2 0x1914 DUP2 DUP4 PUSH2 0x25F3 JUMP JUMPDEST DUP2 ADD SUB SLT PUSH2 0x2A2 JUMPI MLOAD SWAP1 DUP13 PUSH2 0x168B JUMP JUMPDEST POP RETURNDATASIZE PUSH2 0x190A JUMP JUMPDEST DUP6 DUP1 REVERT JUMPDEST POP DUP3 CALLVALUE PUSH2 0x4FD JUMPI DUP2 PUSH32 0xFFFFFFFFFFFFFFFFFFFFFFFFFFFFFFFFFFFFFFFFFFFFFFFFFFFFFFFFFFFFFFFC CALLDATASIZE ADD SLT PUSH2 0x4FD JUMPI PUSH2 0x1967 PUSH2 0x2569 JUMP JUMPDEST PUSH2 0x196F PUSH2 0x2541 JUMP JUMPDEST SWAP2 DUP5 SLOAD PUSH1 0xFF SWAP3 DUP4 DUP3 PUSH1 0x8 SHR AND ISZERO SWAP4 DUP5 DUP1 SWAP6 PUSH2 0x1E7A JUMPI JUMPDEST DUP1 ISZERO PUSH2 0x1E64 JUMPI JUMPDEST ISZERO PUSH2 0x1DE1 JUMPI PUSH1 0x1 SWAP6 PUSH32 0xFFFFFFFFFFFFFFFFFFFFFFFFFFFFFFFFFFFFFFFFFFFFFFFFFFFFFFFFFFFFFF00 SWAP4 DUP7 DUP9 DUP7 DUP4 AND OR DUP12 SSTORE PUSH2 0x1DB3 JUMPI JUMPDEST POP PUSH20 0xFFFFFFFFFFFFFFFFFFFFFFFFFFFFFFFFFFFFFFFF DUP1 SWAP4 AND SWAP5 DUP6 ISZERO DUP1 ISZERO PUSH2 0x1DA9 JUMPI JUMPDEST PUSH2 0x1D82 JUMPI POP SWAP2 DUP2 DUP9 DUP11 DUP8 DUP11 DUP3 SWAP12 SWAP11 SWAP10 SWAP8 PUSH2 0x1A26 DUP5 SWAP11 SWAP9 DUP6 SLOAD PUSH1 0x8 SHR AND PUSH2 0x1A0B DUP2 PUSH2 0x3359 JUMP JUMPDEST PUSH2 0x1A14 DUP2 PUSH2 0x3359 JUMP JUMPDEST PUSH2 0x1A1D DUP2 PUSH2 0x3359 JUMP JUMPDEST DUP4 PUSH1 0x97 SSTORE PUSH2 0x3359 JUMP JUMPDEST DUP4 DUP1 MSTORE PUSH1 0x65 SWAP7 PUSH1 0x20 SWAP14 DUP15 SWAP7 DUP10 DUP9 MSTORE DUP1 DUP3 KECCAK256 DUP7 DUP4 MSTORE DUP9 MSTORE DUP9 DUP2 DUP4 KECCAK256 SLOAD AND ISZERO PUSH2 0x1D3D JUMPI JUMPDEST DUP10 PUSH32 0x5407862F04286EBE607684514C14B7FFFC750B6BF52BA44EA49569174845A5BD SWAP9 DUP10 DUP5 MSTORE MSTORE DUP5 DUP2 DUP4 KECCAK256 ADD SWAP1 DUP3 DUP3 SLOAD SWAP3 SSTORE DUP3 PUSH32 0xBD79B86FFE0AB8E8776151514217CD7CACD52C909F66475C3AF44E129F0B00FF SWAP3 DUP11 DUP5 DUP4 DUP1 LOG4 PUSH32 0x5D8E12C39142FF96D79D04D15D1BA1269E4FE57BB9D26F43523628B34BA108EC SWAP14 DUP15 DUP1 DUP3 MSTORE DUP8 DUP4 DUP4 KECCAK256 ADD SWAP1 DUP3 DUP3 SLOAD SWAP3 SSTORE DUP5 DUP4 DUP1 LOG4 PUSH32 0x57C9E9C867B58C7F873F9CE933FC28574C90E37009E64ADDC3E3B1F61CD635D2 SWAP6 DUP7 SWAP2 DUP3 DUP6 MSTORE DUP5 KECCAK256 ADD SWAP2 DUP4 DUP4 SLOAD SWAP4 SSTORE DUP4 DUP1 LOG4 PUSH2 0x12E SWAP2 AND DUP2 SLOAD PUSH32 0xFFFFFFFFFFFFFFFFFFFFFFFF0000000000000000000000000000000000000000 AND OR SWAP1 SSTORE DUP12 DUP14 DUP1 DUP1 MLOAD PUSH2 0x1B44 DUP2 PUSH2 0x258C JUMP JUMPDEST PUSH2 0xFA0 SWAP4 DUP5 DUP3 MSTORE PUSH2 0xBB8 DUP1 SWAP5 DUP4 DUP3 DUP5 DUP2 SWAP7 ADD MSTORE ADD MSTORE PUSH2 0x12D DUP1 SLOAD PUSH32 0xFFFFFFFFFFFFFFFFFFFFFFFFFFFFFFFFFFFFFFFFFFFFFFFFFFFF000000000000 AND PUSH6 0xBB80BB80FA0 OR SWAP1 SSTORE DUP3 MLOAD SWAP5 DUP6 MSTORE DUP5 ADD MSTORE DUP3 ADD MSTORE PUSH1 0x60 PUSH32 0xF4C71F4604FCECC5E59CFD9C92F2E22F57DFCB9DD4110C537FE6A9EB3A3DE34B SWAP2 LOG1 DUP1 DUP4 MSTORE DUP6 DUP13 MSTORE DUP13 DUP4 KECCAK256 DUP3 DUP5 MSTORE DUP13 MSTORE DUP5 DUP14 DUP5 KECCAK256 SLOAD AND ISZERO PUSH2 0x1CF7 JUMPI JUMPDEST POP POP DUP2 SWAP1 MSTORE DUP3 DUP10 MSTORE DUP10 DUP12 KECCAK256 DUP6 DUP13 MSTORE DUP10 MSTORE DUP2 DUP11 DUP13 KECCAK256 SLOAD AND ISZERO PUSH2 0x1CB1 JUMPI JUMPDEST POP DUP5 DUP11 MSTORE DUP2 DUP9 MSTORE DUP9 DUP11 KECCAK256 DUP5 DUP12 MSTORE DUP9 MSTORE DUP9 DUP11 KECCAK256 SLOAD AND ISZERO PUSH2 0x1C6A JUMPI JUMPDEST POP POP POP POP PUSH2 0x1C16 JUMPI DUP4 DUP1 RETURN JUMPDEST PUSH32 0x7F26B83FF96E1F2B6A682F133852F6798A09C465DA95921460CEFB3847402498 SWAP3 PUSH32 0xFFFFFFFFFFFFFFFFFFFFFFFFFFFFFFFFFFFFFFFFFFFFFFFFFFFFFFFFFFFF00FF DUP6 SLOAD AND DUP6 SSTORE MLOAD SWAP1 DUP2 MSTORE LOG1 DUP2 DUP1 DUP1 DUP4 DUP1 RETURN JUMPDEST DUP4 DUP10 MSTORE DUP7 MSTORE DUP7 DUP9 KECCAK256 DUP3 DUP10 MSTORE DUP7 MSTORE DUP5 DUP8 DUP10 KECCAK256 SWAP2 DUP3 SLOAD AND OR SWAP1 SSTORE CALLER SWAP2 PUSH32 0x2F8788117E7EFF1D82E926EC794901D17C78024A50270940304540A733656F0D DUP9 DUP1 LOG4 DUP6 DUP1 DUP1 DUP1 PUSH2 0x1C0A JUMP JUMPDEST DUP1 DUP12 MSTORE DUP3 DUP10 MSTORE DUP10 DUP12 KECCAK256 DUP6 DUP13 MSTORE DUP10 MSTORE DUP10 DUP12 KECCAK256 DUP9 DUP6 DUP3 SLOAD AND OR SWAP1 SSTORE DUP5 CALLER SWAP2 PUSH32 0x2F8788117E7EFF1D82E926EC794901D17C78024A50270940304540A733656F0D DUP14 DUP1 LOG4 DUP11 PUSH2 0x1BF0 JUMP JUMPDEST DUP1 DUP4 MSTORE DUP6 DUP13 MSTORE DUP13 DUP4 KECCAK256 DUP3 DUP5 MSTORE DUP13 MSTORE DUP13 DUP4 KECCAK256 DUP12 DUP9 DUP3 SLOAD AND OR SWAP1 SSTORE PUSH32 0x2F8788117E7EFF1D82E926EC794901D17C78024A50270940304540A733656F0D CALLER SWAP4 DUP1 LOG4 DUP11 DUP6 DUP14 PUSH2 0x1BD4 JUMP JUMPDEST DUP2 DUP1 MSTORE DUP10 DUP9 MSTORE DUP1 DUP3 KECCAK256 DUP7 DUP4 MSTORE DUP9 MSTORE DUP1 DUP3 KECCAK256 DUP6 DUP13 DUP3 SLOAD AND OR SWAP1 SSTORE CALLER DUP7 DUP4 PUSH32 0x2F8788117E7EFF1D82E926EC794901D17C78024A50270940304540A733656F0D DUP2 DUP1 LOG4 PUSH2 0x1A48 JUMP JUMPDEST DUP9 MLOAD PUSH32 0xE6C4247B00000000000000000000000000000000000000000000000000000000 DUP2 MSTORE REVERT JUMPDEST POP DUP4 DUP3 AND ISZERO PUSH2 0x19E6 JUMP JUMPDEST PUSH32 0xFFFFFFFFFFFFFFFFFFFFFFFFFFFFFFFFFFFFFFFFFFFFFFFFFFFFFFFFFFFF0000 AND PUSH2 0x101 OR DUP10 SSTORE DUP10 PUSH2 0x19C3 JUMP JUMPDEST PUSH1 0x84 DUP5 PUSH1 0x20 DUP10 MLOAD SWAP2 PUSH32 0x8C379A000000000000000000000000000000000000000000000000000000000 DUP4 MSTORE DUP3 ADD MSTORE PUSH1 0x2E PUSH1 0x24 DUP3 ADD MSTORE PUSH32 0x496E697469616C697A61626C653A20636F6E747261637420697320616C726561 PUSH1 0x44 DUP3 ADD MSTORE PUSH32 0x647920696E697469616C697A6564000000000000000000000000000000000000 PUSH1 0x64 DUP3 ADD MSTORE REVERT JUMPDEST POP ADDRESS EXTCODESIZE ISZERO DUP1 ISZERO PUSH2 0x198C JUMPI POP PUSH1 0x1 DUP2 DUP5 AND EQ PUSH2 0x198C JUMP JUMPDEST POP PUSH1 0x1 DUP2 DUP5 AND LT PUSH2 0x1985 JUMP JUMPDEST POP DUP3 CALLVALUE PUSH2 0x4FD JUMPI PUSH1 0x20 DUP1 PUSH32 0xFFFFFFFFFFFFFFFFFFFFFFFFFFFFFFFFFFFFFFFFFFFFFFFFFFFFFFFFFFFFFFFC CALLDATASIZE ADD SLT PUSH2 0x225F JUMPI PUSH2 0x1EC0 PUSH2 0x2569 JUMP JUMPDEST SWAP3 PUSH20 0xFFFFFFFFFFFFFFFFFFFFFFFFFFFFFFFFFFFFFFFF DUP1 PUSH32 0x0 AND PUSH2 0x1F05 DUP2 ADDRESS EQ ISZERO PUSH2 0x2ED1 JUMP JUMPDEST PUSH2 0x1F34 PUSH32 0x360894A13BA1A3210667C828492DB98DCA3E2076CC3735A920A3CA505D382BBC SWAP2 DUP4 DUP4 SLOAD AND EQ PUSH2 0x2F5C JUMP JUMPDEST PUSH2 0x1F3C PUSH2 0x2722 JUMP JUMPDEST DUP3 MLOAD SWAP1 DUP5 DUP3 ADD SWAP3 DUP3 DUP5 LT PUSH8 0xFFFFFFFFFFFFFFFF DUP6 GT OR PUSH2 0x2233 JUMPI DUP4 DUP6 MSTORE DUP9 DUP4 MSTORE PUSH32 0x4910FDFA16FED3260ED0E7147F7CC6DA11A60208B5B9406D12A635614FFD9143 SLOAD PUSH1 0xFF AND ISZERO PUSH2 0x1F96 JUMPI POP POP POP POP POP POP POP PUSH2 0x4FA SWAP1 PUSH2 0x2FE7 JUMP JUMPDEST DUP8 SWAP9 SWAP5 SWAP6 SWAP7 SWAP8 AND SWAP1 DUP6 MLOAD PUSH32 0x52D1902D00000000000000000000000000000000000000000000000000000000 DUP2 MSTORE DUP8 DUP2 DUP11 DUP2 DUP7 GAS STATICCALL DUP7 SWAP2 DUP2 PUSH2 0x2204 JUMPI JUMPDEST POP PUSH2 0x2059 JUMPI PUSH1 0x84 DUP10 DUP10 DUP10 MLOAD SWAP2 PUSH32 0x8C379A000000000000000000000000000000000000000000000000000000000 DUP4 MSTORE DUP3 ADD MSTORE PUSH1 0x2E PUSH1 0x24 DUP3 ADD MSTORE PUSH32 0x45524331393637557067726164653A206E657720696D706C656D656E74617469 PUSH1 0x44 DUP3 ADD MSTORE PUSH32 0x6F6E206973206E6F742055555053000000000000000000000000000000000000 PUSH1 0x64 DUP3 ADD MSTORE REVERT JUMPDEST SWAP8 SWAP2 SWAP3 SWAP4 SWAP5 SWAP8 SUB PUSH2 0x2182 JUMPI PUSH2 0x206D DUP9 PUSH2 0x2FE7 JUMP JUMPDEST DUP5 MLOAD SWAP2 PUSH32 0xBC7CD75A20EE27FD9ADEBAB32041F755214DBC6BFFA90CC0225B39DA2E5C2D3B DUP9 DUP1 LOG2 DUP3 MLOAD ISZERO DUP1 ISZERO SWAP1 PUSH2 0x217B JUMPI JUMPDEST PUSH2 0x20AF JUMPI JUMPDEST POP POP POP POP POP POP SWAP1 POP DUP1 RETURN JUMPDEST DUP8 EXTCODESIZE ISZERO PUSH2 0x20FB JUMPI POP POP SWAP4 DUP1 SWAP6 DUP2 SWAP3 PUSH2 0x20EE SWAP7 MLOAD SWAP2 GAS DELEGATECALL PUSH32 0x206661696C656400000000000000000000000000000000000000000000000000 PUSH2 0x17AA PUSH2 0x30D3 JUMP JUMPDEST POP DUP1 DUP3 DUP1 DUP1 DUP1 DUP1 DUP1 PUSH2 0x20A4 JUMP JUMPDEST SWAP1 DUP6 PUSH1 0x84 SWAP3 PUSH32 0x8C379A000000000000000000000000000000000000000000000000000000000 DUP4 MSTORE DUP3 ADD MSTORE PUSH1 0x26 PUSH1 0x24 DUP3 ADD MSTORE PUSH32 0x416464726573733A2064656C65676174652063616C6C20746F206E6F6E2D636F PUSH1 0x44 DUP3 ADD MSTORE PUSH32 0x6E74726163740000000000000000000000000000000000000000000000000000 PUSH1 0x64 DUP3 ADD MSTORE REVERT JUMPDEST POP DUP7 PUSH2 0x209F JUMP JUMPDEST PUSH1 0x84 SWAP1 DUP7 DUP7 MLOAD SWAP2 PUSH32 0x8C379A000000000000000000000000000000000000000000000000000000000 DUP4 MSTORE DUP3 ADD MSTORE PUSH1 0x29 PUSH1 0x24 DUP3 ADD MSTORE PUSH32 0x45524331393637557067726164653A20756E737570706F727465642070726F78 PUSH1 0x44 DUP3 ADD MSTORE PUSH32 0x6961626C65555549440000000000000000000000000000000000000000000000 PUSH1 0x64 DUP3 ADD MSTORE REVERT JUMPDEST SWAP1 SWAP2 POP DUP9 DUP2 DUP2 RETURNDATASIZE DUP4 GT PUSH2 0x222C JUMPI JUMPDEST PUSH2 0x221C DUP2 DUP4 PUSH2 0x25F3 JUMP JUMPDEST DUP2 ADD SUB SLT PUSH2 0x2A2 JUMPI MLOAD SWAP1 DUP12 PUSH2 0x1FD2 JUMP JUMPDEST POP RETURNDATASIZE PUSH2 0x2212 JUMP JUMPDEST PUSH1 0x24 DUP10 PUSH1 0x41 DUP10 PUSH32 0x4E487B7100000000000000000000000000000000000000000000000000000000 DUP4 MSTORE MSTORE REVERT JUMPDEST DUP4 DUP1 REVERT JUMPDEST POP SWAP2 CALLVALUE PUSH2 0x2AA JUMPI DUP3 PUSH32 0xFFFFFFFFFFFFFFFFFFFFFFFFFFFFFFFFFFFFFFFFFFFFFFFFFFFFFFFFFFFFFFFC CALLDATASIZE ADD SLT PUSH2 0x2AA JUMPI PUSH2 0x229B PUSH2 0x2541 JUMP JUMPDEST SWAP1 CALLER PUSH20 0xFFFFFFFFFFFFFFFFFFFFFFFFFFFFFFFFFFFFFFFF DUP4 AND SUB PUSH2 0x22C4 JUMPI SWAP1 PUSH2 0x4FA SWAP2 CALLDATALOAD PUSH2 0x2E2F JUMP JUMPDEST PUSH1 0x84 SWAP1 PUSH1 0x20 DUP6 MLOAD SWAP2 PUSH32 0x8C379A000000000000000000000000000000000000000000000000000000000 DUP4 MSTORE DUP3 ADD MSTORE PUSH1 0x2F PUSH1 0x24 DUP3 ADD MSTORE PUSH32 0x416363657373436F6E74726F6C3A2063616E206F6E6C792072656E6F756E6365 PUSH1 0x44 DUP3 ADD MSTORE PUSH32 0x20726F6C657320666F722073656C660000000000000000000000000000000000 PUSH1 0x64 DUP3 ADD MSTORE REVERT JUMPDEST POP DUP3 CALLVALUE PUSH2 0x4FD JUMPI DUP2 PUSH32 0xFFFFFFFFFFFFFFFFFFFFFFFFFFFFFFFFFFFFFFFFFFFFFFFFFFFFFFFFFFFFFFFC CALLDATASIZE ADD SLT PUSH2 0x4FD JUMPI CALLDATALOAD SWAP1 PUSH2 0x2381 PUSH2 0x2541 JUMP JUMPDEST SWAP1 DUP3 DUP5 MSTORE PUSH1 0x65 PUSH1 0x20 MSTORE PUSH2 0x2399 PUSH1 0x1 DUP3 DUP7 KECCAK256 ADD SLOAD PUSH2 0x2C87 JUMP JUMPDEST DUP3 DUP5 MSTORE PUSH1 0x65 PUSH1 0x20 MSTORE PUSH20 0xFFFFFFFFFFFFFFFFFFFFFFFFFFFFFFFFFFFFFFFF DUP2 DUP6 KECCAK256 SWAP3 AND SWAP2 DUP3 DUP6 MSTORE PUSH1 0x20 MSTORE PUSH1 0xFF DUP2 DUP6 KECCAK256 SLOAD AND ISZERO PUSH2 0x23D2 JUMPI DUP4 DUP1 RETURN JUMPDEST DUP3 DUP5 MSTORE PUSH1 0x65 PUSH1 0x20 MSTORE DUP1 DUP5 KECCAK256 DUP3 DUP6 MSTORE PUSH1 0x20 MSTORE DUP4 KECCAK256 PUSH1 0x1 PUSH32 0xFFFFFFFFFFFFFFFFFFFFFFFFFFFFFFFFFFFFFFFFFFFFFFFFFFFFFFFFFFFFFF00 DUP3 SLOAD AND OR SWAP1 SSTORE CALLER SWAP2 PUSH32 0x2F8788117E7EFF1D82E926EC794901D17C78024A50270940304540A733656F0D DUP5 DUP1 LOG4 DUP2 DUP1 DUP1 DUP4 DUP1 RETURN JUMPDEST POP DUP3 CALLVALUE PUSH2 0x4FD JUMPI PUSH1 0x20 PUSH32 0xFFFFFFFFFFFFFFFFFFFFFFFFFFFFFFFFFFFFFFFFFFFFFFFFFFFFFFFFFFFFFFFC CALLDATASIZE ADD SLT PUSH2 0x4FD JUMPI DUP2 PUSH1 0x20 SWAP4 PUSH1 0x1 SWAP3 CALLDATALOAD DUP2 MSTORE PUSH1 0x65 DUP6 MSTORE KECCAK256 ADD SLOAD SWAP1 MLOAD SWAP1 DUP2 MSTORE RETURN JUMPDEST DUP4 SWAP1 DUP6 CALLVALUE PUSH2 0x4FD JUMPI PUSH1 0x20 PUSH32 0xFFFFFFFFFFFFFFFFFFFFFFFFFFFFFFFFFFFFFFFFFFFFFFFFFFFFFFFFFFFFFFFC CALLDATASIZE ADD SLT PUSH2 0x4FD JUMPI CALLDATALOAD PUSH32 0xFFFFFFFF00000000000000000000000000000000000000000000000000000000 DUP2 AND DUP1 SWAP2 SUB PUSH2 0x4FD JUMPI PUSH1 0x20 SWAP3 POP PUSH32 0x7965DB0B00000000000000000000000000000000000000000000000000000000 DUP2 EQ SWAP1 DUP2 ISZERO PUSH2 0x2517 JUMPI JUMPDEST POP ISZERO ISZERO DUP2 MSTORE RETURN JUMPDEST PUSH32 0x1FFC9A700000000000000000000000000000000000000000000000000000000 SWAP2 POP EQ DUP4 PUSH2 0x2510 JUMP JUMPDEST PUSH1 0x24 CALLDATALOAD SWAP1 PUSH20 0xFFFFFFFFFFFFFFFFFFFFFFFFFFFFFFFFFFFFFFFF DUP3 AND DUP3 SUB PUSH2 0x2564 JUMPI JUMP JUMPDEST PUSH1 0x0 DUP1 REVERT JUMPDEST PUSH1 0x4 CALLDATALOAD SWAP1 PUSH20 0xFFFFFFFFFFFFFFFFFFFFFFFFFFFFFFFFFFFFFFFF DUP3 AND DUP3 SUB PUSH2 0x2564 JUMPI JUMP JUMPDEST PUSH1 0x60 DUP2 ADD SWAP1 DUP2 LT PUSH8 0xFFFFFFFFFFFFFFFF DUP3 GT OR PUSH2 0x25A8 JUMPI PUSH1 0x40 MSTORE JUMP JUMPDEST PUSH32 0x4E487B7100000000000000000000000000000000000000000000000000000000 PUSH1 0x0 MSTORE PUSH1 0x41 PUSH1 0x4 MSTORE PUSH1 0x24 PUSH1 0x0 REVERT JUMPDEST PUSH1 0x80 DUP2 ADD SWAP1 DUP2 LT PUSH8 0xFFFFFFFFFFFFFFFF DUP3 GT OR PUSH2 0x25A8 JUMPI PUSH1 0x40 MSTORE JUMP JUMPDEST SWAP1 PUSH1 0x1F PUSH32 0xFFFFFFFFFFFFFFFFFFFFFFFFFFFFFFFFFFFFFFFFFFFFFFFFFFFFFFFFFFFFFFE0 SWAP2 ADD AND DUP2 ADD SWAP1 DUP2 LT PUSH8 0xFFFFFFFFFFFFFFFF DUP3 GT OR PUSH2 0x25A8 JUMPI PUSH1 0x40 MSTORE JUMP JUMPDEST PUSH8 0xFFFFFFFFFFFFFFFF DUP2 GT PUSH2 0x25A8 JUMPI PUSH1 0x1F ADD PUSH32 0xFFFFFFFFFFFFFFFFFFFFFFFFFFFFFFFFFFFFFFFFFFFFFFFFFFFFFFFFFFFFFFE0 AND PUSH1 0x20 ADD SWAP1 JUMP JUMPDEST PUSH32 0xFFFFFFFFFFFFFFFFFFFFFFFFFFFFFFFFFFFFFFFFFFFFFFFFFFFFFFFFFFFFFFFC PUSH1 0x60 SWAP2 ADD SLT PUSH2 0x2564 JUMPI PUSH1 0x4 CALLDATALOAD SWAP1 PUSH1 0x24 CALLDATALOAD PUSH20 0xFFFFFFFFFFFFFFFFFFFFFFFFFFFFFFFFFFFFFFFF DUP2 AND DUP2 SUB PUSH2 0x2564 JUMPI SWAP1 PUSH1 0x44 CALLDATALOAD SWAP1 JUMP JUMPDEST PUSH32 0xFFFFFFFFFFFFFFFFFFFFFFFFFFFFFFFFFFFFFFFFFFFFFFFFFFFFFFFFFFFFFFFC PUSH1 0x60 SWAP2 ADD SLT PUSH2 0x2564 JUMPI PUSH20 0xFFFFFFFFFFFFFFFFFFFFFFFFFFFFFFFFFFFFFFFF PUSH1 0x4 CALLDATALOAD DUP2 DUP2 AND DUP2 SUB PUSH2 0x2564 JUMPI SWAP2 PUSH1 0x24 CALLDATALOAD SWAP2 PUSH1 0x44 CALLDATALOAD SWAP1 DUP2 AND DUP2 SUB PUSH2 0x2564 JUMPI SWAP1 JUMP JUMPDEST CALLER PUSH1 0x0 SWAP1 DUP2 MSTORE PUSH32 0xFFDFC1249C027F9191656349FEB0761381BB32C9F557E01F419FD08754BF5A1B PUSH1 0x20 SWAP1 DUP2 MSTORE PUSH1 0x40 DUP1 DUP4 KECCAK256 SLOAD SWAP1 SWAP3 SWAP1 PUSH1 0xFF AND ISZERO PUSH2 0x2764 JUMPI POP POP POP JUMP JUMPDEST PUSH2 0x276D CALLER PUSH2 0x31E4 JUMP JUMPDEST DUP4 MLOAD SWAP1 DUP3 PUSH2 0x277A DUP4 PUSH2 0x25D7 JUMP JUMPDEST PUSH1 0x42 DUP4 MSTORE DUP5 DUP4 ADD SWAP4 PUSH1 0x60 CALLDATASIZE DUP7 CALLDATACOPY DUP4 MLOAD ISZERO PUSH2 0x296C JUMPI PUSH1 0x30 DUP6 MSTORE8 DUP4 MLOAD SWAP1 PUSH1 0x1 SWAP2 DUP3 LT ISZERO PUSH2 0x296C JUMPI SWAP1 PUSH1 0x78 PUSH1 0x21 DUP7 ADD MSTORE8 PUSH1 0x41 SWAP2 JUMPDEST DUP2 DUP4 GT PUSH2 0x28A1 JUMPI POP POP POP PUSH2 0x2845 JUMPI PUSH2 0x119E SWAP4 DUP6 SWAP4 PUSH2 0x2815 SWAP4 PUSH2 0x2806 PUSH1 0x48 SWAP5 PUSH2 0x1210 SWAP10 MLOAD SWAP9 DUP6 PUSH32 0x416363657373436F6E74726F6C3A206163636F756E7420000000000000000000 DUP12 SWAP8 DUP9 ADD MSTORE DUP3 MLOAD SWAP3 DUP4 SWAP2 PUSH1 0x37 DUP10 ADD SWAP2 ADD PUSH2 0x2DC2 JUMP JUMPDEST ADD SUB PUSH1 0x28 DUP2 ADD DUP6 MSTORE ADD DUP4 PUSH2 0x25F3 JUMP JUMPDEST MLOAD SWAP2 DUP3 SWAP2 PUSH32 0x8C379A000000000000000000000000000000000000000000000000000000000 DUP4 MSTORE PUSH1 0x4 DUP4 ADD PUSH2 0x2DE5 JUMP JUMPDEST PUSH1 0x64 DUP5 DUP7 MLOAD SWAP1 PUSH32 0x8C379A000000000000000000000000000000000000000000000000000000000 DUP3 MSTORE DUP1 PUSH1 0x4 DUP4 ADD MSTORE PUSH1 0x24 DUP3 ADD MSTORE PUSH32 0x537472696E67733A20686578206C656E67746820696E73756666696369656E74 PUSH1 0x44 DUP3 ADD MSTORE REVERT JUMPDEST SWAP1 SWAP2 SWAP3 PUSH1 0xF DUP2 AND PUSH1 0x10 DUP2 LT ISZERO PUSH2 0x293F JUMPI PUSH32 0x3031323334353637383961626364656600000000000000000000000000000000 SWAP1 BYTE PUSH2 0x28DE DUP6 DUP9 PUSH2 0x31A4 JUMP JUMPDEST MSTORE8 PUSH1 0x4 SHR SWAP3 DUP1 ISZERO PUSH2 0x2912 JUMPI PUSH32 0xFFFFFFFFFFFFFFFFFFFFFFFFFFFFFFFFFFFFFFFFFFFFFFFFFFFFFFFFFFFFFFFF ADD SWAP2 SWAP1 PUSH2 0x27AB JUMP JUMPDEST PUSH1 0x24 DUP3 PUSH32 0x4E487B7100000000000000000000000000000000000000000000000000000000 DUP2 MSTORE PUSH1 0x11 PUSH1 0x4 MSTORE REVERT JUMPDEST PUSH1 0x24 DUP4 PUSH32 0x4E487B7100000000000000000000000000000000000000000000000000000000 DUP2 MSTORE PUSH1 0x32 PUSH1 0x4 MSTORE REVERT JUMPDEST DUP1 PUSH32 0x4E487B7100000000000000000000000000000000000000000000000000000000 PUSH1 0x24 SWAP3 MSTORE PUSH1 0x32 PUSH1 0x4 MSTORE REVERT JUMPDEST CALLER PUSH1 0x0 SWAP1 DUP2 MSTORE PUSH32 0x577F8B12D959663CE379112162FC52A588C3C6CF2B2A6A20163602307AC7AB48 PUSH1 0x20 SWAP1 DUP2 MSTORE PUSH1 0x40 DUP1 DUP4 KECCAK256 SLOAD SWAP1 SWAP3 SWAP1 PUSH32 0x57C9E9C867B58C7F873F9CE933FC28574C90E37009E64ADDC3E3B1F61CD635D2 SWAP1 PUSH1 0xFF AND ISZERO PUSH2 0x29FE JUMPI POP POP POP POP JUMP JUMPDEST PUSH2 0x2A07 CALLER PUSH2 0x31E4 JUMP JUMPDEST DUP5 MLOAD SWAP2 PUSH2 0x2A13 DUP4 PUSH2 0x25D7 JUMP JUMPDEST PUSH1 0x42 DUP4 MSTORE DUP5 DUP4 ADD SWAP4 PUSH1 0x60 CALLDATASIZE DUP7 CALLDATACOPY DUP4 MLOAD ISZERO PUSH2 0x296C JUMPI PUSH1 0x30 DUP6 MSTORE8 DUP4 MLOAD SWAP1 PUSH1 0x1 SWAP2 DUP3 LT ISZERO PUSH2 0x296C JUMPI SWAP1 PUSH1 0x78 PUSH1 0x21 DUP7 ADD MSTORE8 PUSH1 0x41 SWAP2 JUMPDEST DUP2 DUP4 GT PUSH2 0x2A9F JUMPI POP POP POP PUSH2 0x2845 JUMPI PUSH2 0x119E SWAP4 DUP6 SWAP4 PUSH2 0x2815 SWAP4 PUSH2 0x2806 PUSH1 0x48 SWAP5 PUSH2 0x1210 SWAP10 MLOAD SWAP9 DUP6 PUSH32 0x416363657373436F6E74726F6C3A206163636F756E7420000000000000000000 DUP12 SWAP8 DUP9 ADD MSTORE DUP3 MLOAD SWAP3 DUP4 SWAP2 PUSH1 0x37 DUP10 ADD SWAP2 ADD PUSH2 0x2DC2 JUMP JUMPDEST SWAP1 SWAP2 SWAP3 PUSH1 0xF DUP2 AND PUSH1 0x10 DUP2 LT ISZERO PUSH2 0x293F JUMPI PUSH32 0x3031323334353637383961626364656600000000000000000000000000000000 SWAP1 BYTE PUSH2 0x2ADC DUP6 DUP9 PUSH2 0x31A4 JUMP JUMPDEST MSTORE8 PUSH1 0x4 SHR SWAP3 DUP1 ISZERO PUSH2 0x2912 JUMPI PUSH32 0xFFFFFFFFFFFFFFFFFFFFFFFFFFFFFFFFFFFFFFFFFFFFFFFFFFFFFFFFFFFFFFFF ADD SWAP2 SWAP1 PUSH2 0x2A44 JUMP JUMPDEST CALLER PUSH1 0x0 SWAP1 DUP2 MSTORE PUSH32 0x73185B6F6E7A53AE0FFBC46EB2CE52F75DEE13E7EE931EAC2A929B8FD4018255 PUSH1 0x20 SWAP1 DUP2 MSTORE PUSH1 0x40 DUP1 DUP4 KECCAK256 SLOAD SWAP1 SWAP3 SWAP1 PUSH32 0x5D8E12C39142FF96D79D04D15D1BA1269E4FE57BB9D26F43523628B34BA108EC SWAP1 PUSH1 0xFF AND ISZERO PUSH2 0x2B75 JUMPI POP POP POP POP JUMP JUMPDEST PUSH2 0x2B7E CALLER PUSH2 0x31E4 JUMP JUMPDEST DUP5 MLOAD SWAP2 PUSH2 0x2B8A DUP4 PUSH2 0x25D7 JUMP JUMPDEST PUSH1 0x42 DUP4 MSTORE DUP5 DUP4 ADD SWAP4 PUSH1 0x60 CALLDATASIZE DUP7 CALLDATACOPY DUP4 MLOAD ISZERO PUSH2 0x296C JUMPI PUSH1 0x30 DUP6 MSTORE8 DUP4 MLOAD SWAP1 PUSH1 0x1 SWAP2 DUP3 LT ISZERO PUSH2 0x296C JUMPI SWAP1 PUSH1 0x78 PUSH1 0x21 DUP7 ADD MSTORE8 PUSH1 0x41 SWAP2 JUMPDEST DUP2 DUP4 GT PUSH2 0x2C16 JUMPI POP POP POP PUSH2 0x2845 JUMPI PUSH2 0x119E SWAP4 DUP6 SWAP4 PUSH2 0x2815 SWAP4 PUSH2 0x2806 PUSH1 0x48 SWAP5 PUSH2 0x1210 SWAP10 MLOAD SWAP9 DUP6 PUSH32 0x416363657373436F6E74726F6C3A206163636F756E7420000000000000000000 DUP12 SWAP8 DUP9 ADD MSTORE DUP3 MLOAD SWAP3 DUP4 SWAP2 PUSH1 0x37 DUP10 ADD SWAP2 ADD PUSH2 0x2DC2 JUMP JUMPDEST SWAP1 SWAP2 SWAP3 PUSH1 0xF DUP2 AND PUSH1 0x10 DUP2 LT ISZERO PUSH2 0x293F JUMPI PUSH32 0x3031323334353637383961626364656600000000000000000000000000000000 SWAP1 BYTE PUSH2 0x2C53 DUP6 DUP9 PUSH2 0x31A4 JUMP JUMPDEST MSTORE8 PUSH1 0x4 SHR SWAP3 DUP1 ISZERO PUSH2 0x2912 JUMPI PUSH32 0xFFFFFFFFFFFFFFFFFFFFFFFFFFFFFFFFFFFFFFFFFFFFFFFFFFFFFFFFFFFFFFFF ADD SWAP2 SWAP1 PUSH2 0x2BBB JUMP JUMPDEST PUSH1 0x0 DUP2 DUP2 MSTORE PUSH1 0x20 SWAP1 PUSH1 0x65 DUP3 MSTORE PUSH1 0x40 SWAP3 DUP4 DUP3 KECCAK256 CALLER DUP4 MSTORE DUP4 MSTORE PUSH1 0xFF DUP5 DUP4 KECCAK256 SLOAD AND ISZERO PUSH2 0x2CB0 JUMPI POP POP POP POP JUMP JUMPDEST PUSH2 0x2CB9 CALLER PUSH2 0x31E4 JUMP JUMPDEST DUP5 MLOAD SWAP2 PUSH2 0x2CC5 DUP4 PUSH2 0x25D7 JUMP JUMPDEST PUSH1 0x42 DUP4 MSTORE DUP5 DUP4 ADD SWAP4 PUSH1 0x60 CALLDATASIZE DUP7 CALLDATACOPY DUP4 MLOAD ISZERO PUSH2 0x296C JUMPI PUSH1 0x30 DUP6 MSTORE8 DUP4 MLOAD SWAP1 PUSH1 0x1 SWAP2 DUP3 LT ISZERO PUSH2 0x296C JUMPI SWAP1 PUSH1 0x78 PUSH1 0x21 DUP7 ADD MSTORE8 PUSH1 0x41 SWAP2 JUMPDEST DUP2 DUP4 GT PUSH2 0x2D51 JUMPI POP POP POP PUSH2 0x2845 JUMPI PUSH2 0x119E SWAP4 DUP6 SWAP4 PUSH2 0x2815 SWAP4 PUSH2 0x2806 PUSH1 0x48 SWAP5 PUSH2 0x1210 SWAP10 MLOAD SWAP9 DUP6 PUSH32 0x416363657373436F6E74726F6C3A206163636F756E7420000000000000000000 DUP12 SWAP8 DUP9 ADD MSTORE DUP3 MLOAD SWAP3 DUP4 SWAP2 PUSH1 0x37 DUP10 ADD SWAP2 ADD PUSH2 0x2DC2 JUMP JUMPDEST SWAP1 SWAP2 SWAP3 PUSH1 0xF DUP2 AND PUSH1 0x10 DUP2 LT ISZERO PUSH2 0x293F JUMPI PUSH32 0x3031323334353637383961626364656600000000000000000000000000000000 SWAP1 BYTE PUSH2 0x2D8E DUP6 DUP9 PUSH2 0x31A4 JUMP JUMPDEST MSTORE8 PUSH1 0x4 SHR SWAP3 DUP1 ISZERO PUSH2 0x2912 JUMPI PUSH32 0xFFFFFFFFFFFFFFFFFFFFFFFFFFFFFFFFFFFFFFFFFFFFFFFFFFFFFFFFFFFFFFFF ADD SWAP2 SWAP1 PUSH2 0x2CF6 JUMP JUMPDEST PUSH1 0x0 JUMPDEST DUP4 DUP2 LT PUSH2 0x2DD5 JUMPI POP POP PUSH1 0x0 SWAP2 ADD MSTORE JUMP JUMPDEST DUP2 DUP2 ADD MLOAD DUP4 DUP3 ADD MSTORE PUSH1 0x20 ADD PUSH2 0x2DC5 JUMP JUMPDEST PUSH32 0xFFFFFFFFFFFFFFFFFFFFFFFFFFFFFFFFFFFFFFFFFFFFFFFFFFFFFFFFFFFFFFE0 PUSH1 0x1F PUSH1 0x40 SWAP4 PUSH1 0x20 DUP5 MSTORE PUSH2 0x2E28 DUP2 MLOAD DUP1 SWAP3 DUP2 PUSH1 0x20 DUP9 ADD MSTORE PUSH1 0x20 DUP9 DUP9 ADD SWAP2 ADD PUSH2 0x2DC2 JUMP JUMPDEST ADD AND ADD ADD SWAP1 JUMP JUMPDEST SWAP1 PUSH1 0x0 SWAP2 DUP1 DUP4 MSTORE PUSH1 0x65 PUSH1 0x20 MSTORE PUSH20 0xFFFFFFFFFFFFFFFFFFFFFFFFFFFFFFFFFFFFFFFF PUSH1 0x40 DUP5 KECCAK256 SWAP3 AND SWAP2 DUP3 DUP5 MSTORE PUSH1 0x20 MSTORE PUSH1 0xFF PUSH1 0x40 DUP5 KECCAK256 SLOAD AND PUSH2 0x2E6E JUMPI POP POP POP JUMP JUMPDEST DUP1 DUP4 MSTORE PUSH1 0x65 PUSH1 0x20 MSTORE PUSH1 0x40 DUP4 KECCAK256 DUP3 DUP5 MSTORE PUSH1 0x20 MSTORE PUSH1 0x40 DUP4 KECCAK256 PUSH32 0xFFFFFFFFFFFFFFFFFFFFFFFFFFFFFFFFFFFFFFFFFFFFFFFFFFFFFFFFFFFFFF00 DUP2 SLOAD AND SWAP1 SSTORE PUSH32 0xF6391F5C32D9C69D2A47EA670B442974B53935D1EDC7FD64EB21E047A839171B CALLER SWAP4 DUP1 LOG4 JUMP JUMPDEST ISZERO PUSH2 0x2ED8 JUMPI JUMP JUMPDEST PUSH1 0x84 PUSH1 0x40 MLOAD PUSH32 0x8C379A000000000000000000000000000000000000000000000000000000000 DUP2 MSTORE PUSH1 0x20 PUSH1 0x4 DUP3 ADD MSTORE PUSH1 0x2C PUSH1 0x24 DUP3 ADD MSTORE PUSH32 0x46756E6374696F6E206D7573742062652063616C6C6564207468726F75676820 PUSH1 0x44 DUP3 ADD MSTORE PUSH32 0x64656C656761746563616C6C0000000000000000000000000000000000000000 PUSH1 0x64 DUP3 ADD MSTORE REVERT JUMPDEST ISZERO PUSH2 0x2F63 JUMPI JUMP JUMPDEST PUSH1 0x84 PUSH1 0x40 MLOAD PUSH32 0x8C379A000000000000000000000000000000000000000000000000000000000 DUP2 MSTORE PUSH1 0x20 PUSH1 0x4 DUP3 ADD MSTORE PUSH1 0x2C PUSH1 0x24 DUP3 ADD MSTORE PUSH32 0x46756E6374696F6E206D7573742062652063616C6C6564207468726F75676820 PUSH1 0x44 DUP3 ADD MSTORE PUSH32 0x6163746976652070726F78790000000000000000000000000000000000000000 PUSH1 0x64 DUP3 ADD MSTORE REVERT JUMPDEST DUP1 EXTCODESIZE ISZERO PUSH2 0x304F JUMPI PUSH20 0xFFFFFFFFFFFFFFFFFFFFFFFFFFFFFFFFFFFFFFFF PUSH32 0x360894A13BA1A3210667C828492DB98DCA3E2076CC3735A920A3CA505D382BBC SWAP2 AND PUSH32 0xFFFFFFFFFFFFFFFFFFFFFFFF0000000000000000000000000000000000000000 DUP3 SLOAD AND OR SWAP1 SSTORE JUMP JUMPDEST PUSH1 0x84 PUSH1 0x40 MLOAD PUSH32 0x8C379A000000000000000000000000000000000000000000000000000000000 DUP2 MSTORE PUSH1 0x20 PUSH1 0x4 DUP3 ADD MSTORE PUSH1 0x2D PUSH1 0x24 DUP3 ADD MSTORE PUSH32 0x455243313936373A206E657720696D706C656D656E746174696F6E206973206E PUSH1 0x44 DUP3 ADD MSTORE PUSH32 0x6F74206120636F6E747261637400000000000000000000000000000000000000 PUSH1 0x64 DUP3 ADD MSTORE REVERT JUMPDEST RETURNDATASIZE ISZERO PUSH2 0x30FE JUMPI RETURNDATASIZE SWAP1 PUSH2 0x30E4 DUP3 PUSH2 0x2634 JUMP JUMPDEST SWAP2 PUSH2 0x30F2 PUSH1 0x40 MLOAD SWAP4 DUP5 PUSH2 0x25F3 JUMP JUMPDEST DUP3 MSTORE RETURNDATASIZE PUSH1 0x0 PUSH1 0x20 DUP5 ADD RETURNDATACOPY JUMP JUMPDEST PUSH1 0x60 SWAP1 JUMP JUMPDEST SWAP1 SWAP2 SWAP1 ISZERO PUSH2 0x310F JUMPI POP SWAP1 JUMP JUMPDEST DUP2 MLOAD ISZERO PUSH2 0x311F JUMPI POP DUP1 MLOAD SWAP1 PUSH1 0x20 ADD REVERT JUMPDEST PUSH2 0x1210 SWAP1 PUSH1 0x40 MLOAD SWAP2 DUP3 SWAP2 PUSH32 0x8C379A000000000000000000000000000000000000000000000000000000000 DUP4 MSTORE PUSH1 0x4 DUP4 ADD PUSH2 0x2DE5 JUMP JUMPDEST DUP2 DUP2 MUL SWAP3 SWAP2 DUP2 ISZERO SWAP2 DUP5 DIV EQ OR ISZERO PUSH2 0x3168 JUMPI JUMP JUMPDEST PUSH32 0x4E487B7100000000000000000000000000000000000000000000000000000000 PUSH1 0x0 MSTORE PUSH1 0x11 PUSH1 0x4 MSTORE PUSH1 0x24 PUSH1 0x0 REVERT JUMPDEST SWAP2 SWAP1 DUP3 ADD DUP1 SWAP3 GT PUSH2 0x3168 JUMPI JUMP JUMPDEST SWAP1 DUP2 MLOAD DUP2 LT ISZERO PUSH2 0x31B5 JUMPI ADD PUSH1 0x20 ADD SWAP1 JUMP JUMPDEST PUSH32 0x4E487B7100000000000000000000000000000000000000000000000000000000 PUSH1 0x0 MSTORE PUSH1 0x32 PUSH1 0x4 MSTORE PUSH1 0x24 PUSH1 0x0 REVERT JUMPDEST PUSH1 0x40 MLOAD SWAP1 PUSH2 0x31F1 DUP3 PUSH2 0x258C JUMP JUMPDEST PUSH1 0x2A DUP3 MSTORE PUSH1 0x20 DUP3 ADD PUSH1 0x40 CALLDATASIZE DUP3 CALLDATACOPY DUP3 MLOAD ISZERO PUSH2 0x31B5 JUMPI PUSH1 0x30 SWAP1 MSTORE8 DUP2 MLOAD PUSH1 0x1 SWAP1 DUP2 LT ISZERO PUSH2 0x31B5 JUMPI PUSH1 0x78 PUSH1 0x21 DUP5 ADD MSTORE8 PUSH1 0x29 SWAP1 JUMPDEST DUP1 DUP3 GT PUSH2 0x328E JUMPI POP POP PUSH2 0x3230 JUMPI SWAP1 JUMP JUMPDEST PUSH1 0x64 PUSH1 0x40 MLOAD PUSH32 0x8C379A000000000000000000000000000000000000000000000000000000000 DUP2 MSTORE PUSH1 0x20 PUSH1 0x4 DUP3 ADD MSTORE PUSH1 0x20 PUSH1 0x24 DUP3 ADD MSTORE PUSH32 0x537472696E67733A20686578206C656E67746820696E73756666696369656E74 PUSH1 0x44 DUP3 ADD MSTORE REVERT JUMPDEST SWAP1 SWAP2 PUSH1 0xF DUP2 AND PUSH1 0x10 DUP2 LT ISZERO PUSH2 0x332B JUMPI PUSH32 0x3031323334353637383961626364656600000000000000000000000000000000 SWAP1 BYTE PUSH2 0x32CA DUP5 DUP7 PUSH2 0x31A4 JUMP JUMPDEST MSTORE8 PUSH1 0x4 SHR SWAP2 DUP1 ISZERO PUSH2 0x32FD JUMPI PUSH32 0xFFFFFFFFFFFFFFFFFFFFFFFFFFFFFFFFFFFFFFFFFFFFFFFFFFFFFFFFFFFFFFFF ADD SWAP1 PUSH2 0x3220 JUMP JUMPDEST PUSH1 0x24 PUSH1 0x0 PUSH32 0x4E487B7100000000000000000000000000000000000000000000000000000000 DUP2 MSTORE PUSH1 0x11 PUSH1 0x4 MSTORE REVERT JUMPDEST PUSH1 0x24 PUSH1 0x0 PUSH32 0x4E487B7100000000000000000000000000000000000000000000000000000000 DUP2 MSTORE PUSH1 0x32 PUSH1 0x4 MSTORE REVERT JUMPDEST ISZERO PUSH2 0x3360 JUMPI JUMP JUMPDEST PUSH1 0x84 PUSH1 0x40 MLOAD PUSH32 0x8C379A000000000000000000000000000000000000000000000000000000000 DUP2 MSTORE PUSH1 0x20 PUSH1 0x4 DUP3 ADD MSTORE PUSH1 0x2B PUSH1 0x24 DUP3 ADD MSTORE PUSH32 0x496E697469616C697A61626C653A20636F6E7472616374206973206E6F742069 PUSH1 0x44 DUP3 ADD MSTORE PUSH32 0x6E697469616C697A696E67000000000000000000000000000000000000000000 PUSH1 0x64 DUP3 ADD MSTORE REVERT JUMPDEST SWAP2 SWAP1 SWAP2 PUSH2 0xFFFF DUP1 DUP1 SWAP5 AND SWAP2 AND ADD SWAP2 DUP3 GT PUSH2 0x3168 JUMPI JUMP JUMPDEST ISZERO PUSH2 0x3401 JUMPI JUMP JUMPDEST PUSH1 0x64 PUSH1 0x40 MLOAD PUSH32 0x8C379A000000000000000000000000000000000000000000000000000000000 DUP2 MSTORE PUSH1 0x20 PUSH1 0x4 DUP3 ADD MSTORE PUSH1 0xE PUSH1 0x24 DUP3 ADD MSTORE PUSH32 0x4D49534D415443485F56414C5545000000000000000000000000000000000000 PUSH1 0x44 DUP3 ADD MSTORE REVERT JUMPDEST ISZERO PUSH2 0x3466 JUMPI JUMP JUMPDEST PUSH1 0x64 PUSH1 0x40 MLOAD PUSH32 0x8C379A000000000000000000000000000000000000000000000000000000000 DUP2 MSTORE PUSH1 0x20 PUSH1 0x4 DUP3 ADD MSTORE PUSH1 0xE PUSH1 0x24 DUP3 ADD MSTORE PUSH32 0x544F4B454E5F4E4F5F56414C5545000000000000000000000000000000000000 PUSH1 0x44 DUP3 ADD MSTORE REVERT JUMPDEST ISZERO PUSH2 0x34CB JUMPI JUMP JUMPDEST PUSH1 0x64 PUSH1 0x40 MLOAD PUSH32 0x8C379A000000000000000000000000000000000000000000000000000000000 DUP2 MSTORE PUSH1 0x20 PUSH1 0x4 DUP3 ADD MSTORE PUSH1 0x1F PUSH1 0x24 DUP3 ADD MSTORE PUSH32 0x5265656E7472616E637947756172643A207265656E7472616E742063616C6C00 PUSH1 0x44 DUP3 ADD MSTORE REVERT JUMPDEST SWAP1 DUP2 PUSH1 0x20 SWAP2 SUB SLT PUSH2 0x2564 JUMPI MLOAD DUP1 ISZERO ISZERO DUP2 SUB PUSH2 0x2564 JUMPI SWAP1 JUMP JUMPDEST SWAP2 SWAP1 DUP3 SUB SWAP2 DUP3 GT PUSH2 0x3168 JUMPI JUMP JUMPDEST ISZERO PUSH2 0x3555 JUMPI JUMP JUMPDEST PUSH1 0x64 PUSH1 0x40 MLOAD PUSH32 0x8C379A000000000000000000000000000000000000000000000000000000000 DUP2 MSTORE PUSH1 0x20 PUSH1 0x4 DUP3 ADD MSTORE PUSH1 0x13 PUSH1 0x24 DUP3 ADD MSTORE PUSH32 0x4554485F5452414E534645525F4641494C454400000000000000000000000000 PUSH1 0x44 DUP3 ADD MSTORE REVERT JUMPDEST PUSH1 0x40 MLOAD SWAP3 PUSH1 0x20 SWAP4 DUP5 DUP2 ADD SWAP2 PUSH32 0xA9059CBB00000000000000000000000000000000000000000000000000000000 DUP4 MSTORE PUSH20 0xFFFFFFFFFFFFFFFFFFFFFFFFFFFFFFFFFFFFFFFF DUP1 SWAP6 AND PUSH1 0x24 DUP4 ADD MSTORE PUSH1 0x44 DUP3 ADD MSTORE PUSH1 0x44 DUP2 MSTORE PUSH1 0x80 DUP2 ADD SWAP4 PUSH8 0xFFFFFFFFFFFFFFFF SWAP4 DUP3 DUP7 LT DUP6 DUP8 GT OR PUSH2 0x25A8 JUMPI AND SWAP3 PUSH1 0xC0 DUP3 ADD SWAP1 DUP2 GT DUP6 DUP3 LT OR PUSH2 0x25A8 JUMPI PUSH1 0x40 MSTORE DUP5 DUP5 MSTORE PUSH32 0x5361666545524332303A206C6F772D6C6576656C2063616C6C206661696C6564 PUSH1 0xA0 DUP3 ADD MSTORE DUP3 EXTCODESIZE ISZERO PUSH2 0x372B JUMPI PUSH2 0x3682 SWAP4 SWAP3 PUSH1 0x0 SWAP3 DUP4 DUP1 SWAP4 MLOAD SWAP3 GAS CALL PUSH2 0x367C PUSH2 0x30D3 JUMP JUMPDEST SWAP1 PUSH2 0x3103 JUMP JUMPDEST DUP1 MLOAD SWAP1 DUP2 PUSH2 0x368F JUMPI POP POP POP JUMP JUMPDEST DUP3 DUP1 PUSH2 0x369F SWAP4 DUP4 ADD ADD SWAP2 ADD PUSH2 0x3529 JUMP JUMPDEST ISZERO PUSH2 0x36A7 JUMPI POP JUMP JUMPDEST PUSH1 0x84 SWAP1 PUSH1 0x40 MLOAD SWAP1 PUSH32 0x8C379A000000000000000000000000000000000000000000000000000000000 DUP3 MSTORE PUSH1 0x4 DUP3 ADD MSTORE PUSH1 0x2A PUSH1 0x24 DUP3 ADD MSTORE PUSH32 0x5361666545524332303A204552433230206F7065726174696F6E20646964206E PUSH1 0x44 DUP3 ADD MSTORE PUSH32 0x6F74207375636365656400000000000000000000000000000000000000000000 PUSH1 0x64 DUP3 ADD MSTORE REVERT JUMPDEST PUSH1 0x64 DUP6 PUSH1 0x40 MLOAD SWAP1 PUSH32 0x8C379A000000000000000000000000000000000000000000000000000000000 DUP3 MSTORE PUSH1 0x4 DUP3 ADD MSTORE PUSH1 0x1D PUSH1 0x24 DUP3 ADD MSTORE PUSH32 0x416464726573733A2063616C6C20746F206E6F6E2D636F6E7472616374000000 PUSH1 0x44 DUP3 ADD MSTORE REVERT INVALID LOG2 PUSH5 0x6970667358 0x22 SLT KECCAK256 DUP14 0xD2 KECCAK256 0xED RETURN 0x4F 0xB4 PUSH30 0x8E5E46BCFFCAAF557745DC5F8D7E251D38E33E3EC02678B764736F6C6343 STOP ADDMOD EQ STOP CALLER "},"methodIdentifiers":{"DEFAULT_ADMIN_ROLE()":"a217fddf","INFLOW_ROLE()":"51a8528e","REWARDS_ROLE()":"ca4fb87c","WITHDRAW_ROLE()":"e02023a1","agents()":"58516661","distributeReward(uint256,address,uint256,address,string)":"56718145","distribution()":"5ee58efc","getRoleAdmin(bytes32)":"248a9ca3","grantRole(bytes32,address)":"2f2ff15d","handleEarlyExitPenalty(uint256,address,uint256)":"78cfaf3f","handleSlash(uint256,address,uint256)":"e772eaa7","hasRole(bytes32,address)":"91d14854","initialize(address,address)":"485cc955","poolBalances(address)":"9155ccc8","proxiableUUID()":"52d1902d","recordRewardDeposit(address,uint256)":"722e5c8b","renounceRole(bytes32,address)":"36568abe","revokeRole(bytes32,address)":"d547741f","rewardsBalance(address)":"896bdac8","setAgents(address)":"644f861b","setDistribution(uint16,uint16,uint16)":"e8f83a43","supportsInterface(bytes4)":"01ffc9a7","upgradeTo(address)":"3659cfe6","upgradeToAndCall(address,bytes)":"4f1ef286","withdrawInsurance(address,uint256,address)":"a2c97f69","withdrawTreasury(address,uint256,address)":"862a672e"}}}}}