{"contracts/Subscriptions.sol":{"Subscriptions":{"abi":[{"inputs":[],"stateMutability":"nonpayable","type":"constructor"},{"inputs":[],"name":"AuthorizationFailed","type":"error"},{"inputs":[],"name":"InvalidAddress","type":"error"},{"inputs":[],"name":"InvalidParameters","type":"error"},{"inputs":[],"name":"StreamInactive","type":"error"},{"inputs":[],"name":"SubscriptionInactive","type":"error"},{"anonymous":false,"inputs":[{"indexed":false,"internalType":"address","name":"previousAdmin","type":"address"},{"indexed":false,"internalType":"address","name":"newAdmin","type":"address"}],"name":"AdminChanged","type":"event"},{"anonymous":false,"inputs":[{"indexed":true,"internalType":"address","name":"beacon","type":"address"}],"name":"BeaconUpgraded","type":"event"},{"anonymous":false,"inputs":[{"indexed":false,"internalType":"uint8","name":"version","type":"uint8"}],"name":"Initialized","type":"event"},{"anonymous":false,"inputs":[{"indexed":false,"internalType":"address","name":"account","type":"address"}],"name":"Paused","type":"event"},{"anonymous":false,"inputs":[{"indexed":true,"internalType":"bytes32","name":"role","type":"bytes32"},{"indexed":true,"internalType":"bytes32","name":"previousAdminRole","type":"bytes32"},{"indexed":true,"internalType":"bytes32","name":"newAdminRole","type":"bytes32"}],"name":"RoleAdminChanged","type":"event"},{"anonymous":false,"inputs":[{"indexed":true,"internalType":"bytes32","name":"role","type":"bytes32"},{"indexed":true,"internalType":"address","name":"account","type":"address"},{"indexed":true,"internalType":"address","name":"sender","type":"address"}],"name":"RoleGranted","type":"event"},{"anonymous":false,"inputs":[{"indexed":true,"internalType":"bytes32","name":"role","type":"bytes32"},{"indexed":true,"internalType":"address","name":"account","type":"address"},{"indexed":true,"internalType":"address","name":"sender","type":"address"}],"name":"RoleRevoked","type":"event"},{"anonymous":false,"inputs":[{"indexed":true,"internalType":"uint256","name":"streamId","type":"uint256"},{"indexed":true,"internalType":"address","name":"payer","type":"address"},{"indexed":false,"internalType":"uint256","name":"refundedAmount","type":"uint256"}],"name":"StreamCancelled","type":"event"},{"anonymous":false,"inputs":[{"indexed":true,"internalType":"uint256","name":"streamId","type":"uint256"},{"indexed":true,"internalType":"address","name":"payer","type":"address"},{"indexed":true,"internalType":"uint256","name":"agentId","type":"uint256"},{"indexed":false,"internalType":"address","name":"asset","type":"address"},{"indexed":false,"internalType":"uint256","name":"ratePerSecond","type":"uint256"},{"indexed":false,"internalType":"uint64","name":"start","type":"uint64"},{"indexed":false,"internalType":"uint64","name":"end","type":"uint64"},{"indexed":false,"internalType":"string","name":"integrationURI","type":"string"}],"name":"StreamCreated","type":"event"},{"anonymous":false,"inputs":[{"indexed":true,"internalType":"uint256","name":"streamId","type":"uint256"},{"indexed":true,"internalType":"address","name":"recipient","type":"address"},{"indexed":false,"internalType":"uint256","name":"amount","type":"uint256"}],"name":"StreamWithdrawn","type":"event"},{"anonymous":false,"inputs":[{"indexed":true,"internalType":"uint256","name":"subscriptionId","type":"uint256"},{"indexed":true,"internalType":"address","name":"payer","type":"address"},{"indexed":false,"internalType":"uint256","name":"refundedAmount","type":"uint256"}],"name":"SubscriptionCancelled","type":"event"},{"anonymous":false,"inputs":[{"indexed":true,"internalType":"uint256","name":"subscriptionId","type":"uint256"},{"indexed":true,"internalType":"address","name":"payer","type":"address"},{"indexed":true,"internalType":"uint256","name":"agentId","type":"uint256"},{"indexed":false,"internalType":"address","name":"asset","type":"address"},{"indexed":false,"internalType":"uint256","name":"amountPerEpoch","type":"uint256"},{"indexed":false,"internalType":"uint64","name":"epochDuration","type":"uint64"},{"indexed":false,"internalType":"string","name":"metadataURI","type":"string"}],"name":"SubscriptionCreated","type":"event"},{"anonymous":false,"inputs":[{"indexed":true,"internalType":"uint256","name":"subscriptionId","type":"uint256"},{"indexed":false,"internalType":"uint256","name":"amount","type":"uint256"},{"indexed":true,"internalType":"address","name":"funder","type":"address"}],"name":"SubscriptionFunded","type":"event"},{"anonymous":false,"inputs":[{"indexed":true,"internalType":"uint256","name":"subscriptionId","type":"uint256"},{"indexed":true,"internalType":"address","name":"recipient","type":"address"},{"indexed":false,"internalType":"uint256","name":"amount","type":"uint256"},{"indexed":false,"internalType":"uint64","name":"nextCharge","type":"uint64"}],"name":"SubscriptionProcessed","type":"event"},{"anonymous":false,"inputs":[{"indexed":false,"internalType":"address","name":"account","type":"address"}],"name":"Unpaused","type":"event"},{"anonymous":false,"inputs":[{"indexed":true,"internalType":"address","name":"implementation","type":"address"}],"name":"Upgraded","type":"event"},{"inputs":[],"name":"DEFAULT_ADMIN_ROLE","outputs":[{"internalType":"bytes32","name":"","type":"bytes32"}],"stateMutability":"view","type":"function"},{"inputs":[],"name":"PAUSER_ROLE","outputs":[{"internalType":"bytes32","name":"","type":"bytes32"}],"stateMutability":"view","type":"function"},{"inputs":[],"name":"agents","outputs":[{"internalType":"contract IAgentsRegistry","name":"","type":"address"}],"stateMutability":"view","type":"function"},{"inputs":[{"internalType":"uint256","name":"streamId","type":"uint256"}],"name":"cancelStream","outputs":[],"stateMutability":"nonpayable","type":"function"},{"inputs":[{"internalType":"uint256","name":"subscriptionId","type":"uint256"}],"name":"cancelSubscription","outputs":[],"stateMutability":"nonpayable","type":"function"},{"inputs":[{"internalType":"uint256","name":"agentId","type":"uint256"},{"internalType":"address","name":"asset","type":"address"},{"internalType":"uint256","name":"totalAmount","type":"uint256"},{"internalType":"uint64","name":"start","type":"uint64"},{"internalType":"uint64","name":"end","type":"uint64"},{"internalType":"string","name":"integrationURI","type":"string"}],"name":"createStream","outputs":[{"internalType":"uint256","name":"streamId","type":"uint256"}],"stateMutability":"payable","type":"function"},{"inputs":[{"internalType":"uint256","name":"agentId","type":"uint256"},{"internalType":"address","name":"asset","type":"address"},{"internalType":"uint256","name":"amountPerEpoch","type":"uint256"},{"internalType":"uint64","name":"epochDuration","type":"uint64"},{"internalType":"uint8","name":"prefundEpochs","type":"uint8"},{"internalType":"string","name":"metadataURI","type":"string"}],"name":"createSubscription","outputs":[{"internalType":"uint256","name":"subscriptionId","type":"uint256"}],"stateMutability":"payable","type":"function"},{"inputs":[{"internalType":"uint256","name":"subscriptionId","type":"uint256"},{"internalType":"uint8","name":"epochs","type":"uint8"}],"name":"fundSubscription","outputs":[],"stateMutability":"payable","type":"function"},{"inputs":[{"internalType":"bytes32","name":"role","type":"bytes32"}],"name":"getRoleAdmin","outputs":[{"internalType":"bytes32","name":"","type":"bytes32"}],"stateMutability":"view","type":"function"},{"inputs":[{"internalType":"uint256","name":"streamId","type":"uint256"}],"name":"getStream","outputs":[{"components":[{"internalType":"address","name":"payer","type":"address"},{"internalType":"uint256","name":"agentId","type":"uint256"},{"internalType":"address","name":"asset","type":"address"},{"internalType":"uint256","name":"ratePerSecond","type":"uint256"},{"internalType":"uint64","name":"start","type":"uint64"},{"internalType":"uint64","name":"end","type":"uint64"},{"internalType":"uint256","name":"deposited","type":"uint256"},{"internalType":"uint256","name":"withdrawn","type":"uint256"},{"internalType":"bool","name":"active","type":"bool"},{"internalType":"string","name":"integrationURI","type":"string"}],"internalType":"struct Subscriptions.Stream","name":"","type":"tuple"}],"stateMutability":"view","type":"function"},{"inputs":[{"internalType":"uint256","name":"subscriptionId","type":"uint256"}],"name":"getSubscription","outputs":[{"components":[{"internalType":"address","name":"payer","type":"address"},{"internalType":"uint256","name":"agentId","type":"uint256"},{"internalType":"address","name":"asset","type":"address"},{"internalType":"uint256","name":"amountPerEpoch","type":"uint256"},{"internalType":"uint64","name":"epochDuration","type":"uint64"},{"internalType":"uint64","name":"nextCharge","type":"uint64"},{"internalType":"uint256","name":"balance","type":"uint256"},{"internalType":"bool","name":"active","type":"bool"},{"internalType":"string","name":"metadataURI","type":"string"}],"internalType":"struct Subscriptions.Subscription","name":"","type":"tuple"}],"stateMutability":"view","type":"function"},{"inputs":[{"internalType":"bytes32","name":"role","type":"bytes32"},{"internalType":"address","name":"account","type":"address"}],"name":"grantRole","outputs":[],"stateMutability":"nonpayable","type":"function"},{"inputs":[{"internalType":"bytes32","name":"role","type":"bytes32"},{"internalType":"address","name":"account","type":"address"}],"name":"hasRole","outputs":[{"internalType":"bool","name":"","type":"bool"}],"stateMutability":"view","type":"function"},{"inputs":[{"internalType":"address","name":"admin","type":"address"},{"internalType":"address","name":"agentsRegistry","type":"address"}],"name":"initialize","outputs":[],"stateMutability":"nonpayable","type":"function"},{"inputs":[],"name":"pause","outputs":[],"stateMutability":"nonpayable","type":"function"},{"inputs":[],"name":"paused","outputs":[{"internalType":"bool","name":"","type":"bool"}],"stateMutability":"view","type":"function"},{"inputs":[{"internalType":"uint256","name":"subscriptionId","type":"uint256"}],"name":"processSubscription","outputs":[],"stateMutability":"nonpayable","type":"function"},{"inputs":[],"name":"proxiableUUID","outputs":[{"internalType":"bytes32","name":"","type":"bytes32"}],"stateMutability":"view","type":"function"},{"inputs":[{"internalType":"bytes32","name":"role","type":"bytes32"},{"internalType":"address","name":"account","type":"address"}],"name":"renounceRole","outputs":[],"stateMutability":"nonpayable","type":"function"},{"inputs":[{"internalType":"bytes32","name":"role","type":"bytes32"},{"internalType":"address","name":"account","type":"address"}],"name":"revokeRole","outputs":[],"stateMutability":"nonpayable","type":"function"},{"inputs":[{"internalType":"address","name":"newAgents","type":"address"}],"name":"setAgents","outputs":[],"stateMutability":"nonpayable","type":"function"},{"inputs":[],"name":"streamCount","outputs":[{"internalType":"uint256","name":"","type":"uint256"}],"stateMutability":"view","type":"function"},{"inputs":[],"name":"subscriptionCount","outputs":[{"internalType":"uint256","name":"","type":"uint256"}],"stateMutability":"view","type":"function"},{"inputs":[{"internalType":"bytes4","name":"interfaceId","type":"bytes4"}],"name":"supportsInterface","outputs":[{"internalType":"bool","name":"","type":"bool"}],"stateMutability":"view","type":"function"},{"inputs":[],"name":"unpause","outputs":[],"stateMutability":"nonpayable","type":"function"},{"inputs":[{"internalType":"address","name":"newImplementation","type":"address"}],"name":"upgradeTo","outputs":[],"stateMutability":"nonpayable","type":"function"},{"inputs":[{"internalType":"address","name":"newImplementation","type":"address"},{"internalType":"bytes","name":"data","type":"bytes"}],"name":"upgradeToAndCall","outputs":[],"stateMutability":"payable","type":"function"},{"inputs":[{"internalType":"uint256","name":"streamId","type":"uint256"}],"name":"withdrawFromStream","outputs":[],"stateMutability":"nonpayable","type":"function"}],"evm":{"bytecode":{"linkReferences":{},"object":"60a08060405234620000e157306080526000549060ff8260081c166200008f575060ff8082161062000053575b60405161403c9081620000e78239608051818181610cc701528181610e4301526122930152f35b60ff90811916176000557f7f26b83ff96e1f2b6a682f133852f6798a09c465da95921460cefb3847402498602060405160ff8152a1386200002c565b62461bcd60e51b815260206004820152602760248201527f496e697469616c697a61626c653a20636f6e747261637420697320696e697469604482015266616c697a696e6760c81b6064820152608490fd5b600080fdfe608080604052600436101561001357600080fd5b60003560e01c90816301ffc9a714612b3d57508063173b6d9014612b0057806321235083146129d2578063248a9ca3146129855780632f2ff15d146128885780633100fbeb1461269c57806336568abe146125b85780633659cfe6146122435780633a597f48146120ab5780633befaadc14611c0f5780633c59302d146116525780633f4ba83a14611560578063485cc955146111ab5780634f1ef28614610d9b57806352d1902d14610c815780635851666114610c2e5780635c975abb14610bed578063644f861b14610b3a5780636db9241b146108a35780638456cb591461080d578063894e9a0d1461061357806389d0e119146105d657806391d148541461055d578063a217fddf14610523578063d547741f146104c4578063dc311dd3146102e5578063e63ab1e91461028c5763e80106461461015357600080fd5b60407ffffffffffffffffffffffffffffffffffffffffffffffffffffffffffffffffc360112610287576004356024359060ff8216809203610287576101976138cd565b8060005261015f60205260406000209160ff6006840154161561025d576101c4600591600385015461366d565b9273ffffffffffffffffffffffffffffffffffffffff600282015416801560001461023157506101f5843414613acc565b01610201838254613680565b90556040519182527fc4cf5ac5547453719ff21be0eeb0578367844fc842d192b34f442ec64ceeb19560203393a3005b61023b3415613a67565b8480610249575b50506101f5565b6102569130903390613b9d565b3884610242565b60046040517f93ca83fe000000000000000000000000000000000000000000000000000000008152fd5b600080fd5b346102875760007ffffffffffffffffffffffffffffffffffffffffffffffffffffffffffffffffc3601126102875760206040517f65d7a28e3265b37a6474929f336521b332c1681b933f6cb9f3376673440d862a8152f35b346102875760207ffffffffffffffffffffffffffffffffffffffffffffffffffffffffffffffffc36011261028757606061010060405161032581612ca1565b60008152600060208201526000604082015260008382015260006080820152600060a0820152600060c0820152600060e0820152015260043560005261015f602052610100604060002061040d60076040519261038184612ca1565b73ffffffffffffffffffffffffffffffffffffffff81541684526001810154602085015273ffffffffffffffffffffffffffffffffffffffff60028201541660408501526003810154606085015267ffffffffffffffff6004820154818116608087015260401c1660a0850152600581015460c085015260ff600682015416151560e08501520161398a565b828201526104c06040519283926020845273ffffffffffffffffffffffffffffffffffffffff81511660208501526020810151604085015273ffffffffffffffffffffffffffffffffffffffff60408201511660608501526060810151608085015267ffffffffffffffff60808201511660a085015267ffffffffffffffff60a08201511660c085015260c081015160e085015260e0810151151582850152015161012080840152610140830190612d94565b0390f35b346102875760407ffffffffffffffffffffffffffffffffffffffffffffffffffffffffffffffffc36011261028757610521600435610501612bf9565b9080600052606560205261051c600160406000200154613203565b61333f565b005b346102875760007ffffffffffffffffffffffffffffffffffffffffffffffffffffffffffffffffc36011261028757602060405160008152f35b346102875760407ffffffffffffffffffffffffffffffffffffffffffffffffffffffffffffffffc36011261028757610594612bf9565b600435600052606560205273ffffffffffffffffffffffffffffffffffffffff60406000209116600052602052602060ff604060002054166040519015158152f35b346102875760007ffffffffffffffffffffffffffffffffffffffffffffffffffffffffffffffffc36011261028757602061016254604051908152f35b346102875760207ffffffffffffffffffffffffffffffffffffffffffffffffffffffffffffffffc36011261028757606061012060405161065381612c84565b60008152600060208201526000604082015260008382015260006080820152600060a0820152600060c0820152600060e082015260006101008201520152600435600052610160602052610120604060002061074e6008604051926106b784612c84565b73ffffffffffffffffffffffffffffffffffffffff81541684526001810154602085015273ffffffffffffffffffffffffffffffffffffffff60028201541660408501526003810154606085015267ffffffffffffffff6004820154818116608087015260401c1660a0850152600581015460c0850152600681015460e085015260ff60078201541615156101008501520161398a565b828201526104c06040519283926020845273ffffffffffffffffffffffffffffffffffffffff81511660208501526020810151604085015273ffffffffffffffffffffffffffffffffffffffff60408201511660608501526060810151608085015267ffffffffffffffff60808201511660a085015267ffffffffffffffff60a08201511660c085015260c081015160e085015260e0810151610100850152610100810151151582850152015161014080840152610160830190612d94565b346102875760007ffffffffffffffffffffffffffffffffffffffffffffffffffffffffffffffffc3601126102875761084461308d565b61084c6138cd565b60017fffffffffffffffffffffffffffffffffffffffffffffffffffffffffffffff0060c954161760c9557f62e78cea01bee320cd4e420270b5ea74000d11b0c9f74754ebdbfc544b05a2586020604051338152a1005b34610287576020807ffffffffffffffffffffffffffffffffffffffffffffffffffffffffffffffffc360112610287576004356108e560026097541415613ddc565b60026097558060005261016082526040600020600781019260ff84541615610b105773ffffffffffffffffffffffffffffffffffffffff8083541633141580610aed575b610ac35761093683613e5b565b92836109c4575b7ffeed183d9f143664e4ca27ca57080be96d765ab4bff9d02e3bb0a9b04e149c2593506005810180549061097660068401548093613da3565b977fffffffffffffffffffffffffffffffffffffffffffffffffffffffffffffff008154169055556109b386836002840154168484541690613f03565b541693604051908152a36001609755005b600681016109d3858254613680565b9055816101635416938360018301546024604051809881937f6f6bf11800000000000000000000000000000000000000000000000000000000835260048301525afa8015610ab7577fb8794a93ad70d58bd94788f8523cd8ebcff47f5541f8816ade60c636f1b57827858589937ffeed183d9f143664e4ca27ca57080be96d765ab4bff9d02e3bb0a9b04e149c2599600091610a8a575b50610a7c86828460028b015416613f03565b6040519586521693a361093d565b610aaa9150833d8511610ab0575b610aa28183612cf6565b810190613db0565b8c610a6a565b503d610a98565b6040513d6000823e3d90fd5b60046040517f9c7893c0000000000000000000000000000000000000000000000000000000008152fd5b506000805260658252604060002033600052825260ff6040600020541615610929565b60046040517fcb3c54e9000000000000000000000000000000000000000000000000000000008152fd5b346102875760207ffffffffffffffffffffffffffffffffffffffffffffffffffffffffffffffffc3601126102875773ffffffffffffffffffffffffffffffffffffffff610b86612c1c565b610b8e612dd7565b168015610bc35761016380547fffffffffffffffffffffffff0000000000000000000000000000000000000000169091179055005b60046040517fe6c4247b000000000000000000000000000000000000000000000000000000008152fd5b346102875760007ffffffffffffffffffffffffffffffffffffffffffffffffffffffffffffffffc36011261028757602060ff60c954166040519015158152f35b346102875760007ffffffffffffffffffffffffffffffffffffffffffffffffffffffffffffffffc36011261028757602073ffffffffffffffffffffffffffffffffffffffff6101635416604051908152f35b346102875760007ffffffffffffffffffffffffffffffffffffffffffffffffffffffffffffffffc3601126102875773ffffffffffffffffffffffffffffffffffffffff7f0000000000000000000000000000000000000000000000000000000000000000163003610d175760206040517f360894a13ba1a3210667c828492db98dca3e2076cc3735a920a3ca505d382bbc8152f35b60846040517f08c379a000000000000000000000000000000000000000000000000000000000815260206004820152603860248201527f555550535570677261646561626c653a206d757374206e6f742062652063616c60448201527f6c6564207468726f7567682064656c656761746563616c6c00000000000000006064820152fd5b60407ffffffffffffffffffffffffffffffffffffffffffffffffffffffffffffffffc36011261028757610dcd612c1c565b602490813567ffffffffffffffff8111610287573660238201121561028757806004013590610dfb82612d37565b610e086040519182612cf6565b828152602092838201923687838301011161028757816000928887930186378301015273ffffffffffffffffffffffffffffffffffffffff807f00000000000000000000000000000000000000000000000000000000000000001690610e70823014156133e1565b610e9f7f360894a13ba1a3210667c828492db98dca3e2076cc3735a920a3ca505d382bbc92828454161461346c565b610ea7612dd7565b7f4910fdfa16fed3260ed0e7147f7cc6da11a60208b5b9406d12a635614ffd91435460ff1615610ee057505050505061052191506134f7565b85949516906040517f52d1902d0000000000000000000000000000000000000000000000000000000081528681600481865afa6000918161117c575b50610fa457608487602e8a604051927f08c379a000000000000000000000000000000000000000000000000000000000845260048401528201527f45524331393637557067726164653a206e657720696d706c656d656e7461746960448201527f6f6e206973206e6f7420555550530000000000000000000000000000000000006064820152fd5b969192939496036110f957610fb8866134f7565b604051917fbc7cd75a20ee27fd9adebab32041f755214dbc6bffa90cc0225b39da2e5c2d3b600080a28251158015906110f1575b610ff257005b853b1561107157505061052193600092839251915af46110106135e3565b907f416464726573733a206c6f772d6c6576656c2064656c65676174652063616c6c6040519361103f85612cbe565b602785528401527f206661696c6564000000000000000000000000000000000000000000000000006040840152613613565b906026608492867f08c379a000000000000000000000000000000000000000000000000000000000845260048401528201527f416464726573733a2064656c65676174652063616c6c20746f206e6f6e2d636f60448201527f6e747261637400000000000000000000000000000000000000000000000000006064820152fd5b506001610fec565b846029608492604051927f08c379a000000000000000000000000000000000000000000000000000000000845260048401528201527f45524331393637557067726164653a20756e737570706f727465642070726f7860448201527f6961626c655555494400000000000000000000000000000000000000000000006064820152fd5b9091508781813d83116111a4575b6111948183612cf6565b8101031261028757519089610f1c565b503d61118a565b346102875760407ffffffffffffffffffffffffffffffffffffffffffffffffffffffffffffffffc360112610287576111e2612c1c565b6111ea612bf9565b906000549060ff92838360081c161591828093611554575b801561153e575b156114ba576001947fffffffffffffffffffffffffffffffffffffffffffffffffffffffffffffff009484878783161760005561148b575b5073ffffffffffffffffffffffffffffffffffffffff80921680158015611481575b610bc3576112b08260005460081c1661127b81613842565b61128481613842565b61128d81613842565b8860975561129a81613842565b6112a381613842565b8760c9541660c955613842565b60008181527fffdfc1249c027f9191656349feb0761381bb32c9f557e01f419fd08754bf5a1b6020908152604090912054909690831615611434575b7f65d7a28e3265b37a6474929f336521b332c1681b933f6cb9f3376673440d862a928360005260658852604060002060008a82018181549155867fbd79b86ffe0ab8e8776151514217cd7cacd52c909f66475c3af44e129f0b00ff8380a483600052885260406000205416156113e5575b50505061016391167fffffffffffffffffffffffff000000000000000000000000000000000000000082541617905561139257005b7f7f26b83ff96e1f2b6a682f133852f6798a09c465da95921460cefb3847402498917fffffffffffffffffffffffffffffffffffffffffffffffffffffffffffff00ff60005416600055604051908152a1005b826000526065875260406000208260005287528760406000209182541617905533917f2f8788117e7eff1d82e926ec794901d17c78024a50270940304540a733656f0d600080a485808061135d565b6000805260658752604060002082600052875260406000208882825416179055338260007f2f8788117e7eff1d82e926ec794901d17c78024a50270940304540a733656f0d8180a46112ec565b5082841615611263565b7fffffffffffffffffffffffffffffffffffffffffffffffffffffffffffff0000166101011760005586611241565b60846040517f08c379a000000000000000000000000000000000000000000000000000000000815260206004820152602e60248201527f496e697469616c697a61626c653a20636f6e747261637420697320616c72656160448201527f647920696e697469616c697a65640000000000000000000000000000000000006064820152fd5b50303b1580156112095750600185851614611209565b50600185851610611202565b346102875760007ffffffffffffffffffffffffffffffffffffffffffffffffffffffffffffffffc3601126102875761159761308d565b60c95460ff8116156115f4577fffffffffffffffffffffffffffffffffffffffffffffffffffffffffffffff001660c9557f5db9ee0a495bf2e6ff9c91a7834c1ba4fdd244a5e8aa4e537bd38aeae4b073aa6020604051338152a1005b60646040517f08c379a000000000000000000000000000000000000000000000000000000000815260206004820152601460248201527f5061757361626c653a206e6f74207061757365640000000000000000000000006044820152fd5b60c07ffffffffffffffffffffffffffffffffffffffffffffffffffffffffffffffffc36011261028757611684612bf9565b61168c612c3f565b67ffffffffffffffff60843516608435036102875760a43567ffffffffffffffff8111610287576116c1903690600401612c56565b6116c96138cd565b73ffffffffffffffffffffffffffffffffffffffff9260246020856101635416604051928380927f9d18755d00000000000000000000000000000000000000000000000000000000825260043560048301525afa908115610ab757600091611be0575b5015610ac357604435158015611bc0575b611b9657848416611b77576117556044353414613acc565b67ffffffffffffffff61176a82608435613e41565b16908115611b48578160443506611aea57610162946117898654613b31565b809655856000526101606020526040600020927fffffffffffffffffffffffff0000000000000000000000000000000000000000338186541617855560043560018601556002850190838a16908254161790556044350460038401556118616004840167ffffffffffffffff84167fffffffffffffffffffffffffffffffffffffffffffffffff00000000000000008254161781556084357fffffffffffffffffffffffffffffffff0000000000000000ffffffffffffffff6fffffffffffffffff000000000000000083549260401b169116179055565b60443560058401556007830160017fffffffffffffffffffffffffffffffffffffffffffffffffffffffffffffff0082541617905567ffffffffffffffff8411611abb576118b26008840154613937565b601f8111611a70575b5095859160209760009486601f81116001146119965767ffffffffffffffff9392916003917f38dbedd197ce76d9e3f5893b821a186cf948e965001d463896d54a7efb0d984e979860009161198b575b508960011b907fffffffffffffffffffffffffffffffffffffffffffffffffffffffffffffffff8b851b1c19161760088201555b015490604051941684528984015216604082015267ffffffffffffffff60843516606082015260a060808201528061198060043596339660a0840191613b5e565b0390a4604051908152f35b90508a01358d61190b565b7fffffffffffffffffffffffffffffffffffffffffffffffffffffffffffffffe01695600882016000528a600020908860005b898110611a5357509167ffffffffffffffff959493916003937f38dbedd197ce76d9e3f5893b821a186cf948e965001d463896d54a7efb0d984e999a10611a1d575b5050600189811b01600882015561193f565b8b01357fffffffffffffffffffffffffffffffffffffffffffffffffffffffffffffffff8b851b60f8161c191690558c80611a0b565b8b83013584558c9850600190930192918d01918a91508d016119c9565b600884016000526020600020601f860160051c81019160208710611ab1575b601f0160051c01905b818110611aa557506118bb565b60008155600101611a98565b9091508190611a8f565b7f4e487b7100000000000000000000000000000000000000000000000000000000600052604160045260246000fd5b60646040517f08c379a000000000000000000000000000000000000000000000000000000000815260206004820152600c60248201527f494e56414c49445f5241544500000000000000000000000000000000000000006044820152fd5b7f4e487b7100000000000000000000000000000000000000000000000000000000600052601260045260246000fd5b611b813415613a67565b611b916044353033878916613b9d565b611755565b60046040517fe5239090000000000000000000000000000000000000000000000000000000008152fd5b5067ffffffffffffffff811667ffffffffffffffff60843516111561173d565b611c02915060203d602011611c08575b611bfa8183612cf6565b810190613a4f565b8661172c565b503d611bf0565b60c07ffffffffffffffffffffffffffffffffffffffffffffffffffffffffffffffffc36011261028757611c41612bf9565b611c49612c3f565b6084359060ff82168092036102875767ffffffffffffffff60a43581811161028757611c79903690600401612c56565b9091611c836138cd565b73ffffffffffffffffffffffffffffffffffffffff9460246020876101635416604051928380927f9d18755d00000000000000000000000000000000000000000000000000000000825260043560048301525afa908115610ab75760009161208c575b5015610ac357604435158015612082575b611b9657611d079060443561366d565b9386861661205f57611d1a853414613acc565b61016195611d288754613b31565b8097558660005261015f60205260406000207fffffffffffffffffffffffff0000000000000000000000000000000000000000338183541617825560043560018301556002820190838b16908254161790556044356003820155611e00600482018585167fffffffffffffffffffffffffffffffffffffffffffffffff000000000000000082541617815585611dc081871642613680565b82547fffffffffffffffffffffffffffffffff0000000000000000ffffffffffffffff16911660401b6fffffffffffffffff000000000000000016179055565b8660058201556006810160017fffffffffffffffffffffffffffffffffffffffffffffffffffffffffffffff00825416179055838511611abb57611e476007820154613937565b601f8111612014575b509287926020999286956000601f8811600114611f46577faa3fd16d79e93469ffbeb4256c069faa0857ce026950ed9a9456a7b8c49dfb6a9697600791600091611f3b575b508960011b907fffffffffffffffffffffffffffffffffffffffffffffffffffffffffffffffff8b60031b1c1916179101555b604051931683526044358a8401521660408201526080606082015280611ef76004359633966080840191613b5e565b0390a480611f09575b50604051908152f35b604051908152817fc4cf5ac5547453719ff21be0eeb0578367844fc842d192b34f442ec64ceeb195843393a382611f00565b90508a01358e611e95565b967fffffffffffffffffffffffffffffffffffffffffffffffffffffffffffffffe01696600782016000528c600020908960005b8c8b8210611ff75750507faa3fd16d79e93469ffbeb4256c069faa0857ce026950ed9a9456a7b8c49dfb6a989910611fbf575b50506007600189811b01910155611ec8565b7fffffffffffffffffffffffffffffffffffffffffffffffffffffffffffffffff60f88b60031b161c19908b01351690558c80611fad565b83013584558e99506001909301926020928301928c925001611f7a565b600782016000526020600020601f870160051c81019160208810612055575b601f0160051c01905b8181106120495750611e50565b6000815560010161203c565b9091508190612033565b6120693415613a67565b8415611d1a5761207d853033898b16613b9d565b611d1a565b5081851615611cf7565b6120a5915060203d602011611c0857611bfa8183612cf6565b88611ce6565b34610287576020807ffffffffffffffffffffffffffffffffffffffffffffffffffffffffffffffffc36011261028757600435906120ee60026097541415613ddc565b60026097556120fb6138cd565b816000526101608152604060002090600782019260ff84541615610b105773ffffffffffffffffffffffffffffffffffffffff90816101635416908360018601546024604051809581937f6f6bf11800000000000000000000000000000000000000000000000000000000835260048301525afa918215610ab757600092612224575b5082821691823303610ac35761219386613e5b565b948515611b9657856121e06005977fb8794a93ad70d58bd94788f8523cd8ebcff47f5541f8816ade60c636f1b578279460068b01986121d3838b54613680565b8a5560028c015416613f03565b604051908152a354910154146121f8575b6001609755005b7fffffffffffffffffffffffffffffffffffffffffffffffffffffffffffffff008154169055806121f1565b61223c919250843d8611610ab057610aa28183612cf6565b908661217e565b34610287576020807ffffffffffffffffffffffffffffffffffffffffffffffffffffffffffffffffc3601126102875761227b612c1c565b73ffffffffffffffffffffffffffffffffffffffff807f0000000000000000000000000000000000000000000000000000000000000000166122bf813014156133e1565b6122ee7f360894a13ba1a3210667c828492db98dca3e2076cc3735a920a3ca505d382bbc91838354161461346c565b6122f6612dd7565b604051908482019282841067ffffffffffffffff851117611abb57836040526000835260ff7f4910fdfa16fed3260ed0e7147f7cc6da11a60208b5b9406d12a635614ffd91435416600014612353575050505061052191506134f7565b8416906040517f52d1902d0000000000000000000000000000000000000000000000000000000081528681600481865afa60009181612589575b5061241657608487604051907f08c379a00000000000000000000000000000000000000000000000000000000082526004820152602e60248201527f45524331393637557067726164653a206e657720696d706c656d656e7461746960448201527f6f6e206973206e6f7420555550530000000000000000000000000000000000006064820152fd5b0361250557612424846134f7565b604051907fbc7cd75a20ee27fd9adebab32041f755214dbc6bffa90cc0225b39da2e5c2d3b600080a28151158015906124fd575b61245e57005b833b1561247c57506105219392600092839251915af46110106135e3565b80857f08c379a000000000000000000000000000000000000000000000000000000000608493526004820152602660248201527f416464726573733a2064656c65676174652063616c6c20746f206e6f6e2d636f60448201527f6e747261637400000000000000000000000000000000000000000000000000006064820152fd5b506000612458565b608485604051907f08c379a00000000000000000000000000000000000000000000000000000000082526004820152602960248201527f45524331393637557067726164653a20756e737570706f727465642070726f7860448201527f6961626c655555494400000000000000000000000000000000000000000000006064820152fd5b9091508781813d83116125b1575b6125a18183612cf6565b810103126102875751908861238d565b503d612597565b346102875760407ffffffffffffffffffffffffffffffffffffffffffffffffffffffffffffffffc360112610287576125ef612bf9565b3373ffffffffffffffffffffffffffffffffffffffff821603612618576105219060043561333f565b60846040517f08c379a000000000000000000000000000000000000000000000000000000000815260206004820152602f60248201527f416363657373436f6e74726f6c3a2063616e206f6e6c792072656e6f756e636560448201527f20726f6c657320666f722073656c6600000000000000000000000000000000006064820152fd5b34610287576020807ffffffffffffffffffffffffffffffffffffffffffffffffffffffffffffffffc360112610287576004356126d76138cd565b8060005261015f825260406000209160ff6006840154161561025d57600483019283549167ffffffffffffffff92838160401c16804210611b965760058401918254906003860193845492838110611b9657889361273491613da3565b905516018481116128595786547fffffffffffffffffffffffffffffffff0000000000000000ffffffffffffffff1660409190911b6fffffffffffffffff00000000000000001617865573ffffffffffffffffffffffffffffffffffffffff91826101635416948160018601546024604051809981937f6f6bf11800000000000000000000000000000000000000000000000000000000835260048301525afa928315610ab757846040967fce70c8ced76327a9674f875ee5996c86bb12a3664251d8c69d3333f5c11d46a398600096612831575b5090600261281d9201541685835491613f03565b549754851c169084519788528701521693a3005b61281d92919650612850600291873d8911610ab057610aa28183612cf6565b96919250612809565b7f4e487b7100000000000000000000000000000000000000000000000000000000600052601160045260246000fd5b346102875760407ffffffffffffffffffffffffffffffffffffffffffffffffffffffffffffffffc360112610287576004356128c2612bf9565b8160005260656020526128dc600160406000200154613203565b81600052606560205273ffffffffffffffffffffffffffffffffffffffff60406000209116908160005260205260ff604060002054161561291957005b816000526065602052604060002081600052602052604060002060017fffffffffffffffffffffffffffffffffffffffffffffffffffffffffffffff0082541617905533917f2f8788117e7eff1d82e926ec794901d17c78024a50270940304540a733656f0d600080a4005b346102875760207ffffffffffffffffffffffffffffffffffffffffffffffffffffffffffffffffc3601126102875760043560005260656020526020600160406000200154604051908152f35b346102875760207ffffffffffffffffffffffffffffffffffffffffffffffffffffffffffffffffc36011261028757600435612a1360026097541415613ddc565b60026097558060005261015f602052604060002090600682019182549260ff84161561025d5773ffffffffffffffffffffffffffffffffffffffff80835416928333141580612ac7575b610ac3576109b37f9063fcf9b5994653a0a7b032c31db9a1b0e1c5f720c586f51aef10b000ada060946020947fffffffffffffffffffffffffffffffffffffffffffffffffffffffffffffff00600099169055600583019081549889925584600285015416613f03565b503360009081527fffdfc1249c027f9191656349feb0761381bb32c9f557e01f419fd08754bf5a1b602052604090205460ff1615612a5d565b346102875760007ffffffffffffffffffffffffffffffffffffffffffffffffffffffffffffffffc36011261028757602061016154604051908152f35b346102875760207ffffffffffffffffffffffffffffffffffffffffffffffffffffffffffffffffc36011261028757600435907fffffffff00000000000000000000000000000000000000000000000000000000821680920361028757817f7965db0b0000000000000000000000000000000000000000000000000000000060209314908115612bcf575b5015158152f35b7f01ffc9a70000000000000000000000000000000000000000000000000000000091501483612bc8565b6024359073ffffffffffffffffffffffffffffffffffffffff8216820361028757565b6004359073ffffffffffffffffffffffffffffffffffffffff8216820361028757565b6064359067ffffffffffffffff8216820361028757565b9181601f840112156102875782359167ffffffffffffffff8311610287576020838186019501011161028757565b610140810190811067ffffffffffffffff821117611abb57604052565b610120810190811067ffffffffffffffff821117611abb57604052565b6060810190811067ffffffffffffffff821117611abb57604052565b6080810190811067ffffffffffffffff821117611abb57604052565b90601f7fffffffffffffffffffffffffffffffffffffffffffffffffffffffffffffffe0910116810190811067ffffffffffffffff821117611abb57604052565b67ffffffffffffffff8111611abb57601f017fffffffffffffffffffffffffffffffffffffffffffffffffffffffffffffffe01660200190565b60005b838110612d845750506000910152565b8181015183820152602001612d74565b907fffffffffffffffffffffffffffffffffffffffffffffffffffffffffffffffe0601f602093612dd081518092818752878088019101612d71565b0116010190565b3360009081527fffdfc1249c027f9191656349feb0761381bb32c9f557e01f419fd08754bf5a1b602090815260408083205490929060ff1615612e1957505050565b612e22336136cd565b9080845190612e3082612cda565b6042825284820192606036853782511561306057603084538251906001918210156130605790607860218501536041915b818311612f9557505050612f39576048612f35938693612eff93612ef098519889937f416363657373436f6e74726f6c3a206163636f756e74200000000000000000008a860152612ebb815180928c603789019101612d71565b8401917f206973206d697373696e6720726f6c6520000000000000000000000000000000603784015251809386840190612d71565b01036028810187520185612cf6565b519283927f08c379a000000000000000000000000000000000000000000000000000000000845260048401526024830190612d94565b0390fd5b6064848651907f08c379a000000000000000000000000000000000000000000000000000000000825280600483015260248201527f537472696e67733a20686578206c656e67746820696e73756666696369656e746044820152fd5b909192600f81166010811015613033577f3031323334353637383961626364656600000000000000000000000000000000901a612fd2858761368d565b5360041c928015613006577fffffffffffffffffffffffffffffffffffffffffffffffffffffffffffffffff019190612e61565b6024827f4e487b710000000000000000000000000000000000000000000000000000000081526011600452fd5b6024837f4e487b710000000000000000000000000000000000000000000000000000000081526032600452fd5b807f4e487b7100000000000000000000000000000000000000000000000000000000602492526032600452fd5b3360009081527fbfe93621c6aa2dbf737e9056c9b79e4d30ee4f6b28b18be2cb71aac8a7bf258e602090815260408083205490927f65d7a28e3265b37a6474929f336521b332c1681b933f6cb9f3376673440d862a9160ff16156130f15750505050565b6130fa336136cd565b9184519061310782612cda565b6042825284820192606036853782511561306057603084538251906001918210156130605790607860218501536041915b81831161319257505050612f39576048612f35938693612eff93612ef098519889937f416363657373436f6e74726f6c3a206163636f756e74200000000000000000008a860152612ebb815180928c603789019101612d71565b909192600f81166010811015613033577f3031323334353637383961626364656600000000000000000000000000000000901a6131cf858761368d565b5360041c928015613006577fffffffffffffffffffffffffffffffffffffffffffffffffffffffffffffffff019190613138565b60009080825260209060658252604092838120338252835260ff84822054161561322d5750505050565b613236336136cd565b9184519061324382612cda565b6042825284820192606036853782511561306057603084538251906001918210156130605790607860218501536041915b8183116132ce57505050612f39576048612f35938693612eff93612ef098519889937f416363657373436f6e74726f6c3a206163636f756e74200000000000000000008a860152612ebb815180928c603789019101612d71565b909192600f81166010811015613033577f3031323334353637383961626364656600000000000000000000000000000000901a61330b858761368d565b5360041c928015613006577fffffffffffffffffffffffffffffffffffffffffffffffffffffffffffffffff019190613274565b90600091808352606560205273ffffffffffffffffffffffffffffffffffffffff6040842092169182845260205260ff60408420541661337e57505050565b808352606560205260408320828452602052604083207fffffffffffffffffffffffffffffffffffffffffffffffffffffffffffffff0081541690557ff6391f5c32d9c69d2a47ea670b442974b53935d1edc7fd64eb21e047a839171b339380a4565b156133e857565b60846040517f08c379a000000000000000000000000000000000000000000000000000000000815260206004820152602c60248201527f46756e6374696f6e206d7573742062652063616c6c6564207468726f7567682060448201527f64656c656761746563616c6c00000000000000000000000000000000000000006064820152fd5b1561347357565b60846040517f08c379a000000000000000000000000000000000000000000000000000000000815260206004820152602c60248201527f46756e6374696f6e206d7573742062652063616c6c6564207468726f7567682060448201527f6163746976652070726f787900000000000000000000000000000000000000006064820152fd5b803b1561355f5773ffffffffffffffffffffffffffffffffffffffff7f360894a13ba1a3210667c828492db98dca3e2076cc3735a920a3ca505d382bbc91167fffffffffffffffffffffffff0000000000000000000000000000000000000000825416179055565b60846040517f08c379a000000000000000000000000000000000000000000000000000000000815260206004820152602d60248201527f455243313936373a206e657720696d706c656d656e746174696f6e206973206e60448201527f6f74206120636f6e7472616374000000000000000000000000000000000000006064820152fd5b3d1561360e573d906135f482612d37565b916136026040519384612cf6565b82523d6000602084013e565b606090565b9091901561361f575090565b81511561362f5750805190602001fd5b612f35906040519182917f08c379a0000000000000000000000000000000000000000000000000000000008352602060048401526024830190612d94565b8181029291811591840414171561285957565b9190820180921161285957565b90815181101561369e570160200190565b7f4e487b7100000000000000000000000000000000000000000000000000000000600052603260045260246000fd5b604051906136da82612cbe565b602a825260208201604036823782511561369e5760309053815160019081101561369e57607860218401536029905b8082116137775750506137195790565b60646040517f08c379a000000000000000000000000000000000000000000000000000000000815260206004820152602060248201527f537472696e67733a20686578206c656e67746820696e73756666696369656e746044820152fd5b9091600f81166010811015613814577f3031323334353637383961626364656600000000000000000000000000000000901a6137b3848661368d565b5360041c9180156137e6577fffffffffffffffffffffffffffffffffffffffffffffffffffffffffffffffff0190613709565b602460007f4e487b710000000000000000000000000000000000000000000000000000000081526011600452fd5b602460007f4e487b710000000000000000000000000000000000000000000000000000000081526032600452fd5b1561384957565b60846040517f08c379a000000000000000000000000000000000000000000000000000000000815260206004820152602b60248201527f496e697469616c697a61626c653a20636f6e7472616374206973206e6f74206960448201527f6e697469616c697a696e670000000000000000000000000000000000000000006064820152fd5b60ff60c954166138d957565b60646040517f08c379a000000000000000000000000000000000000000000000000000000000815260206004820152601060248201527f5061757361626c653a20706175736564000000000000000000000000000000006044820152fd5b90600182811c92168015613980575b602083101461395157565b7f4e487b7100000000000000000000000000000000000000000000000000000000600052602260045260246000fd5b91607f1691613946565b906040519182600082549261399e84613937565b908184526001948581169081600014613a0d57506001146139ca575b50506139c892500383612cf6565b565b9093915060005260209081600020936000915b8183106139f55750506139c8935082010138806139ba565b855488840185015294850194879450918301916139dd565b90506139c89550602093507fffffffffffffffffffffffffffffffffffffffffffffffffffffffffffffff0091501682840152151560051b82010138806139ba565b90816020910312610287575180151581036102875790565b15613a6e57565b60646040517f08c379a000000000000000000000000000000000000000000000000000000000815260206004820152600b60248201527f544f4b454e5f56414c55450000000000000000000000000000000000000000006044820152fd5b15613ad357565b60646040517f08c379a000000000000000000000000000000000000000000000000000000000815260206004820152600d60248201527f494e56414c49445f56414c5545000000000000000000000000000000000000006044820152fd5b7fffffffffffffffffffffffffffffffffffffffffffffffffffffffffffffffff81146128595760010190565b601f82602094937fffffffffffffffffffffffffffffffffffffffffffffffffffffffffffffffe0938186528686013760008582860101520116010190565b9290604051927f23b872dd00000000000000000000000000000000000000000000000000000000602085015273ffffffffffffffffffffffffffffffffffffffff809216602485015216604483015260648201526064815260a081019181831067ffffffffffffffff841117611abb576139c8926040525b73ffffffffffffffffffffffffffffffffffffffff1690604051906040820182811067ffffffffffffffff821117611abb576040526020928383527f5361666545524332303a206c6f772d6c6576656c2063616c6c206661696c656484840152803b15613d455760008281928287613c9c9796519301915af1613c966135e3565b90613613565b80519081613ca957505050565b8280613cb9938301019101613a4f565b15613cc15750565b608490604051907f08c379a00000000000000000000000000000000000000000000000000000000082526004820152602a60248201527f5361666545524332303a204552433230206f7065726174696f6e20646964206e60448201527f6f742073756363656564000000000000000000000000000000000000000000006064820152fd5b606484604051907f08c379a00000000000000000000000000000000000000000000000000000000082526004820152601d60248201527f416464726573733a2063616c6c20746f206e6f6e2d636f6e74726163740000006044820152fd5b9190820391821161285957565b90816020910312610287575173ffffffffffffffffffffffffffffffffffffffff811681036102875790565b15613de357565b60646040517f08c379a000000000000000000000000000000000000000000000000000000000815260206004820152601f60248201527f5265656e7472616e637947756172643a207265656e7472616e742063616c6c006044820152fd5b67ffffffffffffffff918216908216039190821161285957565b60ff60078201541615613eef57600481015467ffffffffffffffff8082169182421115613ee657613ea692613e9b9160401c8316428111613edd57613e41565b16600383015461366d565b906005810154808311613ed4575b506006015480821115613ecd57613eca91613da3565b90565b5050600090565b91506006613eb4565b50824216613e41565b50505050600090565b8060066005613eca93015491015490613da3565b9082156140015773ffffffffffffffffffffffffffffffffffffffff91821680613fa157506000809381938293165af1613f3b6135e3565b5015613f4357565b60646040517f08c379a000000000000000000000000000000000000000000000000000000000815260206004820152601360248201527f4554485f5452414e534645525f4641494c4544000000000000000000000000006044820152fd5b929091604051927fa9059cbb000000000000000000000000000000000000000000000000000000006020850152166024830152604482015260448152608081019181831067ffffffffffffffff841117611abb576139c892604052613c15565b50505056fea26469706673582212202981d14b437af7e6898f999459e0363fc53360b0a415e886853f1c57a71863e564736f6c63430008140033","opcodes":"PUSH1 0xA0 DUP1 PUSH1 0x40 MSTORE CALLVALUE PUSH3 0xE1 JUMPI ADDRESS PUSH1 0x80 MSTORE PUSH1 0x0 SLOAD SWAP1 PUSH1 0xFF DUP3 PUSH1 0x8 SHR AND PUSH3 0x8F JUMPI POP PUSH1 0xFF DUP1 DUP3 AND LT PUSH3 0x53 JUMPI JUMPDEST PUSH1 0x40 MLOAD PUSH2 0x403C SWAP1 DUP2 PUSH3 0xE7 DUP3 CODECOPY PUSH1 0x80 MLOAD DUP2 DUP2 DUP2 PUSH2 0xCC7 ADD MSTORE DUP2 DUP2 PUSH2 0xE43 ADD MSTORE PUSH2 0x2293 ADD MSTORE RETURN JUMPDEST PUSH1 0xFF SWAP1 DUP2 NOT AND OR PUSH1 0x0 SSTORE PUSH32 0x7F26B83FF96E1F2B6A682F133852F6798A09C465DA95921460CEFB3847402498 PUSH1 0x20 PUSH1 0x40 MLOAD PUSH1 0xFF DUP2 MSTORE LOG1 CODESIZE PUSH3 0x2C JUMP JUMPDEST PUSH3 0x461BCD PUSH1 0xE5 SHL DUP2 MSTORE PUSH1 0x20 PUSH1 0x4 DUP3 ADD MSTORE PUSH1 0x27 PUSH1 0x24 DUP3 ADD MSTORE PUSH32 0x496E697469616C697A61626C653A20636F6E747261637420697320696E697469 PUSH1 0x44 DUP3 ADD MSTORE PUSH7 0x616C697A696E67 PUSH1 0xC8 SHL PUSH1 0x64 DUP3 ADD MSTORE PUSH1 0x84 SWAP1 REVERT JUMPDEST PUSH1 0x0 DUP1 REVERT INVALID PUSH1 0x80 DUP1 PUSH1 0x40 MSTORE PUSH1 0x4 CALLDATASIZE LT ISZERO PUSH2 0x13 JUMPI PUSH1 0x0 DUP1 REVERT JUMPDEST PUSH1 0x0 CALLDATALOAD PUSH1 0xE0 SHR SWAP1 DUP2 PUSH4 0x1FFC9A7 EQ PUSH2 0x2B3D JUMPI POP DUP1 PUSH4 0x173B6D90 EQ PUSH2 0x2B00 JUMPI DUP1 PUSH4 0x21235083 EQ PUSH2 0x29D2 JUMPI DUP1 PUSH4 0x248A9CA3 EQ PUSH2 0x2985 JUMPI DUP1 PUSH4 0x2F2FF15D EQ PUSH2 0x2888 JUMPI DUP1 PUSH4 0x3100FBEB EQ PUSH2 0x269C JUMPI DUP1 PUSH4 0x36568ABE EQ PUSH2 0x25B8 JUMPI DUP1 PUSH4 0x3659CFE6 EQ PUSH2 0x2243 JUMPI DUP1 PUSH4 0x3A597F48 EQ PUSH2 0x20AB JUMPI DUP1 PUSH4 0x3BEFAADC EQ PUSH2 0x1C0F JUMPI DUP1 PUSH4 0x3C59302D EQ PUSH2 0x1652 JUMPI DUP1 PUSH4 0x3F4BA83A EQ PUSH2 0x1560 JUMPI DUP1 PUSH4 0x485CC955 EQ PUSH2 0x11AB JUMPI DUP1 PUSH4 0x4F1EF286 EQ PUSH2 0xD9B JUMPI DUP1 PUSH4 0x52D1902D EQ PUSH2 0xC81 JUMPI DUP1 PUSH4 0x58516661 EQ PUSH2 0xC2E JUMPI DUP1 PUSH4 0x5C975ABB EQ PUSH2 0xBED JUMPI DUP1 PUSH4 0x644F861B EQ PUSH2 0xB3A JUMPI DUP1 PUSH4 0x6DB9241B EQ PUSH2 0x8A3 JUMPI DUP1 PUSH4 0x8456CB59 EQ PUSH2 0x80D JUMPI DUP1 PUSH4 0x894E9A0D EQ PUSH2 0x613 JUMPI DUP1 PUSH4 0x89D0E119 EQ PUSH2 0x5D6 JUMPI DUP1 PUSH4 0x91D14854 EQ PUSH2 0x55D JUMPI DUP1 PUSH4 0xA217FDDF EQ PUSH2 0x523 JUMPI DUP1 PUSH4 0xD547741F EQ PUSH2 0x4C4 JUMPI DUP1 PUSH4 0xDC311DD3 EQ PUSH2 0x2E5 JUMPI DUP1 PUSH4 0xE63AB1E9 EQ PUSH2 0x28C JUMPI PUSH4 0xE8010646 EQ PUSH2 0x153 JUMPI PUSH1 0x0 DUP1 REVERT JUMPDEST PUSH1 0x40 PUSH32 0xFFFFFFFFFFFFFFFFFFFFFFFFFFFFFFFFFFFFFFFFFFFFFFFFFFFFFFFFFFFFFFFC CALLDATASIZE ADD SLT PUSH2 0x287 JUMPI PUSH1 0x4 CALLDATALOAD PUSH1 0x24 CALLDATALOAD SWAP1 PUSH1 0xFF DUP3 AND DUP1 SWAP3 SUB PUSH2 0x287 JUMPI PUSH2 0x197 PUSH2 0x38CD JUMP JUMPDEST DUP1 PUSH1 0x0 MSTORE PUSH2 0x15F PUSH1 0x20 MSTORE PUSH1 0x40 PUSH1 0x0 KECCAK256 SWAP2 PUSH1 0xFF PUSH1 0x6 DUP5 ADD SLOAD AND ISZERO PUSH2 0x25D JUMPI PUSH2 0x1C4 PUSH1 0x5 SWAP2 PUSH1 0x3 DUP6 ADD SLOAD PUSH2 0x366D JUMP JUMPDEST SWAP3 PUSH20 0xFFFFFFFFFFFFFFFFFFFFFFFFFFFFFFFFFFFFFFFF PUSH1 0x2 DUP3 ADD SLOAD AND DUP1 ISZERO PUSH1 0x0 EQ PUSH2 0x231 JUMPI POP PUSH2 0x1F5 DUP5 CALLVALUE EQ PUSH2 0x3ACC JUMP JUMPDEST ADD PUSH2 0x201 DUP4 DUP3 SLOAD PUSH2 0x3680 JUMP JUMPDEST SWAP1 SSTORE PUSH1 0x40 MLOAD SWAP2 DUP3 MSTORE PUSH32 0xC4CF5AC5547453719FF21BE0EEB0578367844FC842D192B34F442EC64CEEB195 PUSH1 0x20 CALLER SWAP4 LOG3 STOP JUMPDEST PUSH2 0x23B CALLVALUE ISZERO PUSH2 0x3A67 JUMP JUMPDEST DUP5 DUP1 PUSH2 0x249 JUMPI JUMPDEST POP POP PUSH2 0x1F5 JUMP JUMPDEST PUSH2 0x256 SWAP2 ADDRESS SWAP1 CALLER SWAP1 PUSH2 0x3B9D JUMP JUMPDEST CODESIZE DUP5 PUSH2 0x242 JUMP JUMPDEST PUSH1 0x4 PUSH1 0x40 MLOAD PUSH32 0x93CA83FE00000000000000000000000000000000000000000000000000000000 DUP2 MSTORE REVERT JUMPDEST PUSH1 0x0 DUP1 REVERT JUMPDEST CALLVALUE PUSH2 0x287 JUMPI PUSH1 0x0 PUSH32 0xFFFFFFFFFFFFFFFFFFFFFFFFFFFFFFFFFFFFFFFFFFFFFFFFFFFFFFFFFFFFFFFC CALLDATASIZE ADD SLT PUSH2 0x287 JUMPI PUSH1 0x20 PUSH1 0x40 MLOAD PUSH32 0x65D7A28E3265B37A6474929F336521B332C1681B933F6CB9F3376673440D862A DUP2 MSTORE RETURN JUMPDEST CALLVALUE PUSH2 0x287 JUMPI PUSH1 0x20 PUSH32 0xFFFFFFFFFFFFFFFFFFFFFFFFFFFFFFFFFFFFFFFFFFFFFFFFFFFFFFFFFFFFFFFC CALLDATASIZE ADD SLT PUSH2 0x287 JUMPI PUSH1 0x60 PUSH2 0x100 PUSH1 0x40 MLOAD PUSH2 0x325 DUP2 PUSH2 0x2CA1 JUMP JUMPDEST PUSH1 0x0 DUP2 MSTORE PUSH1 0x0 PUSH1 0x20 DUP3 ADD MSTORE PUSH1 0x0 PUSH1 0x40 DUP3 ADD MSTORE PUSH1 0x0 DUP4 DUP3 ADD MSTORE PUSH1 0x0 PUSH1 0x80 DUP3 ADD MSTORE PUSH1 0x0 PUSH1 0xA0 DUP3 ADD MSTORE PUSH1 0x0 PUSH1 0xC0 DUP3 ADD MSTORE PUSH1 0x0 PUSH1 0xE0 DUP3 ADD MSTORE ADD MSTORE PUSH1 0x4 CALLDATALOAD PUSH1 0x0 MSTORE PUSH2 0x15F PUSH1 0x20 MSTORE PUSH2 0x100 PUSH1 0x40 PUSH1 0x0 KECCAK256 PUSH2 0x40D PUSH1 0x7 PUSH1 0x40 MLOAD SWAP3 PUSH2 0x381 DUP5 PUSH2 0x2CA1 JUMP JUMPDEST PUSH20 0xFFFFFFFFFFFFFFFFFFFFFFFFFFFFFFFFFFFFFFFF DUP2 SLOAD AND DUP5 MSTORE PUSH1 0x1 DUP2 ADD SLOAD PUSH1 0x20 DUP6 ADD MSTORE PUSH20 0xFFFFFFFFFFFFFFFFFFFFFFFFFFFFFFFFFFFFFFFF PUSH1 0x2 DUP3 ADD SLOAD AND PUSH1 0x40 DUP6 ADD MSTORE PUSH1 0x3 DUP2 ADD SLOAD PUSH1 0x60 DUP6 ADD MSTORE PUSH8 0xFFFFFFFFFFFFFFFF PUSH1 0x4 DUP3 ADD SLOAD DUP2 DUP2 AND PUSH1 0x80 DUP8 ADD MSTORE PUSH1 0x40 SHR AND PUSH1 0xA0 DUP6 ADD MSTORE PUSH1 0x5 DUP2 ADD SLOAD PUSH1 0xC0 DUP6 ADD MSTORE PUSH1 0xFF PUSH1 0x6 DUP3 ADD SLOAD AND ISZERO ISZERO PUSH1 0xE0 DUP6 ADD MSTORE ADD PUSH2 0x398A JUMP JUMPDEST DUP3 DUP3 ADD MSTORE PUSH2 0x4C0 PUSH1 0x40 MLOAD SWAP3 DUP4 SWAP3 PUSH1 0x20 DUP5 MSTORE PUSH20 0xFFFFFFFFFFFFFFFFFFFFFFFFFFFFFFFFFFFFFFFF DUP2 MLOAD AND PUSH1 0x20 DUP6 ADD MSTORE PUSH1 0x20 DUP2 ADD MLOAD PUSH1 0x40 DUP6 ADD MSTORE PUSH20 0xFFFFFFFFFFFFFFFFFFFFFFFFFFFFFFFFFFFFFFFF PUSH1 0x40 DUP3 ADD MLOAD AND PUSH1 0x60 DUP6 ADD MSTORE PUSH1 0x60 DUP2 ADD MLOAD PUSH1 0x80 DUP6 ADD MSTORE PUSH8 0xFFFFFFFFFFFFFFFF PUSH1 0x80 DUP3 ADD MLOAD AND PUSH1 0xA0 DUP6 ADD MSTORE PUSH8 0xFFFFFFFFFFFFFFFF PUSH1 0xA0 DUP3 ADD MLOAD AND PUSH1 0xC0 DUP6 ADD MSTORE PUSH1 0xC0 DUP2 ADD MLOAD PUSH1 0xE0 DUP6 ADD MSTORE PUSH1 0xE0 DUP2 ADD MLOAD ISZERO ISZERO DUP3 DUP6 ADD MSTORE ADD MLOAD PUSH2 0x120 DUP1 DUP5 ADD MSTORE PUSH2 0x140 DUP4 ADD SWAP1 PUSH2 0x2D94 JUMP JUMPDEST SUB SWAP1 RETURN JUMPDEST CALLVALUE PUSH2 0x287 JUMPI PUSH1 0x40 PUSH32 0xFFFFFFFFFFFFFFFFFFFFFFFFFFFFFFFFFFFFFFFFFFFFFFFFFFFFFFFFFFFFFFFC CALLDATASIZE ADD SLT PUSH2 0x287 JUMPI PUSH2 0x521 PUSH1 0x4 CALLDATALOAD PUSH2 0x501 PUSH2 0x2BF9 JUMP JUMPDEST SWAP1 DUP1 PUSH1 0x0 MSTORE PUSH1 0x65 PUSH1 0x20 MSTORE PUSH2 0x51C PUSH1 0x1 PUSH1 0x40 PUSH1 0x0 KECCAK256 ADD SLOAD PUSH2 0x3203 JUMP JUMPDEST PUSH2 0x333F JUMP JUMPDEST STOP JUMPDEST CALLVALUE PUSH2 0x287 JUMPI PUSH1 0x0 PUSH32 0xFFFFFFFFFFFFFFFFFFFFFFFFFFFFFFFFFFFFFFFFFFFFFFFFFFFFFFFFFFFFFFFC CALLDATASIZE ADD SLT PUSH2 0x287 JUMPI PUSH1 0x20 PUSH1 0x40 MLOAD PUSH1 0x0 DUP2 MSTORE RETURN JUMPDEST CALLVALUE PUSH2 0x287 JUMPI PUSH1 0x40 PUSH32 0xFFFFFFFFFFFFFFFFFFFFFFFFFFFFFFFFFFFFFFFFFFFFFFFFFFFFFFFFFFFFFFFC CALLDATASIZE ADD SLT PUSH2 0x287 JUMPI PUSH2 0x594 PUSH2 0x2BF9 JUMP JUMPDEST PUSH1 0x4 CALLDATALOAD PUSH1 0x0 MSTORE PUSH1 0x65 PUSH1 0x20 MSTORE PUSH20 0xFFFFFFFFFFFFFFFFFFFFFFFFFFFFFFFFFFFFFFFF PUSH1 0x40 PUSH1 0x0 KECCAK256 SWAP2 AND PUSH1 0x0 MSTORE PUSH1 0x20 MSTORE PUSH1 0x20 PUSH1 0xFF PUSH1 0x40 PUSH1 0x0 KECCAK256 SLOAD AND PUSH1 0x40 MLOAD SWAP1 ISZERO ISZERO DUP2 MSTORE RETURN JUMPDEST CALLVALUE PUSH2 0x287 JUMPI PUSH1 0x0 PUSH32 0xFFFFFFFFFFFFFFFFFFFFFFFFFFFFFFFFFFFFFFFFFFFFFFFFFFFFFFFFFFFFFFFC CALLDATASIZE ADD SLT PUSH2 0x287 JUMPI PUSH1 0x20 PUSH2 0x162 SLOAD PUSH1 0x40 MLOAD SWAP1 DUP2 MSTORE RETURN JUMPDEST CALLVALUE PUSH2 0x287 JUMPI PUSH1 0x20 PUSH32 0xFFFFFFFFFFFFFFFFFFFFFFFFFFFFFFFFFFFFFFFFFFFFFFFFFFFFFFFFFFFFFFFC CALLDATASIZE ADD SLT PUSH2 0x287 JUMPI PUSH1 0x60 PUSH2 0x120 PUSH1 0x40 MLOAD PUSH2 0x653 DUP2 PUSH2 0x2C84 JUMP JUMPDEST PUSH1 0x0 DUP2 MSTORE PUSH1 0x0 PUSH1 0x20 DUP3 ADD MSTORE PUSH1 0x0 PUSH1 0x40 DUP3 ADD MSTORE PUSH1 0x0 DUP4 DUP3 ADD MSTORE PUSH1 0x0 PUSH1 0x80 DUP3 ADD MSTORE PUSH1 0x0 PUSH1 0xA0 DUP3 ADD MSTORE PUSH1 0x0 PUSH1 0xC0 DUP3 ADD MSTORE PUSH1 0x0 PUSH1 0xE0 DUP3 ADD MSTORE PUSH1 0x0 PUSH2 0x100 DUP3 ADD MSTORE ADD MSTORE PUSH1 0x4 CALLDATALOAD PUSH1 0x0 MSTORE PUSH2 0x160 PUSH1 0x20 MSTORE PUSH2 0x120 PUSH1 0x40 PUSH1 0x0 KECCAK256 PUSH2 0x74E PUSH1 0x8 PUSH1 0x40 MLOAD SWAP3 PUSH2 0x6B7 DUP5 PUSH2 0x2C84 JUMP JUMPDEST PUSH20 0xFFFFFFFFFFFFFFFFFFFFFFFFFFFFFFFFFFFFFFFF DUP2 SLOAD AND DUP5 MSTORE PUSH1 0x1 DUP2 ADD SLOAD PUSH1 0x20 DUP6 ADD MSTORE PUSH20 0xFFFFFFFFFFFFFFFFFFFFFFFFFFFFFFFFFFFFFFFF PUSH1 0x2 DUP3 ADD SLOAD AND PUSH1 0x40 DUP6 ADD MSTORE PUSH1 0x3 DUP2 ADD SLOAD PUSH1 0x60 DUP6 ADD MSTORE PUSH8 0xFFFFFFFFFFFFFFFF PUSH1 0x4 DUP3 ADD SLOAD DUP2 DUP2 AND PUSH1 0x80 DUP8 ADD MSTORE PUSH1 0x40 SHR AND PUSH1 0xA0 DUP6 ADD MSTORE PUSH1 0x5 DUP2 ADD SLOAD PUSH1 0xC0 DUP6 ADD MSTORE PUSH1 0x6 DUP2 ADD SLOAD PUSH1 0xE0 DUP6 ADD MSTORE PUSH1 0xFF PUSH1 0x7 DUP3 ADD SLOAD AND ISZERO ISZERO PUSH2 0x100 DUP6 ADD MSTORE ADD PUSH2 0x398A JUMP JUMPDEST DUP3 DUP3 ADD MSTORE PUSH2 0x4C0 PUSH1 0x40 MLOAD SWAP3 DUP4 SWAP3 PUSH1 0x20 DUP5 MSTORE PUSH20 0xFFFFFFFFFFFFFFFFFFFFFFFFFFFFFFFFFFFFFFFF DUP2 MLOAD AND PUSH1 0x20 DUP6 ADD MSTORE PUSH1 0x20 DUP2 ADD MLOAD PUSH1 0x40 DUP6 ADD MSTORE PUSH20 0xFFFFFFFFFFFFFFFFFFFFFFFFFFFFFFFFFFFFFFFF PUSH1 0x40 DUP3 ADD MLOAD AND PUSH1 0x60 DUP6 ADD MSTORE PUSH1 0x60 DUP2 ADD MLOAD PUSH1 0x80 DUP6 ADD MSTORE PUSH8 0xFFFFFFFFFFFFFFFF PUSH1 0x80 DUP3 ADD MLOAD AND PUSH1 0xA0 DUP6 ADD MSTORE PUSH8 0xFFFFFFFFFFFFFFFF PUSH1 0xA0 DUP3 ADD MLOAD AND PUSH1 0xC0 DUP6 ADD MSTORE PUSH1 0xC0 DUP2 ADD MLOAD PUSH1 0xE0 DUP6 ADD MSTORE PUSH1 0xE0 DUP2 ADD MLOAD PUSH2 0x100 DUP6 ADD MSTORE PUSH2 0x100 DUP2 ADD MLOAD ISZERO ISZERO DUP3 DUP6 ADD MSTORE ADD MLOAD PUSH2 0x140 DUP1 DUP5 ADD MSTORE PUSH2 0x160 DUP4 ADD SWAP1 PUSH2 0x2D94 JUMP JUMPDEST CALLVALUE PUSH2 0x287 JUMPI PUSH1 0x0 PUSH32 0xFFFFFFFFFFFFFFFFFFFFFFFFFFFFFFFFFFFFFFFFFFFFFFFFFFFFFFFFFFFFFFFC CALLDATASIZE ADD SLT PUSH2 0x287 JUMPI PUSH2 0x844 PUSH2 0x308D JUMP JUMPDEST PUSH2 0x84C PUSH2 0x38CD JUMP JUMPDEST PUSH1 0x1 PUSH32 0xFFFFFFFFFFFFFFFFFFFFFFFFFFFFFFFFFFFFFFFFFFFFFFFFFFFFFFFFFFFFFF00 PUSH1 0xC9 SLOAD AND OR PUSH1 0xC9 SSTORE PUSH32 0x62E78CEA01BEE320CD4E420270B5EA74000D11B0C9F74754EBDBFC544B05A258 PUSH1 0x20 PUSH1 0x40 MLOAD CALLER DUP2 MSTORE LOG1 STOP JUMPDEST CALLVALUE PUSH2 0x287 JUMPI PUSH1 0x20 DUP1 PUSH32 0xFFFFFFFFFFFFFFFFFFFFFFFFFFFFFFFFFFFFFFFFFFFFFFFFFFFFFFFFFFFFFFFC CALLDATASIZE ADD SLT PUSH2 0x287 JUMPI PUSH1 0x4 CALLDATALOAD PUSH2 0x8E5 PUSH1 0x2 PUSH1 0x97 SLOAD EQ ISZERO PUSH2 0x3DDC JUMP JUMPDEST PUSH1 0x2 PUSH1 0x97 SSTORE DUP1 PUSH1 0x0 MSTORE PUSH2 0x160 DUP3 MSTORE PUSH1 0x40 PUSH1 0x0 KECCAK256 PUSH1 0x7 DUP2 ADD SWAP3 PUSH1 0xFF DUP5 SLOAD AND ISZERO PUSH2 0xB10 JUMPI PUSH20 0xFFFFFFFFFFFFFFFFFFFFFFFFFFFFFFFFFFFFFFFF DUP1 DUP4 SLOAD AND CALLER EQ ISZERO DUP1 PUSH2 0xAED JUMPI JUMPDEST PUSH2 0xAC3 JUMPI PUSH2 0x936 DUP4 PUSH2 0x3E5B JUMP JUMPDEST SWAP3 DUP4 PUSH2 0x9C4 JUMPI JUMPDEST PUSH32 0xFEED183D9F143664E4CA27CA57080BE96D765AB4BFF9D02E3BB0A9B04E149C25 SWAP4 POP PUSH1 0x5 DUP2 ADD DUP1 SLOAD SWAP1 PUSH2 0x976 PUSH1 0x6 DUP5 ADD SLOAD DUP1 SWAP4 PUSH2 0x3DA3 JUMP JUMPDEST SWAP8 PUSH32 0xFFFFFFFFFFFFFFFFFFFFFFFFFFFFFFFFFFFFFFFFFFFFFFFFFFFFFFFFFFFFFF00 DUP2 SLOAD AND SWAP1 SSTORE SSTORE PUSH2 0x9B3 DUP7 DUP4 PUSH1 0x2 DUP5 ADD SLOAD AND DUP5 DUP5 SLOAD AND SWAP1 PUSH2 0x3F03 JUMP JUMPDEST SLOAD AND SWAP4 PUSH1 0x40 MLOAD SWAP1 DUP2 MSTORE LOG3 PUSH1 0x1 PUSH1 0x97 SSTORE STOP JUMPDEST PUSH1 0x6 DUP2 ADD PUSH2 0x9D3 DUP6 DUP3 SLOAD PUSH2 0x3680 JUMP JUMPDEST SWAP1 SSTORE DUP2 PUSH2 0x163 SLOAD AND SWAP4 DUP4 PUSH1 0x1 DUP4 ADD SLOAD PUSH1 0x24 PUSH1 0x40 MLOAD DUP1 SWAP9 DUP2 SWAP4 PUSH32 0x6F6BF11800000000000000000000000000000000000000000000000000000000 DUP4 MSTORE PUSH1 0x4 DUP4 ADD MSTORE GAS STATICCALL DUP1 ISZERO PUSH2 0xAB7 JUMPI PUSH32 0xB8794A93AD70D58BD94788F8523CD8EBCFF47F5541F8816ADE60C636F1B57827 DUP6 DUP6 DUP10 SWAP4 PUSH32 0xFEED183D9F143664E4CA27CA57080BE96D765AB4BFF9D02E3BB0A9B04E149C25 SWAP10 PUSH1 0x0 SWAP2 PUSH2 0xA8A JUMPI JUMPDEST POP PUSH2 0xA7C DUP7 DUP3 DUP5 PUSH1 0x2 DUP12 ADD SLOAD AND PUSH2 0x3F03 JUMP JUMPDEST PUSH1 0x40 MLOAD SWAP6 DUP7 MSTORE AND SWAP4 LOG3 PUSH2 0x93D JUMP JUMPDEST PUSH2 0xAAA SWAP2 POP DUP4 RETURNDATASIZE DUP6 GT PUSH2 0xAB0 JUMPI JUMPDEST PUSH2 0xAA2 DUP2 DUP4 PUSH2 0x2CF6 JUMP JUMPDEST DUP2 ADD SWAP1 PUSH2 0x3DB0 JUMP JUMPDEST DUP13 PUSH2 0xA6A JUMP JUMPDEST POP RETURNDATASIZE PUSH2 0xA98 JUMP JUMPDEST PUSH1 0x40 MLOAD RETURNDATASIZE PUSH1 0x0 DUP3 RETURNDATACOPY RETURNDATASIZE SWAP1 REVERT JUMPDEST PUSH1 0x4 PUSH1 0x40 MLOAD PUSH32 0x9C7893C000000000000000000000000000000000000000000000000000000000 DUP2 MSTORE REVERT JUMPDEST POP PUSH1 0x0 DUP1 MSTORE PUSH1 0x65 DUP3 MSTORE PUSH1 0x40 PUSH1 0x0 KECCAK256 CALLER PUSH1 0x0 MSTORE DUP3 MSTORE PUSH1 0xFF PUSH1 0x40 PUSH1 0x0 KECCAK256 SLOAD AND ISZERO PUSH2 0x929 JUMP JUMPDEST PUSH1 0x4 PUSH1 0x40 MLOAD PUSH32 0xCB3C54E900000000000000000000000000000000000000000000000000000000 DUP2 MSTORE REVERT JUMPDEST CALLVALUE PUSH2 0x287 JUMPI PUSH1 0x20 PUSH32 0xFFFFFFFFFFFFFFFFFFFFFFFFFFFFFFFFFFFFFFFFFFFFFFFFFFFFFFFFFFFFFFFC CALLDATASIZE ADD SLT PUSH2 0x287 JUMPI PUSH20 0xFFFFFFFFFFFFFFFFFFFFFFFFFFFFFFFFFFFFFFFF PUSH2 0xB86 PUSH2 0x2C1C JUMP JUMPDEST PUSH2 0xB8E PUSH2 0x2DD7 JUMP JUMPDEST AND DUP1 ISZERO PUSH2 0xBC3 JUMPI PUSH2 0x163 DUP1 SLOAD PUSH32 0xFFFFFFFFFFFFFFFFFFFFFFFF0000000000000000000000000000000000000000 AND SWAP1 SWAP2 OR SWAP1 SSTORE STOP JUMPDEST PUSH1 0x4 PUSH1 0x40 MLOAD PUSH32 0xE6C4247B00000000000000000000000000000000000000000000000000000000 DUP2 MSTORE REVERT JUMPDEST CALLVALUE PUSH2 0x287 JUMPI PUSH1 0x0 PUSH32 0xFFFFFFFFFFFFFFFFFFFFFFFFFFFFFFFFFFFFFFFFFFFFFFFFFFFFFFFFFFFFFFFC CALLDATASIZE ADD SLT PUSH2 0x287 JUMPI PUSH1 0x20 PUSH1 0xFF PUSH1 0xC9 SLOAD AND PUSH1 0x40 MLOAD SWAP1 ISZERO ISZERO DUP2 MSTORE RETURN JUMPDEST CALLVALUE PUSH2 0x287 JUMPI PUSH1 0x0 PUSH32 0xFFFFFFFFFFFFFFFFFFFFFFFFFFFFFFFFFFFFFFFFFFFFFFFFFFFFFFFFFFFFFFFC CALLDATASIZE ADD SLT PUSH2 0x287 JUMPI PUSH1 0x20 PUSH20 0xFFFFFFFFFFFFFFFFFFFFFFFFFFFFFFFFFFFFFFFF PUSH2 0x163 SLOAD AND PUSH1 0x40 MLOAD SWAP1 DUP2 MSTORE RETURN JUMPDEST CALLVALUE PUSH2 0x287 JUMPI PUSH1 0x0 PUSH32 0xFFFFFFFFFFFFFFFFFFFFFFFFFFFFFFFFFFFFFFFFFFFFFFFFFFFFFFFFFFFFFFFC CALLDATASIZE ADD SLT PUSH2 0x287 JUMPI PUSH20 0xFFFFFFFFFFFFFFFFFFFFFFFFFFFFFFFFFFFFFFFF PUSH32 0x0 AND ADDRESS SUB PUSH2 0xD17 JUMPI PUSH1 0x20 PUSH1 0x40 MLOAD PUSH32 0x360894A13BA1A3210667C828492DB98DCA3E2076CC3735A920A3CA505D382BBC DUP2 MSTORE RETURN JUMPDEST PUSH1 0x84 PUSH1 0x40 MLOAD PUSH32 0x8C379A000000000000000000000000000000000000000000000000000000000 DUP2 MSTORE PUSH1 0x20 PUSH1 0x4 DUP3 ADD MSTORE PUSH1 0x38 PUSH1 0x24 DUP3 ADD MSTORE PUSH32 0x555550535570677261646561626C653A206D757374206E6F742062652063616C PUSH1 0x44 DUP3 ADD MSTORE PUSH32 0x6C6564207468726F7567682064656C656761746563616C6C0000000000000000 PUSH1 0x64 DUP3 ADD MSTORE REVERT JUMPDEST PUSH1 0x40 PUSH32 0xFFFFFFFFFFFFFFFFFFFFFFFFFFFFFFFFFFFFFFFFFFFFFFFFFFFFFFFFFFFFFFFC CALLDATASIZE ADD SLT PUSH2 0x287 JUMPI PUSH2 0xDCD PUSH2 0x2C1C JUMP JUMPDEST PUSH1 0x24 SWAP1 DUP2 CALLDATALOAD PUSH8 0xFFFFFFFFFFFFFFFF DUP2 GT PUSH2 0x287 JUMPI CALLDATASIZE PUSH1 0x23 DUP3 ADD SLT ISZERO PUSH2 0x287 JUMPI DUP1 PUSH1 0x4 ADD CALLDATALOAD SWAP1 PUSH2 0xDFB DUP3 PUSH2 0x2D37 JUMP JUMPDEST PUSH2 0xE08 PUSH1 0x40 MLOAD SWAP2 DUP3 PUSH2 0x2CF6 JUMP JUMPDEST DUP3 DUP2 MSTORE PUSH1 0x20 SWAP3 DUP4 DUP3 ADD SWAP3 CALLDATASIZE DUP8 DUP4 DUP4 ADD ADD GT PUSH2 0x287 JUMPI DUP2 PUSH1 0x0 SWAP3 DUP9 DUP8 SWAP4 ADD DUP7 CALLDATACOPY DUP4 ADD ADD MSTORE PUSH20 0xFFFFFFFFFFFFFFFFFFFFFFFFFFFFFFFFFFFFFFFF DUP1 PUSH32 0x0 AND SWAP1 PUSH2 0xE70 DUP3 ADDRESS EQ ISZERO PUSH2 0x33E1 JUMP JUMPDEST PUSH2 0xE9F PUSH32 0x360894A13BA1A3210667C828492DB98DCA3E2076CC3735A920A3CA505D382BBC SWAP3 DUP3 DUP5 SLOAD AND EQ PUSH2 0x346C JUMP JUMPDEST PUSH2 0xEA7 PUSH2 0x2DD7 JUMP JUMPDEST PUSH32 0x4910FDFA16FED3260ED0E7147F7CC6DA11A60208B5B9406D12A635614FFD9143 SLOAD PUSH1 0xFF AND ISZERO PUSH2 0xEE0 JUMPI POP POP POP POP POP PUSH2 0x521 SWAP2 POP PUSH2 0x34F7 JUMP JUMPDEST DUP6 SWAP5 SWAP6 AND SWAP1 PUSH1 0x40 MLOAD PUSH32 0x52D1902D00000000000000000000000000000000000000000000000000000000 DUP2 MSTORE DUP7 DUP2 PUSH1 0x4 DUP2 DUP7 GAS STATICCALL PUSH1 0x0 SWAP2 DUP2 PUSH2 0x117C JUMPI JUMPDEST POP PUSH2 0xFA4 JUMPI PUSH1 0x84 DUP8 PUSH1 0x2E DUP11 PUSH1 0x40 MLOAD SWAP3 PUSH32 0x8C379A000000000000000000000000000000000000000000000000000000000 DUP5 MSTORE PUSH1 0x4 DUP5 ADD MSTORE DUP3 ADD MSTORE PUSH32 0x45524331393637557067726164653A206E657720696D706C656D656E74617469 PUSH1 0x44 DUP3 ADD MSTORE PUSH32 0x6F6E206973206E6F742055555053000000000000000000000000000000000000 PUSH1 0x64 DUP3 ADD MSTORE REVERT JUMPDEST SWAP7 SWAP2 SWAP3 SWAP4 SWAP5 SWAP7 SUB PUSH2 0x10F9 JUMPI PUSH2 0xFB8 DUP7 PUSH2 0x34F7 JUMP JUMPDEST PUSH1 0x40 MLOAD SWAP2 PUSH32 0xBC7CD75A20EE27FD9ADEBAB32041F755214DBC6BFFA90CC0225B39DA2E5C2D3B PUSH1 0x0 DUP1 LOG2 DUP3 MLOAD ISZERO DUP1 ISZERO SWAP1 PUSH2 0x10F1 JUMPI JUMPDEST PUSH2 0xFF2 JUMPI STOP JUMPDEST DUP6 EXTCODESIZE ISZERO PUSH2 0x1071 JUMPI POP POP PUSH2 0x521 SWAP4 PUSH1 0x0 SWAP3 DUP4 SWAP3 MLOAD SWAP2 GAS DELEGATECALL PUSH2 0x1010 PUSH2 0x35E3 JUMP JUMPDEST SWAP1 PUSH32 0x416464726573733A206C6F772D6C6576656C2064656C65676174652063616C6C PUSH1 0x40 MLOAD SWAP4 PUSH2 0x103F DUP6 PUSH2 0x2CBE JUMP JUMPDEST PUSH1 0x27 DUP6 MSTORE DUP5 ADD MSTORE PUSH32 0x206661696C656400000000000000000000000000000000000000000000000000 PUSH1 0x40 DUP5 ADD MSTORE PUSH2 0x3613 JUMP JUMPDEST SWAP1 PUSH1 0x26 PUSH1 0x84 SWAP3 DUP7 PUSH32 0x8C379A000000000000000000000000000000000000000000000000000000000 DUP5 MSTORE PUSH1 0x4 DUP5 ADD MSTORE DUP3 ADD MSTORE PUSH32 0x416464726573733A2064656C65676174652063616C6C20746F206E6F6E2D636F PUSH1 0x44 DUP3 ADD MSTORE PUSH32 0x6E74726163740000000000000000000000000000000000000000000000000000 PUSH1 0x64 DUP3 ADD MSTORE REVERT JUMPDEST POP PUSH1 0x1 PUSH2 0xFEC JUMP JUMPDEST DUP5 PUSH1 0x29 PUSH1 0x84 SWAP3 PUSH1 0x40 MLOAD SWAP3 PUSH32 0x8C379A000000000000000000000000000000000000000000000000000000000 DUP5 MSTORE PUSH1 0x4 DUP5 ADD MSTORE DUP3 ADD MSTORE PUSH32 0x45524331393637557067726164653A20756E737570706F727465642070726F78 PUSH1 0x44 DUP3 ADD MSTORE PUSH32 0x6961626C65555549440000000000000000000000000000000000000000000000 PUSH1 0x64 DUP3 ADD MSTORE REVERT JUMPDEST SWAP1 SWAP2 POP DUP8 DUP2 DUP2 RETURNDATASIZE DUP4 GT PUSH2 0x11A4 JUMPI JUMPDEST PUSH2 0x1194 DUP2 DUP4 PUSH2 0x2CF6 JUMP JUMPDEST DUP2 ADD SUB SLT PUSH2 0x287 JUMPI MLOAD SWAP1 DUP10 PUSH2 0xF1C JUMP JUMPDEST POP RETURNDATASIZE PUSH2 0x118A JUMP JUMPDEST CALLVALUE PUSH2 0x287 JUMPI PUSH1 0x40 PUSH32 0xFFFFFFFFFFFFFFFFFFFFFFFFFFFFFFFFFFFFFFFFFFFFFFFFFFFFFFFFFFFFFFFC CALLDATASIZE ADD SLT PUSH2 0x287 JUMPI PUSH2 0x11E2 PUSH2 0x2C1C JUMP JUMPDEST PUSH2 0x11EA PUSH2 0x2BF9 JUMP JUMPDEST SWAP1 PUSH1 0x0 SLOAD SWAP1 PUSH1 0xFF SWAP3 DUP4 DUP4 PUSH1 0x8 SHR AND ISZERO SWAP2 DUP3 DUP1 SWAP4 PUSH2 0x1554 JUMPI JUMPDEST DUP1 ISZERO PUSH2 0x153E JUMPI JUMPDEST ISZERO PUSH2 0x14BA JUMPI PUSH1 0x1 SWAP5 PUSH32 0xFFFFFFFFFFFFFFFFFFFFFFFFFFFFFFFFFFFFFFFFFFFFFFFFFFFFFFFFFFFFFF00 SWAP5 DUP5 DUP8 DUP8 DUP4 AND OR PUSH1 0x0 SSTORE PUSH2 0x148B JUMPI JUMPDEST POP PUSH20 0xFFFFFFFFFFFFFFFFFFFFFFFFFFFFFFFFFFFFFFFF DUP1 SWAP3 AND DUP1 ISZERO DUP1 ISZERO PUSH2 0x1481 JUMPI JUMPDEST PUSH2 0xBC3 JUMPI PUSH2 0x12B0 DUP3 PUSH1 0x0 SLOAD PUSH1 0x8 SHR AND PUSH2 0x127B DUP2 PUSH2 0x3842 JUMP JUMPDEST PUSH2 0x1284 DUP2 PUSH2 0x3842 JUMP JUMPDEST PUSH2 0x128D DUP2 PUSH2 0x3842 JUMP JUMPDEST DUP9 PUSH1 0x97 SSTORE PUSH2 0x129A DUP2 PUSH2 0x3842 JUMP JUMPDEST PUSH2 0x12A3 DUP2 PUSH2 0x3842 JUMP JUMPDEST DUP8 PUSH1 0xC9 SLOAD AND PUSH1 0xC9 SSTORE PUSH2 0x3842 JUMP JUMPDEST PUSH1 0x0 DUP2 DUP2 MSTORE PUSH32 0xFFDFC1249C027F9191656349FEB0761381BB32C9F557E01F419FD08754BF5A1B PUSH1 0x20 SWAP1 DUP2 MSTORE PUSH1 0x40 SWAP1 SWAP2 KECCAK256 SLOAD SWAP1 SWAP7 SWAP1 DUP4 AND ISZERO PUSH2 0x1434 JUMPI JUMPDEST PUSH32 0x65D7A28E3265B37A6474929F336521B332C1681B933F6CB9F3376673440D862A SWAP3 DUP4 PUSH1 0x0 MSTORE PUSH1 0x65 DUP9 MSTORE PUSH1 0x40 PUSH1 0x0 KECCAK256 PUSH1 0x0 DUP11 DUP3 ADD DUP2 DUP2 SLOAD SWAP2 SSTORE DUP7 PUSH32 0xBD79B86FFE0AB8E8776151514217CD7CACD52C909F66475C3AF44E129F0B00FF DUP4 DUP1 LOG4 DUP4 PUSH1 0x0 MSTORE DUP9 MSTORE PUSH1 0x40 PUSH1 0x0 KECCAK256 SLOAD AND ISZERO PUSH2 0x13E5 JUMPI JUMPDEST POP POP POP PUSH2 0x163 SWAP2 AND PUSH32 0xFFFFFFFFFFFFFFFFFFFFFFFF0000000000000000000000000000000000000000 DUP3 SLOAD AND OR SWAP1 SSTORE PUSH2 0x1392 JUMPI STOP JUMPDEST PUSH32 0x7F26B83FF96E1F2B6A682F133852F6798A09C465DA95921460CEFB3847402498 SWAP2 PUSH32 0xFFFFFFFFFFFFFFFFFFFFFFFFFFFFFFFFFFFFFFFFFFFFFFFFFFFFFFFFFFFF00FF PUSH1 0x0 SLOAD AND PUSH1 0x0 SSTORE PUSH1 0x40 MLOAD SWAP1 DUP2 MSTORE LOG1 STOP JUMPDEST DUP3 PUSH1 0x0 MSTORE PUSH1 0x65 DUP8 MSTORE PUSH1 0x40 PUSH1 0x0 KECCAK256 DUP3 PUSH1 0x0 MSTORE DUP8 MSTORE DUP8 PUSH1 0x40 PUSH1 0x0 KECCAK256 SWAP2 DUP3 SLOAD AND OR SWAP1 SSTORE CALLER SWAP2 PUSH32 0x2F8788117E7EFF1D82E926EC794901D17C78024A50270940304540A733656F0D PUSH1 0x0 DUP1 LOG4 DUP6 DUP1 DUP1 PUSH2 0x135D JUMP JUMPDEST PUSH1 0x0 DUP1 MSTORE PUSH1 0x65 DUP8 MSTORE PUSH1 0x40 PUSH1 0x0 KECCAK256 DUP3 PUSH1 0x0 MSTORE DUP8 MSTORE PUSH1 0x40 PUSH1 0x0 KECCAK256 DUP9 DUP3 DUP3 SLOAD AND OR SWAP1 SSTORE CALLER DUP3 PUSH1 0x0 PUSH32 0x2F8788117E7EFF1D82E926EC794901D17C78024A50270940304540A733656F0D DUP2 DUP1 LOG4 PUSH2 0x12EC JUMP JUMPDEST POP DUP3 DUP5 AND ISZERO PUSH2 0x1263 JUMP JUMPDEST PUSH32 0xFFFFFFFFFFFFFFFFFFFFFFFFFFFFFFFFFFFFFFFFFFFFFFFFFFFFFFFFFFFF0000 AND PUSH2 0x101 OR PUSH1 0x0 SSTORE DUP7 PUSH2 0x1241 JUMP JUMPDEST PUSH1 0x84 PUSH1 0x40 MLOAD PUSH32 0x8C379A000000000000000000000000000000000000000000000000000000000 DUP2 MSTORE PUSH1 0x20 PUSH1 0x4 DUP3 ADD MSTORE PUSH1 0x2E PUSH1 0x24 DUP3 ADD MSTORE PUSH32 0x496E697469616C697A61626C653A20636F6E747261637420697320616C726561 PUSH1 0x44 DUP3 ADD MSTORE PUSH32 0x647920696E697469616C697A6564000000000000000000000000000000000000 PUSH1 0x64 DUP3 ADD MSTORE REVERT JUMPDEST POP ADDRESS EXTCODESIZE ISZERO DUP1 ISZERO PUSH2 0x1209 JUMPI POP PUSH1 0x1 DUP6 DUP6 AND EQ PUSH2 0x1209 JUMP JUMPDEST POP PUSH1 0x1 DUP6 DUP6 AND LT PUSH2 0x1202 JUMP JUMPDEST CALLVALUE PUSH2 0x287 JUMPI PUSH1 0x0 PUSH32 0xFFFFFFFFFFFFFFFFFFFFFFFFFFFFFFFFFFFFFFFFFFFFFFFFFFFFFFFFFFFFFFFC CALLDATASIZE ADD SLT PUSH2 0x287 JUMPI PUSH2 0x1597 PUSH2 0x308D JUMP JUMPDEST PUSH1 0xC9 SLOAD PUSH1 0xFF DUP2 AND ISZERO PUSH2 0x15F4 JUMPI PUSH32 0xFFFFFFFFFFFFFFFFFFFFFFFFFFFFFFFFFFFFFFFFFFFFFFFFFFFFFFFFFFFFFF00 AND PUSH1 0xC9 SSTORE PUSH32 0x5DB9EE0A495BF2E6FF9C91A7834C1BA4FDD244A5E8AA4E537BD38AEAE4B073AA PUSH1 0x20 PUSH1 0x40 MLOAD CALLER DUP2 MSTORE LOG1 STOP JUMPDEST PUSH1 0x64 PUSH1 0x40 MLOAD PUSH32 0x8C379A000000000000000000000000000000000000000000000000000000000 DUP2 MSTORE PUSH1 0x20 PUSH1 0x4 DUP3 ADD MSTORE PUSH1 0x14 PUSH1 0x24 DUP3 ADD MSTORE PUSH32 0x5061757361626C653A206E6F7420706175736564000000000000000000000000 PUSH1 0x44 DUP3 ADD MSTORE REVERT JUMPDEST PUSH1 0xC0 PUSH32 0xFFFFFFFFFFFFFFFFFFFFFFFFFFFFFFFFFFFFFFFFFFFFFFFFFFFFFFFFFFFFFFFC CALLDATASIZE ADD SLT PUSH2 0x287 JUMPI PUSH2 0x1684 PUSH2 0x2BF9 JUMP JUMPDEST PUSH2 0x168C PUSH2 0x2C3F JUMP JUMPDEST PUSH8 0xFFFFFFFFFFFFFFFF PUSH1 0x84 CALLDATALOAD AND PUSH1 0x84 CALLDATALOAD SUB PUSH2 0x287 JUMPI PUSH1 0xA4 CALLDATALOAD PUSH8 0xFFFFFFFFFFFFFFFF DUP2 GT PUSH2 0x287 JUMPI PUSH2 0x16C1 SWAP1 CALLDATASIZE SWAP1 PUSH1 0x4 ADD PUSH2 0x2C56 JUMP JUMPDEST PUSH2 0x16C9 PUSH2 0x38CD JUMP JUMPDEST PUSH20 0xFFFFFFFFFFFFFFFFFFFFFFFFFFFFFFFFFFFFFFFF SWAP3 PUSH1 0x24 PUSH1 0x20 DUP6 PUSH2 0x163 SLOAD AND PUSH1 0x40 MLOAD SWAP3 DUP4 DUP1 SWAP3 PUSH32 0x9D18755D00000000000000000000000000000000000000000000000000000000 DUP3 MSTORE PUSH1 0x4 CALLDATALOAD PUSH1 0x4 DUP4 ADD MSTORE GAS STATICCALL SWAP1 DUP2 ISZERO PUSH2 0xAB7 JUMPI PUSH1 0x0 SWAP2 PUSH2 0x1BE0 JUMPI JUMPDEST POP ISZERO PUSH2 0xAC3 JUMPI PUSH1 0x44 CALLDATALOAD ISZERO DUP1 ISZERO PUSH2 0x1BC0 JUMPI JUMPDEST PUSH2 0x1B96 JUMPI DUP5 DUP5 AND PUSH2 0x1B77 JUMPI PUSH2 0x1755 PUSH1 0x44 CALLDATALOAD CALLVALUE EQ PUSH2 0x3ACC JUMP JUMPDEST PUSH8 0xFFFFFFFFFFFFFFFF PUSH2 0x176A DUP3 PUSH1 0x84 CALLDATALOAD PUSH2 0x3E41 JUMP JUMPDEST AND SWAP1 DUP2 ISZERO PUSH2 0x1B48 JUMPI DUP2 PUSH1 0x44 CALLDATALOAD MOD PUSH2 0x1AEA JUMPI PUSH2 0x162 SWAP5 PUSH2 0x1789 DUP7 SLOAD PUSH2 0x3B31 JUMP JUMPDEST DUP1 SWAP7 SSTORE DUP6 PUSH1 0x0 MSTORE PUSH2 0x160 PUSH1 0x20 MSTORE PUSH1 0x40 PUSH1 0x0 KECCAK256 SWAP3 PUSH32 0xFFFFFFFFFFFFFFFFFFFFFFFF0000000000000000000000000000000000000000 CALLER DUP2 DUP7 SLOAD AND OR DUP6 SSTORE PUSH1 0x4 CALLDATALOAD PUSH1 0x1 DUP7 ADD SSTORE PUSH1 0x2 DUP6 ADD SWAP1 DUP4 DUP11 AND SWAP1 DUP3 SLOAD AND OR SWAP1 SSTORE PUSH1 0x44 CALLDATALOAD DIV PUSH1 0x3 DUP5 ADD SSTORE PUSH2 0x1861 PUSH1 0x4 DUP5 ADD PUSH8 0xFFFFFFFFFFFFFFFF DUP5 AND PUSH32 0xFFFFFFFFFFFFFFFFFFFFFFFFFFFFFFFFFFFFFFFFFFFFFFFF0000000000000000 DUP3 SLOAD AND OR DUP2 SSTORE PUSH1 0x84 CALLDATALOAD PUSH32 0xFFFFFFFFFFFFFFFFFFFFFFFFFFFFFFFF0000000000000000FFFFFFFFFFFFFFFF PUSH16 0xFFFFFFFFFFFFFFFF0000000000000000 DUP4 SLOAD SWAP3 PUSH1 0x40 SHL AND SWAP2 AND OR SWAP1 SSTORE JUMP JUMPDEST PUSH1 0x44 CALLDATALOAD PUSH1 0x5 DUP5 ADD SSTORE PUSH1 0x7 DUP4 ADD PUSH1 0x1 PUSH32 0xFFFFFFFFFFFFFFFFFFFFFFFFFFFFFFFFFFFFFFFFFFFFFFFFFFFFFFFFFFFFFF00 DUP3 SLOAD AND OR SWAP1 SSTORE PUSH8 0xFFFFFFFFFFFFFFFF DUP5 GT PUSH2 0x1ABB JUMPI PUSH2 0x18B2 PUSH1 0x8 DUP5 ADD SLOAD PUSH2 0x3937 JUMP JUMPDEST PUSH1 0x1F DUP2 GT PUSH2 0x1A70 JUMPI JUMPDEST POP SWAP6 DUP6 SWAP2 PUSH1 0x20 SWAP8 PUSH1 0x0 SWAP5 DUP7 PUSH1 0x1F DUP2 GT PUSH1 0x1 EQ PUSH2 0x1996 JUMPI PUSH8 0xFFFFFFFFFFFFFFFF SWAP4 SWAP3 SWAP2 PUSH1 0x3 SWAP2 PUSH32 0x38DBEDD197CE76D9E3F5893B821A186CF948E965001D463896D54A7EFB0D984E SWAP8 SWAP9 PUSH1 0x0 SWAP2 PUSH2 0x198B JUMPI JUMPDEST POP DUP10 PUSH1 0x1 SHL SWAP1 PUSH32 0xFFFFFFFFFFFFFFFFFFFFFFFFFFFFFFFFFFFFFFFFFFFFFFFFFFFFFFFFFFFFFFFF DUP12 DUP6 SHL SHR NOT AND OR PUSH1 0x8 DUP3 ADD SSTORE JUMPDEST ADD SLOAD SWAP1 PUSH1 0x40 MLOAD SWAP5 AND DUP5 MSTORE DUP10 DUP5 ADD MSTORE AND PUSH1 0x40 DUP3 ADD MSTORE PUSH8 0xFFFFFFFFFFFFFFFF PUSH1 0x84 CALLDATALOAD AND PUSH1 0x60 DUP3 ADD MSTORE PUSH1 0xA0 PUSH1 0x80 DUP3 ADD MSTORE DUP1 PUSH2 0x1980 PUSH1 0x4 CALLDATALOAD SWAP7 CALLER SWAP7 PUSH1 0xA0 DUP5 ADD SWAP2 PUSH2 0x3B5E JUMP JUMPDEST SUB SWAP1 LOG4 PUSH1 0x40 MLOAD SWAP1 DUP2 MSTORE RETURN JUMPDEST SWAP1 POP DUP11 ADD CALLDATALOAD DUP14 PUSH2 0x190B JUMP JUMPDEST PUSH32 0xFFFFFFFFFFFFFFFFFFFFFFFFFFFFFFFFFFFFFFFFFFFFFFFFFFFFFFFFFFFFFFE0 AND SWAP6 PUSH1 0x8 DUP3 ADD PUSH1 0x0 MSTORE DUP11 PUSH1 0x0 KECCAK256 SWAP1 DUP9 PUSH1 0x0 JUMPDEST DUP10 DUP2 LT PUSH2 0x1A53 JUMPI POP SWAP2 PUSH8 0xFFFFFFFFFFFFFFFF SWAP6 SWAP5 SWAP4 SWAP2 PUSH1 0x3 SWAP4 PUSH32 0x38DBEDD197CE76D9E3F5893B821A186CF948E965001D463896D54A7EFB0D984E SWAP10 SWAP11 LT PUSH2 0x1A1D JUMPI JUMPDEST POP POP PUSH1 0x1 DUP10 DUP2 SHL ADD PUSH1 0x8 DUP3 ADD SSTORE PUSH2 0x193F JUMP JUMPDEST DUP12 ADD CALLDATALOAD PUSH32 0xFFFFFFFFFFFFFFFFFFFFFFFFFFFFFFFFFFFFFFFFFFFFFFFFFFFFFFFFFFFFFFFF DUP12 DUP6 SHL PUSH1 0xF8 AND SHR NOT AND SWAP1 SSTORE DUP13 DUP1 PUSH2 0x1A0B JUMP JUMPDEST DUP12 DUP4 ADD CALLDATALOAD DUP5 SSTORE DUP13 SWAP9 POP PUSH1 0x1 SWAP1 SWAP4 ADD SWAP3 SWAP2 DUP14 ADD SWAP2 DUP11 SWAP2 POP DUP14 ADD PUSH2 0x19C9 JUMP JUMPDEST PUSH1 0x8 DUP5 ADD PUSH1 0x0 MSTORE PUSH1 0x20 PUSH1 0x0 KECCAK256 PUSH1 0x1F DUP7 ADD PUSH1 0x5 SHR DUP2 ADD SWAP2 PUSH1 0x20 DUP8 LT PUSH2 0x1AB1 JUMPI JUMPDEST PUSH1 0x1F ADD PUSH1 0x5 SHR ADD SWAP1 JUMPDEST DUP2 DUP2 LT PUSH2 0x1AA5 JUMPI POP PUSH2 0x18BB JUMP JUMPDEST PUSH1 0x0 DUP2 SSTORE PUSH1 0x1 ADD PUSH2 0x1A98 JUMP JUMPDEST SWAP1 SWAP2 POP DUP2 SWAP1 PUSH2 0x1A8F JUMP JUMPDEST PUSH32 0x4E487B7100000000000000000000000000000000000000000000000000000000 PUSH1 0x0 MSTORE PUSH1 0x41 PUSH1 0x4 MSTORE PUSH1 0x24 PUSH1 0x0 REVERT JUMPDEST PUSH1 0x64 PUSH1 0x40 MLOAD PUSH32 0x8C379A000000000000000000000000000000000000000000000000000000000 DUP2 MSTORE PUSH1 0x20 PUSH1 0x4 DUP3 ADD MSTORE PUSH1 0xC PUSH1 0x24 DUP3 ADD MSTORE PUSH32 0x494E56414C49445F524154450000000000000000000000000000000000000000 PUSH1 0x44 DUP3 ADD MSTORE REVERT JUMPDEST PUSH32 0x4E487B7100000000000000000000000000000000000000000000000000000000 PUSH1 0x0 MSTORE PUSH1 0x12 PUSH1 0x4 MSTORE PUSH1 0x24 PUSH1 0x0 REVERT JUMPDEST PUSH2 0x1B81 CALLVALUE ISZERO PUSH2 0x3A67 JUMP JUMPDEST PUSH2 0x1B91 PUSH1 0x44 CALLDATALOAD ADDRESS CALLER DUP8 DUP10 AND PUSH2 0x3B9D JUMP JUMPDEST PUSH2 0x1755 JUMP JUMPDEST PUSH1 0x4 PUSH1 0x40 MLOAD PUSH32 0xE523909000000000000000000000000000000000000000000000000000000000 DUP2 MSTORE REVERT JUMPDEST POP PUSH8 0xFFFFFFFFFFFFFFFF DUP2 AND PUSH8 0xFFFFFFFFFFFFFFFF PUSH1 0x84 CALLDATALOAD AND GT ISZERO PUSH2 0x173D JUMP JUMPDEST PUSH2 0x1C02 SWAP2 POP PUSH1 0x20 RETURNDATASIZE PUSH1 0x20 GT PUSH2 0x1C08 JUMPI JUMPDEST PUSH2 0x1BFA DUP2 DUP4 PUSH2 0x2CF6 JUMP JUMPDEST DUP2 ADD SWAP1 PUSH2 0x3A4F JUMP JUMPDEST DUP7 PUSH2 0x172C JUMP JUMPDEST POP RETURNDATASIZE PUSH2 0x1BF0 JUMP JUMPDEST PUSH1 0xC0 PUSH32 0xFFFFFFFFFFFFFFFFFFFFFFFFFFFFFFFFFFFFFFFFFFFFFFFFFFFFFFFFFFFFFFFC CALLDATASIZE ADD SLT PUSH2 0x287 JUMPI PUSH2 0x1C41 PUSH2 0x2BF9 JUMP JUMPDEST PUSH2 0x1C49 PUSH2 0x2C3F JUMP JUMPDEST PUSH1 0x84 CALLDATALOAD SWAP1 PUSH1 0xFF DUP3 AND DUP1 SWAP3 SUB PUSH2 0x287 JUMPI PUSH8 0xFFFFFFFFFFFFFFFF PUSH1 0xA4 CALLDATALOAD DUP2 DUP2 GT PUSH2 0x287 JUMPI PUSH2 0x1C79 SWAP1 CALLDATASIZE SWAP1 PUSH1 0x4 ADD PUSH2 0x2C56 JUMP JUMPDEST SWAP1 SWAP2 PUSH2 0x1C83 PUSH2 0x38CD JUMP JUMPDEST PUSH20 0xFFFFFFFFFFFFFFFFFFFFFFFFFFFFFFFFFFFFFFFF SWAP5 PUSH1 0x24 PUSH1 0x20 DUP8 PUSH2 0x163 SLOAD AND PUSH1 0x40 MLOAD SWAP3 DUP4 DUP1 SWAP3 PUSH32 0x9D18755D00000000000000000000000000000000000000000000000000000000 DUP3 MSTORE PUSH1 0x4 CALLDATALOAD PUSH1 0x4 DUP4 ADD MSTORE GAS STATICCALL SWAP1 DUP2 ISZERO PUSH2 0xAB7 JUMPI PUSH1 0x0 SWAP2 PUSH2 0x208C JUMPI JUMPDEST POP ISZERO PUSH2 0xAC3 JUMPI PUSH1 0x44 CALLDATALOAD ISZERO DUP1 ISZERO PUSH2 0x2082 JUMPI JUMPDEST PUSH2 0x1B96 JUMPI PUSH2 0x1D07 SWAP1 PUSH1 0x44 CALLDATALOAD PUSH2 0x366D JUMP JUMPDEST SWAP4 DUP7 DUP7 AND PUSH2 0x205F JUMPI PUSH2 0x1D1A DUP6 CALLVALUE EQ PUSH2 0x3ACC JUMP JUMPDEST PUSH2 0x161 SWAP6 PUSH2 0x1D28 DUP8 SLOAD PUSH2 0x3B31 JUMP JUMPDEST DUP1 SWAP8 SSTORE DUP7 PUSH1 0x0 MSTORE PUSH2 0x15F PUSH1 0x20 MSTORE PUSH1 0x40 PUSH1 0x0 KECCAK256 PUSH32 0xFFFFFFFFFFFFFFFFFFFFFFFF0000000000000000000000000000000000000000 CALLER DUP2 DUP4 SLOAD AND OR DUP3 SSTORE PUSH1 0x4 CALLDATALOAD PUSH1 0x1 DUP4 ADD SSTORE PUSH1 0x2 DUP3 ADD SWAP1 DUP4 DUP12 AND SWAP1 DUP3 SLOAD AND OR SWAP1 SSTORE PUSH1 0x44 CALLDATALOAD PUSH1 0x3 DUP3 ADD SSTORE PUSH2 0x1E00 PUSH1 0x4 DUP3 ADD DUP6 DUP6 AND PUSH32 0xFFFFFFFFFFFFFFFFFFFFFFFFFFFFFFFFFFFFFFFFFFFFFFFF0000000000000000 DUP3 SLOAD AND OR DUP2 SSTORE DUP6 PUSH2 0x1DC0 DUP2 DUP8 AND TIMESTAMP PUSH2 0x3680 JUMP JUMPDEST DUP3 SLOAD PUSH32 0xFFFFFFFFFFFFFFFFFFFFFFFFFFFFFFFF0000000000000000FFFFFFFFFFFFFFFF AND SWAP2 AND PUSH1 0x40 SHL PUSH16 0xFFFFFFFFFFFFFFFF0000000000000000 AND OR SWAP1 SSTORE JUMP JUMPDEST DUP7 PUSH1 0x5 DUP3 ADD SSTORE PUSH1 0x6 DUP2 ADD PUSH1 0x1 PUSH32 0xFFFFFFFFFFFFFFFFFFFFFFFFFFFFFFFFFFFFFFFFFFFFFFFFFFFFFFFFFFFFFF00 DUP3 SLOAD AND OR SWAP1 SSTORE DUP4 DUP6 GT PUSH2 0x1ABB JUMPI PUSH2 0x1E47 PUSH1 0x7 DUP3 ADD SLOAD PUSH2 0x3937 JUMP JUMPDEST PUSH1 0x1F DUP2 GT PUSH2 0x2014 JUMPI JUMPDEST POP SWAP3 DUP8 SWAP3 PUSH1 0x20 SWAP10 SWAP3 DUP7 SWAP6 PUSH1 0x0 PUSH1 0x1F DUP9 GT PUSH1 0x1 EQ PUSH2 0x1F46 JUMPI PUSH32 0xAA3FD16D79E93469FFBEB4256C069FAA0857CE026950ED9A9456A7B8C49DFB6A SWAP7 SWAP8 PUSH1 0x7 SWAP2 PUSH1 0x0 SWAP2 PUSH2 0x1F3B JUMPI JUMPDEST POP DUP10 PUSH1 0x1 SHL SWAP1 PUSH32 0xFFFFFFFFFFFFFFFFFFFFFFFFFFFFFFFFFFFFFFFFFFFFFFFFFFFFFFFFFFFFFFFF DUP12 PUSH1 0x3 SHL SHR NOT AND OR SWAP2 ADD SSTORE JUMPDEST PUSH1 0x40 MLOAD SWAP4 AND DUP4 MSTORE PUSH1 0x44 CALLDATALOAD DUP11 DUP5 ADD MSTORE AND PUSH1 0x40 DUP3 ADD MSTORE PUSH1 0x80 PUSH1 0x60 DUP3 ADD MSTORE DUP1 PUSH2 0x1EF7 PUSH1 0x4 CALLDATALOAD SWAP7 CALLER SWAP7 PUSH1 0x80 DUP5 ADD SWAP2 PUSH2 0x3B5E JUMP JUMPDEST SUB SWAP1 LOG4 DUP1 PUSH2 0x1F09 JUMPI JUMPDEST POP PUSH1 0x40 MLOAD SWAP1 DUP2 MSTORE RETURN JUMPDEST PUSH1 0x40 MLOAD SWAP1 DUP2 MSTORE DUP2 PUSH32 0xC4CF5AC5547453719FF21BE0EEB0578367844FC842D192B34F442EC64CEEB195 DUP5 CALLER SWAP4 LOG3 DUP3 PUSH2 0x1F00 JUMP JUMPDEST SWAP1 POP DUP11 ADD CALLDATALOAD DUP15 PUSH2 0x1E95 JUMP JUMPDEST SWAP7 PUSH32 0xFFFFFFFFFFFFFFFFFFFFFFFFFFFFFFFFFFFFFFFFFFFFFFFFFFFFFFFFFFFFFFE0 AND SWAP7 PUSH1 0x7 DUP3 ADD PUSH1 0x0 MSTORE DUP13 PUSH1 0x0 KECCAK256 SWAP1 DUP10 PUSH1 0x0 JUMPDEST DUP13 DUP12 DUP3 LT PUSH2 0x1FF7 JUMPI POP POP PUSH32 0xAA3FD16D79E93469FFBEB4256C069FAA0857CE026950ED9A9456A7B8C49DFB6A SWAP9 SWAP10 LT PUSH2 0x1FBF JUMPI JUMPDEST POP POP PUSH1 0x7 PUSH1 0x1 DUP10 DUP2 SHL ADD SWAP2 ADD SSTORE PUSH2 0x1EC8 JUMP JUMPDEST PUSH32 0xFFFFFFFFFFFFFFFFFFFFFFFFFFFFFFFFFFFFFFFFFFFFFFFFFFFFFFFFFFFFFFFF PUSH1 0xF8 DUP12 PUSH1 0x3 SHL AND SHR NOT SWAP1 DUP12 ADD CALLDATALOAD AND SWAP1 SSTORE DUP13 DUP1 PUSH2 0x1FAD JUMP JUMPDEST DUP4 ADD CALLDATALOAD DUP5 SSTORE DUP15 SWAP10 POP PUSH1 0x1 SWAP1 SWAP4 ADD SWAP3 PUSH1 0x20 SWAP3 DUP4 ADD SWAP3 DUP13 SWAP3 POP ADD PUSH2 0x1F7A JUMP JUMPDEST PUSH1 0x7 DUP3 ADD PUSH1 0x0 MSTORE PUSH1 0x20 PUSH1 0x0 KECCAK256 PUSH1 0x1F DUP8 ADD PUSH1 0x5 SHR DUP2 ADD SWAP2 PUSH1 0x20 DUP9 LT PUSH2 0x2055 JUMPI JUMPDEST PUSH1 0x1F ADD PUSH1 0x5 SHR ADD SWAP1 JUMPDEST DUP2 DUP2 LT PUSH2 0x2049 JUMPI POP PUSH2 0x1E50 JUMP JUMPDEST PUSH1 0x0 DUP2 SSTORE PUSH1 0x1 ADD PUSH2 0x203C JUMP JUMPDEST SWAP1 SWAP2 POP DUP2 SWAP1 PUSH2 0x2033 JUMP JUMPDEST PUSH2 0x2069 CALLVALUE ISZERO PUSH2 0x3A67 JUMP JUMPDEST DUP5 ISZERO PUSH2 0x1D1A JUMPI PUSH2 0x207D DUP6 ADDRESS CALLER DUP10 DUP12 AND PUSH2 0x3B9D JUMP JUMPDEST PUSH2 0x1D1A JUMP JUMPDEST POP DUP2 DUP6 AND ISZERO PUSH2 0x1CF7 JUMP JUMPDEST PUSH2 0x20A5 SWAP2 POP PUSH1 0x20 RETURNDATASIZE PUSH1 0x20 GT PUSH2 0x1C08 JUMPI PUSH2 0x1BFA DUP2 DUP4 PUSH2 0x2CF6 JUMP JUMPDEST DUP9 PUSH2 0x1CE6 JUMP JUMPDEST CALLVALUE PUSH2 0x287 JUMPI PUSH1 0x20 DUP1 PUSH32 0xFFFFFFFFFFFFFFFFFFFFFFFFFFFFFFFFFFFFFFFFFFFFFFFFFFFFFFFFFFFFFFFC CALLDATASIZE ADD SLT PUSH2 0x287 JUMPI PUSH1 0x4 CALLDATALOAD SWAP1 PUSH2 0x20EE PUSH1 0x2 PUSH1 0x97 SLOAD EQ ISZERO PUSH2 0x3DDC JUMP JUMPDEST PUSH1 0x2 PUSH1 0x97 SSTORE PUSH2 0x20FB PUSH2 0x38CD JUMP JUMPDEST DUP2 PUSH1 0x0 MSTORE PUSH2 0x160 DUP2 MSTORE PUSH1 0x40 PUSH1 0x0 KECCAK256 SWAP1 PUSH1 0x7 DUP3 ADD SWAP3 PUSH1 0xFF DUP5 SLOAD AND ISZERO PUSH2 0xB10 JUMPI PUSH20 0xFFFFFFFFFFFFFFFFFFFFFFFFFFFFFFFFFFFFFFFF SWAP1 DUP2 PUSH2 0x163 SLOAD AND SWAP1 DUP4 PUSH1 0x1 DUP7 ADD SLOAD PUSH1 0x24 PUSH1 0x40 MLOAD DUP1 SWAP6 DUP2 SWAP4 PUSH32 0x6F6BF11800000000000000000000000000000000000000000000000000000000 DUP4 MSTORE PUSH1 0x4 DUP4 ADD MSTORE GAS STATICCALL SWAP2 DUP3 ISZERO PUSH2 0xAB7 JUMPI PUSH1 0x0 SWAP3 PUSH2 0x2224 JUMPI JUMPDEST POP DUP3 DUP3 AND SWAP2 DUP3 CALLER SUB PUSH2 0xAC3 JUMPI PUSH2 0x2193 DUP7 PUSH2 0x3E5B JUMP JUMPDEST SWAP5 DUP6 ISZERO PUSH2 0x1B96 JUMPI DUP6 PUSH2 0x21E0 PUSH1 0x5 SWAP8 PUSH32 0xB8794A93AD70D58BD94788F8523CD8EBCFF47F5541F8816ADE60C636F1B57827 SWAP5 PUSH1 0x6 DUP12 ADD SWAP9 PUSH2 0x21D3 DUP4 DUP12 SLOAD PUSH2 0x3680 JUMP JUMPDEST DUP11 SSTORE PUSH1 0x2 DUP13 ADD SLOAD AND PUSH2 0x3F03 JUMP JUMPDEST PUSH1 0x40 MLOAD SWAP1 DUP2 MSTORE LOG3 SLOAD SWAP2 ADD SLOAD EQ PUSH2 0x21F8 JUMPI JUMPDEST PUSH1 0x1 PUSH1 0x97 SSTORE STOP JUMPDEST PUSH32 0xFFFFFFFFFFFFFFFFFFFFFFFFFFFFFFFFFFFFFFFFFFFFFFFFFFFFFFFFFFFFFF00 DUP2 SLOAD AND SWAP1 SSTORE DUP1 PUSH2 0x21F1 JUMP JUMPDEST PUSH2 0x223C SWAP2 SWAP3 POP DUP5 RETURNDATASIZE DUP7 GT PUSH2 0xAB0 JUMPI PUSH2 0xAA2 DUP2 DUP4 PUSH2 0x2CF6 JUMP JUMPDEST SWAP1 DUP7 PUSH2 0x217E JUMP JUMPDEST CALLVALUE PUSH2 0x287 JUMPI PUSH1 0x20 DUP1 PUSH32 0xFFFFFFFFFFFFFFFFFFFFFFFFFFFFFFFFFFFFFFFFFFFFFFFFFFFFFFFFFFFFFFFC CALLDATASIZE ADD SLT PUSH2 0x287 JUMPI PUSH2 0x227B PUSH2 0x2C1C JUMP JUMPDEST PUSH20 0xFFFFFFFFFFFFFFFFFFFFFFFFFFFFFFFFFFFFFFFF DUP1 PUSH32 0x0 AND PUSH2 0x22BF DUP2 ADDRESS EQ ISZERO PUSH2 0x33E1 JUMP JUMPDEST PUSH2 0x22EE PUSH32 0x360894A13BA1A3210667C828492DB98DCA3E2076CC3735A920A3CA505D382BBC SWAP2 DUP4 DUP4 SLOAD AND EQ PUSH2 0x346C JUMP JUMPDEST PUSH2 0x22F6 PUSH2 0x2DD7 JUMP JUMPDEST PUSH1 0x40 MLOAD SWAP1 DUP5 DUP3 ADD SWAP3 DUP3 DUP5 LT PUSH8 0xFFFFFFFFFFFFFFFF DUP6 GT OR PUSH2 0x1ABB JUMPI DUP4 PUSH1 0x40 MSTORE PUSH1 0x0 DUP4 MSTORE PUSH1 0xFF PUSH32 0x4910FDFA16FED3260ED0E7147F7CC6DA11A60208B5B9406D12A635614FFD9143 SLOAD AND PUSH1 0x0 EQ PUSH2 0x2353 JUMPI POP POP POP POP PUSH2 0x521 SWAP2 POP PUSH2 0x34F7 JUMP JUMPDEST DUP5 AND SWAP1 PUSH1 0x40 MLOAD PUSH32 0x52D1902D00000000000000000000000000000000000000000000000000000000 DUP2 MSTORE DUP7 DUP2 PUSH1 0x4 DUP2 DUP7 GAS STATICCALL PUSH1 0x0 SWAP2 DUP2 PUSH2 0x2589 JUMPI JUMPDEST POP PUSH2 0x2416 JUMPI PUSH1 0x84 DUP8 PUSH1 0x40 MLOAD SWAP1 PUSH32 0x8C379A000000000000000000000000000000000000000000000000000000000 DUP3 MSTORE PUSH1 0x4 DUP3 ADD MSTORE PUSH1 0x2E PUSH1 0x24 DUP3 ADD MSTORE PUSH32 0x45524331393637557067726164653A206E657720696D706C656D656E74617469 PUSH1 0x44 DUP3 ADD MSTORE PUSH32 0x6F6E206973206E6F742055555053000000000000000000000000000000000000 PUSH1 0x64 DUP3 ADD MSTORE REVERT JUMPDEST SUB PUSH2 0x2505 JUMPI PUSH2 0x2424 DUP5 PUSH2 0x34F7 JUMP JUMPDEST PUSH1 0x40 MLOAD SWAP1 PUSH32 0xBC7CD75A20EE27FD9ADEBAB32041F755214DBC6BFFA90CC0225B39DA2E5C2D3B PUSH1 0x0 DUP1 LOG2 DUP2 MLOAD ISZERO DUP1 ISZERO SWAP1 PUSH2 0x24FD JUMPI JUMPDEST PUSH2 0x245E JUMPI STOP JUMPDEST DUP4 EXTCODESIZE ISZERO PUSH2 0x247C JUMPI POP PUSH2 0x521 SWAP4 SWAP3 PUSH1 0x0 SWAP3 DUP4 SWAP3 MLOAD SWAP2 GAS DELEGATECALL PUSH2 0x1010 PUSH2 0x35E3 JUMP JUMPDEST DUP1 DUP6 PUSH32 0x8C379A000000000000000000000000000000000000000000000000000000000 PUSH1 0x84 SWAP4 MSTORE PUSH1 0x4 DUP3 ADD MSTORE PUSH1 0x26 PUSH1 0x24 DUP3 ADD MSTORE PUSH32 0x416464726573733A2064656C65676174652063616C6C20746F206E6F6E2D636F PUSH1 0x44 DUP3 ADD MSTORE PUSH32 0x6E74726163740000000000000000000000000000000000000000000000000000 PUSH1 0x64 DUP3 ADD MSTORE REVERT JUMPDEST POP PUSH1 0x0 PUSH2 0x2458 JUMP JUMPDEST PUSH1 0x84 DUP6 PUSH1 0x40 MLOAD SWAP1 PUSH32 0x8C379A000000000000000000000000000000000000000000000000000000000 DUP3 MSTORE PUSH1 0x4 DUP3 ADD MSTORE PUSH1 0x29 PUSH1 0x24 DUP3 ADD MSTORE PUSH32 0x45524331393637557067726164653A20756E737570706F727465642070726F78 PUSH1 0x44 DUP3 ADD MSTORE PUSH32 0x6961626C65555549440000000000000000000000000000000000000000000000 PUSH1 0x64 DUP3 ADD MSTORE REVERT JUMPDEST SWAP1 SWAP2 POP DUP8 DUP2 DUP2 RETURNDATASIZE DUP4 GT PUSH2 0x25B1 JUMPI JUMPDEST PUSH2 0x25A1 DUP2 DUP4 PUSH2 0x2CF6 JUMP JUMPDEST DUP2 ADD SUB SLT PUSH2 0x287 JUMPI MLOAD SWAP1 DUP9 PUSH2 0x238D JUMP JUMPDEST POP RETURNDATASIZE PUSH2 0x2597 JUMP JUMPDEST CALLVALUE PUSH2 0x287 JUMPI PUSH1 0x40 PUSH32 0xFFFFFFFFFFFFFFFFFFFFFFFFFFFFFFFFFFFFFFFFFFFFFFFFFFFFFFFFFFFFFFFC CALLDATASIZE ADD SLT PUSH2 0x287 JUMPI PUSH2 0x25EF PUSH2 0x2BF9 JUMP JUMPDEST CALLER PUSH20 0xFFFFFFFFFFFFFFFFFFFFFFFFFFFFFFFFFFFFFFFF DUP3 AND SUB PUSH2 0x2618 JUMPI PUSH2 0x521 SWAP1 PUSH1 0x4 CALLDATALOAD PUSH2 0x333F JUMP JUMPDEST PUSH1 0x84 PUSH1 0x40 MLOAD PUSH32 0x8C379A000000000000000000000000000000000000000000000000000000000 DUP2 MSTORE PUSH1 0x20 PUSH1 0x4 DUP3 ADD MSTORE PUSH1 0x2F PUSH1 0x24 DUP3 ADD MSTORE PUSH32 0x416363657373436F6E74726F6C3A2063616E206F6E6C792072656E6F756E6365 PUSH1 0x44 DUP3 ADD MSTORE PUSH32 0x20726F6C657320666F722073656C660000000000000000000000000000000000 PUSH1 0x64 DUP3 ADD MSTORE REVERT JUMPDEST CALLVALUE PUSH2 0x287 JUMPI PUSH1 0x20 DUP1 PUSH32 0xFFFFFFFFFFFFFFFFFFFFFFFFFFFFFFFFFFFFFFFFFFFFFFFFFFFFFFFFFFFFFFFC CALLDATASIZE ADD SLT PUSH2 0x287 JUMPI PUSH1 0x4 CALLDATALOAD PUSH2 0x26D7 PUSH2 0x38CD JUMP JUMPDEST DUP1 PUSH1 0x0 MSTORE PUSH2 0x15F DUP3 MSTORE PUSH1 0x40 PUSH1 0x0 KECCAK256 SWAP2 PUSH1 0xFF PUSH1 0x6 DUP5 ADD SLOAD AND ISZERO PUSH2 0x25D JUMPI PUSH1 0x4 DUP4 ADD SWAP3 DUP4 SLOAD SWAP2 PUSH8 0xFFFFFFFFFFFFFFFF SWAP3 DUP4 DUP2 PUSH1 0x40 SHR AND DUP1 TIMESTAMP LT PUSH2 0x1B96 JUMPI PUSH1 0x5 DUP5 ADD SWAP2 DUP3 SLOAD SWAP1 PUSH1 0x3 DUP7 ADD SWAP4 DUP5 SLOAD SWAP3 DUP4 DUP2 LT PUSH2 0x1B96 JUMPI DUP9 SWAP4 PUSH2 0x2734 SWAP2 PUSH2 0x3DA3 JUMP JUMPDEST SWAP1 SSTORE AND ADD DUP5 DUP2 GT PUSH2 0x2859 JUMPI DUP7 SLOAD PUSH32 0xFFFFFFFFFFFFFFFFFFFFFFFFFFFFFFFF0000000000000000FFFFFFFFFFFFFFFF AND PUSH1 0x40 SWAP2 SWAP1 SWAP2 SHL PUSH16 0xFFFFFFFFFFFFFFFF0000000000000000 AND OR DUP7 SSTORE PUSH20 0xFFFFFFFFFFFFFFFFFFFFFFFFFFFFFFFFFFFFFFFF SWAP2 DUP3 PUSH2 0x163 SLOAD AND SWAP5 DUP2 PUSH1 0x1 DUP7 ADD SLOAD PUSH1 0x24 PUSH1 0x40 MLOAD DUP1 SWAP10 DUP2 SWAP4 PUSH32 0x6F6BF11800000000000000000000000000000000000000000000000000000000 DUP4 MSTORE PUSH1 0x4 DUP4 ADD MSTORE GAS STATICCALL SWAP3 DUP4 ISZERO PUSH2 0xAB7 JUMPI DUP5 PUSH1 0x40 SWAP7 PUSH32 0xCE70C8CED76327A9674F875EE5996C86BB12A3664251D8C69D3333F5C11D46A3 SWAP9 PUSH1 0x0 SWAP7 PUSH2 0x2831 JUMPI JUMPDEST POP SWAP1 PUSH1 0x2 PUSH2 0x281D SWAP3 ADD SLOAD AND DUP6 DUP4 SLOAD SWAP2 PUSH2 0x3F03 JUMP JUMPDEST SLOAD SWAP8 SLOAD DUP6 SHR AND SWAP1 DUP5 MLOAD SWAP8 DUP9 MSTORE DUP8 ADD MSTORE AND SWAP4 LOG3 STOP JUMPDEST PUSH2 0x281D SWAP3 SWAP2 SWAP7 POP PUSH2 0x2850 PUSH1 0x2 SWAP2 DUP8 RETURNDATASIZE DUP10 GT PUSH2 0xAB0 JUMPI PUSH2 0xAA2 DUP2 DUP4 PUSH2 0x2CF6 JUMP JUMPDEST SWAP7 SWAP2 SWAP3 POP PUSH2 0x2809 JUMP JUMPDEST PUSH32 0x4E487B7100000000000000000000000000000000000000000000000000000000 PUSH1 0x0 MSTORE PUSH1 0x11 PUSH1 0x4 MSTORE PUSH1 0x24 PUSH1 0x0 REVERT JUMPDEST CALLVALUE PUSH2 0x287 JUMPI PUSH1 0x40 PUSH32 0xFFFFFFFFFFFFFFFFFFFFFFFFFFFFFFFFFFFFFFFFFFFFFFFFFFFFFFFFFFFFFFFC CALLDATASIZE ADD SLT PUSH2 0x287 JUMPI PUSH1 0x4 CALLDATALOAD PUSH2 0x28C2 PUSH2 0x2BF9 JUMP JUMPDEST DUP2 PUSH1 0x0 MSTORE PUSH1 0x65 PUSH1 0x20 MSTORE PUSH2 0x28DC PUSH1 0x1 PUSH1 0x40 PUSH1 0x0 KECCAK256 ADD SLOAD PUSH2 0x3203 JUMP JUMPDEST DUP2 PUSH1 0x0 MSTORE PUSH1 0x65 PUSH1 0x20 MSTORE PUSH20 0xFFFFFFFFFFFFFFFFFFFFFFFFFFFFFFFFFFFFFFFF PUSH1 0x40 PUSH1 0x0 KECCAK256 SWAP2 AND SWAP1 DUP2 PUSH1 0x0 MSTORE PUSH1 0x20 MSTORE PUSH1 0xFF PUSH1 0x40 PUSH1 0x0 KECCAK256 SLOAD AND ISZERO PUSH2 0x2919 JUMPI STOP JUMPDEST DUP2 PUSH1 0x0 MSTORE PUSH1 0x65 PUSH1 0x20 MSTORE PUSH1 0x40 PUSH1 0x0 KECCAK256 DUP2 PUSH1 0x0 MSTORE PUSH1 0x20 MSTORE PUSH1 0x40 PUSH1 0x0 KECCAK256 PUSH1 0x1 PUSH32 0xFFFFFFFFFFFFFFFFFFFFFFFFFFFFFFFFFFFFFFFFFFFFFFFFFFFFFFFFFFFFFF00 DUP3 SLOAD AND OR SWAP1 SSTORE CALLER SWAP2 PUSH32 0x2F8788117E7EFF1D82E926EC794901D17C78024A50270940304540A733656F0D PUSH1 0x0 DUP1 LOG4 STOP JUMPDEST CALLVALUE PUSH2 0x287 JUMPI PUSH1 0x20 PUSH32 0xFFFFFFFFFFFFFFFFFFFFFFFFFFFFFFFFFFFFFFFFFFFFFFFFFFFFFFFFFFFFFFFC CALLDATASIZE ADD SLT PUSH2 0x287 JUMPI PUSH1 0x4 CALLDATALOAD PUSH1 0x0 MSTORE PUSH1 0x65 PUSH1 0x20 MSTORE PUSH1 0x20 PUSH1 0x1 PUSH1 0x40 PUSH1 0x0 KECCAK256 ADD SLOAD PUSH1 0x40 MLOAD SWAP1 DUP2 MSTORE RETURN JUMPDEST CALLVALUE PUSH2 0x287 JUMPI PUSH1 0x20 PUSH32 0xFFFFFFFFFFFFFFFFFFFFFFFFFFFFFFFFFFFFFFFFFFFFFFFFFFFFFFFFFFFFFFFC CALLDATASIZE ADD SLT PUSH2 0x287 JUMPI PUSH1 0x4 CALLDATALOAD PUSH2 0x2A13 PUSH1 0x2 PUSH1 0x97 SLOAD EQ ISZERO PUSH2 0x3DDC JUMP JUMPDEST PUSH1 0x2 PUSH1 0x97 SSTORE DUP1 PUSH1 0x0 MSTORE PUSH2 0x15F PUSH1 0x20 MSTORE PUSH1 0x40 PUSH1 0x0 KECCAK256 SWAP1 PUSH1 0x6 DUP3 ADD SWAP2 DUP3 SLOAD SWAP3 PUSH1 0xFF DUP5 AND ISZERO PUSH2 0x25D JUMPI PUSH20 0xFFFFFFFFFFFFFFFFFFFFFFFFFFFFFFFFFFFFFFFF DUP1 DUP4 SLOAD AND SWAP3 DUP4 CALLER EQ ISZERO DUP1 PUSH2 0x2AC7 JUMPI JUMPDEST PUSH2 0xAC3 JUMPI PUSH2 0x9B3 PUSH32 0x9063FCF9B5994653A0A7B032C31DB9A1B0E1C5F720C586F51AEF10B000ADA060 SWAP5 PUSH1 0x20 SWAP5 PUSH32 0xFFFFFFFFFFFFFFFFFFFFFFFFFFFFFFFFFFFFFFFFFFFFFFFFFFFFFFFFFFFFFF00 PUSH1 0x0 SWAP10 AND SWAP1 SSTORE PUSH1 0x5 DUP4 ADD SWAP1 DUP2 SLOAD SWAP9 DUP10 SWAP3 SSTORE DUP5 PUSH1 0x2 DUP6 ADD SLOAD AND PUSH2 0x3F03 JUMP JUMPDEST POP CALLER PUSH1 0x0 SWAP1 DUP2 MSTORE PUSH32 0xFFDFC1249C027F9191656349FEB0761381BB32C9F557E01F419FD08754BF5A1B PUSH1 0x20 MSTORE PUSH1 0x40 SWAP1 KECCAK256 SLOAD PUSH1 0xFF AND ISZERO PUSH2 0x2A5D JUMP JUMPDEST CALLVALUE PUSH2 0x287 JUMPI PUSH1 0x0 PUSH32 0xFFFFFFFFFFFFFFFFFFFFFFFFFFFFFFFFFFFFFFFFFFFFFFFFFFFFFFFFFFFFFFFC CALLDATASIZE ADD SLT PUSH2 0x287 JUMPI PUSH1 0x20 PUSH2 0x161 SLOAD PUSH1 0x40 MLOAD SWAP1 DUP2 MSTORE RETURN JUMPDEST CALLVALUE PUSH2 0x287 JUMPI PUSH1 0x20 PUSH32 0xFFFFFFFFFFFFFFFFFFFFFFFFFFFFFFFFFFFFFFFFFFFFFFFFFFFFFFFFFFFFFFFC CALLDATASIZE ADD SLT PUSH2 0x287 JUMPI PUSH1 0x4 CALLDATALOAD SWAP1 PUSH32 0xFFFFFFFF00000000000000000000000000000000000000000000000000000000 DUP3 AND DUP1 SWAP3 SUB PUSH2 0x287 JUMPI DUP2 PUSH32 0x7965DB0B00000000000000000000000000000000000000000000000000000000 PUSH1 0x20 SWAP4 EQ SWAP1 DUP2 ISZERO PUSH2 0x2BCF JUMPI JUMPDEST POP ISZERO ISZERO DUP2 MSTORE RETURN JUMPDEST PUSH32 0x1FFC9A700000000000000000000000000000000000000000000000000000000 SWAP2 POP EQ DUP4 PUSH2 0x2BC8 JUMP JUMPDEST PUSH1 0x24 CALLDATALOAD SWAP1 PUSH20 0xFFFFFFFFFFFFFFFFFFFFFFFFFFFFFFFFFFFFFFFF DUP3 AND DUP3 SUB PUSH2 0x287 JUMPI JUMP JUMPDEST PUSH1 0x4 CALLDATALOAD SWAP1 PUSH20 0xFFFFFFFFFFFFFFFFFFFFFFFFFFFFFFFFFFFFFFFF DUP3 AND DUP3 SUB PUSH2 0x287 JUMPI JUMP JUMPDEST PUSH1 0x64 CALLDATALOAD SWAP1 PUSH8 0xFFFFFFFFFFFFFFFF DUP3 AND DUP3 SUB PUSH2 0x287 JUMPI JUMP JUMPDEST SWAP2 DUP2 PUSH1 0x1F DUP5 ADD SLT ISZERO PUSH2 0x287 JUMPI DUP3 CALLDATALOAD SWAP2 PUSH8 0xFFFFFFFFFFFFFFFF DUP4 GT PUSH2 0x287 JUMPI PUSH1 0x20 DUP4 DUP2 DUP7 ADD SWAP6 ADD ADD GT PUSH2 0x287 JUMPI JUMP JUMPDEST PUSH2 0x140 DUP2 ADD SWAP1 DUP2 LT PUSH8 0xFFFFFFFFFFFFFFFF DUP3 GT OR PUSH2 0x1ABB JUMPI PUSH1 0x40 MSTORE JUMP JUMPDEST PUSH2 0x120 DUP2 ADD SWAP1 DUP2 LT PUSH8 0xFFFFFFFFFFFFFFFF DUP3 GT OR PUSH2 0x1ABB JUMPI PUSH1 0x40 MSTORE JUMP JUMPDEST PUSH1 0x60 DUP2 ADD SWAP1 DUP2 LT PUSH8 0xFFFFFFFFFFFFFFFF DUP3 GT OR PUSH2 0x1ABB JUMPI PUSH1 0x40 MSTORE JUMP JUMPDEST PUSH1 0x80 DUP2 ADD SWAP1 DUP2 LT PUSH8 0xFFFFFFFFFFFFFFFF DUP3 GT OR PUSH2 0x1ABB JUMPI PUSH1 0x40 MSTORE JUMP JUMPDEST SWAP1 PUSH1 0x1F PUSH32 0xFFFFFFFFFFFFFFFFFFFFFFFFFFFFFFFFFFFFFFFFFFFFFFFFFFFFFFFFFFFFFFE0 SWAP2 ADD AND DUP2 ADD SWAP1 DUP2 LT PUSH8 0xFFFFFFFFFFFFFFFF DUP3 GT OR PUSH2 0x1ABB JUMPI PUSH1 0x40 MSTORE JUMP JUMPDEST PUSH8 0xFFFFFFFFFFFFFFFF DUP2 GT PUSH2 0x1ABB JUMPI PUSH1 0x1F ADD PUSH32 0xFFFFFFFFFFFFFFFFFFFFFFFFFFFFFFFFFFFFFFFFFFFFFFFFFFFFFFFFFFFFFFE0 AND PUSH1 0x20 ADD SWAP1 JUMP JUMPDEST PUSH1 0x0 JUMPDEST DUP4 DUP2 LT PUSH2 0x2D84 JUMPI POP POP PUSH1 0x0 SWAP2 ADD MSTORE JUMP JUMPDEST DUP2 DUP2 ADD MLOAD DUP4 DUP3 ADD MSTORE PUSH1 0x20 ADD PUSH2 0x2D74 JUMP JUMPDEST SWAP1 PUSH32 0xFFFFFFFFFFFFFFFFFFFFFFFFFFFFFFFFFFFFFFFFFFFFFFFFFFFFFFFFFFFFFFE0 PUSH1 0x1F PUSH1 0x20 SWAP4 PUSH2 0x2DD0 DUP2 MLOAD DUP1 SWAP3 DUP2 DUP8 MSTORE DUP8 DUP1 DUP9 ADD SWAP2 ADD PUSH2 0x2D71 JUMP JUMPDEST ADD AND ADD ADD SWAP1 JUMP JUMPDEST CALLER PUSH1 0x0 SWAP1 DUP2 MSTORE PUSH32 0xFFDFC1249C027F9191656349FEB0761381BB32C9F557E01F419FD08754BF5A1B PUSH1 0x20 SWAP1 DUP2 MSTORE PUSH1 0x40 DUP1 DUP4 KECCAK256 SLOAD SWAP1 SWAP3 SWAP1 PUSH1 0xFF AND ISZERO PUSH2 0x2E19 JUMPI POP POP POP JUMP JUMPDEST PUSH2 0x2E22 CALLER PUSH2 0x36CD JUMP JUMPDEST SWAP1 DUP1 DUP5 MLOAD SWAP1 PUSH2 0x2E30 DUP3 PUSH2 0x2CDA JUMP JUMPDEST PUSH1 0x42 DUP3 MSTORE DUP5 DUP3 ADD SWAP3 PUSH1 0x60 CALLDATASIZE DUP6 CALLDATACOPY DUP3 MLOAD ISZERO PUSH2 0x3060 JUMPI PUSH1 0x30 DUP5 MSTORE8 DUP3 MLOAD SWAP1 PUSH1 0x1 SWAP2 DUP3 LT ISZERO PUSH2 0x3060 JUMPI SWAP1 PUSH1 0x78 PUSH1 0x21 DUP6 ADD MSTORE8 PUSH1 0x41 SWAP2 JUMPDEST DUP2 DUP4 GT PUSH2 0x2F95 JUMPI POP POP POP PUSH2 0x2F39 JUMPI PUSH1 0x48 PUSH2 0x2F35 SWAP4 DUP7 SWAP4 PUSH2 0x2EFF SWAP4 PUSH2 0x2EF0 SWAP9 MLOAD SWAP9 DUP10 SWAP4 PUSH32 0x416363657373436F6E74726F6C3A206163636F756E7420000000000000000000 DUP11 DUP7 ADD MSTORE PUSH2 0x2EBB DUP2 MLOAD DUP1 SWAP3 DUP13 PUSH1 0x37 DUP10 ADD SWAP2 ADD PUSH2 0x2D71 JUMP JUMPDEST DUP5 ADD SWAP2 PUSH32 0x206973206D697373696E6720726F6C6520000000000000000000000000000000 PUSH1 0x37 DUP5 ADD MSTORE MLOAD DUP1 SWAP4 DUP7 DUP5 ADD SWAP1 PUSH2 0x2D71 JUMP JUMPDEST ADD SUB PUSH1 0x28 DUP2 ADD DUP8 MSTORE ADD DUP6 PUSH2 0x2CF6 JUMP JUMPDEST MLOAD SWAP3 DUP4 SWAP3 PUSH32 0x8C379A000000000000000000000000000000000000000000000000000000000 DUP5 MSTORE PUSH1 0x4 DUP5 ADD MSTORE PUSH1 0x24 DUP4 ADD SWAP1 PUSH2 0x2D94 JUMP JUMPDEST SUB SWAP1 REVERT JUMPDEST PUSH1 0x64 DUP5 DUP7 MLOAD SWAP1 PUSH32 0x8C379A000000000000000000000000000000000000000000000000000000000 DUP3 MSTORE DUP1 PUSH1 0x4 DUP4 ADD MSTORE PUSH1 0x24 DUP3 ADD MSTORE PUSH32 0x537472696E67733A20686578206C656E67746820696E73756666696369656E74 PUSH1 0x44 DUP3 ADD MSTORE REVERT JUMPDEST SWAP1 SWAP2 SWAP3 PUSH1 0xF DUP2 AND PUSH1 0x10 DUP2 LT ISZERO PUSH2 0x3033 JUMPI PUSH32 0x3031323334353637383961626364656600000000000000000000000000000000 SWAP1 BYTE PUSH2 0x2FD2 DUP6 DUP8 PUSH2 0x368D JUMP JUMPDEST MSTORE8 PUSH1 0x4 SHR SWAP3 DUP1 ISZERO PUSH2 0x3006 JUMPI PUSH32 0xFFFFFFFFFFFFFFFFFFFFFFFFFFFFFFFFFFFFFFFFFFFFFFFFFFFFFFFFFFFFFFFF ADD SWAP2 SWAP1 PUSH2 0x2E61 JUMP JUMPDEST PUSH1 0x24 DUP3 PUSH32 0x4E487B7100000000000000000000000000000000000000000000000000000000 DUP2 MSTORE PUSH1 0x11 PUSH1 0x4 MSTORE REVERT JUMPDEST PUSH1 0x24 DUP4 PUSH32 0x4E487B7100000000000000000000000000000000000000000000000000000000 DUP2 MSTORE PUSH1 0x32 PUSH1 0x4 MSTORE REVERT JUMPDEST DUP1 PUSH32 0x4E487B7100000000000000000000000000000000000000000000000000000000 PUSH1 0x24 SWAP3 MSTORE PUSH1 0x32 PUSH1 0x4 MSTORE REVERT JUMPDEST CALLER PUSH1 0x0 SWAP1 DUP2 MSTORE PUSH32 0xBFE93621C6AA2DBF737E9056C9B79E4D30EE4F6B28B18BE2CB71AAC8A7BF258E PUSH1 0x20 SWAP1 DUP2 MSTORE PUSH1 0x40 DUP1 DUP4 KECCAK256 SLOAD SWAP1 SWAP3 PUSH32 0x65D7A28E3265B37A6474929F336521B332C1681B933F6CB9F3376673440D862A SWAP2 PUSH1 0xFF AND ISZERO PUSH2 0x30F1 JUMPI POP POP POP POP JUMP JUMPDEST PUSH2 0x30FA CALLER PUSH2 0x36CD JUMP JUMPDEST SWAP2 DUP5 MLOAD SWAP1 PUSH2 0x3107 DUP3 PUSH2 0x2CDA JUMP JUMPDEST PUSH1 0x42 DUP3 MSTORE DUP5 DUP3 ADD SWAP3 PUSH1 0x60 CALLDATASIZE DUP6 CALLDATACOPY DUP3 MLOAD ISZERO PUSH2 0x3060 JUMPI PUSH1 0x30 DUP5 MSTORE8 DUP3 MLOAD SWAP1 PUSH1 0x1 SWAP2 DUP3 LT ISZERO PUSH2 0x3060 JUMPI SWAP1 PUSH1 0x78 PUSH1 0x21 DUP6 ADD MSTORE8 PUSH1 0x41 SWAP2 JUMPDEST DUP2 DUP4 GT PUSH2 0x3192 JUMPI POP POP POP PUSH2 0x2F39 JUMPI PUSH1 0x48 PUSH2 0x2F35 SWAP4 DUP7 SWAP4 PUSH2 0x2EFF SWAP4 PUSH2 0x2EF0 SWAP9 MLOAD SWAP9 DUP10 SWAP4 PUSH32 0x416363657373436F6E74726F6C3A206163636F756E7420000000000000000000 DUP11 DUP7 ADD MSTORE PUSH2 0x2EBB DUP2 MLOAD DUP1 SWAP3 DUP13 PUSH1 0x37 DUP10 ADD SWAP2 ADD PUSH2 0x2D71 JUMP JUMPDEST SWAP1 SWAP2 SWAP3 PUSH1 0xF DUP2 AND PUSH1 0x10 DUP2 LT ISZERO PUSH2 0x3033 JUMPI PUSH32 0x3031323334353637383961626364656600000000000000000000000000000000 SWAP1 BYTE PUSH2 0x31CF DUP6 DUP8 PUSH2 0x368D JUMP JUMPDEST MSTORE8 PUSH1 0x4 SHR SWAP3 DUP1 ISZERO PUSH2 0x3006 JUMPI PUSH32 0xFFFFFFFFFFFFFFFFFFFFFFFFFFFFFFFFFFFFFFFFFFFFFFFFFFFFFFFFFFFFFFFF ADD SWAP2 SWAP1 PUSH2 0x3138 JUMP JUMPDEST PUSH1 0x0 SWAP1 DUP1 DUP3 MSTORE PUSH1 0x20 SWAP1 PUSH1 0x65 DUP3 MSTORE PUSH1 0x40 SWAP3 DUP4 DUP2 KECCAK256 CALLER DUP3 MSTORE DUP4 MSTORE PUSH1 0xFF DUP5 DUP3 KECCAK256 SLOAD AND ISZERO PUSH2 0x322D JUMPI POP POP POP POP JUMP JUMPDEST PUSH2 0x3236 CALLER PUSH2 0x36CD JUMP JUMPDEST SWAP2 DUP5 MLOAD SWAP1 PUSH2 0x3243 DUP3 PUSH2 0x2CDA JUMP JUMPDEST PUSH1 0x42 DUP3 MSTORE DUP5 DUP3 ADD SWAP3 PUSH1 0x60 CALLDATASIZE DUP6 CALLDATACOPY DUP3 MLOAD ISZERO PUSH2 0x3060 JUMPI PUSH1 0x30 DUP5 MSTORE8 DUP3 MLOAD SWAP1 PUSH1 0x1 SWAP2 DUP3 LT ISZERO PUSH2 0x3060 JUMPI SWAP1 PUSH1 0x78 PUSH1 0x21 DUP6 ADD MSTORE8 PUSH1 0x41 SWAP2 JUMPDEST DUP2 DUP4 GT PUSH2 0x32CE JUMPI POP POP POP PUSH2 0x2F39 JUMPI PUSH1 0x48 PUSH2 0x2F35 SWAP4 DUP7 SWAP4 PUSH2 0x2EFF SWAP4 PUSH2 0x2EF0 SWAP9 MLOAD SWAP9 DUP10 SWAP4 PUSH32 0x416363657373436F6E74726F6C3A206163636F756E7420000000000000000000 DUP11 DUP7 ADD MSTORE PUSH2 0x2EBB DUP2 MLOAD DUP1 SWAP3 DUP13 PUSH1 0x37 DUP10 ADD SWAP2 ADD PUSH2 0x2D71 JUMP JUMPDEST SWAP1 SWAP2 SWAP3 PUSH1 0xF DUP2 AND PUSH1 0x10 DUP2 LT ISZERO PUSH2 0x3033 JUMPI PUSH32 0x3031323334353637383961626364656600000000000000000000000000000000 SWAP1 BYTE PUSH2 0x330B DUP6 DUP8 PUSH2 0x368D JUMP JUMPDEST MSTORE8 PUSH1 0x4 SHR SWAP3 DUP1 ISZERO PUSH2 0x3006 JUMPI PUSH32 0xFFFFFFFFFFFFFFFFFFFFFFFFFFFFFFFFFFFFFFFFFFFFFFFFFFFFFFFFFFFFFFFF ADD SWAP2 SWAP1 PUSH2 0x3274 JUMP JUMPDEST SWAP1 PUSH1 0x0 SWAP2 DUP1 DUP4 MSTORE PUSH1 0x65 PUSH1 0x20 MSTORE PUSH20 0xFFFFFFFFFFFFFFFFFFFFFFFFFFFFFFFFFFFFFFFF PUSH1 0x40 DUP5 KECCAK256 SWAP3 AND SWAP2 DUP3 DUP5 MSTORE PUSH1 0x20 MSTORE PUSH1 0xFF PUSH1 0x40 DUP5 KECCAK256 SLOAD AND PUSH2 0x337E JUMPI POP POP POP JUMP JUMPDEST DUP1 DUP4 MSTORE PUSH1 0x65 PUSH1 0x20 MSTORE PUSH1 0x40 DUP4 KECCAK256 DUP3 DUP5 MSTORE PUSH1 0x20 MSTORE PUSH1 0x40 DUP4 KECCAK256 PUSH32 0xFFFFFFFFFFFFFFFFFFFFFFFFFFFFFFFFFFFFFFFFFFFFFFFFFFFFFFFFFFFFFF00 DUP2 SLOAD AND SWAP1 SSTORE PUSH32 0xF6391F5C32D9C69D2A47EA670B442974B53935D1EDC7FD64EB21E047A839171B CALLER SWAP4 DUP1 LOG4 JUMP JUMPDEST ISZERO PUSH2 0x33E8 JUMPI JUMP JUMPDEST PUSH1 0x84 PUSH1 0x40 MLOAD PUSH32 0x8C379A000000000000000000000000000000000000000000000000000000000 DUP2 MSTORE PUSH1 0x20 PUSH1 0x4 DUP3 ADD MSTORE PUSH1 0x2C PUSH1 0x24 DUP3 ADD MSTORE PUSH32 0x46756E6374696F6E206D7573742062652063616C6C6564207468726F75676820 PUSH1 0x44 DUP3 ADD MSTORE PUSH32 0x64656C656761746563616C6C0000000000000000000000000000000000000000 PUSH1 0x64 DUP3 ADD MSTORE REVERT JUMPDEST ISZERO PUSH2 0x3473 JUMPI JUMP JUMPDEST PUSH1 0x84 PUSH1 0x40 MLOAD PUSH32 0x8C379A000000000000000000000000000000000000000000000000000000000 DUP2 MSTORE PUSH1 0x20 PUSH1 0x4 DUP3 ADD MSTORE PUSH1 0x2C PUSH1 0x24 DUP3 ADD MSTORE PUSH32 0x46756E6374696F6E206D7573742062652063616C6C6564207468726F75676820 PUSH1 0x44 DUP3 ADD MSTORE PUSH32 0x6163746976652070726F78790000000000000000000000000000000000000000 PUSH1 0x64 DUP3 ADD MSTORE REVERT JUMPDEST DUP1 EXTCODESIZE ISZERO PUSH2 0x355F JUMPI PUSH20 0xFFFFFFFFFFFFFFFFFFFFFFFFFFFFFFFFFFFFFFFF PUSH32 0x360894A13BA1A3210667C828492DB98DCA3E2076CC3735A920A3CA505D382BBC SWAP2 AND PUSH32 0xFFFFFFFFFFFFFFFFFFFFFFFF0000000000000000000000000000000000000000 DUP3 SLOAD AND OR SWAP1 SSTORE JUMP JUMPDEST PUSH1 0x84 PUSH1 0x40 MLOAD PUSH32 0x8C379A000000000000000000000000000000000000000000000000000000000 DUP2 MSTORE PUSH1 0x20 PUSH1 0x4 DUP3 ADD MSTORE PUSH1 0x2D PUSH1 0x24 DUP3 ADD MSTORE PUSH32 0x455243313936373A206E657720696D706C656D656E746174696F6E206973206E PUSH1 0x44 DUP3 ADD MSTORE PUSH32 0x6F74206120636F6E747261637400000000000000000000000000000000000000 PUSH1 0x64 DUP3 ADD MSTORE REVERT JUMPDEST RETURNDATASIZE ISZERO PUSH2 0x360E JUMPI RETURNDATASIZE SWAP1 PUSH2 0x35F4 DUP3 PUSH2 0x2D37 JUMP JUMPDEST SWAP2 PUSH2 0x3602 PUSH1 0x40 MLOAD SWAP4 DUP5 PUSH2 0x2CF6 JUMP JUMPDEST DUP3 MSTORE RETURNDATASIZE PUSH1 0x0 PUSH1 0x20 DUP5 ADD RETURNDATACOPY JUMP JUMPDEST PUSH1 0x60 SWAP1 JUMP JUMPDEST SWAP1 SWAP2 SWAP1 ISZERO PUSH2 0x361F JUMPI POP SWAP1 JUMP JUMPDEST DUP2 MLOAD ISZERO PUSH2 0x362F JUMPI POP DUP1 MLOAD SWAP1 PUSH1 0x20 ADD REVERT JUMPDEST PUSH2 0x2F35 SWAP1 PUSH1 0x40 MLOAD SWAP2 DUP3 SWAP2 PUSH32 0x8C379A000000000000000000000000000000000000000000000000000000000 DUP4 MSTORE PUSH1 0x20 PUSH1 0x4 DUP5 ADD MSTORE PUSH1 0x24 DUP4 ADD SWAP1 PUSH2 0x2D94 JUMP JUMPDEST DUP2 DUP2 MUL SWAP3 SWAP2 DUP2 ISZERO SWAP2 DUP5 DIV EQ OR ISZERO PUSH2 0x2859 JUMPI JUMP JUMPDEST SWAP2 SWAP1 DUP3 ADD DUP1 SWAP3 GT PUSH2 0x2859 JUMPI JUMP JUMPDEST SWAP1 DUP2 MLOAD DUP2 LT ISZERO PUSH2 0x369E JUMPI ADD PUSH1 0x20 ADD SWAP1 JUMP JUMPDEST PUSH32 0x4E487B7100000000000000000000000000000000000000000000000000000000 PUSH1 0x0 MSTORE PUSH1 0x32 PUSH1 0x4 MSTORE PUSH1 0x24 PUSH1 0x0 REVERT JUMPDEST PUSH1 0x40 MLOAD SWAP1 PUSH2 0x36DA DUP3 PUSH2 0x2CBE JUMP JUMPDEST PUSH1 0x2A DUP3 MSTORE PUSH1 0x20 DUP3 ADD PUSH1 0x40 CALLDATASIZE DUP3 CALLDATACOPY DUP3 MLOAD ISZERO PUSH2 0x369E JUMPI PUSH1 0x30 SWAP1 MSTORE8 DUP2 MLOAD PUSH1 0x1 SWAP1 DUP2 LT ISZERO PUSH2 0x369E JUMPI PUSH1 0x78 PUSH1 0x21 DUP5 ADD MSTORE8 PUSH1 0x29 SWAP1 JUMPDEST DUP1 DUP3 GT PUSH2 0x3777 JUMPI POP POP PUSH2 0x3719 JUMPI SWAP1 JUMP JUMPDEST PUSH1 0x64 PUSH1 0x40 MLOAD PUSH32 0x8C379A000000000000000000000000000000000000000000000000000000000 DUP2 MSTORE PUSH1 0x20 PUSH1 0x4 DUP3 ADD MSTORE PUSH1 0x20 PUSH1 0x24 DUP3 ADD MSTORE PUSH32 0x537472696E67733A20686578206C656E67746820696E73756666696369656E74 PUSH1 0x44 DUP3 ADD MSTORE REVERT JUMPDEST SWAP1 SWAP2 PUSH1 0xF DUP2 AND PUSH1 0x10 DUP2 LT ISZERO PUSH2 0x3814 JUMPI PUSH32 0x3031323334353637383961626364656600000000000000000000000000000000 SWAP1 BYTE PUSH2 0x37B3 DUP5 DUP7 PUSH2 0x368D JUMP JUMPDEST MSTORE8 PUSH1 0x4 SHR SWAP2 DUP1 ISZERO PUSH2 0x37E6 JUMPI PUSH32 0xFFFFFFFFFFFFFFFFFFFFFFFFFFFFFFFFFFFFFFFFFFFFFFFFFFFFFFFFFFFFFFFF ADD SWAP1 PUSH2 0x3709 JUMP JUMPDEST PUSH1 0x24 PUSH1 0x0 PUSH32 0x4E487B7100000000000000000000000000000000000000000000000000000000 DUP2 MSTORE PUSH1 0x11 PUSH1 0x4 MSTORE REVERT JUMPDEST PUSH1 0x24 PUSH1 0x0 PUSH32 0x4E487B7100000000000000000000000000000000000000000000000000000000 DUP2 MSTORE PUSH1 0x32 PUSH1 0x4 MSTORE REVERT JUMPDEST ISZERO PUSH2 0x3849 JUMPI JUMP JUMPDEST PUSH1 0x84 PUSH1 0x40 MLOAD PUSH32 0x8C379A000000000000000000000000000000000000000000000000000000000 DUP2 MSTORE PUSH1 0x20 PUSH1 0x4 DUP3 ADD MSTORE PUSH1 0x2B PUSH1 0x24 DUP3 ADD MSTORE PUSH32 0x496E697469616C697A61626C653A20636F6E7472616374206973206E6F742069 PUSH1 0x44 DUP3 ADD MSTORE PUSH32 0x6E697469616C697A696E67000000000000000000000000000000000000000000 PUSH1 0x64 DUP3 ADD MSTORE REVERT JUMPDEST PUSH1 0xFF PUSH1 0xC9 SLOAD AND PUSH2 0x38D9 JUMPI JUMP JUMPDEST PUSH1 0x64 PUSH1 0x40 MLOAD PUSH32 0x8C379A000000000000000000000000000000000000000000000000000000000 DUP2 MSTORE PUSH1 0x20 PUSH1 0x4 DUP3 ADD MSTORE PUSH1 0x10 PUSH1 0x24 DUP3 ADD MSTORE PUSH32 0x5061757361626C653A2070617573656400000000000000000000000000000000 PUSH1 0x44 DUP3 ADD MSTORE REVERT JUMPDEST SWAP1 PUSH1 0x1 DUP3 DUP2 SHR SWAP3 AND DUP1 ISZERO PUSH2 0x3980 JUMPI JUMPDEST PUSH1 0x20 DUP4 LT EQ PUSH2 0x3951 JUMPI JUMP JUMPDEST PUSH32 0x4E487B7100000000000000000000000000000000000000000000000000000000 PUSH1 0x0 MSTORE PUSH1 0x22 PUSH1 0x4 MSTORE PUSH1 0x24 PUSH1 0x0 REVERT JUMPDEST SWAP2 PUSH1 0x7F AND SWAP2 PUSH2 0x3946 JUMP JUMPDEST SWAP1 PUSH1 0x40 MLOAD SWAP2 DUP3 PUSH1 0x0 DUP3 SLOAD SWAP3 PUSH2 0x399E DUP5 PUSH2 0x3937 JUMP JUMPDEST SWAP1 DUP2 DUP5 MSTORE PUSH1 0x1 SWAP5 DUP6 DUP2 AND SWAP1 DUP2 PUSH1 0x0 EQ PUSH2 0x3A0D JUMPI POP PUSH1 0x1 EQ PUSH2 0x39CA JUMPI JUMPDEST POP POP PUSH2 0x39C8 SWAP3 POP SUB DUP4 PUSH2 0x2CF6 JUMP JUMPDEST JUMP JUMPDEST SWAP1 SWAP4 SWAP2 POP PUSH1 0x0 MSTORE PUSH1 0x20 SWAP1 DUP2 PUSH1 0x0 KECCAK256 SWAP4 PUSH1 0x0 SWAP2 JUMPDEST DUP2 DUP4 LT PUSH2 0x39F5 JUMPI POP POP PUSH2 0x39C8 SWAP4 POP DUP3 ADD ADD CODESIZE DUP1 PUSH2 0x39BA JUMP JUMPDEST DUP6 SLOAD DUP9 DUP5 ADD DUP6 ADD MSTORE SWAP5 DUP6 ADD SWAP5 DUP8 SWAP5 POP SWAP2 DUP4 ADD SWAP2 PUSH2 0x39DD JUMP JUMPDEST SWAP1 POP PUSH2 0x39C8 SWAP6 POP PUSH1 0x20 SWAP4 POP PUSH32 0xFFFFFFFFFFFFFFFFFFFFFFFFFFFFFFFFFFFFFFFFFFFFFFFFFFFFFFFFFFFFFF00 SWAP2 POP AND DUP3 DUP5 ADD MSTORE ISZERO ISZERO PUSH1 0x5 SHL DUP3 ADD ADD CODESIZE DUP1 PUSH2 0x39BA JUMP JUMPDEST SWAP1 DUP2 PUSH1 0x20 SWAP2 SUB SLT PUSH2 0x287 JUMPI MLOAD DUP1 ISZERO ISZERO DUP2 SUB PUSH2 0x287 JUMPI SWAP1 JUMP JUMPDEST ISZERO PUSH2 0x3A6E JUMPI JUMP JUMPDEST PUSH1 0x64 PUSH1 0x40 MLOAD PUSH32 0x8C379A000000000000000000000000000000000000000000000000000000000 DUP2 MSTORE PUSH1 0x20 PUSH1 0x4 DUP3 ADD MSTORE PUSH1 0xB PUSH1 0x24 DUP3 ADD MSTORE PUSH32 0x544F4B454E5F56414C5545000000000000000000000000000000000000000000 PUSH1 0x44 DUP3 ADD MSTORE REVERT JUMPDEST ISZERO PUSH2 0x3AD3 JUMPI JUMP JUMPDEST PUSH1 0x64 PUSH1 0x40 MLOAD PUSH32 0x8C379A000000000000000000000000000000000000000000000000000000000 DUP2 MSTORE PUSH1 0x20 PUSH1 0x4 DUP3 ADD MSTORE PUSH1 0xD PUSH1 0x24 DUP3 ADD MSTORE PUSH32 0x494E56414C49445F56414C554500000000000000000000000000000000000000 PUSH1 0x44 DUP3 ADD MSTORE REVERT JUMPDEST PUSH32 0xFFFFFFFFFFFFFFFFFFFFFFFFFFFFFFFFFFFFFFFFFFFFFFFFFFFFFFFFFFFFFFFF DUP2 EQ PUSH2 0x2859 JUMPI PUSH1 0x1 ADD SWAP1 JUMP JUMPDEST PUSH1 0x1F DUP3 PUSH1 0x20 SWAP5 SWAP4 PUSH32 0xFFFFFFFFFFFFFFFFFFFFFFFFFFFFFFFFFFFFFFFFFFFFFFFFFFFFFFFFFFFFFFE0 SWAP4 DUP2 DUP7 MSTORE DUP7 DUP7 ADD CALLDATACOPY PUSH1 0x0 DUP6 DUP3 DUP7 ADD ADD MSTORE ADD AND ADD ADD SWAP1 JUMP JUMPDEST SWAP3 SWAP1 PUSH1 0x40 MLOAD SWAP3 PUSH32 0x23B872DD00000000000000000000000000000000000000000000000000000000 PUSH1 0x20 DUP6 ADD MSTORE PUSH20 0xFFFFFFFFFFFFFFFFFFFFFFFFFFFFFFFFFFFFFFFF DUP1 SWAP3 AND PUSH1 0x24 DUP6 ADD MSTORE AND PUSH1 0x44 DUP4 ADD MSTORE PUSH1 0x64 DUP3 ADD MSTORE PUSH1 0x64 DUP2 MSTORE PUSH1 0xA0 DUP2 ADD SWAP2 DUP2 DUP4 LT PUSH8 0xFFFFFFFFFFFFFFFF DUP5 GT OR PUSH2 0x1ABB JUMPI PUSH2 0x39C8 SWAP3 PUSH1 0x40 MSTORE JUMPDEST PUSH20 0xFFFFFFFFFFFFFFFFFFFFFFFFFFFFFFFFFFFFFFFF AND SWAP1 PUSH1 0x40 MLOAD SWAP1 PUSH1 0x40 DUP3 ADD DUP3 DUP2 LT PUSH8 0xFFFFFFFFFFFFFFFF DUP3 GT OR PUSH2 0x1ABB JUMPI PUSH1 0x40 MSTORE PUSH1 0x20 SWAP3 DUP4 DUP4 MSTORE PUSH32 0x5361666545524332303A206C6F772D6C6576656C2063616C6C206661696C6564 DUP5 DUP5 ADD MSTORE DUP1 EXTCODESIZE ISZERO PUSH2 0x3D45 JUMPI PUSH1 0x0 DUP3 DUP2 SWAP3 DUP3 DUP8 PUSH2 0x3C9C SWAP8 SWAP7 MLOAD SWAP4 ADD SWAP2 GAS CALL PUSH2 0x3C96 PUSH2 0x35E3 JUMP JUMPDEST SWAP1 PUSH2 0x3613 JUMP JUMPDEST DUP1 MLOAD SWAP1 DUP2 PUSH2 0x3CA9 JUMPI POP POP POP JUMP JUMPDEST DUP3 DUP1 PUSH2 0x3CB9 SWAP4 DUP4 ADD ADD SWAP2 ADD PUSH2 0x3A4F JUMP JUMPDEST ISZERO PUSH2 0x3CC1 JUMPI POP JUMP JUMPDEST PUSH1 0x84 SWAP1 PUSH1 0x40 MLOAD SWAP1 PUSH32 0x8C379A000000000000000000000000000000000000000000000000000000000 DUP3 MSTORE PUSH1 0x4 DUP3 ADD MSTORE PUSH1 0x2A PUSH1 0x24 DUP3 ADD MSTORE PUSH32 0x5361666545524332303A204552433230206F7065726174696F6E20646964206E PUSH1 0x44 DUP3 ADD MSTORE PUSH32 0x6F74207375636365656400000000000000000000000000000000000000000000 PUSH1 0x64 DUP3 ADD MSTORE REVERT JUMPDEST PUSH1 0x64 DUP5 PUSH1 0x40 MLOAD SWAP1 PUSH32 0x8C379A000000000000000000000000000000000000000000000000000000000 DUP3 MSTORE PUSH1 0x4 DUP3 ADD MSTORE PUSH1 0x1D PUSH1 0x24 DUP3 ADD MSTORE PUSH32 0x416464726573733A2063616C6C20746F206E6F6E2D636F6E7472616374000000 PUSH1 0x44 DUP3 ADD MSTORE REVERT JUMPDEST SWAP2 SWAP1 DUP3 SUB SWAP2 DUP3 GT PUSH2 0x2859 JUMPI JUMP JUMPDEST SWAP1 DUP2 PUSH1 0x20 SWAP2 SUB SLT PUSH2 0x287 JUMPI MLOAD PUSH20 0xFFFFFFFFFFFFFFFFFFFFFFFFFFFFFFFFFFFFFFFF DUP2 AND DUP2 SUB PUSH2 0x287 JUMPI SWAP1 JUMP JUMPDEST ISZERO PUSH2 0x3DE3 JUMPI JUMP JUMPDEST PUSH1 0x64 PUSH1 0x40 MLOAD PUSH32 0x8C379A000000000000000000000000000000000000000000000000000000000 DUP2 MSTORE PUSH1 0x20 PUSH1 0x4 DUP3 ADD MSTORE PUSH1 0x1F PUSH1 0x24 DUP3 ADD MSTORE PUSH32 0x5265656E7472616E637947756172643A207265656E7472616E742063616C6C00 PUSH1 0x44 DUP3 ADD MSTORE REVERT JUMPDEST PUSH8 0xFFFFFFFFFFFFFFFF SWAP2 DUP3 AND SWAP1 DUP3 AND SUB SWAP2 SWAP1 DUP3 GT PUSH2 0x2859 JUMPI JUMP JUMPDEST PUSH1 0xFF PUSH1 0x7 DUP3 ADD SLOAD AND ISZERO PUSH2 0x3EEF JUMPI PUSH1 0x4 DUP2 ADD SLOAD PUSH8 0xFFFFFFFFFFFFFFFF DUP1 DUP3 AND SWAP2 DUP3 TIMESTAMP GT ISZERO PUSH2 0x3EE6 JUMPI PUSH2 0x3EA6 SWAP3 PUSH2 0x3E9B SWAP2 PUSH1 0x40 SHR DUP4 AND TIMESTAMP DUP2 GT PUSH2 0x3EDD JUMPI PUSH2 0x3E41 JUMP JUMPDEST AND PUSH1 0x3 DUP4 ADD SLOAD PUSH2 0x366D JUMP JUMPDEST SWAP1 PUSH1 0x5 DUP2 ADD SLOAD DUP1 DUP4 GT PUSH2 0x3ED4 JUMPI JUMPDEST POP PUSH1 0x6 ADD SLOAD DUP1 DUP3 GT ISZERO PUSH2 0x3ECD JUMPI PUSH2 0x3ECA SWAP2 PUSH2 0x3DA3 JUMP JUMPDEST SWAP1 JUMP JUMPDEST POP POP PUSH1 0x0 SWAP1 JUMP JUMPDEST SWAP2 POP PUSH1 0x6 PUSH2 0x3EB4 JUMP JUMPDEST POP DUP3 TIMESTAMP AND PUSH2 0x3E41 JUMP JUMPDEST POP POP POP POP PUSH1 0x0 SWAP1 JUMP JUMPDEST DUP1 PUSH1 0x6 PUSH1 0x5 PUSH2 0x3ECA SWAP4 ADD SLOAD SWAP2 ADD SLOAD SWAP1 PUSH2 0x3DA3 JUMP JUMPDEST SWAP1 DUP3 ISZERO PUSH2 0x4001 JUMPI PUSH20 0xFFFFFFFFFFFFFFFFFFFFFFFFFFFFFFFFFFFFFFFF SWAP2 DUP3 AND DUP1 PUSH2 0x3FA1 JUMPI POP PUSH1 0x0 DUP1 SWAP4 DUP2 SWAP4 DUP3 SWAP4 AND GAS CALL PUSH2 0x3F3B PUSH2 0x35E3 JUMP JUMPDEST POP ISZERO PUSH2 0x3F43 JUMPI JUMP JUMPDEST PUSH1 0x64 PUSH1 0x40 MLOAD PUSH32 0x8C379A000000000000000000000000000000000000000000000000000000000 DUP2 MSTORE PUSH1 0x20 PUSH1 0x4 DUP3 ADD MSTORE PUSH1 0x13 PUSH1 0x24 DUP3 ADD MSTORE PUSH32 0x4554485F5452414E534645525F4641494C454400000000000000000000000000 PUSH1 0x44 DUP3 ADD MSTORE REVERT JUMPDEST SWAP3 SWAP1 SWAP2 PUSH1 0x40 MLOAD SWAP3 PUSH32 0xA9059CBB00000000000000000000000000000000000000000000000000000000 PUSH1 0x20 DUP6 ADD MSTORE AND PUSH1 0x24 DUP4 ADD MSTORE PUSH1 0x44 DUP3 ADD MSTORE PUSH1 0x44 DUP2 MSTORE PUSH1 0x80 DUP2 ADD SWAP2 DUP2 DUP4 LT PUSH8 0xFFFFFFFFFFFFFFFF DUP5 GT OR PUSH2 0x1ABB JUMPI PUSH2 0x39C8 SWAP3 PUSH1 0x40 MSTORE PUSH2 0x3C15 JUMP JUMPDEST POP POP POP JUMP INVALID LOG2 PUSH5 0x6970667358 0x22 SLT KECCAK256 0x29 DUP2 0xD1 0x4B NUMBER PUSH27 0xF7E6898F999459E0363FC53360B0A415E886853F1C57A71863E564 PUSH20 0x6F6C634300081400330000000000000000000000 "},"methodIdentifiers":{"DEFAULT_ADMIN_ROLE()":"a217fddf","PAUSER_ROLE()":"e63ab1e9","agents()":"58516661","cancelStream(uint256)":"6db9241b","cancelSubscription(uint256)":"21235083","createStream(uint256,address,uint256,uint64,uint64,string)":"3c59302d","createSubscription(uint256,address,uint256,uint64,uint8,string)":"3befaadc","fundSubscription(uint256,uint8)":"e8010646","getRoleAdmin(bytes32)":"248a9ca3","getStream(uint256)":"894e9a0d","getSubscription(uint256)":"dc311dd3","grantRole(bytes32,address)":"2f2ff15d","hasRole(bytes32,address)":"91d14854","initialize(address,address)":"485cc955","pause()":"8456cb59","paused()":"5c975abb","processSubscription(uint256)":"3100fbeb","proxiableUUID()":"52d1902d","renounceRole(bytes32,address)":"36568abe","revokeRole(bytes32,address)":"d547741f","setAgents(address)":"644f861b","streamCount()":"89d0e119","subscriptionCount()":"173b6d90","supportsInterface(bytes4)":"01ffc9a7","unpause()":"3f4ba83a","upgradeTo(address)":"3659cfe6","upgradeToAndCall(address,bytes)":"4f1ef286","withdrawFromStream(uint256)":"3a597f48"}}}}}