{
  "_format": "hh-sol-artifact-1",
  "contractName": "Agents",
  "sourceName": "contracts/Agents.sol",
  "abi": [
    {
      "inputs": [],
      "stateMutability": "nonpayable",
      "type": "constructor"
    },
    {
      "inputs": [
        {
          "internalType": "uint256",
          "name": "agentId",
          "type": "uint256"
        },
        {
          "internalType": "address",
          "name": "currentOwner",
          "type": "address"
        }
      ],
      "name": "AgentAlreadyRegistered",
      "type": "error"
    },
    {
      "inputs": [
        {
          "internalType": "uint256",
          "name": "agentId",
          "type": "uint256"
        }
      ],
      "name": "AgentNotRegistered",
      "type": "error"
    },
    {
      "inputs": [
        {
          "internalType": "uint256",
          "name": "requested",
          "type": "uint256"
        },
        {
          "internalType": "uint256",
          "name": "available",
          "type": "uint256"
        }
      ],
      "name": "AmountTooLarge",
      "type": "error"
    },
    {
      "inputs": [],
      "name": "InvalidPagination",
      "type": "error"
    },
    {
      "inputs": [
        {
          "internalType": "bytes32",
          "name": "permission",
          "type": "bytes32"
        }
      ],
      "name": "InvalidPermission",
      "type": "error"
    },
    {
      "inputs": [
        {
          "internalType": "uint256",
          "name": "agentId",
          "type": "uint256"
        },
        {
          "internalType": "address",
          "name": "expectedOwner",
          "type": "address"
        },
        {
          "internalType": "address",
          "name": "actualCaller",
          "type": "address"
        }
      ],
      "name": "NotAgentOwner",
      "type": "error"
    },
    {
      "inputs": [
        {
          "internalType": "uint256",
          "name": "agentId",
          "type": "uint256"
        },
        {
          "internalType": "address",
          "name": "asset",
          "type": "address"
        }
      ],
      "name": "NothingToWithdraw",
      "type": "error"
    },
    {
      "inputs": [],
      "name": "TreasuryRequired",
      "type": "error"
    },
    {
      "inputs": [
        {
          "internalType": "uint256",
          "name": "agentId",
          "type": "uint256"
        },
        {
          "internalType": "address",
          "name": "caller",
          "type": "address"
        }
      ],
      "name": "UnauthorizedContribution",
      "type": "error"
    },
    {
      "inputs": [
        {
          "internalType": "address",
          "name": "delegate",
          "type": "address"
        }
      ],
      "name": "UnauthorizedDelegate",
      "type": "error"
    },
    {
      "inputs": [
        {
          "internalType": "bytes32",
          "name": "inferenceId",
          "type": "bytes32"
        }
      ],
      "name": "UnknownInference",
      "type": "error"
    },
    {
      "inputs": [],
      "name": "ZeroAmount",
      "type": "error"
    },
    {
      "anonymous": false,
      "inputs": [
        {
          "indexed": false,
          "internalType": "address",
          "name": "previousAdmin",
          "type": "address"
        },
        {
          "indexed": false,
          "internalType": "address",
          "name": "newAdmin",
          "type": "address"
        }
      ],
      "name": "AdminChanged",
      "type": "event"
    },
    {
      "anonymous": false,
      "inputs": [
        {
          "indexed": true,
          "internalType": "uint256",
          "name": "agentId",
          "type": "uint256"
        },
        {
          "indexed": false,
          "internalType": "string",
          "name": "metadata",
          "type": "string"
        }
      ],
      "name": "AgentMetadataUpdated",
      "type": "event"
    },
    {
      "anonymous": false,
      "inputs": [
        {
          "indexed": true,
          "internalType": "uint256",
          "name": "agentId",
          "type": "uint256"
        },
        {
          "indexed": true,
          "internalType": "address",
          "name": "previousOwner",
          "type": "address"
        },
        {
          "indexed": true,
          "internalType": "address",
          "name": "newOwner",
          "type": "address"
        }
      ],
      "name": "AgentOwnershipTransferred",
      "type": "event"
    },
    {
      "anonymous": false,
      "inputs": [
        {
          "indexed": true,
          "internalType": "address",
          "name": "owner",
          "type": "address"
        },
        {
          "indexed": true,
          "internalType": "uint256",
          "name": "agentId",
          "type": "uint256"
        },
        {
          "indexed": false,
          "internalType": "string",
          "name": "metadata",
          "type": "string"
        },
        {
          "indexed": false,
          "internalType": "string",
          "name": "serviceURI",
          "type": "string"
        }
      ],
      "name": "AgentRegistered",
      "type": "event"
    },
    {
      "anonymous": false,
      "inputs": [
        {
          "indexed": true,
          "internalType": "uint256",
          "name": "agentId",
          "type": "uint256"
        },
        {
          "indexed": false,
          "internalType": "string",
          "name": "serviceURI",
          "type": "string"
        }
      ],
      "name": "AgentServiceURIUpdated",
      "type": "event"
    },
    {
      "anonymous": false,
      "inputs": [
        {
          "indexed": true,
          "internalType": "address",
          "name": "beacon",
          "type": "address"
        }
      ],
      "name": "BeaconUpgraded",
      "type": "event"
    },
    {
      "anonymous": false,
      "inputs": [
        {
          "indexed": true,
          "internalType": "uint256",
          "name": "agentId",
          "type": "uint256"
        },
        {
          "indexed": true,
          "internalType": "uint256",
          "name": "contributionId",
          "type": "uint256"
        },
        {
          "indexed": true,
          "internalType": "address",
          "name": "contributor",
          "type": "address"
        },
        {
          "indexed": false,
          "internalType": "string",
          "name": "evidenceURI",
          "type": "string"
        },
        {
          "indexed": false,
          "internalType": "string",
          "name": "metadata",
          "type": "string"
        }
      ],
      "name": "ContributionLogged",
      "type": "event"
    },
    {
      "anonymous": false,
      "inputs": [
        {
          "indexed": true,
          "internalType": "uint256",
          "name": "agentId",
          "type": "uint256"
        },
        {
          "indexed": true,
          "internalType": "address",
          "name": "delegate",
          "type": "address"
        },
        {
          "indexed": true,
          "internalType": "bytes32",
          "name": "permission",
          "type": "bytes32"
        },
        {
          "indexed": false,
          "internalType": "bool",
          "name": "enabled",
          "type": "bool"
        }
      ],
      "name": "DelegateUpdated",
      "type": "event"
    },
    {
      "anonymous": false,
      "inputs": [
        {
          "indexed": true,
          "internalType": "address",
          "name": "asset",
          "type": "address"
        },
        {
          "indexed": false,
          "internalType": "uint16",
          "name": "bps",
          "type": "uint16"
        }
      ],
      "name": "EarlyExitPenaltyUpdated",
      "type": "event"
    },
    {
      "anonymous": false,
      "inputs": [
        {
          "indexed": true,
          "internalType": "uint256",
          "name": "agentId",
          "type": "uint256"
        },
        {
          "indexed": true,
          "internalType": "address",
          "name": "asset",
          "type": "address"
        },
        {
          "indexed": false,
          "internalType": "uint256",
          "name": "amount",
          "type": "uint256"
        },
        {
          "indexed": false,
          "internalType": "uint256",
          "name": "penalty",
          "type": "uint256"
        },
        {
          "indexed": false,
          "internalType": "address",
          "name": "receiver",
          "type": "address"
        }
      ],
      "name": "EarlyWithdrawal",
      "type": "event"
    },
    {
      "anonymous": false,
      "inputs": [
        {
          "indexed": true,
          "internalType": "bytes32",
          "name": "inferenceId",
          "type": "bytes32"
        },
        {
          "indexed": true,
          "internalType": "uint256",
          "name": "agentId",
          "type": "uint256"
        },
        {
          "indexed": true,
          "internalType": "uint256",
          "name": "taskId",
          "type": "uint256"
        },
        {
          "indexed": false,
          "internalType": "address",
          "name": "verifier",
          "type": "address"
        },
        {
          "indexed": false,
          "internalType": "bool",
          "name": "success",
          "type": "bool"
        },
        {
          "indexed": false,
          "internalType": "string",
          "name": "uri",
          "type": "string"
        }
      ],
      "name": "InferenceAttested",
      "type": "event"
    },
    {
      "anonymous": false,
      "inputs": [
        {
          "indexed": true,
          "internalType": "uint256",
          "name": "agentId",
          "type": "uint256"
        },
        {
          "indexed": true,
          "internalType": "bytes32",
          "name": "inferenceId",
          "type": "bytes32"
        },
        {
          "indexed": true,
          "internalType": "bytes32",
          "name": "inputHash",
          "type": "bytes32"
        },
        {
          "indexed": false,
          "internalType": "bytes32",
          "name": "outputHash",
          "type": "bytes32"
        },
        {
          "indexed": false,
          "internalType": "bytes32",
          "name": "modelHash",
          "type": "bytes32"
        },
        {
          "indexed": false,
          "internalType": "uint256",
          "name": "taskId",
          "type": "uint256"
        },
        {
          "indexed": false,
          "internalType": "address",
          "name": "reporter",
          "type": "address"
        },
        {
          "indexed": false,
          "internalType": "string",
          "name": "proofURI",
          "type": "string"
        }
      ],
      "name": "InferenceRecorded",
      "type": "event"
    },
    {
      "anonymous": false,
      "inputs": [
        {
          "indexed": false,
          "internalType": "uint8",
          "name": "version",
          "type": "uint8"
        }
      ],
      "name": "Initialized",
      "type": "event"
    },
    {
      "anonymous": false,
      "inputs": [
        {
          "indexed": false,
          "internalType": "address",
          "name": "account",
          "type": "address"
        }
      ],
      "name": "Paused",
      "type": "event"
    },
    {
      "anonymous": false,
      "inputs": [
        {
          "indexed": true,
          "internalType": "address",
          "name": "verifier",
          "type": "address"
        }
      ],
      "name": "ProofVerifierUpdated",
      "type": "event"
    },
    {
      "anonymous": false,
      "inputs": [
        {
          "indexed": true,
          "internalType": "uint256",
          "name": "agentId",
          "type": "uint256"
        },
        {
          "indexed": true,
          "internalType": "bytes32",
          "name": "dimension",
          "type": "bytes32"
        },
        {
          "indexed": false,
          "internalType": "int256",
          "name": "newScore",
          "type": "int256"
        },
        {
          "indexed": false,
          "internalType": "string",
          "name": "reason",
          "type": "string"
        }
      ],
      "name": "ReputationAdjusted",
      "type": "event"
    },
    {
      "anonymous": false,
      "inputs": [
        {
          "indexed": true,
          "internalType": "bytes32",
          "name": "dimension",
          "type": "bytes32"
        },
        {
          "indexed": false,
          "internalType": "uint256",
          "name": "weight",
          "type": "uint256"
        }
      ],
      "name": "ReputationWeightUpdated",
      "type": "event"
    },
    {
      "anonymous": false,
      "inputs": [
        {
          "indexed": true,
          "internalType": "bytes32",
          "name": "role",
          "type": "bytes32"
        },
        {
          "indexed": true,
          "internalType": "bytes32",
          "name": "previousAdminRole",
          "type": "bytes32"
        },
        {
          "indexed": true,
          "internalType": "bytes32",
          "name": "newAdminRole",
          "type": "bytes32"
        }
      ],
      "name": "RoleAdminChanged",
      "type": "event"
    },
    {
      "anonymous": false,
      "inputs": [
        {
          "indexed": true,
          "internalType": "bytes32",
          "name": "role",
          "type": "bytes32"
        },
        {
          "indexed": true,
          "internalType": "address",
          "name": "account",
          "type": "address"
        },
        {
          "indexed": true,
          "internalType": "address",
          "name": "sender",
          "type": "address"
        }
      ],
      "name": "RoleGranted",
      "type": "event"
    },
    {
      "anonymous": false,
      "inputs": [
        {
          "indexed": true,
          "internalType": "bytes32",
          "name": "role",
          "type": "bytes32"
        },
        {
          "indexed": true,
          "internalType": "address",
          "name": "account",
          "type": "address"
        },
        {
          "indexed": true,
          "internalType": "address",
          "name": "sender",
          "type": "address"
        }
      ],
      "name": "RoleRevoked",
      "type": "event"
    },
    {
      "anonymous": false,
      "inputs": [
        {
          "indexed": true,
          "internalType": "uint256",
          "name": "agentId",
          "type": "uint256"
        },
        {
          "indexed": true,
          "internalType": "address",
          "name": "asset",
          "type": "address"
        },
        {
          "indexed": true,
          "internalType": "address",
          "name": "staker",
          "type": "address"
        },
        {
          "indexed": false,
          "internalType": "uint256",
          "name": "amount",
          "type": "uint256"
        },
        {
          "indexed": false,
          "internalType": "uint256",
          "name": "totalStaked",
          "type": "uint256"
        }
      ],
      "name": "StakeIncreased",
      "type": "event"
    },
    {
      "anonymous": false,
      "inputs": [
        {
          "indexed": true,
          "internalType": "uint256",
          "name": "agentId",
          "type": "uint256"
        },
        {
          "indexed": true,
          "internalType": "address",
          "name": "asset",
          "type": "address"
        },
        {
          "indexed": false,
          "internalType": "uint256",
          "name": "amount",
          "type": "uint256"
        },
        {
          "indexed": false,
          "internalType": "uint256",
          "name": "newLockedBalance",
          "type": "uint256"
        }
      ],
      "name": "StakeLocked",
      "type": "event"
    },
    {
      "anonymous": false,
      "inputs": [
        {
          "indexed": true,
          "internalType": "uint256",
          "name": "agentId",
          "type": "uint256"
        },
        {
          "indexed": true,
          "internalType": "address",
          "name": "asset",
          "type": "address"
        },
        {
          "indexed": false,
          "internalType": "uint256",
          "name": "amount",
          "type": "uint256"
        }
      ],
      "name": "StakeSlashed",
      "type": "event"
    },
    {
      "anonymous": false,
      "inputs": [
        {
          "indexed": true,
          "internalType": "uint256",
          "name": "agentId",
          "type": "uint256"
        },
        {
          "indexed": true,
          "internalType": "address",
          "name": "asset",
          "type": "address"
        },
        {
          "indexed": false,
          "internalType": "uint256",
          "name": "amount",
          "type": "uint256"
        },
        {
          "indexed": false,
          "internalType": "uint256",
          "name": "newLockedBalance",
          "type": "uint256"
        }
      ],
      "name": "StakeUnlocked",
      "type": "event"
    },
    {
      "anonymous": false,
      "inputs": [
        {
          "indexed": true,
          "internalType": "address",
          "name": "newTasksContract",
          "type": "address"
        }
      ],
      "name": "TasksContractUpdated",
      "type": "event"
    },
    {
      "anonymous": false,
      "inputs": [
        {
          "indexed": true,
          "internalType": "address",
          "name": "newTreasury",
          "type": "address"
        }
      ],
      "name": "TreasuryUpdated",
      "type": "event"
    },
    {
      "anonymous": false,
      "inputs": [
        {
          "indexed": true,
          "internalType": "uint256",
          "name": "agentId",
          "type": "uint256"
        },
        {
          "indexed": true,
          "internalType": "address",
          "name": "asset",
          "type": "address"
        },
        {
          "indexed": false,
          "internalType": "uint256",
          "name": "amount",
          "type": "uint256"
        },
        {
          "indexed": false,
          "internalType": "uint64",
          "name": "releaseTime",
          "type": "uint64"
        }
      ],
      "name": "UnbondingInitiated",
      "type": "event"
    },
    {
      "anonymous": false,
      "inputs": [
        {
          "indexed": true,
          "internalType": "address",
          "name": "asset",
          "type": "address"
        },
        {
          "indexed": false,
          "internalType": "uint64",
          "name": "period",
          "type": "uint64"
        }
      ],
      "name": "UnbondingPeriodUpdated",
      "type": "event"
    },
    {
      "anonymous": false,
      "inputs": [
        {
          "indexed": false,
          "internalType": "address",
          "name": "account",
          "type": "address"
        }
      ],
      "name": "Unpaused",
      "type": "event"
    },
    {
      "anonymous": false,
      "inputs": [
        {
          "indexed": true,
          "internalType": "address",
          "name": "implementation",
          "type": "address"
        }
      ],
      "name": "Upgraded",
      "type": "event"
    },
    {
      "anonymous": false,
      "inputs": [
        {
          "indexed": true,
          "internalType": "uint256",
          "name": "agentId",
          "type": "uint256"
        },
        {
          "indexed": true,
          "internalType": "address",
          "name": "asset",
          "type": "address"
        },
        {
          "indexed": false,
          "internalType": "uint256",
          "name": "amount",
          "type": "uint256"
        }
      ],
      "name": "WithdrawalCancelled",
      "type": "event"
    },
    {
      "anonymous": false,
      "inputs": [
        {
          "indexed": true,
          "internalType": "uint256",
          "name": "agentId",
          "type": "uint256"
        },
        {
          "indexed": true,
          "internalType": "address",
          "name": "asset",
          "type": "address"
        },
        {
          "indexed": false,
          "internalType": "uint256",
          "name": "amount",
          "type": "uint256"
        },
        {
          "indexed": true,
          "internalType": "address",
          "name": "receiver",
          "type": "address"
        }
      ],
      "name": "WithdrawalExecuted",
      "type": "event"
    },
    {
      "inputs": [],
      "name": "CONTRIBUTION_ROLE",
      "outputs": [
        {
          "internalType": "bytes32",
          "name": "",
          "type": "bytes32"
        }
      ],
      "stateMutability": "view",
      "type": "function"
    },
    {
      "inputs": [],
      "name": "DEFAULT_ADMIN_ROLE",
      "outputs": [
        {
          "internalType": "bytes32",
          "name": "",
          "type": "bytes32"
        }
      ],
      "stateMutability": "view",
      "type": "function"
    },
    {
      "inputs": [],
      "name": "ORACLE_ROLE",
      "outputs": [
        {
          "internalType": "bytes32",
          "name": "",
          "type": "bytes32"
        }
      ],
      "stateMutability": "view",
      "type": "function"
    },
    {
      "inputs": [],
      "name": "PERMISSION_INFERENCE",
      "outputs": [
        {
          "internalType": "bytes32",
          "name": "",
          "type": "bytes32"
        }
      ],
      "stateMutability": "view",
      "type": "function"
    },
    {
      "inputs": [],
      "name": "PERMISSION_METADATA",
      "outputs": [
        {
          "internalType": "bytes32",
          "name": "",
          "type": "bytes32"
        }
      ],
      "stateMutability": "view",
      "type": "function"
    },
    {
      "inputs": [],
      "name": "PERMISSION_WITHDRAW",
      "outputs": [
        {
          "internalType": "bytes32",
          "name": "",
          "type": "bytes32"
        }
      ],
      "stateMutability": "view",
      "type": "function"
    },
    {
      "inputs": [],
      "name": "REPUTATION_ROLE",
      "outputs": [
        {
          "internalType": "bytes32",
          "name": "",
          "type": "bytes32"
        }
      ],
      "stateMutability": "view",
      "type": "function"
    },
    {
      "inputs": [],
      "name": "SLASHER_ROLE",
      "outputs": [
        {
          "internalType": "bytes32",
          "name": "",
          "type": "bytes32"
        }
      ],
      "stateMutability": "view",
      "type": "function"
    },
    {
      "inputs": [],
      "name": "TASK_MODULE_ROLE",
      "outputs": [
        {
          "internalType": "bytes32",
          "name": "",
          "type": "bytes32"
        }
      ],
      "stateMutability": "view",
      "type": "function"
    },
    {
      "inputs": [],
      "name": "VERIFIER_ROLE",
      "outputs": [
        {
          "internalType": "bytes32",
          "name": "",
          "type": "bytes32"
        }
      ],
      "stateMutability": "view",
      "type": "function"
    },
    {
      "inputs": [
        {
          "internalType": "uint256",
          "name": "agentId",
          "type": "uint256"
        },
        {
          "internalType": "bytes32",
          "name": "dimension",
          "type": "bytes32"
        },
        {
          "internalType": "int256",
          "name": "delta",
          "type": "int256"
        },
        {
          "internalType": "string",
          "name": "reason",
          "type": "string"
        }
      ],
      "name": "adjustReputation",
      "outputs": [],
      "stateMutability": "nonpayable",
      "type": "function"
    },
    {
      "inputs": [
        {
          "internalType": "uint256",
          "name": "",
          "type": "uint256"
        }
      ],
      "name": "agentMetadata",
      "outputs": [
        {
          "internalType": "string",
          "name": "",
          "type": "string"
        }
      ],
      "stateMutability": "view",
      "type": "function"
    },
    {
      "inputs": [
        {
          "internalType": "uint256",
          "name": "",
          "type": "uint256"
        }
      ],
      "name": "agentOwner",
      "outputs": [
        {
          "internalType": "address",
          "name": "",
          "type": "address"
        }
      ],
      "stateMutability": "view",
      "type": "function"
    },
    {
      "inputs": [
        {
          "internalType": "uint256",
          "name": "agentId",
          "type": "uint256"
        }
      ],
      "name": "agentReputation",
      "outputs": [
        {
          "internalType": "int256",
          "name": "",
          "type": "int256"
        }
      ],
      "stateMutability": "view",
      "type": "function"
    },
    {
      "inputs": [
        {
          "internalType": "uint256",
          "name": "agentId",
          "type": "uint256"
        }
      ],
      "name": "agentServiceURI",
      "outputs": [
        {
          "internalType": "string",
          "name": "",
          "type": "string"
        }
      ],
      "stateMutability": "view",
      "type": "function"
    },
    {
      "inputs": [
        {
          "internalType": "uint256",
          "name": "agentId",
          "type": "uint256"
        }
      ],
      "name": "aggregatedReputation",
      "outputs": [
        {
          "internalType": "int256",
          "name": "weighted",
          "type": "int256"
        }
      ],
      "stateMutability": "view",
      "type": "function"
    },
    {
      "inputs": [],
      "name": "aggregatedStats",
      "outputs": [
        {
          "components": [
            {
              "internalType": "uint256",
              "name": "totalAgents",
              "type": "uint256"
            },
            {
              "internalType": "address[]",
              "name": "assets",
              "type": "address[]"
            },
            {
              "internalType": "uint256[]",
              "name": "totalStakedPerAsset",
              "type": "uint256[]"
            }
          ],
          "internalType": "struct Agents.AggregatedStats",
          "name": "stats",
          "type": "tuple"
        }
      ],
      "stateMutability": "view",
      "type": "function"
    },
    {
      "inputs": [
        {
          "internalType": "bytes32",
          "name": "inferenceId",
          "type": "bytes32"
        },
        {
          "internalType": "bool",
          "name": "success",
          "type": "bool"
        },
        {
          "internalType": "string",
          "name": "uri",
          "type": "string"
        },
        {
          "components": [
            {
              "internalType": "bytes32",
              "name": "dimension",
              "type": "bytes32"
            },
            {
              "internalType": "int256",
              "name": "delta",
              "type": "int256"
            },
            {
              "internalType": "string",
              "name": "reason",
              "type": "string"
            }
          ],
          "internalType": "struct Agents.ReputationDelta[]",
          "name": "deltas",
          "type": "tuple[]"
        }
      ],
      "name": "attestInference",
      "outputs": [],
      "stateMutability": "nonpayable",
      "type": "function"
    },
    {
      "inputs": [
        {
          "internalType": "uint256",
          "name": "agentId",
          "type": "uint256"
        },
        {
          "internalType": "address",
          "name": "asset",
          "type": "address"
        },
        {
          "internalType": "uint256",
          "name": "queueIndex",
          "type": "uint256"
        }
      ],
      "name": "cancelWithdrawal",
      "outputs": [],
      "stateMutability": "nonpayable",
      "type": "function"
    },
    {
      "inputs": [
        {
          "internalType": "uint256",
          "name": "agentId",
          "type": "uint256"
        },
        {
          "internalType": "address",
          "name": "asset",
          "type": "address"
        },
        {
          "internalType": "uint256",
          "name": "maxEntries",
          "type": "uint256"
        },
        {
          "internalType": "address",
          "name": "receiver",
          "type": "address"
        },
        {
          "internalType": "bool",
          "name": "forceEarly",
          "type": "bool"
        }
      ],
      "name": "claimWithdrawals",
      "outputs": [
        {
          "internalType": "uint256",
          "name": "releasedAmount",
          "type": "uint256"
        },
        {
          "internalType": "uint256",
          "name": "penaltyAmount",
          "type": "uint256"
        }
      ],
      "stateMutability": "nonpayable",
      "type": "function"
    },
    {
      "inputs": [
        {
          "internalType": "uint256",
          "name": "",
          "type": "uint256"
        }
      ],
      "name": "contributionCount",
      "outputs": [
        {
          "internalType": "uint256",
          "name": "",
          "type": "uint256"
        }
      ],
      "stateMutability": "view",
      "type": "function"
    },
    {
      "inputs": [
        {
          "internalType": "address",
          "name": "",
          "type": "address"
        }
      ],
      "name": "earlyExitPenaltyBps",
      "outputs": [
        {
          "internalType": "uint16",
          "name": "",
          "type": "uint16"
        }
      ],
      "stateMutability": "view",
      "type": "function"
    },
    {
      "inputs": [
        {
          "internalType": "bytes32",
          "name": "inferenceId",
          "type": "bytes32"
        }
      ],
      "name": "getInference",
      "outputs": [
        {
          "components": [
            {
              "internalType": "uint256",
              "name": "agentId",
              "type": "uint256"
            },
            {
              "internalType": "bytes32",
              "name": "inputHash",
              "type": "bytes32"
            },
            {
              "internalType": "bytes32",
              "name": "outputHash",
              "type": "bytes32"
            },
            {
              "internalType": "bytes32",
              "name": "modelHash",
              "type": "bytes32"
            },
            {
              "internalType": "uint256",
              "name": "taskId",
              "type": "uint256"
            },
            {
              "internalType": "address",
              "name": "reporter",
              "type": "address"
            },
            {
              "internalType": "string",
              "name": "proofURI",
              "type": "string"
            },
            {
              "internalType": "uint64",
              "name": "timestamp",
              "type": "uint64"
            }
          ],
          "internalType": "struct Agents.InferenceCommitment",
          "name": "commitment",
          "type": "tuple"
        },
        {
          "components": [
            {
              "internalType": "address",
              "name": "verifier",
              "type": "address"
            },
            {
              "internalType": "bool",
              "name": "success",
              "type": "bool"
            },
            {
              "internalType": "string",
              "name": "uri",
              "type": "string"
            },
            {
              "internalType": "uint64",
              "name": "timestamp",
              "type": "uint64"
            }
          ],
          "internalType": "struct Agents.VerifierAttestation",
          "name": "attestation",
          "type": "tuple"
        }
      ],
      "stateMutability": "view",
      "type": "function"
    },
    {
      "inputs": [
        {
          "internalType": "uint256",
          "name": "agentId",
          "type": "uint256"
        },
        {
          "internalType": "bytes32",
          "name": "dimension",
          "type": "bytes32"
        }
      ],
      "name": "getReputation",
      "outputs": [
        {
          "internalType": "int256",
          "name": "",
          "type": "int256"
        }
      ],
      "stateMutability": "view",
      "type": "function"
    },
    {
      "inputs": [
        {
          "internalType": "bytes32",
          "name": "role",
          "type": "bytes32"
        }
      ],
      "name": "getRoleAdmin",
      "outputs": [
        {
          "internalType": "bytes32",
          "name": "",
          "type": "bytes32"
        }
      ],
      "stateMutability": "view",
      "type": "function"
    },
    {
      "inputs": [
        {
          "internalType": "bytes32",
          "name": "role",
          "type": "bytes32"
        },
        {
          "internalType": "address",
          "name": "account",
          "type": "address"
        }
      ],
      "name": "grantRole",
      "outputs": [],
      "stateMutability": "nonpayable",
      "type": "function"
    },
    {
      "inputs": [
        {
          "internalType": "uint256",
          "name": "agentId",
          "type": "uint256"
        },
        {
          "internalType": "address",
          "name": "operator",
          "type": "address"
        },
        {
          "internalType": "bytes32",
          "name": "permission",
          "type": "bytes32"
        }
      ],
      "name": "hasDelegatedPermission",
      "outputs": [
        {
          "internalType": "bool",
          "name": "",
          "type": "bool"
        }
      ],
      "stateMutability": "view",
      "type": "function"
    },
    {
      "inputs": [
        {
          "internalType": "bytes32",
          "name": "role",
          "type": "bytes32"
        },
        {
          "internalType": "address",
          "name": "account",
          "type": "address"
        }
      ],
      "name": "hasRole",
      "outputs": [
        {
          "internalType": "bool",
          "name": "",
          "type": "bool"
        }
      ],
      "stateMutability": "view",
      "type": "function"
    },
    {
      "inputs": [
        {
          "internalType": "address",
          "name": "admin",
          "type": "address"
        },
        {
          "internalType": "address",
          "name": "treasury_",
          "type": "address"
        }
      ],
      "name": "initialize",
      "outputs": [],
      "stateMutability": "nonpayable",
      "type": "function"
    },
    {
      "inputs": [
        {
          "internalType": "uint256",
          "name": "agentId",
          "type": "uint256"
        }
      ],
      "name": "isAgentRegistered",
      "outputs": [
        {
          "internalType": "bool",
          "name": "",
          "type": "bool"
        }
      ],
      "stateMutability": "view",
      "type": "function"
    },
    {
      "inputs": [
        {
          "internalType": "uint256",
          "name": "offset",
          "type": "uint256"
        },
        {
          "internalType": "uint256",
          "name": "limit",
          "type": "uint256"
        }
      ],
      "name": "listAgents",
      "outputs": [
        {
          "components": [
            {
              "internalType": "uint256",
              "name": "agentId",
              "type": "uint256"
            },
            {
              "internalType": "address",
              "name": "owner",
              "type": "address"
            },
            {
              "internalType": "string",
              "name": "metadata",
              "type": "string"
            },
            {
              "internalType": "string",
              "name": "serviceURI",
              "type": "string"
            },
            {
              "internalType": "uint256",
              "name": "totalStake",
              "type": "uint256"
            },
            {
              "internalType": "uint256",
              "name": "lockedStake",
              "type": "uint256"
            },
            {
              "internalType": "int256",
              "name": "weightedReputation",
              "type": "int256"
            }
          ],
          "internalType": "struct Agents.AgentSummary[]",
          "name": "",
          "type": "tuple[]"
        }
      ],
      "stateMutability": "view",
      "type": "function"
    },
    {
      "inputs": [
        {
          "internalType": "uint256",
          "name": "agentId",
          "type": "uint256"
        }
      ],
      "name": "listInferenceIds",
      "outputs": [
        {
          "internalType": "bytes32[]",
          "name": "",
          "type": "bytes32[]"
        }
      ],
      "stateMutability": "view",
      "type": "function"
    },
    {
      "inputs": [
        {
          "internalType": "uint256",
          "name": "agentId",
          "type": "uint256"
        },
        {
          "internalType": "address",
          "name": "asset",
          "type": "address"
        },
        {
          "internalType": "uint256",
          "name": "amount",
          "type": "uint256"
        }
      ],
      "name": "lockStake",
      "outputs": [],
      "stateMutability": "nonpayable",
      "type": "function"
    },
    {
      "inputs": [
        {
          "internalType": "uint256",
          "name": "agentId",
          "type": "uint256"
        },
        {
          "internalType": "address",
          "name": "asset",
          "type": "address"
        }
      ],
      "name": "lockedBalance",
      "outputs": [
        {
          "internalType": "uint256",
          "name": "",
          "type": "uint256"
        }
      ],
      "stateMutability": "view",
      "type": "function"
    },
    {
      "inputs": [
        {
          "internalType": "uint256",
          "name": "agentId",
          "type": "uint256"
        },
        {
          "internalType": "string",
          "name": "evidenceURI",
          "type": "string"
        },
        {
          "internalType": "string",
          "name": "metadata",
          "type": "string"
        }
      ],
      "name": "logContribution",
      "outputs": [],
      "stateMutability": "nonpayable",
      "type": "function"
    },
    {
      "inputs": [],
      "name": "pause",
      "outputs": [],
      "stateMutability": "nonpayable",
      "type": "function"
    },
    {
      "inputs": [],
      "name": "paused",
      "outputs": [
        {
          "internalType": "bool",
          "name": "",
          "type": "bool"
        }
      ],
      "stateMutability": "view",
      "type": "function"
    },
    {
      "inputs": [
        {
          "internalType": "uint256",
          "name": "agentId",
          "type": "uint256"
        }
      ],
      "name": "payAgentETH",
      "outputs": [],
      "stateMutability": "payable",
      "type": "function"
    },
    {
      "inputs": [
        {
          "internalType": "uint256",
          "name": "agentId",
          "type": "uint256"
        },
        {
          "internalType": "address",
          "name": "token",
          "type": "address"
        },
        {
          "internalType": "uint256",
          "name": "amount",
          "type": "uint256"
        }
      ],
      "name": "payAgentToken",
      "outputs": [],
      "stateMutability": "nonpayable",
      "type": "function"
    },
    {
      "inputs": [
        {
          "internalType": "uint256",
          "name": "agentId",
          "type": "uint256"
        },
        {
          "internalType": "address",
          "name": "asset",
          "type": "address"
        },
        {
          "internalType": "uint256",
          "name": "index",
          "type": "uint256"
        }
      ],
      "name": "pendingWithdrawalAt",
      "outputs": [
        {
          "components": [
            {
              "internalType": "uint256",
              "name": "amount",
              "type": "uint256"
            },
            {
              "internalType": "uint64",
              "name": "releaseTime",
              "type": "uint64"
            }
          ],
          "internalType": "struct Agents.PendingWithdrawal",
          "name": "",
          "type": "tuple"
        }
      ],
      "stateMutability": "view",
      "type": "function"
    },
    {
      "inputs": [
        {
          "internalType": "uint256",
          "name": "agentId",
          "type": "uint256"
        },
        {
          "internalType": "address",
          "name": "asset",
          "type": "address"
        }
      ],
      "name": "pendingWithdrawalCount",
      "outputs": [
        {
          "internalType": "uint256",
          "name": "",
          "type": "uint256"
        }
      ],
      "stateMutability": "view",
      "type": "function"
    },
    {
      "inputs": [],
      "name": "proofVerifier",
      "outputs": [
        {
          "internalType": "address",
          "name": "",
          "type": "address"
        }
      ],
      "stateMutability": "view",
      "type": "function"
    },
    {
      "inputs": [],
      "name": "proxiableUUID",
      "outputs": [
        {
          "internalType": "bytes32",
          "name": "",
          "type": "bytes32"
        }
      ],
      "stateMutability": "view",
      "type": "function"
    },
    {
      "inputs": [
        {
          "internalType": "uint256",
          "name": "agentId",
          "type": "uint256"
        },
        {
          "internalType": "bytes32",
          "name": "inputHash",
          "type": "bytes32"
        },
        {
          "internalType": "bytes32",
          "name": "outputHash",
          "type": "bytes32"
        },
        {
          "internalType": "bytes32",
          "name": "modelHash",
          "type": "bytes32"
        },
        {
          "internalType": "uint256",
          "name": "taskId",
          "type": "uint256"
        },
        {
          "internalType": "string",
          "name": "proofURI",
          "type": "string"
        }
      ],
      "name": "recordInference",
      "outputs": [
        {
          "internalType": "bytes32",
          "name": "inferenceId",
          "type": "bytes32"
        }
      ],
      "stateMutability": "nonpayable",
      "type": "function"
    },
    {
      "inputs": [
        {
          "internalType": "uint256",
          "name": "agentId",
          "type": "uint256"
        },
        {
          "internalType": "string",
          "name": "metadata",
          "type": "string"
        },
        {
          "internalType": "string",
          "name": "serviceURI",
          "type": "string"
        }
      ],
      "name": "register",
      "outputs": [],
      "stateMutability": "nonpayable",
      "type": "function"
    },
    {
      "inputs": [
        {
          "internalType": "bytes32",
          "name": "role",
          "type": "bytes32"
        },
        {
          "internalType": "address",
          "name": "account",
          "type": "address"
        }
      ],
      "name": "renounceRole",
      "outputs": [],
      "stateMutability": "nonpayable",
      "type": "function"
    },
    {
      "inputs": [],
      "name": "reputationDimensions",
      "outputs": [
        {
          "internalType": "bytes32[]",
          "name": "",
          "type": "bytes32[]"
        }
      ],
      "stateMutability": "view",
      "type": "function"
    },
    {
      "inputs": [
        {
          "internalType": "bytes32",
          "name": "",
          "type": "bytes32"
        }
      ],
      "name": "reputationWeights",
      "outputs": [
        {
          "internalType": "uint256",
          "name": "",
          "type": "uint256"
        }
      ],
      "stateMutability": "view",
      "type": "function"
    },
    {
      "inputs": [
        {
          "internalType": "uint256",
          "name": "agentId",
          "type": "uint256"
        },
        {
          "internalType": "address",
          "name": "asset",
          "type": "address"
        },
        {
          "internalType": "uint256",
          "name": "amount",
          "type": "uint256"
        }
      ],
      "name": "requestWithdrawal",
      "outputs": [],
      "stateMutability": "nonpayable",
      "type": "function"
    },
    {
      "inputs": [
        {
          "internalType": "bytes32",
          "name": "role",
          "type": "bytes32"
        },
        {
          "internalType": "address",
          "name": "account",
          "type": "address"
        }
      ],
      "name": "revokeRole",
      "outputs": [],
      "stateMutability": "nonpayable",
      "type": "function"
    },
    {
      "inputs": [
        {
          "internalType": "uint256",
          "name": "agentId",
          "type": "uint256"
        },
        {
          "internalType": "address",
          "name": "delegate",
          "type": "address"
        },
        {
          "internalType": "bytes32",
          "name": "permission",
          "type": "bytes32"
        },
        {
          "internalType": "bool",
          "name": "enabled",
          "type": "bool"
        }
      ],
      "name": "setDelegate",
      "outputs": [],
      "stateMutability": "nonpayable",
      "type": "function"
    },
    {
      "inputs": [
        {
          "internalType": "address",
          "name": "asset",
          "type": "address"
        },
        {
          "internalType": "uint16",
          "name": "bps",
          "type": "uint16"
        }
      ],
      "name": "setEarlyExitPenalty",
      "outputs": [],
      "stateMutability": "nonpayable",
      "type": "function"
    },
    {
      "inputs": [
        {
          "internalType": "address",
          "name": "verifier",
          "type": "address"
        }
      ],
      "name": "setProofVerifier",
      "outputs": [],
      "stateMutability": "nonpayable",
      "type": "function"
    },
    {
      "inputs": [
        {
          "internalType": "address",
          "name": "newTasksContract",
          "type": "address"
        }
      ],
      "name": "setTasksContract",
      "outputs": [],
      "stateMutability": "nonpayable",
      "type": "function"
    },
    {
      "inputs": [
        {
          "internalType": "address",
          "name": "newTreasury",
          "type": "address"
        }
      ],
      "name": "setTreasury",
      "outputs": [],
      "stateMutability": "nonpayable",
      "type": "function"
    },
    {
      "inputs": [
        {
          "internalType": "address",
          "name": "asset",
          "type": "address"
        },
        {
          "internalType": "uint64",
          "name": "period",
          "type": "uint64"
        }
      ],
      "name": "setUnbondingPeriod",
      "outputs": [],
      "stateMutability": "nonpayable",
      "type": "function"
    },
    {
      "inputs": [
        {
          "internalType": "uint256",
          "name": "agentId",
          "type": "uint256"
        },
        {
          "internalType": "address",
          "name": "asset",
          "type": "address"
        },
        {
          "internalType": "uint256",
          "name": "amount",
          "type": "uint256"
        }
      ],
      "name": "slashStake",
      "outputs": [],
      "stateMutability": "nonpayable",
      "type": "function"
    },
    {
      "inputs": [
        {
          "internalType": "uint256",
          "name": "agentId",
          "type": "uint256"
        },
        {
          "internalType": "address",
          "name": "asset",
          "type": "address"
        }
      ],
      "name": "stakeBalances",
      "outputs": [
        {
          "components": [
            {
              "internalType": "uint256",
              "name": "total",
              "type": "uint256"
            },
            {
              "internalType": "uint256",
              "name": "locked",
              "type": "uint256"
            },
            {
              "internalType": "uint256",
              "name": "available",
              "type": "uint256"
            }
          ],
          "internalType": "struct Agents.StakeView",
          "name": "",
          "type": "tuple"
        }
      ],
      "stateMutability": "view",
      "type": "function"
    },
    {
      "inputs": [
        {
          "internalType": "uint256",
          "name": "agentId",
          "type": "uint256"
        },
        {
          "internalType": "address",
          "name": "token",
          "type": "address"
        },
        {
          "internalType": "uint256",
          "name": "amount",
          "type": "uint256"
        }
      ],
      "name": "stakeERC20",
      "outputs": [],
      "stateMutability": "nonpayable",
      "type": "function"
    },
    {
      "inputs": [
        {
          "internalType": "uint256",
          "name": "agentId",
          "type": "uint256"
        }
      ],
      "name": "stakeETH",
      "outputs": [],
      "stateMutability": "payable",
      "type": "function"
    },
    {
      "inputs": [
        {
          "internalType": "uint256",
          "name": "agentId",
          "type": "uint256"
        },
        {
          "internalType": "address",
          "name": "asset",
          "type": "address"
        }
      ],
      "name": "stakedBalance",
      "outputs": [
        {
          "internalType": "uint256",
          "name": "",
          "type": "uint256"
        }
      ],
      "stateMutability": "view",
      "type": "function"
    },
    {
      "inputs": [
        {
          "internalType": "bytes4",
          "name": "interfaceId",
          "type": "bytes4"
        }
      ],
      "name": "supportsInterface",
      "outputs": [
        {
          "internalType": "bool",
          "name": "",
          "type": "bool"
        }
      ],
      "stateMutability": "view",
      "type": "function"
    },
    {
      "inputs": [],
      "name": "tasksContract",
      "outputs": [
        {
          "internalType": "contract ITasks",
          "name": "",
          "type": "address"
        }
      ],
      "stateMutability": "view",
      "type": "function"
    },
    {
      "inputs": [
        {
          "internalType": "address",
          "name": "asset",
          "type": "address"
        }
      ],
      "name": "totalStakedForAsset",
      "outputs": [
        {
          "internalType": "uint256",
          "name": "",
          "type": "uint256"
        }
      ],
      "stateMutability": "view",
      "type": "function"
    },
    {
      "inputs": [],
      "name": "trackedAssets",
      "outputs": [
        {
          "internalType": "address[]",
          "name": "",
          "type": "address[]"
        }
      ],
      "stateMutability": "view",
      "type": "function"
    },
    {
      "inputs": [
        {
          "internalType": "uint256",
          "name": "agentId",
          "type": "uint256"
        },
        {
          "internalType": "address",
          "name": "newOwner",
          "type": "address"
        }
      ],
      "name": "transferAgentOwnership",
      "outputs": [],
      "stateMutability": "nonpayable",
      "type": "function"
    },
    {
      "inputs": [],
      "name": "treasury",
      "outputs": [
        {
          "internalType": "contract ITreasury",
          "name": "",
          "type": "address"
        }
      ],
      "stateMutability": "view",
      "type": "function"
    },
    {
      "inputs": [
        {
          "internalType": "address",
          "name": "",
          "type": "address"
        }
      ],
      "name": "unbondingPeriod",
      "outputs": [
        {
          "internalType": "uint64",
          "name": "",
          "type": "uint64"
        }
      ],
      "stateMutability": "view",
      "type": "function"
    },
    {
      "inputs": [
        {
          "internalType": "uint256",
          "name": "agentId",
          "type": "uint256"
        },
        {
          "internalType": "address",
          "name": "asset",
          "type": "address"
        },
        {
          "internalType": "uint256",
          "name": "amount",
          "type": "uint256"
        }
      ],
      "name": "unlockStake",
      "outputs": [],
      "stateMutability": "nonpayable",
      "type": "function"
    },
    {
      "inputs": [],
      "name": "unpause",
      "outputs": [],
      "stateMutability": "nonpayable",
      "type": "function"
    },
    {
      "inputs": [
        {
          "internalType": "uint256",
          "name": "agentId",
          "type": "uint256"
        },
        {
          "internalType": "string",
          "name": "metadata",
          "type": "string"
        }
      ],
      "name": "updateMetadata",
      "outputs": [],
      "stateMutability": "nonpayable",
      "type": "function"
    },
    {
      "inputs": [
        {
          "internalType": "bytes32",
          "name": "dimension",
          "type": "bytes32"
        },
        {
          "internalType": "uint256",
          "name": "weight",
          "type": "uint256"
        }
      ],
      "name": "updateReputationWeight",
      "outputs": [],
      "stateMutability": "nonpayable",
      "type": "function"
    },
    {
      "inputs": [
        {
          "internalType": "uint256",
          "name": "agentId",
          "type": "uint256"
        },
        {
          "internalType": "string",
          "name": "serviceURI",
          "type": "string"
        }
      ],
      "name": "updateServiceURI",
      "outputs": [],
      "stateMutability": "nonpayable",
      "type": "function"
    },
    {
      "inputs": [
        {
          "internalType": "address",
          "name": "newImplementation",
          "type": "address"
        }
      ],
      "name": "upgradeTo",
      "outputs": [],
      "stateMutability": "nonpayable",
      "type": "function"
    },
    {
      "inputs": [
        {
          "internalType": "address",
          "name": "newImplementation",
          "type": "address"
        },
        {
          "internalType": "bytes",
          "name": "data",
          "type": "bytes"
        }
      ],
      "name": "upgradeToAndCall",
      "outputs": [],
      "stateMutability": "payable",
      "type": "function"
    },
    {
      "stateMutability": "payable",
      "type": "receive"
    }
  ],
  "bytecode": "0x60a08060405234620000e157306080526000549060ff8260081c166200008f575060ff8082161062000053575b604051617e5c9081620000e7823960805181818161408a0152818161423501526154500152f35b60ff90811916176000557f7f26b83ff96e1f2b6a682f133852f6798a09c465da95921460cefb3847402498602060405160ff8152a1386200002c565b62461bcd60e51b815260206004820152602760248201527f496e697469616c697a61626c653a20636f6e747261637420697320696e697469604482015266616c697a696e6760c81b6064820152608490fd5b600080fdfe608080604052600436101561001d575b50361561001b57600080fd5b005b600090813560e01c90816301ffc9a7146163b85750806307e2cea51461635f5780630a0ade1b146161b75780630db4d70f1461616d5780631047d20914615e0f5780631427e0fe14615da75780631d77bda714615c7757806321b5574f14615c245780632239a5b114615ac8578063238354f414615a44578063248a9ca3146159f95780632f2ff15d1461590057806335711eee1461589f57806336568abe146157ba5780633659cfe6146153fe5780633f4ba83a1461530b57806347a95efb146152ad578063485cc95514614c3c5780634986e0751461476557806349b27085146146d45780634c8ea9e5146145b35780634f1ef286146141b75780635095af641461415e57806352d1902d14614044578063535119b114613e8f57806353c8388e14613d3b578063584ee35c14613a9e5780635aaac6e614613a2a5780635c975abb146139e95780635cb6cfc71461387357806361d027b314613820578063698ea97d146136955780636d4a016e1461341a5780636ecc20da1461329c5780636f6bf1181461323d578063727e9ea5146131f4578063744622c6146131255780637df29be9146130265780637fa417b314612fd35780638456cb5914612f3c578063862876b714612d7f57806387b97a5d14612d1157806388254e7a14612cad57806389ba1d9514612c645780638bce074314612c0c5780638cf939ca14612bb35780638d28dda8146127e757806391d148541461276f5780639645c25f146126fb57806397507aa514610e325780639987fe0d146126a85780639c47b86114611f635780639d18755d14611f02578063a1c000b014611e7e578063a217fddf14611e44578063a229fe3f14611db0578063a9c89e2b14611d57578063aa08cc3114611ba6578063b7ad01b314611b31578063c00f1a1d14611ad8578063c7145c4114611a4a578063c71c752914611572578063cb30b054146112fc578063d1dc2eff146110f9578063d4ec2320146110a0578063d547741f14611041578063d571e6e914610f9c578063dbc1135214610e77578063debfc4ef14610e32578063df6244db14610d8a578063e6c6657614610593578063e7705db61461053a578063f0f4426014610462578063f7952d5d146103ba5763f7f6e0220361000f57346103b757807ffffffffffffffffffffffffffffffffffffffffffffffffffffffffffffffffc3601126103b75760206040517f7e247a4f4570bc375ebf04878b56710ee753d7568bcdff3a35be4e3a8437c10b8152f35b80fd5b50346103b75760207ffffffffffffffffffffffffffffffffffffffffffffffffffffffffffffffffc3601126103b75773ffffffffffffffffffffffffffffffffffffffff6104076164dc565b61040f616923565b16610177817fffffffffffffffffffffffff00000000000000000000000000000000000000008254161790557feee381ca1cb619f67cfdfd341fa1cf7d9d1163237de2d14a2978a08c35111f828280a280f35b50346103b75760207ffffffffffffffffffffffffffffffffffffffffffffffffffffffffffffffffc3601126103b75773ffffffffffffffffffffffffffffffffffffffff6104af6164dc565b6104b7616923565b16801561051057610176817fffffffffffffffffffffffff00000000000000000000000000000000000000008254161790557f7dae230f18360d76a040c81f050aa14eb9d6dc7901b20fc5d855e2a20fe814d18280a280f35b60046040517f2bf25fe0000000000000000000000000000000000000000000000000000000008152fd5b50346103b757807ffffffffffffffffffffffffffffffffffffffffffffffffffffffffffffffffc3601126103b75760206040517f0ce23c3e399818cfee81a7ab0880f714e53d7672b08df0fa62f2843416e1ea098152f35b50346103b75760807ffffffffffffffffffffffffffffffffffffffffffffffffffffffffffffffffc3601126103b757602435908115158203610d855760443567ffffffffffffffff8111610d81576105f0903690600401616522565b929067ffffffffffffffff60643511610d7d57366023606435011215610d7d5767ffffffffffffffff6064356004013511610d7d573660246064356004013560051b606435010111610d7d573360009081527f247ef2e624774fcff7a441b371c5db3358c967572e3222e00289d92ff466867260205260409020547f0ce23c3e399818cfee81a7ab0880f714e53d7672b08df0fa62f2843416e1ea099060ff1615610b2f5750600435835261016e60205260408320805415610afd57604051946106b986616684565b33865283151560208701526106cf36828561689e565b604087015267ffffffffffffffff42166060870152600435855261016f602052604085209573ffffffffffffffffffffffffffffffffffffffff8151168754907fffffffffffffffffffffff00000000000000000000000000000000000000000074ff00000000000000000000000000000000000000006020850151151560a01b1692161717875560408101519687519767ffffffffffffffff8911610ad0576001808301916107898b61078385546165f9565b856173f5565b602090601f8c11600114610a2257928b600293818d9e67ffffffffffffffff98958f98606099936109f7575b50507fffffffffffffffffffffffffffffffffffffffffffffffffffffffffffffffff91921b9260031b1c19161790555b01920151167fffffffffffffffffffffffffffffffffffffffffffffffff000000000000000082541617905584602460643501905b60643560040135811061094257505091816004937f38bce32e6d9bce38874c19a4c4d3e54c8ede58f8a2e68a6ad46de759830980d4610883945495869301549485946040519182913383528a1515602084015260606040840152600435956060840191617449565b0390a473ffffffffffffffffffffffffffffffffffffffff610177541680151580610939575b6108b1578480f35b803b156109355784928360849260405196879586947fae80ceb9000000000000000000000000000000000000000000000000000000008652600486015260248501526004356044850152151560648401525af1801561092a57610916575b8080808480f35b61091f906166a0565b6103b757803861090f565b6040513d84823e3d90fd5b8480fd5b508115156108a9565b835490610956816064356004013585617a53565b35602061096a836064356004013587617a53565b01359261097e836064356004013587617a53565b6040810135907fffffffffffffffffffffffffffffffffffffffffffffffffffffffffffffffe1813603018212156109f357019384359467ffffffffffffffff86116109f3576020019285360384136109f3576109e36109e9946109ee97369161689e565b92617b14565b61722e565b61081b565b8b80fd5b015191507fffffffffffffffffffffffffffffffffffffffffffffffffffffffffffffffff386107b5565b838b5260208b209b91907fffffffffffffffffffffffffffffffffffffffffffffffffffffffffffffffe083168c5b818110610aba5750928c9d60609693600296938367ffffffffffffffff9a9710610a83575b505050811b0190556107e6565b01517fffffffffffffffffffffffffffffffffffffffffffffffffffffffffffffffff60f88460031b161c19169055388080610a76565b838301518f559d85019d60209384019301610a51565b6024887f4e487b710000000000000000000000000000000000000000000000000000000081526041600452fd5b60246040517fed1ef9e80000000000000000000000000000000000000000000000000000000081526004356004820152fd5b610b3833617117565b60405191610b4583616684565b6042835260208301906060368337835115610d4e57603082538351600190811015610d4e57607860218601536041905b808211610cb0575050610c52576048610c0592610c1492610c4e956040519586937f416363657373436f6e74726f6c3a206163636f756e74200000000000000000006020860152610bd0815180926020603789019101616476565b8401917f206973206d697373696e6720726f6c6520000000000000000000000000000000603784015251809386840190616476565b01036028810184520182616709565b6040519182917f08c379a0000000000000000000000000000000000000000000000000000000008352602060048401526024830190616499565b0390fd5b60646040517f08c379a000000000000000000000000000000000000000000000000000000000815260206004820152602060248201527f537472696e67733a20686578206c656e67746820696e73756666696369656e746044820152fd5b9091600f81166010811015610d4e577f3031323334353637383961626364656600000000000000000000000000000000901a610cec8488617106565b5360041c918015610d1f577fffffffffffffffffffffffffffffffffffffffffffffffffffffffffffffffff0190610b75565b7f4e487b7100000000000000000000000000000000000000000000000000000000600052601160045260246000fd5b7f4e487b7100000000000000000000000000000000000000000000000000000000600052603260045260246000fd5b8280fd5b5080fd5b600080fd5b50346103b75760207ffffffffffffffffffffffffffffffffffffffffffffffffffffffffffffffffc3601126103b75773ffffffffffffffffffffffffffffffffffffffff610dd76164dc565b610ddf616923565b16610178817fffffffffffffffffffffffff00000000000000000000000000000000000000008254161790557f9ba82601182e51f8dd35a545a13e9d8716495ee8d41c4f1b65fc97f97d6619278280a280f35b50346103b75760207ffffffffffffffffffffffffffffffffffffffffffffffffffffffffffffffffc3601126103b7576020610e6f600435617b9b565b604051908152f35b50346103b757610e863661680f565b610e91929192616b19565b610e9a82617dc7565b8015610f7257610eaa83836179d1565b6040810151808311610f3b575081604091610eeb7f4d8b9a3b3e4ea29d167f86d422d2225834479f4c1ff5c328f171ed3fc4a285a1946020809301516170f9565b8588526101649081835273ffffffffffffffffffffffffffffffffffffffff858a20981697886000528352846000205585885281528287208660005281528260002054908351928352820152a380f35b82604491604051917f7f16270300000000000000000000000000000000000000000000000000000000835260048301526024820152fd5b60046040517f1f2a2005000000000000000000000000000000000000000000000000000000008152fd5b50346103b757807ffffffffffffffffffffffffffffffffffffffffffffffffffffffffffffffffc3601126103b75760405161016b80548083529083526020808301937f45c4c4b2842a4a2a717cf0ddf6c6d1dee52b7fd8d9da97eb519765c7a27020f492915b82821061102a576110268561101a81890382616709565b604051918291826165be565b0390f35b835486529485019460019384019390910190611003565b50346103b75760407ffffffffffffffffffffffffffffffffffffffffffffffffffffffffffffffffc3601126103b75761109d60043561107f6164ff565b9080845260656020526110986001604086200154616c8f565b616dcb565b80f35b50346103b757807ffffffffffffffffffffffffffffffffffffffffffffffffffffffffffffffffc3601126103b75760206040517f842cb273472e15033544912f1b872bb299c4ce034ba1ba41d3c3afe997b281338152f35b50346103b757611108366168d5565b9061111333846174b2565b156112cc5782845260209061015f82526040852067ffffffffffffffff841161129f5761114a8461114483546165f9565b836173f5565b85601f85116001146111db57916111ca91857f0837a06755322494eb03ed49eb99a6498572d0e04991c969b3e3a9d1f021c8b996959489916111d0575b508560011b907fffffffffffffffffffffffffffffffffffffffffffffffffffffffffffffffff8760031b1c19161790555b604051938385948552840191617449565b0390a280f35b905082013538611187565b818752838720907fffffffffffffffffffffffffffffffffffffffffffffffffffffffffffffffe08616885b8181106112885750916111ca9391877f0837a06755322494eb03ed49eb99a6498572d0e04991c969b3e3a9d1f021c8b99897969410611250575b5050600185811b0190556111b9565b7fffffffffffffffffffffffffffffffffffffffffffffffffffffffffffffffff60f88860031b161c19908401351690553880611241565b919286600181928689013581550194019201611207565b6024867f4e487b710000000000000000000000000000000000000000000000000000000081526041600452fd5b60246040517fbfdde67e000000000000000000000000000000000000000000000000000000008152336004820152fd5b50346103b75761130b3661680f565b61131692919261738b565b6113203383617574565b156112cc578015610f725781845261016360209080825273ffffffffffffffffffffffffffffffffffffffff60408720951694856000528252604060002054801561153b578487526101648352604087208660005283526113866040600020548261794d565b8085116115045750836113989161794d565b908487528252604086208560005282526040600020558385526101738152604085206113c583825461794d565b9055838552610167815267ffffffffffffffff90816113ea81604089205416426170f9565b1691848752610165825260408720866000528252604060002090604051611410816166b4565b85815283810192858452805490680100000000000000008210156114d7579061143e9160018201815561795a565b9190916114ab5791600160409694927f103fe9e935ce3ae6b83c69d8180d775b3de5481382829c207d63aa612ba3bbfb989694518155019151167fffffffffffffffffffffffffffffffffffffffffffffffff00000000000000008254161790558351928352820152a380f35b60248a7f4e487b7100000000000000000000000000000000000000000000000000000000815280600452fd5b60248b7f4e487b710000000000000000000000000000000000000000000000000000000081526041600452fd5b84604491604051917f7f16270300000000000000000000000000000000000000000000000000000000835260048301526024820152fd5b60448488604051917f7f16270300000000000000000000000000000000000000000000000000000000835260048301526024820152fd5b50346103b75760c07ffffffffffffffffffffffffffffffffffffffffffffffffffffffffffffffffc3601126103b75760a43567ffffffffffffffff8111610d81576115c2903690600401616522565b916115cb61738b565b6115d7336004356175f7565b156112cc57600435815261016d602052604081206115f5815461722e565b8091556040516020810191600435835260408201526024356060820152604435608082015260808152611627816166ed565b51902091604051611637816166d0565b6004358152602435602082015260443560408201526064356060820152608435608082015260a0810133815261166e36878561689e565b60c0830190815267ffffffffffffffff421660e084015285855261016e6020526040852091835183556020840151600184015560408401516002840155606084015160038401556080840151600484015573ffffffffffffffffffffffffffffffffffffffff600584019151167fffffffffffffffffffffffff00000000000000000000000000000000000000008254161790555180519067ffffffffffffffff821161129f5761172f8261172660068601546165f9565b600686016173f5565b602090601f831160011461197557928260e09360079367ffffffffffffffff968a9261196a575b50507fffffffffffffffffffffffffffffffffffffffffffffffffffffffffffffffff8260011b9260031b1c19161760068201555b01920151167fffffffffffffffffffffffffffffffffffffffffffffffff0000000000000000825416179055600435825261017060205260408220938454946801000000000000000086101561193b5760018601808255861015610d4e576020958591600052866000200155604051604435815260643586820152608435604082015233606082015260a0608082015284602435917f68bbed0f1de3639f36a5b2151baea5214ea4cc4ab8ae11a92f6fb4c94e8f796d600435918061185460a08201888a617449565b0390a473ffffffffffffffffffffffffffffffffffffffff61017854169081611882575b8585604051908152f35b836118f861192482956040519283918b8301967f03485e4a00000000000000000000000000000000000000000000000000000000885260043560248501528b60448501526024356064850152604435608485015260643560a485015260843560c485015260e060e4850152610104840191617449565b037fffffffffffffffffffffffffffffffffffffffffffffffffffffffffffffffe08101835282616709565b51925af15061193161706f565b5038808080611878565b7f4e487b7100000000000000000000000000000000000000000000000000000000600052604160045260246000fd5b015190503880611756565b906006840187526020872091875b7fffffffffffffffffffffffffffffffffffffffffffffffffffffffffffffffe085168110611a3257508360079367ffffffffffffffff9693600193837fffffffffffffffffffffffffffffffffffffffffffffffffffffffffffffffe060e09916106119fb575b505050811b01600682015561178b565b01517fffffffffffffffffffffffffffffffffffffffffffffffffffffffffffffffff60f88460031b161c191690553880806119eb565b91926020600181928685015181550194019201611983565b50346103b75760407ffffffffffffffffffffffffffffffffffffffffffffffffffffffffffffffffc3601126103b757610e6f602091600435906040611a8e6164ff565b91838152610165865273ffffffffffffffffffffffffffffffffffffffff82822093169283600052865281600020549381526101668652209060005283526040600020549061794d565b50346103b757807ffffffffffffffffffffffffffffffffffffffffffffffffffffffffffffffffc3601126103b75760206040517f32680e8fe9948969fe081ad6659ea26e37aa55b26347fc05571db0b5511dce5b8152f35b50346103b757611b403661680f565b90611b50600260975414156176f5565b6002609755611b5d61738b565b611b6683617dc7565b8115610f7257611b9e92845261016060205273ffffffffffffffffffffffffffffffffffffffff90816040862054169133911661775a565b600160975580f35b50346103b75760407ffffffffffffffffffffffffffffffffffffffffffffffffffffffffffffffffc3601126103b757600435602435611be4616923565b6127108111611cf95781835261016a6020526040832081905561016b805484805b828110611ccb575b5015611c44575b505060207fd4ff538306ac8c1aa02ae702f46dff83601ad309cda5e3539d63e825a87f984b91604051908152a280f35b90916801000000000000000082101561193b5783611cc3611c8e847fd4ff538306ac8c1aa02ae702f46dff83601ad309cda5e3539d63e825a87f984b9660016020970190556172c9565b81939154907fffffffffffffffffffffffffffffffffffffffffffffffffffffffffffffffff9060031b92831b921b19161790565b905591611c14565b85611cd5826172c9565b90549060031b1c14611cef57611cea9061722e565b611c05565b5050600138611c0d565b60646040517f08c379a000000000000000000000000000000000000000000000000000000000815260206004820152600e60248201527f494e56414c49445f5745494748540000000000000000000000000000000000006044820152fd5b50346103b757807ffffffffffffffffffffffffffffffffffffffffffffffffffffffffffffffffc3601126103b75760206040517fbb7482d026fc3277e93f1f33beacbaec5574bbbb0f00ce9dc9c2b96eb3385c158152f35b5060207ffffffffffffffffffffffffffffffffffffffffffffffffffffffffffffffffc3601126103b757600435611ded600260975414156176f5565b6002609755611dfa61738b565b611e0381617dc7565b3415610f72578152610160602052611b9e818080803473ffffffffffffffffffffffffffffffffffffffff6040832054165af1611e3e61706f565b50617a93565b50346103b757807ffffffffffffffffffffffffffffffffffffffffffffffffffffffffffffffffc3601126103b757602090604051908152f35b50346103b75760607ffffffffffffffffffffffffffffffffffffffffffffffffffffffffffffffffc3601126103b75773ffffffffffffffffffffffffffffffffffffffff6040611ecd6164ff565b92600435815261016c6020528181206044358252602052209116600052602052602060ff604060002054166040519015158152f35b50346103b75760207ffffffffffffffffffffffffffffffffffffffffffffffffffffffffffffffffc3601126103b75773ffffffffffffffffffffffffffffffffffffffff6040602092600435815261016084522054161515604051908152f35b50346103b75760a07ffffffffffffffffffffffffffffffffffffffffffffffffffffffffffffffffc3601126103b757611f9b6164ff565b60443573ffffffffffffffffffffffffffffffffffffffff6064351660643503610d8557608435151560843503610d8557611fdb600260975414156176f5565b6002609755611fe861738b565b611ff433600435617574565b156112cc5782918360043581526101656020526040812073ffffffffffffffffffffffffffffffffffffffff831660005260205260406000209283549182156126145760043581526101666020526040812073ffffffffffffffffffffffffffffffffffffffff8516600052602052604060002054908092801560001461269e57507fffffffffffffffffffffffffffffffffffffffffffffffffffffffffffffffff96929197955b73ffffffffffffffffffffffffffffffffffffffff8616825261016860205261ffff604083205416965b858a1080612695575b15612688576120df8a8361795a565b509485549a8b15612675574267ffffffffffffffff600189015416119687809861266b575b61217f57600191868392550195019560843590608435612177575b5015612166578a898102048903610d1f5761215561214761215b936127108c8f0204906170f9565b9b6127108b8202049061794d565b906170f9565b975b979392986120c7565b99612171919a6170f9565b9761215d565b90503861211f565b50955098509650509650505b8415918280612663575b6126145781036125dd575060043585526101656020526040852073ffffffffffffffffffffffffffffffffffffffff831660005260205260406000208054908681558161255e575b505060043585526101666020526040852073ffffffffffffffffffffffffffffffffffffffff8316600052602052600060408120555b60643573ffffffffffffffffffffffffffffffffffffffff1661255557600435855261016060205273ffffffffffffffffffffffffffffffffffffffff604086205416905b15612408575b508161227a575b60408383600160975582519182526020820152f35b73ffffffffffffffffffffffffffffffffffffffff811661234d578373ffffffffffffffffffffffffffffffffffffffff610176541691823b15610d81576040517f78cfaf3f000000000000000000000000000000000000000000000000000000008152600480359082015273ffffffffffffffffffffffffffffffffffffffff91909116602482015260448101849052918290606490829086905af180156123425761232e575b50604092505b38612265565b61233884916166a0565b610d7d5782612322565b6040513d86823e3d90fd5b8373ffffffffffffffffffffffffffffffffffffffff6101766123768583835416848716617976565b541691823b15610d81576040517f78cfaf3f000000000000000000000000000000000000000000000000000000008152600480359082015273ffffffffffffffffffffffffffffffffffffffff91909116602482015260448101849052918290606490829084905af18015612342576123f4575b5060409250612328565b6123fe84916166a0565b610d7d57826123ea565b73ffffffffffffffffffffffffffffffffffffffff821661252f5761244c858080808873ffffffffffffffffffffffffffffffffffffffff87165af1611e3e61706f565b608435156124cd5773ffffffffffffffffffffffffffffffffffffffff61247384866170f9565b9160405192835284602084015216604082015273ffffffffffffffffffffffffffffffffffffffff8216907fa8ae718938fcacd1cff852e8fd9ee97dae8bc9cc56a11195521b311345657552606060043592a35b3861225e565b73ffffffffffffffffffffffffffffffffffffffff60405191858352169073ffffffffffffffffffffffffffffffffffffffff8316907e9525d1b7630386050058876f776d3f6b7b6c79213925aec88934ffa1678e21602060043592a46124c7565b612550848273ffffffffffffffffffffffffffffffffffffffff8516617976565b61244c565b60643590612258565b7f7fffffffffffffffffffffffffffffffffffffffffffffffffffffffffffffff821682036125b0578652602086209060011b8101905b818110156121dd578060006002925587600182015501612595565b6024877f4e487b710000000000000000000000000000000000000000000000000000000081526011600452fd5b60043586526101666020526040862073ffffffffffffffffffffffffffffffffffffffff8416600052602052604060002055612213565b6040517fbf1ad144000000000000000000000000000000000000000000000000000000008152600480359082015273ffffffffffffffffffffffffffffffffffffffff85166024820152604490fd5b508415612195565b5060843515612104565b919a50989450600180910193019361215d565b965050969195505061218b565b508884106120d0565b969291979561209d565b50346103b75760407ffffffffffffffffffffffffffffffffffffffffffffffffffffffffffffffffc3601126103b757604060209160043581526101698352818120602435825283522054604051908152f35b50346103b75760407ffffffffffffffffffffffffffffffffffffffffffffffffffffffffffffffffc3601126103b75773ffffffffffffffffffffffffffffffffffffffff604061274a6164ff565b9260043581526101646020522091166000526020526020604060002054604051908152f35b50346103b75760407ffffffffffffffffffffffffffffffffffffffffffffffffffffffffffffffffc3601126103b75773ffffffffffffffffffffffffffffffffffffffff60406127be6164ff565b9260043581526065602052209116600052602052602060ff604060002054166040519015158152f35b50346103b7576127f636616550565b61280192919261738b565b84865261016060209080825273ffffffffffffffffffffffffffffffffffffffff60408920541680612b635750868852815260408720337fffffffffffffffffffffffff000000000000000000000000000000000000000082541617905561016181526040872067ffffffffffffffff90818511612b36576128878561114483546165f9565b8489601f8211600114612a98578a91612a8d575b508560011b907fffffffffffffffffffffffffffffffffffffffffffffffffffffffffffffffff8760031b1c19161790555b86885261015f825260408820908311610ad0576128ee8361114483546165f9565b8288601f82116001146129f05789916129e5575b508360011b907fffffffffffffffffffffffffffffffffffffffffffffffffffffffffffffffff8560031b1c19161790555b61017190815490600182018092116129b85761017290888a5252604088205580549068010000000000000000821015610ad05791866129a2611c8e847fdddc68caf532741580e8677fae35bba1d09ebf7a396728fdb818530b47968aad98979660016129b29701905561725b565b9055604051938493339785617488565b0390a380f35b6024897f4e487b710000000000000000000000000000000000000000000000000000000081526011600452fd5b905085013538612902565b828a52838a209185907fffffffffffffffffffffffffffffffffffffffffffffffffffffffffffffffe0168b5b86828210612a7457505010612a3c575b5050600183811b019055612934565b7fffffffffffffffffffffffffffffffffffffffffffffffffffffffffffffffff60f88660031b161c19908701351690553880612a2d565b8a85013586556001909501949384019388935001612a1d565b90508701353861289b565b828b52848b209187907fffffffffffffffffffffffffffffffffffffffffffffffffffffffffffffffe0168c5b878c838310612b1e5750505010612ae6575b5050600185811b0190556128cd565b7fffffffffffffffffffffffffffffffffffffffffffffffffffffffffffffffff60f88860031b161c19908901351690553880612ad7565b8501358655600190950194938401938a935001612ac5565b6024897f4e487b710000000000000000000000000000000000000000000000000000000081526041600452fd5b6040517f943297320000000000000000000000000000000000000000000000000000000081526004810189905273ffffffffffffffffffffffffffffffffffffffff919091166024820152604490fd5b50346103b757807ffffffffffffffffffffffffffffffffffffffffffffffffffffffffffffffffc3601126103b75760206040517f07de1521e48b4f2f0365be9a0d4de6fa5e447e80fd45394351efc7b4f7b1bff98152f35b50346103b757807ffffffffffffffffffffffffffffffffffffffffffffffffffffffffffffffffc3601126103b75760206040517e94841a895749e476be6e1ec6e56111257b893af810565ba728415296663b558152f35b50346103b75760207ffffffffffffffffffffffffffffffffffffffffffffffffffffffffffffffffc3601126103b7576040602091600435815261016283522054604051908152f35b50346103b75760207ffffffffffffffffffffffffffffffffffffffffffffffffffffffffffffffffc3601126103b757604060209173ffffffffffffffffffffffffffffffffffffffff612cff6164dc565b16815261017383522054604051908152f35b50346103b75760207ffffffffffffffffffffffffffffffffffffffffffffffffffffffffffffffffc3601126103b75767ffffffffffffffff604060209273ffffffffffffffffffffffffffffffffffffffff612d6c6164dc565b1681526101678452205416604051908152f35b50346103b75760407ffffffffffffffffffffffffffffffffffffffffffffffffffffffffffffffffc3601126103b757600435612dba6164ff565b90808352610160918260205273ffffffffffffffffffffffffffffffffffffffff90816040862054168015612f0b57338103612eb557508116928315612e575782855260205260408420805490847fffffffffffffffffffffffff0000000000000000000000000000000000000000831617905516907f09941fa60f9a5b342a2145682d94c50f074b5bafd959733dd46ed3c71b97bdac8480a480f35b60646040517f08c379a000000000000000000000000000000000000000000000000000000000815260206004820152600d60248201527f494e56414c49445f4f574e4552000000000000000000000000000000000000006044820152fd5b6040517f7e417ce10000000000000000000000000000000000000000000000000000000081526004810185905273ffffffffffffffffffffffffffffffffffffffff919091166024820152336044820152606490fd5b602484604051907f65d0698f0000000000000000000000000000000000000000000000000000000082526004820152fd5b50346103b757807ffffffffffffffffffffffffffffffffffffffffffffffffffffffffffffffffc3601126103b757612f73616923565b612f7b61738b565b60017fffffffffffffffffffffffffffffffffffffffffffffffffffffffffffffff0060c954161760c9557f62e78cea01bee320cd4e420270b5ea74000d11b0c9f74754ebdbfc544b05a2586020604051338152a180f35b50346103b757807ffffffffffffffffffffffffffffffffffffffffffffffffffffffffffffffffc3601126103b757602073ffffffffffffffffffffffffffffffffffffffff6101785416604051908152f35b50346103b7576130353661680f565b613040929192616b19565b61304982617dc7565b8015610f725781845261016460209080825273ffffffffffffffffffffffffffffffffffffffff604087209516948560005282526040600020548084116130ee579183916130ba7f326137689f7fff4f250366b1fdea032086f537f1017765b7c4741fb0347a13489560409561794d565b868952818352848920886000528352846000205585885281528287208660005281528260002054908351928352820152a380f35b83604491604051917f7f16270300000000000000000000000000000000000000000000000000000000835260048301526024820152fd5b50346103b75760407ffffffffffffffffffffffffffffffffffffffffffffffffffffffffffffffffc3601126103b75761315d6164dc565b6024359067ffffffffffffffff8216809203610d7d57602073ffffffffffffffffffffffffffffffffffffffff7fdd175a2a17af1f3dd0d1a0f0743aae019a06dbb874369814da1799bf4366e229926131b4616923565b1692838552610167825260408520817fffffffffffffffffffffffffffffffffffffffffffffffff0000000000000000825416179055604051908152a280f35b50346103b75760207ffffffffffffffffffffffffffffffffffffffffffffffffffffffffffffffffc3601126103b7576040602091600435815261016a83522054604051908152f35b50346103b75760207ffffffffffffffffffffffffffffffffffffffffffffffffffffffffffffffffc3601126103b75773ffffffffffffffffffffffffffffffffffffffff604060209260043581526101608452205416604051908152f35b506020807ffffffffffffffffffffffffffffffffffffffffffffffffffffffffffffffffc360112610d81576004356132da600260975414156176f5565b60026097556132e761738b565b6132f081617dc7565b3415610f72578083916000526101638084526040600020600080528452604060002061331d3482546170f9565b905560008052610173845260406000206133383482546170f9565b90556000805261017484526040600020805460ff8116156133a3575b5050818352835260408220600080528352604060002054604051933485528401527f058e77e586708d1c70e1c32cc993dc9487915757e5d073824ccdf3bca423a83c60403394a4600160975580f35b7fffffffffffffffffffffffffffffffffffffffffffffffffffffffffffffff00166001179055610175805493506801000000000000000084101561193b57836133f39160018896019055617292565b73ffffffffffffffffffffffffffffffffffffffff82549160031b1b191690553880613354565b50346103b75760807ffffffffffffffffffffffffffffffffffffffffffffffffffffffffffffffffc3601126103b75760643567ffffffffffffffff8111610d815761346a903690600401616522565b3360009081527f4fb0b8d0a112e90f01f95adee84ee3f7e928eeb2749afd1c121823649f3b3ffb60209081526040909120547fbb7482d026fc3277e93f1f33beacbaec5574bbbb0f00ce9dc9c2b96eb3385c15919060ff16156134e4578461109d6134d636868861689e565b604435602435600435617b14565b6134ed33617117565b916040516134fa81616684565b60428152828101916060368437815115610d4e57603083538151600190811015610d4e57607860218401536041905b8082116136265750506135c95761357f9361358e926048926040519687937f416363657373436f6e74726f6c3a206163636f756e742000000000000000000088860152610bd0815180928a603789019101616476565b01036028810185520183616709565b610c4e6040519283927f08c379a000000000000000000000000000000000000000000000000000000000845260048401526024830190616499565b606483604051907f08c379a000000000000000000000000000000000000000000000000000000000825280600483015260248201527f537472696e67733a20686578206c656e67746820696e73756666696369656e746044820152fd5b9091600f81166010811015610d4e577f3031323334353637383961626364656600000000000000000000000000000000901a6136628486617106565b5360041c918015610d1f577fffffffffffffffffffffffffffffffffffffffffffffffffffffffffffffffff0190613529565b50346103b7576136a43661680f565b91906136ae61738b565b6136b83383617574565b156112cc578184526020906101658252604085209373ffffffffffffffffffffffffffffffffffffffff8216948560005283526137116040600020918588526101668552604088208760005285526040600020546170f9565b9080548210156137f657613725828261795a565b50549283156137a6575061375d7f1827a0ec328915df70a21d3ac58a86f06973898dbc2eaee0aa91be7563f136eb949392889261795a565b505583865261016382526040862085600052825260406000206137818282546170f9565b905584865261017382526040862061379a8282546170f9565b9055604051908152a380f35b6040517fbf1ad1440000000000000000000000000000000000000000000000000000000081526004810187905273ffffffffffffffffffffffffffffffffffffffff919091166024820152604490fd5b60046040517f3d47273b000000000000000000000000000000000000000000000000000000008152fd5b50346103b757807ffffffffffffffffffffffffffffffffffffffffffffffffffffffffffffffffc3601126103b757602073ffffffffffffffffffffffffffffffffffffffff6101765416604051908152f35b50346103b7576138823661680f565b91613892600260975414156176f5565b600260975561389f61738b565b6138a881617dc7565b8215610f725773ffffffffffffffffffffffffffffffffffffffff809216916138d38430338661775a565b81600052610163602091818352604060002085600052835260406000206138fb8782546170f9565b905584600052610173835260406000206139168782546170f9565b90558460005261017483526040600020805460ff811615613982575b505050828652815260408520836000528152604060002054906040519485528401527f058e77e586708d1c70e1c32cc993dc9487915757e5d073824ccdf3bca423a83c60403394a4600160975580f35b7fffffffffffffffffffffffffffffffffffffffffffffffffffffffffffffff0016600117905561017580546801000000000000000081101561193b576139ce91600182019055617292565b819291549060031b9187831b921b1916179055388080613932565b50346103b757807ffffffffffffffffffffffffffffffffffffffffffffffffffffffffffffffffc3601126103b757602060ff60c954166040519015158152f35b50346103b75760407ffffffffffffffffffffffffffffffffffffffffffffffffffffffffffffffffc3601126103b75773ffffffffffffffffffffffffffffffffffffffff6040613a796164ff565b9260043581526101636020522091166000526020526020604060002054604051908152f35b50346103b75760207ffffffffffffffffffffffffffffffffffffffffffffffffffffffffffffffffc3601126103b757600435908060e0604051613ae1816166d0565b8281528260208201528260408201528260608201528260808201528260a0820152606060c08201520152806060604051613b1a81616684565b828152826020820152816040820152015281815261016e602052604081209067ffffffffffffffff600760405193613b51856166d0565b805485526001810154602086015260028101546040860152600381015460608601526004810154608086015273ffffffffffffffffffffffffffffffffffffffff60058201541660a0860152613ba96006820161674a565b60c086015201541660e0830152815115613d0a5760409192815261016f602052209067ffffffffffffffff600260405193613be385616684565b60ff815473ffffffffffffffffffffffffffffffffffffffff8116875260a01c1615156020860152613c176001820161674a565b6040860152015416606083015260405191829160408352805160408401526020810151606084015260408101516080840152606081015160a0840152608081015160c084015273ffffffffffffffffffffffffffffffffffffffff60a08201511660e084015267ffffffffffffffff60e0613ca260c084015161010080880152610140870190616499565b92015116610120840152828103602084015273ffffffffffffffffffffffffffffffffffffffff8251168152602082015115156020820152606067ffffffffffffffff81613cff6040860151608060408701526080860190616499565b940151169101520390f35b602483604051907fed1ef9e80000000000000000000000000000000000000000000000000000000082526004820152fd5b50346103b757613d4a366168d5565b90613d5533846174b2565b156112cc5782845260209061016182526040852067ffffffffffffffff841161129f57613d868461114483546165f9565b85601f8511600114613e0457916111ca91857f859fac2fc059a2fa38efe7236e1c16278c1519298d62dd05582ff7fa392a104596959489916111d057508560011b907fffffffffffffffffffffffffffffffffffffffffffffffffffffffffffffffff8760031b1c1916179055604051938385948552840191617449565b818752838720907fffffffffffffffffffffffffffffffffffffffffffffffffffffffffffffffe08616885b818110613e785750916111ca9391877f859fac2fc059a2fa38efe7236e1c16278c1519298d62dd05582ff7fa392a10459897969410611250575050600185811b0190556111b9565b919286600181928689013581550194019201613e30565b50346103b75760807ffffffffffffffffffffffffffffffffffffffffffffffffffffffffffffffffc3601126103b757600435613eca6164ff565b60443591606435801515809103610d855781855261016060205273ffffffffffffffffffffffffffffffffffffffff806040872054168015612f0b57338103612eb557507f07de1521e48b4f2f0365be9a0d4de6fa5e447e80fd45394351efc7b4f7b1bff98514158061401a575b80613ff0575b613fbf577f57590c3d9d92a8f2778b3d5a0b3421da1732c8cbfa79e50c49ffbc7f3d5be5c79160209184885261016c83526040882087895283526040882095169485600052825260406000207fffffffffffffffffffffffffffffffffffffffffffffffffffffffffffffff0081541660ff8316179055604051908152a480f35b602485604051907f2739d2b20000000000000000000000000000000000000000000000000000000082526004820152fd5b507f7e247a4f4570bc375ebf04878b56710ee753d7568bcdff3a35be4e3a8437c10b851415613f3e565b507f842cb273472e15033544912f1b872bb299c4ce034ba1ba41d3c3afe997b28133851415613f38565b50346103b757807ffffffffffffffffffffffffffffffffffffffffffffffffffffffffffffffffc3601126103b75773ffffffffffffffffffffffffffffffffffffffff7f00000000000000000000000000000000000000000000000000000000000000001630036140da5760206040517f360894a13ba1a3210667c828492db98dca3e2076cc3735a920a3ca505d382bbc8152f35b60846040517f08c379a000000000000000000000000000000000000000000000000000000000815260206004820152603860248201527f555550535570677261646561626c653a206d757374206e6f742062652063616c60448201527f6c6564207468726f7567682064656c656761746563616c6c00000000000000006064820152fd5b50346103b757807ffffffffffffffffffffffffffffffffffffffffffffffffffffffffffffffffc3601126103b75760206040517f12b42e8a160f6064dc959c6f251e3af0750ad213dbecf573b4710d67d6c28e398152f35b5060407ffffffffffffffffffffffffffffffffffffffffffffffffffffffffffffffffc3601126103b7576141ea6164dc565b9060243567ffffffffffffffff8111610d815736602382011215610d815761421c90369060248160040135910161689e565b9173ffffffffffffffffffffffffffffffffffffffff807f0000000000000000000000000000000000000000000000000000000000000000169061426282301415616e6d565b6142917f360894a13ba1a3210667c828492db98dca3e2076cc3735a920a3ca505d382bbc928284541614616ef8565b614299616923565b7f4910fdfa16fed3260ed0e7147f7cc6da11a60208b5b9406d12a635614ffd91435460ff16156142d057505061109d919250616f83565b8291939216604051937f52d1902d0000000000000000000000000000000000000000000000000000000085526020948581600481865afa60009181614584575b5061439957608486604051907f08c379a00000000000000000000000000000000000000000000000000000000082526004820152602e60248201527f45524331393637557067726164653a206e657720696d706c656d656e7461746960448201527f6f6e206973206e6f7420555550530000000000000000000000000000000000006064820152fd5b94939403614500576143aa82616f83565b604051907fbc7cd75a20ee27fd9adebab32041f755214dbc6bffa90cc0225b39da2e5c2d3b600080a28451158015906144f8575b6143eb575b505050905080f35b813b15614477575060008481928461446d9697519201905af461440c61706f565b907f416464726573733a206c6f772d6c6576656c2064656c65676174652063616c6c6040519361443b8561664c565b602785528401527f206661696c656400000000000000000000000000000000000000000000000000604084015261709f565b50803880806143e3565b80837f08c379a000000000000000000000000000000000000000000000000000000000608493526004820152602660248201527f416464726573733a2064656c65676174652063616c6c20746f206e6f6e2d636f60448201527f6e747261637400000000000000000000000000000000000000000000000000006064820152fd5b5060016143de565b608483604051907f08c379a00000000000000000000000000000000000000000000000000000000082526004820152602960248201527f45524331393637557067726164653a20756e737570706f727465642070726f7860448201527f6961626c655555494400000000000000000000000000000000000000000000006064820152fd5b90918782813d83116145ac575b61459b8183616709565b810103126103b75750519038614310565b503d614591565b50346103b757614629906145c63661680f565b9060408095939551946145d8866166b4565b80865280602080970152868152610165865273ffffffffffffffffffffffffffffffffffffffff828220931692836000528652816000209681526101668652209060005283526040600020546170f9565b9180548310156146765760409261463f9161795a565b50906001835161464e816166b4565b8284549485835267ffffffffffffffff93849101541691019081528451938452511690820152f35b606482604051907f08c379a00000000000000000000000000000000000000000000000000000000082526004820152601360248201527f494e4445585f4f55545f4f465f424f554e4453000000000000000000000000006044820152fd5b50346103b757807ffffffffffffffffffffffffffffffffffffffffffffffffffffffffffffffffc3601126103b75761470b617d43565b90604051918291602080840190808552835180925280604086019401925b82811061473857505050500390f35b835173ffffffffffffffffffffffffffffffffffffffff1685528695509381019392810192600101614729565b50346103b7576147743661680f565b614786600260979493945414156176f5565b60026097557f12b42e8a160f6064dc959c6f251e3af0750ad213dbecf573b4710d67d6c28e398085526020906065825260408620338752825260ff60408720541615614aa357506147d683617dc7565b8115610f725782855261016393848252604086209473ffffffffffffffffffffffffffffffffffffffff908183169687895284526040882054808611614a6c5790614824868a95949361794d565b908785528552604084208885528552604084205561017384526040832080548680821015614a59575b505050858352610164808552604084208885528552604084205480614a25575b505086614932576101765416803b15610d7d576040517fe772eaa70000000000000000000000000000000000000000000000000000000081526004810187905273ffffffffffffffffffffffffffffffffffffffff9290921660248301526044820185905282908290606490829088905af1801561092a5761491e575b50507fba00be99b4ba100b19f2c080160ab22c2b8f4d62027d6524c532e7578d7a43b4915b604051908152a3600160975580f35b614927906166a0565b6109355784386148ea565b61017694939492919261494985838354168a617976565b541691823b15610d81576040517fe772eaa70000000000000000000000000000000000000000000000000000000081526004810187905273ffffffffffffffffffffffffffffffffffffffff91909116602482015260448101849052918290606490829084905af18015614a1a576149e5575b50907fba00be99b4ba100b19f2c080160ab22c2b8f4d62027d6524c532e7578d7a43b49161490f565b94614a127fba00be99b4ba100b19f2c080160ab22c2b8f4d62027d6524c532e7578d7a43b49392966166a0565b9490916149bc565b6040513d88823e3d90fd5b614a379080881115614a52578061794d565b9087855285526040842088855285526040842055388061486d565b879061794d565b614a629161794d565b905538808661484d565b85604491604051917f7f16270300000000000000000000000000000000000000000000000000000000835260048301526024820152fd5b9085614aae33617117565b9260405190614abc82616684565b60428252838201926060368537825115614c0f5760308453825190600191821015614c0f5790607860218501536041915b818311614b44575050506135c95761357f9361358e926048926040519687937f416363657373436f6e74726f6c3a206163636f756e742000000000000000000088860152610bd0815180928a603789019101616476565b909192600f81166010811015614be2577f3031323334353637383961626364656600000000000000000000000000000000901a614b818587617106565b5360041c928015614bb5577fffffffffffffffffffffffffffffffffffffffffffffffffffffffffffffffff019190614aed565b6024827f4e487b710000000000000000000000000000000000000000000000000000000081526011600452fd5b6024837f4e487b710000000000000000000000000000000000000000000000000000000081526032600452fd5b807f4e487b7100000000000000000000000000000000000000000000000000000000602492526032600452fd5b50346103b75760407ffffffffffffffffffffffffffffffffffffffffffffffffffffffffffffffffc3601126103b757614c746164dc565b614c7c6164ff565b825460ff8160081c1615908180926152a0575b8015615289575b15615205576001937fffffffffffffffffffffffffffffffffffffffffffffffffffffffffffffff009183868483161788556151d7575b5073ffffffffffffffffffffffffffffffffffffffff80941691821561051057614d3660ff885460081c16614d0181617300565b614d0a81617300565b614d1381617300565b87609755614d2081617300565b614d2981617300565b8260c9541660c955617300565b8680526020946065865260408820921691828852855260ff6040882054161561518d575b5050847f12b42e8a160f6064dc959c6f251e3af0750ad213dbecf573b4710d67d6c28e39808252606585528186604082200181815491557fbd79b86ffe0ab8e8776151514217cd7cacd52c909f66475c3af44e129f0b00ff92838380a4817fbb7482d026fc3277e93f1f33beacbaec5574bbbb0f00ce9dc9c2b96eb3385c15808252876040832001908282549255838380a4817f68e79a7bf1e0bc45d0a330c573bc367f9cf464fd326078812f301165fbda4ef1808252876040832001908282549255838380a4817e94841a895749e476be6e1ec6e56111257b893af810565ba728415296663b55808252876040832001908282549255838380a4817f0ce23c3e399818cfee81a7ab0880f714e53d7672b08df0fa62f2843416e1ea09808252876040832001908282549255838380a47f32680e8fe9948969fe081ad6659ea26e37aa55b26347fc05571db0b5511dce5b8083528660408420019183835493558380a4610176907fffffffffffffffffffffffff000000000000000000000000000000000000000082541617905583805261016782526040842062093a807fffffffffffffffffffffffffffffffffffffffffffffffff0000000000000000825416179055604051614f2b81616684565b7f08030e71665ed68c05a89d5970bbea7f25de43341480c9169469e06d3318624981527ffc56d60e2673ff4d0153a38470f3eee3bd706beb27296af9527af376772d03ec838201527fe63dc98f63bbf2edc84c5e4d00d9715224fade099eb1d37bef0be5478952ea3560408201527f5055409d09373d8c2758d9b50a508db77b48d2380984cd9a245de185c5d202d9606082015261016b908154600483558060041061512f575b5081865284865b600481106150fd57505050805480156150d05790849161271004908287905b61505e575b50505050615009578280f35b7f7f26b83ff96e1f2b6a682f133852f6798a09c465da95921460cefb3847402498917fffffffffffffffffffffffffffffffffffffffffffffffffffffffffffff00ff8454168455604051908152a138808280f35b81548110156150cb57806150746150c5926172c9565b9054600391821b1c8a5261016a88528460408b2055615092826172c9565b9054911b1c7fd4ff538306ac8c1aa02ae702f46dff83601ad309cda5e3539d63e825a87f984b88604051878152a261722e565b83614ff8565b614ffd565b6024867f4e487b710000000000000000000000000000000000000000000000000000000081526012600452fd5b858351930192817f45c4c4b2842a4a2a717cf0ddf6c6d1dee52b7fd8d9da97eb519765c7a27020f40155018590614fd9565b7f45c4c4b2842a4a2a717cf0ddf6c6d1dee52b7fd8d9da97eb519765c7a27020f401857f45c4c4b2842a4a2a717cf0ddf6c6d1dee52b7fd8d9da97eb519765c7a27020f85b828110615182575050614fd2565b888155018690615174565b868052606585526040872082885285528560408820918254161790553390867f2f8788117e7eff1d82e926ec794901d17c78024a50270940304540a733656f0d8180a43880614d5a565b7fffffffffffffffffffffffffffffffffffffffffffffffffffffffffffff00001661010117865538614ccd565b60846040517f08c379a000000000000000000000000000000000000000000000000000000000815260206004820152602e60248201527f496e697469616c697a61626c653a20636f6e747261637420697320616c72656160448201527f647920696e697469616c697a65640000000000000000000000000000000000006064820152fd5b50303b158015614c965750600160ff821614614c96565b50600160ff821610614c8f565b50346103b75760207ffffffffffffffffffffffffffffffffffffffffffffffffffffffffffffffffc3601126103b7576152f760406110269260043581526101616020522061674a565b604051918291602083526020830190616499565b50346103b757807ffffffffffffffffffffffffffffffffffffffffffffffffffffffffffffffffc3601126103b757615342616923565b60c95460ff8116156153a0577fffffffffffffffffffffffffffffffffffffffffffffffffffffffffffffff001660c9557f5db9ee0a495bf2e6ff9c91a7834c1ba4fdd244a5e8aa4e537bd38aeae4b073aa6020604051338152a180f35b60646040517f08c379a000000000000000000000000000000000000000000000000000000000815260206004820152601460248201527f5061757361626c653a206e6f74207061757365640000000000000000000000006044820152fd5b50346103b7576020807ffffffffffffffffffffffffffffffffffffffffffffffffffffffffffffffffc360112610d81576154376164dc565b9073ffffffffffffffffffffffffffffffffffffffff807f00000000000000000000000000000000000000000000000000000000000000001661547c81301415616e6d565b6154ab7f360894a13ba1a3210667c828492db98dca3e2076cc3735a920a3ca505d382bbc918383541614616ef8565b6154b3616923565b604051908382019282841067ffffffffffffffff85111761578d578360405286835260ff7f4910fdfa16fed3260ed0e7147f7cc6da11a60208b5b9406d12a635614ffd9143541660001461550f57505050505061109d90616f83565b8596949516906040517f52d1902d0000000000000000000000000000000000000000000000000000000081528681600481865afa86918161575a575b506155d457608487604051907f08c379a00000000000000000000000000000000000000000000000000000000082526004820152602e60248201527f45524331393637557067726164653a206e657720696d706c656d656e7461746960448201527f6f6e206973206e6f7420555550530000000000000000000000000000000000006064820152fd5b959495036156d6576155e586616f83565b604051907fbc7cd75a20ee27fd9adebab32041f755214dbc6bffa90cc0225b39da2e5c2d3b8680a28151158015906156cf575b615626575b50505050905080f35b853b1561564e575092809481926156439551915af461440c61706f565b50803880808061561d565b80847f08c379a000000000000000000000000000000000000000000000000000000000608493526004820152602660248201527f416464726573733a2064656c65676174652063616c6c20746f206e6f6e2d636f60448201527f6e747261637400000000000000000000000000000000000000000000000000006064820152fd5b5084615618565b608484604051907f08c379a00000000000000000000000000000000000000000000000000000000082526004820152602960248201527f45524331393637557067726164653a20756e737570706f727465642070726f7860448201527f6961626c655555494400000000000000000000000000000000000000000000006064820152fd5b9091508781813d8311615786575b6157728183616709565b810103126157825751903861554b565b8680fd5b503d615768565b6024877f4e487b710000000000000000000000000000000000000000000000000000000081526041600452fd5b50346103b75760407ffffffffffffffffffffffffffffffffffffffffffffffffffffffffffffffffc3601126103b7576157f26164ff565b3373ffffffffffffffffffffffffffffffffffffffff82160361581b5761109d90600435616dcb565b60846040517f08c379a000000000000000000000000000000000000000000000000000000000815260206004820152602f60248201527f416363657373436f6e74726f6c3a2063616e206f6e6c792072656e6f756e636560448201527f20726f6c657320666f722073656c6600000000000000000000000000000000006064820152fd5b50346103b75760407ffffffffffffffffffffffffffffffffffffffffffffffffffffffffffffffffc3601126103b75760606158e46158dc6164ff565b6004356179d1565b6040805191805183526020810151602084015201516040820152f35b50346103b75760407ffffffffffffffffffffffffffffffffffffffffffffffffffffffffffffffffc3601126103b75760043561593b6164ff565b81835260656020526159536001604085200154616c8f565b818352606560205273ffffffffffffffffffffffffffffffffffffffff6040842091169081845260205260ff6040842054161561598e578280f35b8183526065602052604083208184526020526040832060017fffffffffffffffffffffffffffffffffffffffffffffffffffffffffffffff0082541617905533917f2f8788117e7eff1d82e926ec794901d17c78024a50270940304540a733656f0d8480a438808280f35b50346103b75760207ffffffffffffffffffffffffffffffffffffffffffffffffffffffffffffffffc3601126103b75760016040602092600435815260658452200154604051908152f35b50346103b7576020807ffffffffffffffffffffffffffffffffffffffffffffffffffffffffffffffffc360112610d81576004358252610170815260408220916040518092808554928381520194835280832092905b828210615ab1576110268561101a81890382616709565b835486529485019460019384019390910190615a9a565b50346103b757615ad736616550565b929391615ae383617dc7565b8286526020610160815273ffffffffffffffffffffffffffffffffffffffff60408820541633141580615be6575b80615ba7575b615b6f57906101627f4b77953ee0879e5648da6bb07b8f4586d042c72727142224e6e3c7b9c7ff5110939285895252615b696040882095615b58875461722e565b809755604051938493339985617488565b0390a480f35b6040517f17d2881400000000000000000000000000000000000000000000000000000000815260048101859052336024820152604490fd5b507fbb7482d026fc3277e93f1f33beacbaec5574bbbb0f00ce9dc9c2b96eb3385c1587526065815260408720338852815260ff60408820541615615b17565b507e94841a895749e476be6e1ec6e56111257b893af810565ba728415296663b5587526065815260408720338852815260ff60408820541615615b11565b50346103b757807ffffffffffffffffffffffffffffffffffffffffffffffffffffffffffffffffc3601126103b757602073ffffffffffffffffffffffffffffffffffffffff6101775416604051908152f35b50346103b75760407ffffffffffffffffffffffffffffffffffffffffffffffffffffffffffffffffc3601126103b757615caf6164dc565b6024359061ffff8216809203610d7d57615cc7616923565b6127108211615d4957602073ffffffffffffffffffffffffffffffffffffffff7fe8e63b20d65d609163b6d1300d8fc6627d8f9e06a3d3e60ff4f5300c1a98b528921692838552610168825260408520817fffffffffffffffffffffffffffffffffffffffffffffffffffffffffffff0000825416179055604051908152a280f35b60646040517f08c379a000000000000000000000000000000000000000000000000000000000815260206004820152600b60248201527f494e56414c49445f4250530000000000000000000000000000000000000000006044820152fd5b50346103b75760207ffffffffffffffffffffffffffffffffffffffffffffffffffffffffffffffffc3601126103b75761ffff604060209273ffffffffffffffffffffffffffffffffffffffff615dfc6164dc565b1681526101688452205416604051908152f35b50346103b75760407ffffffffffffffffffffffffffffffffffffffffffffffffffffffffffffffffc3601126103b75760043560243561017154908183116137f6578015801561615b575b1561614b57505b615e6b828261794d565b917fffffffffffffffffffffffffffffffffffffffffffffffffffffffffffffffe0615eaf615e9985617d17565b94615ea76040519687616709565b808652617d17565b01845b81811061610a57505061017554845b838310615fac5760408051602080825287518183018190528993600582901b8401810192808b01929185015b828710615efa5785850386f35b909192938280827fffffffffffffffffffffffffffffffffffffffffffffffffffffffffffffffc089600195030185528751908151815273ffffffffffffffffffffffffffffffffffffffff838301511683820152615f7e615f6b604084015160e0604085015260e0840190616499565b6060808501519084830390850152616499565b916080808201519083015260a0808201519083015260c0809101519101529601920196019592919092615eed565b615fb58361725b565b9054600391821b1c908790889089905b86821061607e57505091616078939161607293828b5260209161016083526160438c61603973ffffffffffffffffffffffffffffffffffffffff60408320541691610161875260408082209161015f8952209261602189617b9b565b976040519961602f8b616668565b8a5289015261674a565b604087015261674a565b6060850152608084015260a083015260c08201526160618289617d2f565b5261606c8188617d2f565b5061722e565b9261722e565b91615ec1565b90918a73ffffffffffffffffffffffffffffffffffffffff61609f85617292565b905490851b1c1694868252602090610163825260408320878452825260408320549081156160fb57916160da61607294926160f596946170f9565b9789835261016482526040832092525260408d2054906170f9565b90615fc5565b9650505050916160f59061722e565b60209060405161611981616668565b8781528288818301526060806040840152808301528860808301528860a08301528860c0830152828801015201615eb2565b6161569150826170f9565b615e61565b508161616782856170f9565b11615e5a565b50346103b75760207ffffffffffffffffffffffffffffffffffffffffffffffffffffffffffffffffc3601126103b7576152f7604061102692600435815261015f6020522061674a565b50346103b757807ffffffffffffffffffffffffffffffffffffffffffffffffffffffffffffffffc3601126103b75761625e604051916161f68361664c565b60208084019360608552604081019460608652610171548252616217617d43565b8082525161622481617d17565b906162326040519283616709565b8082527fffffffffffffffffffffffffffffffffffffffffffffffffffffffffffffffe0968791617d17565b0136858301378652835b815180518210156162ba579073ffffffffffffffffffffffffffffffffffffffff616296826162b594617d2f565b51168652610173855260408620546162af828a51617d2f565b5261722e565b616268565b50509392916040519586958287526080870193518388015251926060604088015283518091528260a08801940190855b8181106163325750505051938583030160608601528080855193848152019401925b82811061631b57505050500390f35b83518552869550938101939281019260010161630c565b825173ffffffffffffffffffffffffffffffffffffffff16865289985094840194918401916001016162ea565b50346103b757807ffffffffffffffffffffffffffffffffffffffffffffffffffffffffffffffffc3601126103b75760206040517f68e79a7bf1e0bc45d0a330c573bc367f9cf464fd326078812f301165fbda4ef18152f35b905034610d815760207ffffffffffffffffffffffffffffffffffffffffffffffffffffffffffffffffc360112610d81576004357fffffffff000000000000000000000000000000000000000000000000000000008116809103610d7d57602092507f7965db0b00000000000000000000000000000000000000000000000000000000811490811561644c575b5015158152f35b7f01ffc9a70000000000000000000000000000000000000000000000000000000091501438616445565b60005b8381106164895750506000910152565b8181015183820152602001616479565b907fffffffffffffffffffffffffffffffffffffffffffffffffffffffffffffffe0601f6020936164d581518092818752878088019101616476565b0116010190565b6004359073ffffffffffffffffffffffffffffffffffffffff82168203610d8557565b6024359073ffffffffffffffffffffffffffffffffffffffff82168203610d8557565b9181601f84011215610d855782359167ffffffffffffffff8311610d855760208381860195010111610d8557565b9060607ffffffffffffffffffffffffffffffffffffffffffffffffffffffffffffffffc830112610d85576004359167ffffffffffffffff91602435838111610d8557826165a091600401616522565b93909392604435918211610d85576165ba91600401616522565b9091565b6020908160408183019282815285518094520193019160005b8281106165e5575050505090565b8351855293810193928101926001016165d7565b90600182811c92168015616642575b602083101461661357565b7f4e487b7100000000000000000000000000000000000000000000000000000000600052602260045260246000fd5b91607f1691616608565b6060810190811067ffffffffffffffff82111761193b57604052565b60e0810190811067ffffffffffffffff82111761193b57604052565b6080810190811067ffffffffffffffff82111761193b57604052565b67ffffffffffffffff811161193b57604052565b6040810190811067ffffffffffffffff82111761193b57604052565b610100810190811067ffffffffffffffff82111761193b57604052565b60a0810190811067ffffffffffffffff82111761193b57604052565b90601f7fffffffffffffffffffffffffffffffffffffffffffffffffffffffffffffffe0910116810190811067ffffffffffffffff82111761193b57604052565b906040519182600082549261675e846165f9565b9081845260019485811690816000146167cd575060011461678a575b505061678892500383616709565b565b9093915060005260209081600020936000915b8183106167b55750506167889350820101388061677a565b8554888401850152948501948794509183019161679d565b90506167889550602093507fffffffffffffffffffffffffffffffffffffffffffffffffffffffffffffff0091501682840152151560051b820101388061677a565b7ffffffffffffffffffffffffffffffffffffffffffffffffffffffffffffffffc6060910112610d85576004359060243573ffffffffffffffffffffffffffffffffffffffff81168103610d85579060443590565b67ffffffffffffffff811161193b57601f017fffffffffffffffffffffffffffffffffffffffffffffffffffffffffffffffe01660200190565b9291926168aa82616864565b916168b86040519384616709565b829481845281830111610d85578281602093846000960137010152565b9060407ffffffffffffffffffffffffffffffffffffffffffffffffffffffffffffffffc830112610d8557600435916024359067ffffffffffffffff8211610d85576165ba91600401616522565b3360009081527fffdfc1249c027f9191656349feb0761381bb32c9f557e01f419fd08754bf5a1b602090815260408083205490929060ff161561696557505050565b61696e33617117565b908084519061697c82616684565b60428252848201926060368537825115614c0f5760308453825190600191821015614c0f5790607860218501536041915b818311616aa857505050616a4c576048610c4e938693616a1693616a0798519889937f416363657373436f6e74726f6c3a206163636f756e74200000000000000000008a860152610bd0815180928c603789019101616476565b01036028810187520185616709565b519283927f08c379a000000000000000000000000000000000000000000000000000000000845260048401526024830190616499565b6064848651907f08c379a000000000000000000000000000000000000000000000000000000000825280600483015260248201527f537472696e67733a20686578206c656e67746820696e73756666696369656e746044820152fd5b909192600f81166010811015614be2577f3031323334353637383961626364656600000000000000000000000000000000901a616ae58587617106565b5360041c928015614bb5577fffffffffffffffffffffffffffffffffffffffffffffffffffffffffffffffff0191906169ad565b3360009081527fafaab0e36e7268345fab51755a230318dd563c87ac9b7242eeeed6345491324f602090815260408083205490927f32680e8fe9948969fe081ad6659ea26e37aa55b26347fc05571db0b5511dce5b9160ff1615616b7d5750505050565b616b8633617117565b91845190616b9382616684565b60428252848201926060368537825115614c0f5760308453825190600191821015614c0f5790607860218501536041915b818311616c1e57505050616a4c576048610c4e938693616a1693616a0798519889937f416363657373436f6e74726f6c3a206163636f756e74200000000000000000008a860152610bd0815180928c603789019101616476565b909192600f81166010811015614be2577f3031323334353637383961626364656600000000000000000000000000000000901a616c5b8587617106565b5360041c928015614bb5577fffffffffffffffffffffffffffffffffffffffffffffffffffffffffffffffff019190616bc4565b60009080825260209060658252604092838120338252835260ff848220541615616cb95750505050565b616cc233617117565b91845190616ccf82616684565b60428252848201926060368537825115614c0f5760308453825190600191821015614c0f5790607860218501536041915b818311616d5a57505050616a4c576048610c4e938693616a1693616a0798519889937f416363657373436f6e74726f6c3a206163636f756e74200000000000000000008a860152610bd0815180928c603789019101616476565b909192600f81166010811015614be2577f3031323334353637383961626364656600000000000000000000000000000000901a616d978587617106565b5360041c928015614bb5577fffffffffffffffffffffffffffffffffffffffffffffffffffffffffffffffff019190616d00565b90600091808352606560205273ffffffffffffffffffffffffffffffffffffffff6040842092169182845260205260ff604084205416616e0a57505050565b808352606560205260408320828452602052604083207fffffffffffffffffffffffffffffffffffffffffffffffffffffffffffffff0081541690557ff6391f5c32d9c69d2a47ea670b442974b53935d1edc7fd64eb21e047a839171b339380a4565b15616e7457565b60846040517f08c379a000000000000000000000000000000000000000000000000000000000815260206004820152602c60248201527f46756e6374696f6e206d7573742062652063616c6c6564207468726f7567682060448201527f64656c656761746563616c6c00000000000000000000000000000000000000006064820152fd5b15616eff57565b60846040517f08c379a000000000000000000000000000000000000000000000000000000000815260206004820152602c60248201527f46756e6374696f6e206d7573742062652063616c6c6564207468726f7567682060448201527f6163746976652070726f787900000000000000000000000000000000000000006064820152fd5b803b15616feb5773ffffffffffffffffffffffffffffffffffffffff7f360894a13ba1a3210667c828492db98dca3e2076cc3735a920a3ca505d382bbc91167fffffffffffffffffffffffff0000000000000000000000000000000000000000825416179055565b60846040517f08c379a000000000000000000000000000000000000000000000000000000000815260206004820152602d60248201527f455243313936373a206e657720696d706c656d656e746174696f6e206973206e60448201527f6f74206120636f6e7472616374000000000000000000000000000000000000006064820152fd5b3d1561709a573d9061708082616864565b9161708e6040519384616709565b82523d6000602084013e565b606090565b909190156170ab575090565b8151156170bb5750805190602001fd5b610c4e906040519182917f08c379a0000000000000000000000000000000000000000000000000000000008352602060048401526024830190616499565b91908201809211610d1f57565b908151811015610d4e570160200190565b604051906171248261664c565b602a8252602082016040368237825115610d4e57603090538151600190811015610d4e57607860218401536029905b808211617163575050610c525790565b9091600f81166010811015617200577f3031323334353637383961626364656600000000000000000000000000000000901a61719f8486617106565b5360041c9180156171d2577fffffffffffffffffffffffffffffffffffffffffffffffffffffffffffffffff0190617153565b602460007f4e487b710000000000000000000000000000000000000000000000000000000081526011600452fd5b602460007f4e487b710000000000000000000000000000000000000000000000000000000081526032600452fd5b7fffffffffffffffffffffffffffffffffffffffffffffffffffffffffffffffff8114610d1f5760010190565b6101718054821015610d4e576000527f42b680591beb20d1de0d4ca368d3f10acc6db07bc74b68a9681655fb351b90390190600090565b6101758054821015610d4e576000527f94b016e6b5eafb28c9d47c3523378ec087cc0ead8b7eff2840605504c1f1ac6f0190600090565b61016b8054821015610d4e576000527f45c4c4b2842a4a2a717cf0ddf6c6d1dee52b7fd8d9da97eb519765c7a27020f40190600090565b1561730757565b60846040517f08c379a000000000000000000000000000000000000000000000000000000000815260206004820152602b60248201527f496e697469616c697a61626c653a20636f6e7472616374206973206e6f74206960448201527f6e697469616c697a696e670000000000000000000000000000000000000000006064820152fd5b60ff60c9541661739757565b60646040517f08c379a000000000000000000000000000000000000000000000000000000000815260206004820152601060248201527f5061757361626c653a20706175736564000000000000000000000000000000006044820152fd5b90601f811161740357505050565b600091825260208220906020601f850160051c8301941061743f575b601f0160051c01915b82811061743457505050565b818155600101617428565b909250829061741f565b601f82602094937fffffffffffffffffffffffffffffffffffffffffffffffffffffffffffffffe0938186528686013760008582860101520116010190565b92906174a1906174af9593604086526040860191617449565b926020818503910152617449565b90565b9060009180835261016060205273ffffffffffffffffffffffffffffffffffffffff80604085205416928315617543571691821461753b57825261016c602052604082207f07de1521e48b4f2f0365be9a0d4de6fa5e447e80fd45394351efc7b4f7b1bff983526020526040822090825260205260ff6040822054166175355790565b50600190565b505050600190565b602483604051907f65d0698f0000000000000000000000000000000000000000000000000000000082526004820152fd5b9060009180835261016060205273ffffffffffffffffffffffffffffffffffffffff80604085205416928315617543571691821461753b57825261016c602052604082207f7e247a4f4570bc375ebf04878b56710ee753d7568bcdff3a35be4e3a8437c10b83526020526040822090825260205260ff6040822054166175355790565b90600091808352602091610160835273ffffffffffffffffffffffffffffffffffffffff916040928084872054169283156176c557169182146176bb57845261016c83528184207f842cb273472e15033544912f1b872bb299c4ce034ba1ba41d3c3afe997b2813385528352818420818552835260ff82852054166176b25760ff927f68e79a7bf1e0bc45d0a330c573bc367f9cf464fd326078812f301165fbda4ef185526065815282852091855252822054166175355790565b50505050600190565b5050505050600190565b6024838651907f65d0698f0000000000000000000000000000000000000000000000000000000082526004820152fd5b156176fc57565b60646040517f08c379a000000000000000000000000000000000000000000000000000000000815260206004820152601f60248201527f5265656e7472616e637947756172643a207265656e7472616e742063616c6c006044820152fd5b909261678893604051937f23b872dd00000000000000000000000000000000000000000000000000000000602086015273ffffffffffffffffffffffffffffffffffffffff80921660248601521660448401526064830152606482526177bf826166ed565b73ffffffffffffffffffffffffffffffffffffffff16906040516177e2816166b4565b6020928382527f5361666545524332303a206c6f772d6c6576656c2063616c6c206661696c656484830152803b156178ef57906178379160008481959282888195519301915af161783161706f565b9061709f565b805180617845575b50505050565b81849181010312610d8157820151908115918215036103b7575061786b5780808061783f565b608490604051907f08c379a00000000000000000000000000000000000000000000000000000000082526004820152602a60248201527f5361666545524332303a204552433230206f7065726174696f6e20646964206e60448201527f6f742073756363656564000000000000000000000000000000000000000000006064820152fd5b606484604051907f08c379a00000000000000000000000000000000000000000000000000000000082526004820152601d60248201527f416464726573733a2063616c6c20746f206e6f6e2d636f6e74726163740000006044820152fd5b91908203918211610d1f57565b8054821015610d4e5760005260206000209060011b0190600090565b6167889273ffffffffffffffffffffffffffffffffffffffff604051937fa9059cbb0000000000000000000000000000000000000000000000000000000060208601521660248401526044830152604482526177bf82616684565b906040808051926179e18461664c565b600090818552818360209682888201520152858252610163855273ffffffffffffffffffffffffffffffffffffffff838320911690818352855282822054958252610164855282822090825284522054617a3b818561794d565b92825194617a488661664c565b855284015282015290565b9190811015610d4e5760051b810135907fffffffffffffffffffffffffffffffffffffffffffffffffffffffffffffffa181360301821215610d85570190565b15617a9a57565b60646040517f08c379a000000000000000000000000000000000000000000000000000000000815260206004820152601360248201527f4554485f5452414e534645525f4641494c4544000000000000000000000000006044820152fd5b91909160008382019384129112908015821691151617610d1f57565b91617b6d90617b967fa7794ceac0a10658b1e422ed08de8c1033f552e652ef624158777cae0e3567619395617b4886617dc7565b600092868452610169908160205260409586918287208b885260205282872054617af8565b9485928982526020528181208a8252602052205583519384938452806020850152830190616499565b0390a3565b6000808092819061016b54905b818310617c3b575050508215617c35577fffffffffffffffffffffffffffffffffffffffffffffffffffffffffffffffff83147f8000000000000000000000000000000000000000000000000000000000000000831416617c0857500590565b807f4e487b7100000000000000000000000000000000000000000000000000000000602492526011600452fd5b91505090565b90919394617c48856172c9565b90549060031b1c9586855260209661016a885260409081872054938415617d085784617c73916170f9565b98858852610169815282882091885252852054828102927f80000000000000000000000000000000000000000000000000000000000000008114878312166125b0578184051490151715617cdb57617cd491617cce91617af8565b9461722e565b9190617ba8565b6024857f4e487b710000000000000000000000000000000000000000000000000000000081526011600452fd5b9850505094617cd4915061722e565b67ffffffffffffffff811161193b5760051b60200190565b8051821015610d4e5760209160051b010190565b6040519061017582815491828252602092838301916000527f94b016e6b5eafb28c9d47c3523378ec087cc0ead8b7eff2840605504c1f1ac6f936000905b828210617d975750505061678892500383616709565b855473ffffffffffffffffffffffffffffffffffffffff1684526001958601958895509381019390910190617d81565b8060005261016060205273ffffffffffffffffffffffffffffffffffffffff6040600020541615617df55750565b602490604051907f65d0698f0000000000000000000000000000000000000000000000000000000082526004820152fdfea264697066735822122089a5a82aee0ea47ace5132277dc49072575684941c632e06d0acecca27d68f6864736f6c63430008140033",
  "linkReferences": {},
  "deployedLinkReferences": {}
}